:020000040000FA
:10000000181800209D010000B7010000A1020000A7
:1000100000000000000000000000000000000000E0
:10002000000000000000000000000000BB01000014
:1000300000000000000000001F020000350E00005C
:10004000DD0D0000DF0D0000E10D0000E30D0000FC
:1000500087060000C3130000CB130000CD1300007F
:100060000D0C00000F0C0000E70D0000E90D000072
:10007000ED0B0000EF0B0000BD130000BF130000EC
:10008000C1130000F50B0000C5130000C7130000EA
:10009000C9130000D90D0000D3130000E50D0000C6
:1000A00083060000DB0D0000CF130000D113000019
:1000B000B50D0000F10B0000890600008506000068
:1000C00000F002F800F03EF80CA030C80838241800
:1000D0002D18A246671EAB4654465D46AC4201D180
:1000E00000F030F87E460F3E0FCCB6460126334274
:1000F00000D0FB1AA246AB4633431847F831000044
:1001000018320000103A02D378C878C1FAD85207E2
:1001100001D330C830C101D504680C6070470000BD
:100120000023002400250026103A01D378C1FBD813
:10013000520700D330C100D50B6070471FB51FBDFB
:1001400010B510BD00F06CFA1146FFF7F7FF00F094
:1001500093FA00F084FA03B4FFF7F2FF03BC01F056
:1001600019FA000070B505460C46164602E00FCCA1
:100170000FC5103E102EFAD2082E02D303CC03C5B1
:10018000083E042E07D301CC01C5361F03E02178B9
:100190002970641C6D1C761EF9D270BD0C480D4A86
:1001A000002100A1814200D902440B4802600B48A3
:1001B00080470B480047FEE7FEE7FEE7FEE7FEE765
:1001C000FEE7000007480849084A094B704700004D
:1001D000000000200000000008ED00E07D1300009A
:1001E000C100000018140020181800201816002064
:1001F00018160020EFF3108072B6704780F3108855
:1002000070472A4A1368012B03D001231360284A40
:100210001060284A11602848284901607047EFF3B0
:10022000108272B62148016800291DD000210160AA
:100230001F48016800290AD0EFF3098120390068BE
:100240000160F0C144464D4656465F46F0C119492B
:1002500009680968F0C9F0B4F0C9A046A946B246D9
:10026000BB46F0BC81F3098882F310880420404229
:100270000047104908600E49002008600B49012022
:1002800008600F480F490268114301600A480B4992
:1002900001600D480068006880F3088862B6704706
:1002A000EFF3098000B501F085FC00BD9800002047
:1002B000900000209400002004ED00E000000010F9
:1002C00020ED00E00000FFFF08ED00E07047002295
:1002D00003098B422CD3030A8B4211D300239C4683
:1002E0004EE003460B433CD4002243088B4231D3FB
:1002F00003098B421CD3030A8B4201D394463FE08F
:10030000C3098B4201D3CB01C01A524183098B42EE
:1003100001D38B01C01A524143098B4201D34B01D7
:10032000C01A524103098B4201D30B01C01A52413A
:10033000C3088B4201D3CB00C01A524183088B42C1
:1003400001D38B00C01A524143088B4201D34B00AA
:10035000C01A5241411A00D201465241104670471C
:100360005DE0CA0F00D04942031000D34042534021
:1003700000229C4603098B422DD3030A8B4212D3E1
:10038000FC22890112BA030A8B420CD38901921113
:100390008B4208D3890192118B4204D389013AD050
:1003A000921100E08909C3098B4201D3CB01C01A25
:1003B000524183098B4201D38B01C01A5241430938
:1003C0008B4201D34B01C01A524103098B4201D326
:1003D0000B01C01A5241C3088B4201D3CB00C01A93
:1003E000524183088B4201D38B00C01A5241D9D2AB
:1003F00043088B4201D34B00C01A5241411A00D22C
:100400000146634652415B10104601D34042002B27
:1004100000D54942704763465B1000D3404201B5A6
:100420000020C046C04602BD7047704770470000BC
:10043000F0B5FF252D04C609C209FF2704462E404A
:100440000137CB093E4348402A402B400746002A4B
:100450006BD0002B69D0AA4267D0AB4265D0002890
:1004600000DA32460125ED0529432C43090220021A
:10047000090AD21A4B0C7F24E31A434C000A7C442D
:10048000E35C7D242404121914145B00A218884232
:1004900001D3521C00E0400049420C465C43241149
:1004A0005C43DB016415E318040A5C43C502200DBC
:1004B0000C4644436419250A5D432303EC0C0D46A6
:1004C000654300030019EB184C42A34201D35B18AB
:1004D000401CD4052018002B07D05B00C91804D39A
:1004E000401C002901D1400840003F2189048A4274
:1004F00009D3002A08DC1106090F04D0032149079B
:100500004018C00FC007F0BD012241001206891833
:100510007F2252069142F6D205214907C84201D5F1
:100520009010F0BDFF20C005F0BD002F00DA32466C
:100530001648AA4207D2AB4205D21902090E17D0BB
:10054000F80FC007F0BDFF2563002D06AB42F9D8B8
:100550004900A942F6D8AB4201D1A942F2D0A94242
:1005600001D1002101E061004908D0050843F0BD38
:100570001102090EFBD0FF200243D005F0BD0A4650
:100580000146104654E70000202E00000000C07F06
:100590000102C21504D00123DB071943002A0ADB3C
:1005A0009E239A1A02D40846D0407047FF22410089
:1005B0001206914201D900207047C017C04370470E
:1005C0001F22030C02D10F2200041CD0030E01D104
:1005D0000002083A030F01D10001121F830F01D15D
:1005E0008000921E002801DB4000521ED2055118E7
:1005F000021251181922904004D3491C002801D13D
:100600004908490008467047C10FC90700D0404259
:10061000012292071143D3E701218907D0E77047F0
:10062000754600F025F8AE46050069465346C008F9
:10063000C000854618B020B5FFF7C4FD60BC002798
:100640004908B6460026C0C5C0C5C0C5C0C5C0C59E
:10065000C0C5C0C5C0C5403D49008D46704710B5F6
:100660000446C046C0462046FFF775FD10BD000099
:1006700000487047B413002010B502F099FC002028
:1006800010BD7047704770477047000010B50146B5
:100690000020084A084BDA62084ADA621A46126AEF
:1006A0000C239A438B000C2423401A43024B1A62FA
:1006B00010BD00005A5A000000000240A5A500002D
:1006C0001CB501211C2000F0ADFD01216846017020
:1006D000417000218170C1700171012141716A4630
:1006E0000021084600F030FA6A460121002000F09F
:1006F0002BFA6A460221002000F026FA6A460321FE
:10070000002000F021FA6A460421002000F01CFAC3
:100710006A460521002000F017FA6A4606210020EB
:1007200000F012FA6A460721002000F00DFA6A462E
:100730000821002000F008FA6A460921002000F094
:1007400003FA6A460A21002000F0FEF96A460B21EE
:10075000002000F0F9F96A460C21002000F0F4F9BD
:100760006A460D21002000F0EFF96A460E210020B4
:1007700000F0EAF96A460F21002000F0E5F90021B7
:10078000084600F0D3F90121002000F0CFF9022142
:10079000002000F0CBF90321002000F0C7F904216C
:1007A000002000F0C3F90521002000F0BFF9062168
:1007B000002000F0BBF90721002000F0B7F9082164
:1007C000002000F0B3F90921002000F0AFF90A2160
:1007D000002000F0ABF90B21002000F0A7F90C215C
:1007E000002000F0A3F90D21002000F09FF90E2158
:1007F000002000F09BF90F21002000F097F96A46D5
:100800000021402000F0A0F96A460121402000F0BC
:100810009BF96A460221402000F096F96A460321BE
:10082000402000F091F96A460421402000F08CF944
:100830006A460621402000F087F96A4607214020D9
:1008400000F082F96A460821402000F07DF96A46EE
:100850000921402000F078F96A460A21402000F082
:1008600073F96A460B21402000F06EF96A460C21AC
:10087000402000F069F96A460D21402000F064F93B
:100880006A460E21402000F05FF96A460F214020A1
:1008900000F05AF90021402000F048F901214020E1
:1008A00000F044F90221402000F040F903214020EB
:1008B00000F03CF90421402000F038F905214020E7
:1008C00000F034F90621402000F030F907214020E3
:1008D00000F02CF90821402000F028F909214020DF
:1008E00000F024F90A21402000F020F90B214020DB
:1008F00000F01CF90C21402000F018F90D214020D7
:1009000000F014F90E21402000F010F90F214020D2
:1009100000F00CF96A460021802000F015F96A46C3
:100920000121802000F010F96A460221802000F0A9
:100930000BF96A460321802000F006F96A4604217B
:10094000802000F001F96A460521802000F0FCF8C3
:100950006A460621802000F0F7F86A4607218020C9
:1009600000F0F2F86A460821802000F0EDF86A46AF
:100970000921802000F0E8F86A460A21802000F072
:10098000E3F86A460B21802000F0DEF86A460C216D
:10099000802000F0D9F86A460D21802000F0D4F8BC
:1009A0000021802000F0C2F80121802000F0BEF874
:1009B0000221802000F0BAF80321802000F0B6F870
:1009C0000421802000F0B2F80521802000F0AEF86C
:1009D0000621802000F0AAF80721802000F0A6F868
:1009E0000821802000F0A2F80921802000F09EF864
:1009F0000A21802000F09AF80B21802000F096F860
:100A00000C21802000F092F80D21802000F08EF85B
:100A10006A460021C02000F097F86A460121C020F4
:100A200000F092F86A460221C02000F08DF86A4674
:100A30000321C02000F088F86A460621C02000F09B
:100A400083F86A460721C02000F07EF86A46082134
:100A5000C02000F079F86A460921C02000F074F83F
:100A60006A460A21C02000F06FF86A460B21C020B8
:100A700000F06AF86A460C21C02000F065F86A466A
:100A80000D21C02000F060F86A460E21C02000F061
:100A90005BF86A460F21C02000F056F80021C02004
:100AA00000F044F80121C02000F040F80221C020ED
:100AB00000F03CF80321C02000F038F80421C020E9
:100AC00000F034F80521C02000F030F80621C020E5
:100AD00000F02CF80721C02000F028F80821C020E1
:100AE00000F024F80921C02000F020F80A21C020DD
:100AF00000F01CF80B21C02000F018F80C21C020D9
:100B000000F014F80D21C02000F010F80E21C020D4
:100B100000F00CF80F21C02000F008F81CBD0246C0
:100B20001068C840C007C00F7047000070B5044689
:100B30000D46044960180122294600F056F90020AC
:100B400070BD0000140D024070B504460E461546F7
:100B50001E4960180022314600F047F900201C4968
:100B60006118B20088502A7818490C39601831464B
:100B700000F03BF96A78154910316018314600F0F1
:100B800034F9AA78114914316018314600F02DF972
:100B9000EA780E4918316018314600F026F92A79B2
:100BA0000A4920316018314600F01FF90948806871
:100BB0000121C90388436979C9030122D203114085
:100BC000084304498860002070BD00000C0D0240FD
:100BD000000C0240000F024010B5034602481818EE
:100BE0008C000251002010BD000C0240704770477D
:100BF0007047000010B5044800F0E6F8012802D163
:100C0000014800F0D8F810BD000F00407047704751
:100C100070B504460D46002229462046143000F0E7
:100C2000E4F8002070BD70B504460D460122294647
:100C3000201D00F0DAF8002070BD70B504460D46A6
:100C40000026294620461030FFF769FF0646304649
:100C500070BD0000F0B587B005460C460127224A5A
:100C600007CA04AB07C300200390002C02D1042064
:100C700007B0F0BD00206860608861780843E188B3
:100C80000843A188084321780843686020784028F9
:100C900002D02078C02824D1E088C117C90D0918D6
:100CA0004912890004AA515A8EB2E168B14008463F
:100CB000FFF7B2FC0290A068FFF7AEFC019002992A
:100CC000FFF7B6FB03903F210906039802F098F95D
:100CD0000290FFF75DFC80B2A86104212846FFF76F
:100CE000A2FF00273846C3E75C31000070B5044618
:100CF0000D4600BF03212046FFF79FFF0028F9D0D3
:100D00002068000A0002E9B20843206000BF012108
:100D10002046FFF792FF0028F9D001212046FFF777
:100D200077FF002070BD000000B587B0102103A838
:100D300000F041FC062101A800F03DFC0121032048
:100D400000F070FA01211C2000F06CFA00216846C6
:100D5000017101AA0846FFF7F7FE022200210846AA
:100D6000FFF73AFF01216846017101AA0020FFF751
:100D7000EBFE022201210020FFF72EFF0021684632
:100D8000C181042141730021018200F001FA059024
:100D90000121890203A8C180E12149020691402175
:100DA0006846017303A90248FFF754FF07B000BD6E
:100DB00000400040704710B504460022114620460E
:100DC000143000F012F810BD10B504460021204682
:100DD0001030FFF7A4FE10BD704770477047704792
:100DE0007047704770477047704710B5012A05D1AA
:100DF000036801248C402343036004E0036801245A
:100E00008C40A343036010BD08B50020FFF73EFCF3
:100E1000002000F013FA062000F036FA00216846A0
:100E200001704170817000F00DF80121032000F085
:100E30003FF808BD10B500F055FF01F095FD00F03A
:100E400061FF10BD70B5044600252078030000F056
:100E5000F5FA0504050C10181C0018E0032000F03A
:100E60005DFA032000F024FA11E0032000F0FAF903
:100E70000DE00321084600F05FFA032000F028FA95
:100E800005E0072000F0BCF901E0042500BF00BF29
:100E90002078012100F00CF8207800F029FA607821
:100EA00000F086F9A07800F097F9284670BD0000A0
:100EB000F8B505460C46002700F0B4FA002C01D026
:100EC000012000E0002004465148066A2B0000F093
:100ED000B5FA050417394D7298004D48006840086E
:100EE0004000E107C90F08434949086000BF002CD2
:100EF00005D04748C0680005C00F0028F7D082E041
:100F00004348006A012109078843401840490862A4
:100F10004048C068032108433E49C8603C48006817
:100F200002218843610002221140084338490860C9
:100F300000BF002C05D0364800694006C00F0028CD
:100F4000F7D060E03248006804218843A100042201
:100F5000114008432E49086000BF002C05D02C48E2
:100F60004069C004C00F0028F7D04CE02848006A50
:100F7000012109078843401825490862254840385F
:100F8000C06803218903084322494039C8602048CA
:100F9000006808218843E1000822114008431C49E9
:100FA000086000BF002C05D0194880694006C00FBA
:100FB0000028F7D027E01648006A01210904884379
:100FC0004018134908621448006840084000401C5B
:100FD00011490860142000F0FFFA0D480068102144
:100FE000884321011022114008430949086000BFCD
:100FF000002C05D00648C06B4003C00F0028F7D076
:1010000001E0042700BF00BF014806623846F8BD72
:1010100000200040C00D02400024004030B589B0DF
:1010200000241422564904A8FFF79CF854481430B1
:1010300000680390002000900190029051480188C0
:10104000684601814F4841886846C1804D48818883
:10105000684681804B48C1886846418049482030B5
:10106000018868460180484800680006450F2B004B
:1010700000F0E4F905042E303E4178004248C06893
:101080004005400D69460989884201D1089C1EE04F
:101090003D48C0684005400D6946C988884201D175
:1010A000079C14E03848C0684005400D69468988AF
:1010B000884201D1069C0AE03348C0684005400DD3
:1010C00069464988884201D1059C00E0049C4BE0B8
:1010D0002E4C49E0684600882B4949698905890DED
:1010E000884202D16846C48901E0684684893BE0B1
:1010F0000124E40338E02448C06B8007800F0328F4
:1011000029D1684600892049C9684905490D8842A6
:1011100001D1089C20E06846C0881B49C968490580
:10112000490D884201D1079C16E06846808816491F
:10113000C9684905490D884201D1069C0CE0684602
:1011400040881149C9684905490D884201D1059C6B
:1011500002E0049C00E00D4C0B48C06BC005000F82
:10116000444301E0002400BF00BF07480068400579
:10117000410F2046C8400446204609B030BD00005B
:1011800068310000000C1000002000400048E80119
:1011900010B50024FFF742FF044604480068C0046D
:1011A000810F2046C8400446204610BD0020004064
:1011B00010B5044600F036F9064800680721090218
:1011C00088432102072212021140084301490860A6
:1011D000002010BD0020004010B5044600F022F9A8
:1011E000064800680321C9028843E1020322D202B3
:1011F0001140084301490860002010BD0020004054
:1012000010B501460020064AD26B0723DB039A4340
:10121000CB030724E40323401A43014BDA6310BDD8
:101220000020004070B504460D462A46214602487B
:10123000FFF7DBFD002070BD2020004001464A0082
:10124000064BD21812885005400D054AD268D20AC2
:10125000D2020243024BDA6000207047000C1000FB
:101260000020004010B501460020064A52690323C1
:101270009B029A438B020324A40223401A43014B8E
:101280005A6110BD0020004010B5044600F0CAF8B5
:10129000064840680721490288436102072252023A
:1012A0001140084301494860002010BD0020004063
:1012B00010B501460020054A126930239A430B01FC
:1012C000302423401A43014B1A6110BD0020004016
:1012D00010B501460020054A926930239A430B015C
:1012E000302423401A43014B9A6110BD0020004076
:1012F00070B504460025264600F094F806480068BC
:10130000E02188437101E02211400843024908604E
:1013100000F02CF8284670BD002000400146002057
:10132000044A1269920892008B079B0F1A43014BE3
:101330001A6170470020004030B5024600200A4B79
:101340009B690C24A34394000C252C402343064C9A
:10135000A36123469B699B089B008C07A40F234332
:10136000014CA36130BD00000020004010B5FFF724
:1013700055FE0149086010BD0800002010B50D4958
:1013800049888805800D0C494969890A8902014309
:10139000094A51610749203909894805400D11461C
:1013A000C968C90AC9020143D160FFF7DFFF00F035
:1013B00011F810BD200C100000200040704770474D
:1013C0007047704770477047704770477047704765
:1013D000704770470549086A096A0122120791435C
:1013E0008918024A116211460862704700200040C5
:1013F0000146481E084A904201D901207047481E04
:10140000064A5061FF20064AD0700020034A9061CE
:10141000072010610020F1E7FFFFFF0000E000E07F
:1014200020ED00E002480349886003488860704767
:101430005A5A000000200040A5A5000030B47446B0
:10144000641E2578641CAB4204D3635D5B00E31823
:1014500030BC18471D46F8E70146002900D1704707
:10146000C8B2002804D0C8B2114A105C401CF6E78C
:10147000FF2000020840002807D0FF20000208409B
:1014800000120B4A105C0930E9E7FF200004084015
:10149000002807D0FF20000408400014044A105C14
:1014A0001130DCE7080E024A105C1930D7E7000063
:1014B00080310000FEB5044615461E460A9F2046B0
:1014C00014304060006000BF256266620898A06228
:1014D0000998E0622321E26AA06A00F087FDE16AD0
:1014E000A06A4018021F606A0190206A114B0090A8
:1014F000019900F0D7FBE0613620075535200755EC
:101500000020A0630B98E0630B9820640020206308
:101510000021342001550020206760670090234699
:10152000054A214601902046443001F0D1FA0020BE
:10153000FEBD00005926000099280000FFB581B0CB
:1015400004460E4617460A986072607A40084000CA
:101550006072E66127620020A06204986062002544
:1015600006E0EA0021461431501800F03FFC6D1CE3
:10157000012DF6DB05B0F0BD70B50546002406E090
:10158000E20029461431501800F071FC641C012C53
:10159000F6DB70BD00BF704770B50446FEF72AFE4B
:1015A0000546206F002802D02046216F8847284634
:1015B000FEF724FE70BD10B50A460146002900D191
:1015C00010BD02E000230B70491C1346521E002B75
:1015D000F8D100BFF4E7000070B505461148124984
:1015E000486100208861052008610FE000200E4955
:1015F00088610E490E480068FEF769FE0121090660
:101600000C1A00BF08488069A042FBD828466D1E0E
:101610000028EBD1044800694008400002490861F5
:1016200070BD0000FFFFFF0000E000E0A0860100A9
:101630000800002005E003A000F0B8FB084801F016
:10164000A1F8F8E7746872656164332E2E2E2E2E91
:101650002E2E2E2E2E2E2E2E2E2E2E2E0D0A00004B
:101660001027000005E003A000F0A0FB084801F0EF
:1016700089F8F8E7746872656164322E2E2E2E2E7A
:101680002E2E2E2E2E2E2E2E2E2E2E2E0D0A00001B
:10169000881300001CB505200E21FF230133002212
:1016A00000910190114912A000F0ADFF11490860AE
:1016B0000846006801F0B6F805200F21FF2301332A
:1016C0000022009101900C490CA000F09CFF0D49F4
:1016D00008600846006801F0A5F806E00AA000F0DE
:1016E00065FB7D20C00001F04DF8F7E765160000AE
:1016F0006B65790000000020351600006B657931BC
:1017000000000000040000206D61696E5F74687263
:101710006561642E2E2E2E2E2E2E2E2E2E2E2E2E49
:101720002E2E2E2E0D0A000010B5044600F032F9C0
:10173000FFF7B0FF10BD000030B51B4C43682468B4
:101740001919884216D04B88002B13D1174B1B68F0
:1017500099420FD0164B1B688B4201D1144B186075
:101760004B684360104B1B68C31A0F4D4C682D68C3
:101770006419A3600C4C836824681A19824212D041
:101780005388002B0FD10A4B1B68834201D1084BB1
:101790001A6043685360044B1B68D41A024D4368B7
:1017A0002D685B199C6030BD1400002018000020DB
:1017B0001C000020FFB58BB004461546169E1598F8
:1017C00004901498029040203040002801D05C48DA
:1017D00000E05C48039010203040002801D07608DB
:1017E0007600F007C00F002801D0302000E0202054
:1017F0000A900020099002203040002812D0002DCD
:1018000003DA2D2009906D420CE0042030400028BE
:1018100002D02B20099005E008203040002801D09C
:10182000202009900027002D05D1302238467F1C4A
:1018300005A90A541DE01AE00E98019001980A28A3
:101840000AD128460A21FEF742FD009128460A21C6
:10185000FEF73DFD054603E02807000F00902D0927
:10186000009803990A5C38467F1C05A90A54002D8C
:10187000E2D11598874200DD159715990298401A14
:10188000029011203040002814D10998002805D07A
:101890000298002802DD0298401E029005E00C9894
:1018A000844201D220202070641C0298411E0291C3
:1018B0000028F4DC0998002808D00C98844201D252
:1018C000099820700298401E0290641C102030403D
:1018D00000280BD105E00C98844201D20A982070B0
:1018E000641C0298411E02910028F4DC05E00C986B
:1018F000844201D230202070641C1598411E15913D
:10190000B842F4DC06E00C98844202D205A8C05D1F
:101910002070641C38467F1E002802DD04980028D1
:10192000F1D105E00C98844201D220202070641C83
:101930000298411E02910028F4DC20460FB0F0BD51
:1019400091320000803200001CB514200A21FF23D0
:101950000133002200910190044905A000F053FEDC
:101960000446204600F05EFF1CBD00002917000061
:101970006D61696E0000000010B5044C02E0206843
:101980008047241D02488442F9D310BDE83200008C
:10199000EC32000010B5044C02E020688047241DA2
:1019A00002488442F9D310BDEC320000F03200004E
:1019B00010B5FEF71FFC044604480088401C00B226
:1019C000024908802046FEF719FC10BD7000002077
:1019D00010B5FEF70FFC04460D480088401E00B20B
:1019E0000B49088008460021415E00290CDC0020DC
:1019F000074908802046FEF701FC064800680028D9
:101A000005D000F0A9FB02E02046FEF7F7FB10BD71
:101A1000700000207400002070B50546002D00D134
:101A200070BD1F480068854203D31E480068854288
:101A300000D3F5E72C460C3C0021C9431A4800F0BE
:101A400061FC6088002804D02088F5214901884283
:101A500008D016A000F0AAF92388628821461AA0AF
:101A600000F0A4F900206080F52040012080224889
:101A70000068844201D2204804600949606809680E
:101A8000611A401A1D490968081A1C490860204655
:101A9000FFF752FE044800F009FC00BFC0E7000059
:101AA000140000201800002094020020746F2066AB
:101AB00072656520612062616420646174612062E6
:101AC0006C6F636B3A0A00006D656D3A20307825C3
:101AD0003038782C207573656420666C61673A2015
:101AE00025642C206D6167696320636F64653A200B
:101AF0003078253034780A001C00002024000020B3
:101B000000487047B403002000487047B413002019
:101B100070B5FFF779F9FFF729FC7D21C9000D4861
:101B20000068FEF7D4FB0446FFF762FCFEF7C8FD31
:101B3000FFF7FAF808A000F039F9FFF71DFFFFF7EB
:101B4000E3FF0446FFF7DCFF0546214600F094FC66
:101B500070BD00000800002053797374656D205338
:101B6000746172742E2E2E2E2E2E2E2E2E2E2E2E92
:101B70002E2E2E2E2E2E0D0A00000000F8B5054642
:101B8000002400260D27284600F050FC064600BF22
:101B90000BE0285D0A2803D139460548FFF7A6F86F
:101BA000295D0348FFF7A2F8641CB442F1D3F8BDE5
:101BB00000400040044613A0E16900F0F7F815A0CA
:101BC000A16900F0F3F817A0616900F0EFF819A01F
:101BD000216900F0EBF81BA0E16800F0E7F81DA018
:101BE000A16800F0E3F81FA0616800F0DFF821A011
:101BF000216800F0DBF82348016823A000F0D6F844
:101C000000BFFEE77073723A203078253038780ACA
:101C1000000000002070633A203078253038780AC0
:101C200000000000206C723A203078253038780AA5
:101C3000000000007231323A203078253038780ABE
:101C4000000000007230333A203078253038780AAE
:101C5000000000007230323A203078253038780A9F
:101C6000000000007230313A203078253038780A90
:101C7000000000007230303A203078253038780A81
:101C800000000000740000206861726420666175C5
:101C90006C74206F6E207468726561643A202573DD
:101CA0000A000000FFB50C46101DC008C0004038F7
:101CB0000146002503E00A4EAF00CE516D1C102DE9
:101CC000F9D30C6200264E628E62CE620E634B63C5
:101CD000009E8E6301263606CE6304B0F0BD000080
:101CE000EFBEADDE10B5FEF785FA04460448007875
:101CF000401C034908702046FEF780FA10BD000022
:101D00001000002010B5FEF775FA0446044800786C
:101D1000401E034908702046FEF770FA10BD00000F
:101D20001000002070B5044620680546143D284682
:101D300000F032FD002070BDF7B505460C46204688
:101D400000F088FD0298002802D0012822D105E089
:101D500021461431284600F061F81CE02E680EE0A0
:101D60003746143F3520015DC05D814206DA2146C9
:101D700014313846143000F051F802E03668AE42B3
:101D8000EED100BFAE4204D121461431284600F006
:101D900045F800E000BF00BF0020FEBD10B50446BE
:101DA0002046143000F01CF8002010BD0FB438B5E8
:101DB00005A800907F210948009B049A00F032FF9B
:101DC00004467F2C00D97F240448FFF7D7FE00206B
:101DD000009038BC08BC04B0184700001402002072
:101DE0004060006070474060006070474060006085
:101DF00070470268516002680A600160486070477D
:101E00000268516002680A600160486070470268B9
:101E1000516002680A600160486070474268116062
:101E200042684A604160086070470146086888421D
:101E300001D1012070470020FCE701460868884274
:101E400001D1012070470020FCE702684168516021
:101E50004268016811604060006070470268416834
:101E6000516042680168116040600060704702681C
:101E700041685160426801681160406000607047CD
:101E8000F8B50546002D00D1F8BDE81C8508AD0069
:101E90004F480068854201D90020F5E70C2D00D29B
:101EA0000C250021C9434B4800F02CFA4A48006831
:101EB0004A490968461A7FE04848006884196088E2
:101EC000002875D130460C306168081AA8426FD3DB
:101ED00030460C306168091A28461830814230D3E8
:101EE00030460C30401900903C48016800980F18AB
:101EF000F520400138800020788060687860BE60FE
:101F000000986060012060803148796800680C307A
:101F1000814205D00098314A796812688918886032
:101F20002F48016828460C3008182D4908602D48B4
:101F300000680968884219D2294800682949086060
:101F400014E001206080254960680968611A401A20
:101F50002349096840182249086022480068096836
:101F6000884203D21E4800681E490860F5204001DF
:101F7000208019480068844213D107E016480068A1
:101F800040681649096840181349086012480068FB
:101F90004088002805D01048006813490968884225
:101FA000ECD10C4800F082F920460C306CE7FFE7DA
:101FB0000A4800688019466805480068401BB0421E
:101FC00000D979E7034800F071F900205CE70000D0
:101FD00020000020940200201C000020140000209B
:101FE000240000202800002018000020F7B5054636
:101FF000019EF4B2042A17D38607B60F002E13D120
:1020000001462602264333461E04334304E008C13A
:1020100008C108C108C1103A102AF8D201E008C16D
:10202000121F042AFBD20D4601E02C706D1C1646CF
:10203000521E002EF9D1FEBDF8B506460F463046B9
:1020400000F044F80546E868FFF71AFF0446002C44
:1020500000D1F8BD00212046EA68FFF7C7FF2672CD
:102060000020607208223946204600F0E8F9FEF7A9
:10207000C1F8009021460C31281DFFF7BAFE0098E8
:10208000FEF7BCF82046E4E770B504460020207255
:10209000FEF7B0F8054620460C30FFF7D6FE28467E
:1020A000FEF7ACF82046FFF7B7FC70BD70B50446EC
:1020B00000202072FEF79EF8054620460C30FFF700
:1020C000C4FE2846FEF79AF870BD000002460021C3
:1020D00008E00801054B185C904202D10801C018C5
:1020E0007047491C0429F4DB0020F9E72C0000208C
:1020F000F7B582B004460D4600262846FFF7E6FFF6
:102100000746FFF755FC7E6802E030460C3836681B
:10211000381D8642F9D1FFF75BFC802028432072EE
:1021200008222046049900F08AF9FEF763F801902E
:1021300021460C31381DFFF75CFE0198FEF75EF872
:1021400005B0F0BD0146087A80221040002801D079
:10215000012070470020FCE7F8B5FEF74BF8074672
:1021600018480088002827D117480068FFF774F93D
:10217000461EF000154908580446143C14480068EF
:10218000844218D013490E70114805680460124843
:102190000078002809D121461C3128461C30FEF762
:1021A00030F83846FEF72AF8F8BD21461C3128469B
:1021B0001C30FEF726F800BF3846FEF71FF800BFB8
:1021C000F2E70000700000206C000020B402002044
:1021D00074000020780000201000002070B5044634
:1021E000FEF708F805463420005D000900010121D2
:1021F0000843342108553522125DD2000A4BD0180D
:10220000214614314268116042684A6041600860AA
:1022100000BF0649A06B09680843044908602846C6
:10222000FDF7ECFF70BD0000B40200206C00002040
:1022300070B50446FDF7DEFF0546204614300268FF
:10224000416851604268016811604060006000BFF1
:102250003521095DC9000A4A88180168814201D107
:10226000012100E00021002905D00648A16B00688B
:102270008843044908602846FDF7C0FF70BD000090
:10228000B40200206C000020F8B504460D46164646
:102290001F462A4602212046FFF72AFF2046FFF765
:1022A0007DFDA68367720020F8BD000070B504466E
:1022B0000025FDF79FFF064620461430FFF7B5FDC9
:1022C000002805D120461430FFF72CFD01250DE034
:1022D000A08B0B49884203DAA08B401CA08305E049
:1022E0003046FDF78BFF0220C04370BD3046FDF73E
:1022F00085FF012D01D1FFF72FFF0020F5E700003A
:10230000FFFF000073B50546FDF774FF0646A88B76
:10231000002806DDA88B401EA8833046FDF76EFF1F
:102320002AE00198002805D13046FDF767FF01201B
:10233000C0437CBD00F04EFA0446002020636A7A58
:10234000214628461430FFF7F7FC0198002809DDE4
:1023500001AA00212046443000F076FB204644309C
:1023600000F0CAFB3046FDF749FFFFF7F5FE206B92
:10237000002801D0206BDCE70020DAE708B509A0CF
:10238000FFF714FD0AA0FFF711FD12A0052301229B
:102390000321009012A0FFF709FD19A0FFF706FD29
:1023A00008BD00000A205C207C202F0A00000000ED
:1023B0002D205254202D2020202020546872656149
:1023C00064204F7065726174696E6720537973740D
:1023D000656D0A004175672031322032303231009C
:1023E000202F207C205C202020202025642E2564A6
:1023F0002E2564206275696C642025730A00000034
:102400002032303036202D203230323020436F7071
:102410007972696768742062792072742D746872A9
:10242000656164207465616D0A00000001460A461A
:1024300000E0521C10780028FBD1501A704770B58C
:102440000346002A15D018460C4600BF25780570B3
:10245000641C401C002D07D102E000250570401CC3
:10246000551E2A1EF9D102E0551E2A1EEED100BFCC
:1024700000BF184670BD0000F3B581B00546E81CEA
:102480008608B60002988708BF00182F08D938467A
:102490001838B04204D3B81B18381E49086005E04C
:1024A00029461DA0029AFFF781FCFEBD294806605F
:1024B0000468F52040012080164800680C306060F8
:1024C0000020A060608023496068096840182249A4
:1024D0000860F52040010968088001201E4909684C
:1024E00048800C4800680C301B490968486009485E
:1024F00000680C301849096888600023012217A180
:102500001848FFF7C1FE134800681749086000BF6C
:10251000CBE70000200000206D656D20696E6974B6
:102520002C206572726F7220626567696E2061642B
:10253000647265737320307825782C20616E642076
:10254000656E6420616464726573732030782578E9
:102550000A00000014000020180000206865617067
:1025600000000000940200201C00002010B5002094
:102570000B490880002405E0E1000A4A8818FFF7AB
:1025800032FC641C202CF7DB1F2007490870002058
:1025900006490860064908600648FFF724FC10BD9C
:1025A00070000020B4020020780000207400002099
:1025B0006C0000207C00002070B508480068FEF721
:1025C0004BFF451EE800064908580446143C0548E0
:1025D000046020461C30FDF74CFE70BD6C000020EE
:1025E000B40200207400002010B5002405E0E100D2
:1025F000034A8818FFF7FAFB641C002CF7D010BDC3
:10260000840000207047FFB585B006460F461D4682
:1026100031460120FFF710FD04900498002801D1F5
:1026200009B0F0BD2846FFF72BFC0446002C04D16E
:102630000498FFF729FD0020F2E70E990F98019505
:102640000094029103903A463146079B0498FEF7A6
:1026500031FF0498E4E7000070B513480468FDF703
:10266000C9FD05462046FEF797FF2046FFF7E0FD2F
:102670000421342001552046443000F015FA20464C
:10268000FFF760FD012803D12046FFF70FFD04E0AE
:10269000214614310548FFF7B3FBFFF75DFD2846DF
:1026A000FDF7ACFD70BD0000740000207C00002030
:1026B00001E000F001F8FCE770B529E0FDF79AFDB4
:1026C000054600BF14480168814201D0012100E0A5
:1026D0000021002903D12846FDF790FD19E00E489E
:1026E00000680446143C204614300268416851607A
:1026F0004268016811604060006000BFA06AFFF797
:102700008BF92046FFF7C0FC2846FDF777FD00BF98
:10271000D4E700BF70BD00007C0000201FB5202062
:102720001F21C200074B00930192029103900023E6
:10273000054A06A1074800F00FF8064800F072F8B5
:102740001FBD000014010020B12600007469646CF4
:10275000650000009C000020FFB585B00C460EAD62
:10276000E0CD224601210598FFF7C2FC1198694689
:10277000E0C103902146089B079A0598FEF79AFE50
:1027800009B0F0BD70B50446204600F0C7F8054614
:10279000284600F025F870BD70B504463420005D71
:1027A0000007000F022802D00020C04370BDFDF7D3
:1027B00021FD054620461430FFF750FB20464430EB
:1027C00000F018FA2846FDF719FD2046FFF706FD30
:1027D0000020EBE70148006870470000740000200B
:1027E00031B5FDF707FD05460D480468204600F0A9
:1027F00031F86A4600212046443000F025F9204691
:10280000443000F079F92846FDF7F8FCFFF7A4FC06
:10281000206B801C002800D12063002038BD000000
:102820007400002010B504463620015D35200155A6
:10283000015D01208840A06302213420015520461B
:10284000FFF7AAFFFFF7C6FF002801D0FFF784FCBF
:10285000002010BD70B504463420005D0007000F55
:10286000012802D00020C04370BDFDF7C3FC05461F
:102870002046FFF7DDFC3420005D00090001022145
:102880000843342108552046443000F0B3F9284667
:10289000FDF7B4FC0020E7E770B5044625460120AB
:1028A000C043286328461430FFF7D8FA2846FFF7BC
:1028B00095FCFFF751FC70BD70B5FDF79BFC05461C
:1028C000144804683420005D0007000F01281CD163
:1028D0006169A069814218D020461430FFF7BEFA22
:1028E0003522125DD2000C4BD018214614314268BB
:1028F000116042684A604160086000BF2846FDF7E9
:102900007DFCFFF729FC002070BD2846FDF776FC12
:102910000020F9E774000020B402002070B50546DD
:10292000002D02DA0024E44315E07D21C900284689
:10293000FDF7D7FC7D21C900484304462846FDF732
:10294000D0FC7D20C0004143401E0E18411C304683
:10295000FDF7C7FC0419204670BD0000014800685F
:10296000704700000C00002010B50A480068401CA9
:1029700008490860FFF72EFF0446206C401E2064C3
:10298000206C002803D1E06B2064FFF795FF00F076
:1029900003F810BD0C0000207CB56846FFF726FA4E
:1029A000FFF7DCFF0546FDF725FC06463DE0244821
:1029B00000680446143CA06A281A2249884232D290
:1029C0002046FEF7D9FD607A02210840002803D195
:1029D000607A400840006072214614316846FFF773
:1029E00016FAE169206A8847FFF7B8FF054668468E
:1029F000FFF723FA002800D017E020461430FFF735
:102A000036FA607A0221084000280DD0607AC007AB
:102A1000C00F002808D0607A40084000607220464D
:102A200000F06AF800E005E000BF0548FFF705FA8E
:102A30000028BCD000BF3046FDF7E0FB7CBD0000A5
:102A400084000020FFFFFF7FF8B504460E461546C0
:102A5000FDF7D0FB07463300FEF7F0FC0507040A3C
:102A60000F141F00606A286018E02868606215E093
:102A7000607A02218843607210E0607A0221084384
:102A800060720BE0607AC007C00F002802D00120FE
:102A9000286001E00020286000E000BF00BF384649
:102AA000FDF7ACFB0020F8BD70B50446FDF7A2FBB6
:102AB00005462046FEF760FD607A400840006072DF
:102AC0002846FDF79BFB2046FFF7F0FA002070BD7B
:102AD000F8B507460C4615461E4622460A213846DA
:102AE000FFF706FB07980090324629463846069BBA
:102AF000FEF724FDF8BD0000FEB50546FDF77AFBA4
:102B000001902846FEF738FD687A40084000687258
:102B1000FFF724FF696A4018A862334F009700242A
:102B200030E01BE0A2006B469A5811681422E300C3
:102B3000D218881A826AAB6AD21A00D107E0826A78
:102B4000AB6AD21A294B9A4200D20FE000BFA00014
:102B5000694608580068A1006A465050A0006946BE
:102B60000858E100C91949688842DBD100BF002C30
:102B700007D0A000694608580830611C89006A46E1
:102B80005050641C002CCCD019480068401C1849D7
:102B9000086008460668294614310098FFF737F99F
:102BA000022414E0B007800F00280DD10122121B6F
:102BB000D2002B461433D1180122121B92006B460F
:102BC0009858FFF724F900E003E0B608641C012CD4
:102BD000E8D900BF687A0121084368720198FDF7BF
:102BE0000DFB0020FEBD000084000020FFFFFF7FE2
:102BF0008C00002070B50446607AC007C00F002822
:102C000001D1401E70BDFDF7F5FA05462046FEF7DE
:102C1000B3FC607A4008400060722846FDF7EEFA87
:102C20000020EFE7FFB58BB00B9C0B9C0C9826188F
:102C30000B9CA64204D20026F6430B98301A0C9047
:102C400094E10D980078252806D0B44202D20D9860
:102C500000782070641C86E1002526E00D98401C59
:102C60000D900D9800782D2802D1102005431CE00E
:102C70000D9800782B2802D10420054315E00D980B
:102C80000078202802D1082005430EE00D98007836
:102C9000232802D12020054307E00D980078302832
:102CA00002D10120054300E000E0D7E700BF002784
:102CB000FF430D98007830380A2804D20DA800F0A0
:102CC0008CF907460EE00D9800782A280AD10D9855
:102CD000401C0D900E9880C80E90002F02DA7F42A3
:102CE000102005430020C04303900D9800782E2843
:102CF0001ED10D98401C0D900D98007830380A2890
:102D000004D20DA800F069F903900CE00D9800784A
:102D10002A2808D10D98401C0D900E980068039049
:102D20000E98001D0E900398002801DA00200390F1
:102D3000002004900D980078682803D00D98007842
:102D40006C2805D10D98007804900D98401C0D90CA
:102D50000A2005900D9800786F287DD00CDC632840
:102D600013D004DC252878D0582877D1A2E0642835
:102D700075D06928F9D1A4E070287ED0732826D0B8
:102D800075286ED07828F0D197E0102028400028D0
:102D900008D104E0B44201D220202070641C781EC7
:102DA000071EF7DC0E980178001D0E90C8B2079040
:102DB000B44201D207982070641C04E0B44201D2EE
:102DC00020202070641C781E071EF7DCCBE00E98D4
:102DD000006806900E98001D0E900698002801D1FC
:102DE0006DA006900020089002E00898401C089012
:102DF0000898B84204D008990698405C0028F4D19D
:102E00000398002805DD03990898884201DD03989E
:102E100008901020284000280AD104E0B44201D2D2
:102E200020202070641C38467F1E08998842F5DCFB
:102E3000002009900BE0B44202D20698007820707E
:102E4000641C0698401C06900998401C099008993B
:102E500009988842EFDB0AE029E022E035E02FE024
:102E60000BE031E0B44201D220202070641C3846CF
:102E70007F1E08998842F5DC75E0781C002802D195
:102E800008270120054303980097029501900E98AA
:102E900004C8102331460E902046FEF78BFC0446F2
:102EA00061E0B44201D225202070641C5BE0082060
:102EB00005901EE04020054300BF1020059018E05B
:102EC00000BF0220054300BF13E0B44201D2252019
:102ED0002070641C0D980078002806D0B44202D2FD
:102EE0000D9800782070641C02E00D98401E0D9033
:102EF00039E000BF04986C280CD10E9800680A9045
:102F00000E98001D0E900220284000281FD00A981D
:102F10000A901CE0049868280DD10E980188001DC5
:102F20000E9088B20A900220284000280FD00A98FC
:102F300000B20A900BE00E9800680A900E98001DEF
:102F40000E9002202840002801D00A980A90039889
:102F500000970295019031462046059B0A9AFEF79C
:102F600029FC044600BF0D98401C0D900D98007878
:102F7000002800D065E60C98002808D0B44202D2A0
:102F80000020207003E0002130462038C1770B98E4
:102F9000201A0FB0F0BD0000284E554C4C290000FF
:102FA00000207047002070470020704700207047C5
:102FB00010B5FDF71FF9FEF7ABFDFFF7DFF9FFF7DF
:102FC00013FBFFF7D3FAFEF7BFFCFFF71BFBFFF77E
:102FD000A5FBFFF7F1FA002010BD0146002008E034
:102FE0000B685A1C0A601B780A2242439A18104642
:102FF00030380A681278303A0A2AF1D37047000054
:1030000070B501250400ED074C4020D4441A01D2CC
:10301000001B0919C60D4B00F2B2FF2A29D01B0E66
:103020002CD000020C02D31A2C43DC402843051993
:1030300010D2280A02D3401C6D0611D0761EF60568
:103040008019FF2A00DA70BDC00DC00570BD69404F
:1030500000F022F801200543C541521C761CE8E728
:1030600064089C40C90161408900E7D10124A04364
:10307000E4E71B0E440200D0034870BD002AFCD1D7
:10308000C00FC00770BD00BF0000C07F70B5012534
:103090000400ED074C4022D4441A02D26C40001BBD
:1030A0000919C60D4B00F2B2FF2A4BD01B0E50D0AF
:1030B00000020C02D31A2C43DC40A843051B05D5A3
:1030C000AD0019D36D08761E521E37D0F605280ABA
:1030D00001D2801970BD70416D0603D070BD69408A
:1030E000FFF794FF9C4009026140490001D0401E57
:1030F00070BD0124A04370BD6D081DD001202B0CB4
:1031000001D12D0410302B0E01D12D0208302B0FD0
:1031100001D12D01001DAB0F01D1AD00801CEB0FC3
:1031200001D16D00401C6D00361A121A680AF505AF
:103130004019012A02DB70BD002070BDC036300A84
:10314000C00770BD1B0E440201D1FF2B00D1024805
:1031500070BD002AF0D070BD0000C07F04000000E8
:10316000030000000200000000093D0000127A0088
:103170000024F4004086510100366E010080009664
:103180000000010002000100030001000200010034
:103190000400010002000100030001000200010020
:1031A000050001000200010003000100020001000F
:1031B0000400010002000100030001000200010000
:1031C00006000100020001000300010002000100EE
:1031D00004000100020001000300010002000100E0
:1031E00005000100020001000300010002000100CF
:1031F00004000100020001000300010002000100C0
:1032000007000100020001000300010002000100AC
:10321000040001000200010003000100020001009F
:10322000050001000200010003000100020001008E
:10323000040001000200010003000100020001007F
:10324000060001000200010003000100020001006D
:10325000040001000200010003000100020001005F
:10326000050001000200010003000100020001004E
:10327000040001000200010003000100020001003F
:1032800030313233343536373839616263646566DC
:1032900000303132333435363738394142434445D2
:1032A00046008182838485868788898B8C8D8E8F6A
:1032B000919293959697999A9C9D9FA0A2A3A5A75A
:1032C000A8AAACAEB0B2B3B5B7B9BCBEC0C2C5C790
:1032D000C9CCCED1D4D7D9DCDFE2E6E9ECF0F3F704
:1032E000FAFE0000AD2F0000A52F0000A12F000066
:1032F000A92F000014330000000000209C000000F3
:1033000004010000B03300009C0000207C17000086
:1033100020010000000000000000000000366E01E7
:10332000000000000000000000000000000000009D
:10333000000000000000000000000000000000008D
:103340000100000030000020300000207800000064
:10335000020000004000002040000020200000008B
:103360000500000050000020500000203000000048
:103370000A00000060000020600000202C00000017
:10338000000000000000000000000000000000003D
:10339000000000000000000000000000000000002D
:1033A000000000000000000000000000000000001D
:04000005000000C136
:00000001FF
