:020000040000FA
:10000000501800209D010000B7010000A10200006F
:1000100000000000000000000000000000000000E0
:10002000000000000000000000000000BB01000014
:1000300000000000000000001F020000951D0000ED
:10004000B91B0000BB1B0000BD1B0000BF1B000054
:10005000B7060000232300002B2300002D230000FF
:10006000E9190000EB190000C31B0000C51B0000CC
:10007000DD180000DF1800001D2300001F23000012
:1000800021230000D11900002523000027230000B0
:1000900029230000B51B000033230000C11B000012
:1000A00083060000B71B00002F230000312300004F
:1000B000911B0000CF1900005D13000085060000B1
:1000C00000F002F800F03EF80CA030C80838241800
:1000D0002D18A246671EAB4654465D46AC4201D180
:1000E00000F030F87E460F3E0FCCB6460126334274
:1000F00000D0FB1AA246AB46334318470441000028
:1001000024410000103A02D378C878C1FAD85207C7
:1001100001D330C830C101D504680C6070470000BD
:100120000023002400250026103A01D378C1FBD813
:10013000520700D330C100D50B6070471FB51FBDFB
:1001400010B510BD00F06CFA1146FFF7F7FF00F094
:1001500093FA00F084FA03B4FFF7F2FF03BC02F055
:10016000C9F9000070B505460C46164602E00FCCF2
:100170000FC5103E102EFAD2082E02D303CC03C5B1
:10018000083E042E07D301CC01C5361F03E02178B9
:100190002970641C6D1C761EF9D270BD0C480D4A86
:1001A000002100A1814200D902440B4802600B48A3
:1001B00080470B480047FEE7FEE7FEE7FEE7FEE765
:1001C000FEE7000007480849084A094B704700004D
:1001D000000000200000000008ED00E0DD2200002B
:1001E000C1000000501400205018002050160020BC
:1001F00050160020EFF3108072B6704780F310881D
:1002000070472A4A1368012B03D001231360284A40
:100210001060284A11602848284901607047EFF3B0
:10022000108272B62148016800291DD000210160AA
:100230001F48016800290AD0EFF3098120390068BE
:100240000160F0C144464D4656465F46F0C119492B
:1002500009680968F0C9F0B4F0C9A046A946B246D9
:10026000BB46F0BC81F3098882F310880420404229
:100270000047104908600E49002008600B49012022
:1002800008600F480F490268114301600A480B4992
:1002900001600D480068006880F3088862B6704706
:1002A000EFF3098000B502F00BFC00BDA0000020B8
:1002B000980000209C00002004ED00E000000010E9
:1002C00020ED00E00000FFFF08ED00E07047002295
:1002D00003098B422CD3030A8B4211D300239C4683
:1002E0004EE003460B433CD4002243088B4231D3FB
:1002F00003098B421CD3030A8B4201D394463FE08F
:10030000C3098B4201D3CB01C01A524183098B42EE
:1003100001D38B01C01A524143098B4201D34B01D7
:10032000C01A524103098B4201D30B01C01A52413A
:10033000C3088B4201D3CB00C01A524183088B42C1
:1003400001D38B00C01A524143088B4201D34B00AA
:10035000C01A5241411A00D201465241104670471C
:100360005DE0CA0F00D04942031000D34042534021
:1003700000229C4603098B422DD3030A8B4212D3E1
:10038000FC22890112BA030A8B420CD38901921113
:100390008B4208D3890192118B4204D389013AD050
:1003A000921100E08909C3098B4201D3CB01C01A25
:1003B000524183098B4201D38B01C01A5241430938
:1003C0008B4201D34B01C01A524103098B4201D326
:1003D0000B01C01A5241C3088B4201D3CB00C01A93
:1003E000524183088B4201D38B00C01A5241D9D2AB
:1003F00043088B4201D34B00C01A5241411A00D22C
:100400000146634652415B10104601D34042002B27
:1004100000D54942704763465B1000D3404201B5A6
:100420000020C046C04602BD7047704770470000BC
:10043000F0B5FF252D04C609C209FF2704462E404A
:100440000137CB093E4348402A402B400746002A4B
:100450006BD0002B69D0AA4267D0AB4265D0002890
:1004600000DA32460125ED0529432C43090220021A
:10047000090AD21A4B0C7F24E31A434C000A7C442D
:10048000E35C7D242404121914145B00A218884232
:1004900001D3521C00E0400049420C465C43241149
:1004A0005C43DB016415E318040A5C43C502200DBC
:1004B0000C4644436419250A5D432303EC0C0D46A6
:1004C000654300030019EB184C42A34201D35B18AB
:1004D000401CD4052018002B07D05B00C91804D39A
:1004E000401C002901D1400840003F2189048A4274
:1004F00009D3002A08DC1106090F04D0032149079B
:100500004018C00FC007F0BD012241001206891833
:100510007F2252069142F6D205214907C84201D5F1
:100520009010F0BDFF20C005F0BD002F00DA32466C
:100530001648AA4207D2AB4205D21902090E17D0BB
:10054000F80FC007F0BDFF2563002D06AB42F9D8B8
:100550004900A942F6D8AB4201D1A942F2D0A94242
:1005600001D1002101E061004908D0050843F0BD38
:100570001102090EFBD0FF200243D005F0BD0A4650
:100580000146104654E700002C3D00000000C07FEB
:100590000102C21504D00123DB071943002A0ADB3C
:1005A0009E239A1A02D40846D0407047FF22410089
:1005B0001206914201D900207047C017C04370470E
:1005C0001F22030C02D10F2200041CD0030E01D104
:1005D0000002083A030F01D10001121F830F01D15D
:1005E0008000921E002801DB4000521ED2055118E7
:1005F000021251181922904004D3491C002801D13D
:100600004908490008467047C10FC90700D0404259
:10061000012292071143D3E701218907D0E77047F0
:10062000754600F025F8AE46050069465346C008F9
:10063000C000854618B020B5FFF7C4FD60BC002798
:100640004908B6460026C0C5C0C5C0C5C0C5C0C59E
:10065000C0C5C0C5C0C5403D49008D46704710B5F6
:100660000446C046C0462046FFF775FD10BD000099
:1006700000487047EC13002010B503F01FFC002069
:1006800010BD7047704710B5002001F0DBFA002064
:1006900001F0D8FA0821402001F0B2F809214020E9
:1006A00001F0AEF80A21402001F0AAF80B21402009
:1006B00001F0A6F810BD704710B53D48007800283D
:1006C00006D001281BD0022830D003285FD144E097
:1006D0000C21402001F0F4F80D21402001F090F8A9
:1006E0000E21402001F08CF80F21402001F088F805
:1006F000002001F0A7FA002001F0A4FA48E00C2144
:10070000402001F07DF80D21402001F0D9F80E21A4
:10071000402001F075F80F21402001F071F8002011
:1007200001F090FA002001F08DFA31E00C21402018
:1007300001F066F80D21402001F062F80E21402002
:1007400001F0BEF80F21402001F05AF8002001F01E
:1007500079FA762001F076FA1AE00C21402001F0B7
:100760004FF80D21402001F04BF80E21402001F000
:1007700047F80F21402001F0A3F8002001F062FAB1
:100780000C490D4A1278885C01F05CFA00E000BF69
:1007900000BF07480078401C054908700878C11759
:1007A000890F091889108900411A014A117010BD7A
:1007B000A7000020A8000020A500002070B5A848D0
:1007C0000088A849884202DD0846A5490880A64855
:1007D0000078002806D0012849D002287DD00328BF
:1007E0007CD10DE10C21402001F06AF80D21402060
:1007F00001F006F80E21402001F002F80F21402000
:1008000000F0FEFF9948808895490988884204DCF9
:100810000A21402001F054F803E00A21402000F0B2
:10082000EFFF924800898E490988884204DB0B213A
:10083000402001F045F803E00B21402000F0E0FFEC
:10084000002001F0FFF986480088894988420ADDC6
:10085000491C83480088FFF744FD86490C5C20460C
:1008600001F0F0F902E0002001F0ECF9E7E00C21E2
:10087000402000F0C5FF0D21402001F021F80E219D
:10088000402000F0BDFF0F21402000F0B9FF774865
:1008900040887349098888420ADC74488088704916
:1008A0000988884204DD0A21402001F009F803E0AC
:1008B0000A21402000F0A4FF6C480089684909889B
:1008C00088420CDA6948C08865490988884206DB95
:1008D0000B21402000F0F4FF05E025E0AEE00B2105
:1008E000402000F08DFF6449087801F0ABF95C48C6
:1008F0000088632810DD642159480088FFF7F1FC67
:1009000005460A21FFF7EDFC5A48405C8021084368
:10091000044601F097F906E0564909788022114310
:10092000084601F08FF98AE00C21402000F068FFB2
:100930000D21402000F064FF0E21402000F0C0FF98
:100940000F21402000F05CFF4C480088401C4B49C0
:10095000088008460088502801DB002008804748AE
:100960000088282804DA0B21402000F0A9FF03E0CA
:100970000B21402000F044FF3948008890280ADA13
:1009800037490C88E117090F091909113A4A505CD7
:1009900001F058F91CE03248008890280CDB304800
:1009A0000088A02808DA3449087A01F04BF90821B8
:1009B000402000F085FF0BE02F49087A01F042F952
:1009C0000821402000F07CFF0921402000F078FF42
:1009D0002348008809280EDD0A2121480088FFF7F6
:1009E00080FC05460A21FFF77CFC2248445C204637
:1009F00001F028F903E01F49087801F023F91EE00F
:100A00000C21402000F0FCFE0D21402000F0F8FEFB
:100A10000E21402000F0F4FE0F21402000F050FF96
:100A2000002001F00FF90A210D480088FFF759FC5A
:100A30001048445C204601F005F900E000BF00BF0B
:100A400009480078401C084908700878C117890FC8
:100A5000091889108900411A034A117070BD0000FD
:100A60000C0000200F270000A7000020C800002075
:100A7000E7030000A8000020B2000020BC00002016
:100A800070B55F480078002806D001282CD00228D5
:100A90005AD003287ED183E00C21402000F010FFC3
:100AA0000D21402000F0ACFE0E21402000F0A8FEF9
:100AB0000F21402000F0A4FE002001F0C3F85148AF
:100AC0000088514988420BDD4E4908887D21C900C4
:100AD000FFF707FC4D490C5C204601F0B3F802E03B
:100AE000002001F0AFF87AE00C21402000F088FEF1
:100AF0000D21402000F0E4FE0E21402000F080FE99
:100B00000F21402000F07CFE002001F09BF83D48C2
:100B10000088632810DD3B4908886421FFF7E1FB6A
:100B200005460A21FFF7DDFB3848405C8021084379
:100B3000044601F087F806E0344909788022114321
:100B4000084601F07FF84AE00C21402000F058FEF2
:100B50000D21402000F054FE0E21402000F0B0FE98
:100B60000F21402000F04CFE002001F06BF82548DA
:100B7000008809280FDD234908880A21FFF7B1FB07
:100B800005460A21FFF7ADFB2048445C204601F0F2
:100B900059F804E022E01D49087801F053F81EE0FE
:100BA0000C21402000F02CFE0D21402000F028FEFA
:100BB0000E21402000F024FE0F21402000F080FE96
:100BC000002001F03FF80F4908880A21FFF789FB50
:100BD0000E48445C204601F035F800E000BF00BF3D
:100BE00007480078401C064908700878C117890F2B
:100BF000091889108900411A014A117070BD00005E
:100C0000BE000020C8000020E7030000A80000206C
:100C100070B55F480078002806D001282CD0022843
:100C20005AD003287ED183E00C21402000F048FEFA
:100C30000D21402000F0E4FD0E21402000F0E0FDF9
:100C40000F21402000F0DCFD002000F0FBFF5148A8
:100C50004088514988420BDD4E4948887D21C900B2
:100C6000FFF73FFB4D490C5C204600F0EBFF02E034
:100C7000002000F0E7FF7AE00C21402000F0C0FDEA
:100C80000D21402000F01CFE0E21402000F0B8FD98
:100C90000F21402000F0B4FD002000F0D3FF3D48BC
:100CA0004088632810DD3B4948886421FFF719FB21
:100CB00005460A21FFF715FB3848405C80210843B0
:100CC000044600F0BFFF06E0344909788022114352
:100CD000084600F0B7FF4AE00C21402000F090FDEC
:100CE0000D21402000F08CFD0E21402000F0E8FD99
:100CF0000F21402000F084FD002000F0A3FF2548D4
:100D0000408809280FDD234948880A21FFF7E9FABE
:100D100005460A21FFF7E5FA2048445C204600F02A
:100D200091FF04E022E01D49087800F08BFF1EE0EF
:100D30000C21402000F064FD0D21402000F060FDFA
:100D40000E21402000F05CFD0F21402000F0B8FD96
:100D5000002000F077FF0F4948880A21FFF7C1FA09
:100D60000E48445C204600F06DFF00E000BF00BF6D
:100D700007480078401C064908700878C117890F99
:100D8000091889108900411A014A117070BD0000CC
:100D9000BF000020C8000020E7030000A8000020DA
:100DA00070B55F480078002806D001282CD00228B2
:100DB0005AD003287ED183E00C21402000F080FD32
:100DC0000D21402000F01CFD0E21402000F018FDF8
:100DD0000F21402000F014FD002000F033FF5148A7
:100DE0008088514988420BDD4E4988887D21C900A1
:100DF000FFF777FA4D490C5C204600F023FF02E034
:100E0000002000F01FFF7AE00C21402000F0F8FCE9
:100E10000D21402000F054FD0E21402000F0F0FC98
:100E20000F21402000F0ECFC002000F00BFF3D48BB
:100E30008088632810DD3B4988886421FFF751FAD8
:100E400005460A21FFF74DFA3848405C80210843E7
:100E5000044600F0F7FE06E0344909788022114389
:100E6000084600F0EFFE4AE00C21402000F0C8FCEC
:100E70000D21402000F0C4FC0E21402000F020FD98
:100E80000F21402000F0BCFC002000F0DBFE2548D4
:100E9000808809280FDD234988880A21FFF721FA75
:100EA00005460A21FFF71DFA2048445C204600F061
:100EB000C9FE04E022E01D49087800F0C3FE1EE0F0
:100EC0000C21402000F09CFC0D21402000F098FCFB
:100ED0000E21402000F094FC0F21402000F0F0FC97
:100EE000002000F0AFFE0F4988880A21FFF7F9F9CA
:100EF0000E48445C204600F0A5FE00E000BF00BFA5
:100F000007480078401C064908700878C117890F07
:100F1000091889108900411A014A117070BD00003A
:100F2000C0000020C8000020E7030000A800002047
:100F300070B55F480078002806D001282CD0022820
:100F40005AD003287ED183E00C21402000F0B8FC69
:100F50000D21402000F054FC0E21402000F050FCF8
:100F60000F21402000F04CFC002000F06BFE5148A7
:100F70000089514988420BDD4E4908897D21C9000D
:100F8000FFF7AFF94D490C5C204600F05BFE02E034
:100F9000002000F057FE7AE00C21402000F030FCE9
:100FA0000D21402000F08CFC0E21402000F028FC98
:100FB0000F21402000F024FC002000F043FE3D48BB
:100FC0000089632810DD3B4908896421FFF789F90E
:100FD00005460A21FFF785F93848405C802108431F
:100FE000044600F02FFE06E03449097880221143C0
:100FF000084600F027FE4AE00C21402000F000FCEB
:101000000D21402000F0FCFB0E21402000F058FC98
:101010000F21402000F0F4FB002000F013FE2548D3
:10102000008909280FDD234908890A21FFF759F9AA
:1010300005460A21FFF755F92048445C204600F098
:1010400001FE04E022E01D49087800F0FBFD1EE0EF
:101050000C21402000F0D4FB0D21402000F0D0FBFB
:101060000E21402000F0CCFB0F21402000F028FC96
:10107000002000F0E7FD0F4908890A21FFF731F948
:101080000E48445C204600F0DDFD00E000BF00BFDC
:1010900007480078401C064908700878C117890F76
:1010A000091889108900411A014A117070BD0000A9
:1010B000C1000020C8000020E7030000A8000020B5
:1010C00070B55F480078002806D001282CD002288F
:1010D0005AD003287ED183E00C21402000F0F0FBA1
:1010E0000D21402000F08CFB0E21402000F088FBF9
:1010F0000F21402000F084FB002000F0A3FD5148A8
:101100000089514988420BDD4E4908897D21C9007B
:10111000FFF7E7F84D490C5C204600F093FD02E034
:10112000002000F08FFD7AE00C21402000F068FBE9
:101130000D21402000F0C4FB0E21402000F060FB98
:101140000F21402000F05CFB002000F07BFD3D48BB
:101150000089632810DD3B4908896421FFF7C1F845
:1011600005460A21FFF7BDF83848405C8021084356
:10117000044600F067FD06E03449097880221143F7
:10118000084600F05FFD4AE00C21402000F038FBEB
:101190000D21402000F034FB0E21402000F090FB98
:1011A0000F21402000F02CFB002000F04BFD2548D3
:1011B000008909280FDD234908890A21FFF791F8E2
:1011C00005460A21FFF78DF82048445C204600F0D0
:1011D00039FD04E022E01D49087800F033FD1EE0EF
:1011E0000C21402000F00CFB0D21402000F008FBFA
:1011F0000E21402000F004FB0F21402000F060FB96
:10120000002000F01FFD0F4908890A21FFF769F847
:101210000E48445C204600F015FD00E000BF00BF12
:1012200007480078401C064908700878C117890FE4
:10123000091889108900411A014A117070BD000017
:10124000C2000020C8000020E7030000A800002022
:1012500010B540480078002806D001281BD002288D
:1012600030D0032864D14CE00C21402000F028FB52
:101270000D21402000F0C4FA0E21402000F0C0FAF9
:101280000F21402000F0BCFA002000F0DBFC002021
:1012900000F0D8FC4DE00C21402000F0B1FA0D2107
:1012A000402000F00DFB0E21402000F0A9FA0F2194
:1012B000402000F0A5FA002000F0C4FC002000F05F
:1012C000C1FC36E00C21402000F09AFA0D214020AC
:1012D00000F096FA0E21402000F0F2FA0F21402093
:1012E00000F08EFA002000F0ADFC1B48807A002848
:1012F00003D13E2000F0A6FC02E0772000F0A2FC23
:1013000017E00C21402000F07BFA0D21402000F076
:1013100077FA0E21402000F073FA0F21402000F0F0
:10132000CFFA002000F08EFC002000F08BFC00E0E3
:1013300000BF00BF07480078401C064908700878C5
:10134000C117890F091889108900411A014A1170C3
:1013500010BD0000C3000020C8000020704700003E
:1013600010B501460020084A084BDA62084ADA62E2
:101370001A46126A0C239A438B000C2423401A430A
:10138000024B1A6210BD00005A5A000000000240D1
:10139000A5A500001CB501211C2000F0F3FE0121D1
:1013A00068460170417000218170C1700171012196
:1013B00041716A460021084600F030FA6A46012170
:1013C000002000F02BFA6A460221002000F026FAE5
:1013D0006A460321002000F021FA6A460421002019
:1013E00000F01CFA6A460521002000F017FA6A4650
:1013F0000621002000F012FA6A460721002000F0C2
:101400000DFA6A460821002000F008FA6A46092110
:10141000002000F003FA6A460A21002000F0FEF9DD
:101420006A460B21002000F0F9F96A460C210020E1
:1014300000F0F4F96A460D21002000F0EFF96A4649
:101440000E21002000F0EAF96A460F21002000F08A
:10145000E5F90021084600F0D3F90121002000F051
:10146000CFF90221002000F0CBF90321002000F089
:10147000C7F90421002000F0C3F90521002000F085
:10148000BFF90621002000F0BBF90721002000F081
:10149000B7F90821002000F0B3F90921002000F07D
:1014A000AFF90A21002000F0ABF90B21002000F079
:1014B000A7F90C21002000F0A3F90D21002000F075
:1014C0009FF90E21002000F09BF90F21002000F071
:1014D00097F96A460021402000F0A0F96A460121F0
:1014E000402000F09BF96A460221402000F096F966
:1014F0006A460321402000F091F96A460421402009
:1015000000F08CF96A460621402000F087F96A460F
:101510000721402000F082F96A460821402000F0AF
:101520007DF96A460921402000F078F96A460A21CF
:10153000402000F073F96A460B21402000F06EF95C
:101540006A460C21402000F069F96A460D214020CE
:1015500000F064F96A460E21402000F05FF96A4607
:101560000F21402000F05AF90021402000F048F9F6
:101570000121402000F044F90221402000F040F910
:101580000321402000F03CF90421402000F038F90C
:101590000521402000F034F90621402000F030F908
:1015A0000721402000F02CF90821402000F028F904
:1015B0000921402000F024F90A21402000F020F900
:1015C0000B21402000F01CF90C21402000F018F9FC
:1015D0000D21402000F014F90E21402000F010F9F8
:1015E0000F21402000F00CF96A460021802000F015
:1015F00015F96A460121802000F010F96A4602219F
:10160000802000F00BF96A460321802000F006F9E3
:101610006A460421802000F001F96A4605218020F5
:1016200000F0FCF86A460621802000F0F7F86A46D0
:101630000721802000F0F2F86A460821802000F09F
:10164000EDF86A460921802000F0E8F86A460A2190
:10165000802000F0E3F86A460B21802000F0DEF8DD
:101660006A460C21802000F0D9F86A460D218020BE
:1016700000F0D4F80021802000F0C2F80121802081
:1016800000F0BEF80221802000F0BAF8032180208B
:1016900000F0B6F80421802000F0B2F80521802087
:1016A00000F0AEF80621802000F0AAF80721802083
:1016B00000F0A6F80821802000F0A2F8092180207F
:1016C00000F09EF80A21802000F09AF80B2180207B
:1016D00000F096F80C21802000F092F80D21802077
:1016E00000F08EF86A460021C02000F097F86A46A4
:1016F0000121C02000F092F86A460221C02000F0CB
:101700008DF86A460321C02000F088F86A46062159
:10171000C02000F083F86A460721C02000F07EF860
:101720006A460821C02000F079F86A460921C020E5
:1017300000F074F86A460A21C02000F06FF86A468B
:101740000B21C02000F06AF86A460C21C02000F08E
:1017500065F86A460D21C02000F060F86A460E2147
:10176000C02000F05BF86A460F21C02000F056F858
:101770000021C02000F044F80121C02000F040F812
:101780000221C02000F03CF80321C02000F038F80E
:101790000421C02000F034F80521C02000F030F80A
:1017A0000621C02000F02CF80721C02000F028F806
:1017B0000821C02000F024F80921C02000F020F802
:1017C0000A21C02000F01CF80B21C02000F018F8FE
:1017D0000C21C02000F014F80D21C02000F010F8FA
:1017E0000E21C02000F00CF80F21C02000F008F8F6
:1017F0001CBD02461068C840C007C00F70470000FB
:1018000070B504460D46044960180122294600F0CF
:1018100069FA002070BD0000140D024070B5044646
:101820000E4615461E4960180022314600F05AFA4D
:1018300000201C496118B20088502A7818490C39D8
:101840006018314600F04EFA6A7815491031601878
:10185000314600F047FAAA78114914316018314630
:1018600000F040FAEA780E4918316018314600F06D
:1018700039FA2A790A4920316018314600F032FAE3
:10188000094880680121C90388436979C903012295
:10189000D2031140084304498860002070BD000055
:1018A0000C0D0240000C0240000F024010B5034630
:1018B000024818188C000251002010BD000C024094
:1018C00070B504460D46044960180122294600F00F
:1018D00009FA002070BD0000100D024070477047EB
:1018E0001CB501211C2000F04DFC00216846017050
:1018F0008170C17008214020FFF782FF092140203C
:10190000FFF77EFF0A214020FFF77AFF0B214020DE
:10191000FFF776FF0C214020FFF772FF0D214020DA
:10192000FFF76EFF0E214020FFF76AFF0F214020D6
:10193000FFF766FF6A4608214020FFF76FFF6A46FF
:1019400009214020FFF76AFF6A460A214020FFF77D
:1019500065FF6A460B214020FFF760FF6A460C21B5
:101960004020FFF75BFF6A460D214020FFF756FF3E
:101970006A460E214020FFF751FF6A460F214020A2
:10198000FFF74CFF1CBD1CB501211C2000F0FAFB29
:10199000012168460170417000218170C1700171A0
:1019A000012141716A4604214020FFF737FF6A4652
:1019B00005214020FFF732FF6A4606214020FFF74D
:1019C0002DFF6A4607214020FFF728FF1CBD704706
:1019D00010B5044800F0E6F8012802D1014800F0F3
:1019E000D8F810BD000F00407047704770B504462E
:1019F0000D46002229462046143000F073F90020DD
:101A000070BD70B504460D4601222946201D00F028
:101A100069F9002070BD70B504460D4600262946C0
:101A200020461030FFF7E5FE0646304670BD000048
:101A3000F0B587B005460C460127224A07CA04AB19
:101A400007C300200390002C02D1042007B0F0BD92
:101A500000206860608861780843E1880843A188B5
:101A600008432178084368602078402802D0207815
:101A7000C02824D1E088C117C90D0918491289006E
:101A800004AA515A8EB2E168B1400846FEF7C4FD7F
:101A90000290A068FEF7C0FD01900299FEF7C8FC15
:101AA00003903F210906039802F030FA0290FEF7F6
:101AB0006FFD80B2A86104212846FFF7A2FF00272E
:101AC0003846C3E76840000070B504460D4600BFC5
:101AD00003212046FFF79FFF0028F9D02068000A65
:101AE0000002E9B20843206000BF01212046FFF751
:101AF00092FF0028F9D001212046FFF777FF002050
:101B000070BD000000B587B0102103A800F003FDF0
:101B1000062101A800F0FFFC0121032000F032FBA8
:101B200001211C2000F02EFB00216846017101AA52
:101B30000846FFF773FE022200210846FFF7B6FEB3
:101B400001216846017101AA0020FFF767FE022209
:101B500001210020FFF7AAFE00216846C18104216F
:101B600041730021018200F0C3FA0590012189022E
:101B700003A8C180E1214902069140216846017312
:101B800003A90248FFF754FF07B000BD0040004022
:101B9000704710B50446002211462046143000F06C
:101BA000A1F810BD10B50446002120461030FFF703
:101BB00020FE10BD704770477047704770477047F0
:101BC00070477047704700000EB5062101A800F06D
:101BD000A2FC01211C2000F0D5FA0121062000F012
:101BE000D1FA002168464171017101AA0721002044
:101BF000FFF714FE012207210020FFF757FE01AA7C
:101C000004210020FFF70AFE012204210020FFF733
:101C10004DFE01AA05210020FFF700FE012205214B
:101C20000020FFF743FE102168460170002141703B
:101C3000C17081706946024800F06CF80EBD00006A
:101C40000008004010B504460021094800F076F86D
:101C50002146074800F06EF800BF0421044800F058
:101C600050F80028F9D00121014800F067F810BDB4
:101C70000008004010B5FEF706FD1848007801285E
:101C800004D0022805D0042825D105E0FEF796FDF2
:101C900022E0FEF711FD1FE011480078030000F07C
:101CA0007DFB071705080B0E11141700FEF7E8FE61
:101CB0000FE0FEF7ADFF0CE0FFF772F809E0FFF769
:101CC00037F906E0FFF7FCF903E0FFF7C1FA00E09F
:101CD00000BF00BF00E000BF00BF10BDA400002097
:101CE000A500002010B5012A05D1036801248C400D
:101CF0002343036004E0036801248C40A343036092
:101D000010BD024690680840002801D001207047AD
:101D10000020FCE702460020106008784B7818434A
:101D20008B781843CB781843402318431060002069
:101D3000906070470246D160002070474160704754
:101D400008B50020FFF70CFB002000F027FA062062
:101D500000F04AFA0021684601704170817000F07D
:101D600021F80121032000F053F808BDFF20F530D1
:101D700007490880FF202D304880FF20A53088804B
:101D8000FA20C880C82008810020887270470000AF
:101D9000C800002010B500F02BFF01F06BFD00F033
:101DA00037FF10BD70B5044600252078030000F011
:101DB000F5FA0504050C10181C0018E0032000F0CB
:101DC0005DFA032000F024FA11E0032000F0FAF994
:101DD0000DE00321084600F05FFA032000F028FA26
:101DE00005E0072000F0BCF901E0042500BF00BFBA
:101DF0002078012100F00CF8207800F029FA6078B2
:101E000000F086F9A07800F097F9284670BD000030
:101E1000F8B505460C46002700F0B4FA002C01D0B6
:101E2000012000E0002004465148066A2B0000F023
:101E3000B5FA050417394D7298004D4800684008FE
:101E40004000E107C90F08434949086000BF002C62
:101E500005D04748C0680005C00F0028F7D082E0D1
:101E60004348006A01210907884340184049086235
:101E70004048C068032108433E49C8603C480068A8
:101E8000022188436100022211400843384908605A
:101E900000BF002C05D0364800694006C00F00285E
:101EA000F7D060E03248006804218843A100042292
:101EB000114008432E49086000BF002C05D02C4873
:101EC0004069C004C00F0028F7D04CE02848006AE1
:101ED00001210907884340182549086225484038F0
:101EE000C06803218903084322494039C86020485B
:101EF000006808218843E1000822114008431C497A
:101F0000086000BF002C05D0194880694006C00F4A
:101F10000028F7D027E01648006A01210904884309
:101F20004018134908621448006840084000401CEB
:101F300011490860142000F0FFFA0D4800681021D4
:101F4000884321011022114008430949086000BF5D
:101F5000002C05D00648C06B4003C00F0028F7D006
:101F600001E0042700BF00BF014806623846F8BD03
:101F700000200040C00D02400024004030B589B070
:101F800000241422564904A8FEF7ECF854481430F3
:101F90000068039000200090019002905148018851
:101FA000684601814F4841886846C1804D48818814
:101FB000684681804B48C188684641804948203046
:101FC000018868460180484800680006450F2B00DC
:101FD00000F0E4F905042E303E4178004248C06824
:101FE0004005400D69460989884201D1089C1EE0E0
:101FF0003D48C0684005400D6946C988884201D106
:10200000079C14E03848C0684005400D694689883F
:10201000884201D1069C0AE03348C0684005400D63
:1020200069464988884201D1059C00E0049C4BE048
:102030002E4C49E0684600882B4949698905890D7D
:10204000884202D16846C48901E0684684893BE041
:102050000124E40338E02448C06B8007800F032884
:1020600029D1684600892049C9684905490D884237
:1020700001D1089C20E06846C0881B49C968490511
:10208000490D884201D1079C16E0684680881649B0
:10209000C9684905490D884201D1069C0CE0684693
:1020A00040881149C9684905490D884201D1059CFC
:1020B00002E0049C00E00D4C0B48C06BC005000F13
:1020C000444301E0002400BF00BF0748006840050A
:1020D000410F2046C8400446204609B030BD0000EC
:1020E00074400000000C1000002000400048E8018F
:1020F00010B50024FFF742FF044604480068C004FE
:10210000810F2046C8400446204610BD00200040F4
:1021100010B5044600F036F90648006807210902A8
:102120008843210207221202114008430149086036
:10213000002010BD0020004010B5044600F022F938
:10214000064800680321C9028843E1020322D20243
:102150001140084301490860002010BD00200040E4
:1021600010B501460020064AD26B0723DB039A43D1
:10217000CB030724E40323401A43014BDA6310BD69
:102180000020004070B504460D462A46214602480C
:10219000FFF7A8FD002070BD2020004001464A0046
:1021A000064BD21812885005400D054AD268D20A53
:1021B000D2020243024BDA6000207047000C10008C
:1021C0000020004010B501460020064A5269032352
:1021D0009B029A438B020324A40223401A43014B1F
:1021E0005A6110BD0020004010B5044600F0CAF846
:1021F00006484068072149028843610207225202CB
:102200001140084301494860002010BD00200040F3
:1022100010B501460020054A126930239A430B018C
:10222000302423401A43014B1A6110BD00200040A6
:1022300010B501460020054A926930239A430B01EC
:10224000302423401A43014B9A6110BD0020004006
:1022500070B504460025264600F094F8064800684C
:10226000E02188437101E0221140084302490860DF
:1022700000F02CF8284670BD0020004001460020E8
:10228000044A1269920892008B079B0F1A43014B74
:102290001A6170470020004030B5024600200A4B0A
:1022A0009B690C24A34394000C252C402343064C2B
:1022B000A36123469B699B089B008C07A40F2343C3
:1022C000014CA36130BD00000020004010B5FFF7B5
:1022D00055FE0149086010BD0800002010B50D49E9
:1022E00049888805800D0C494969890A890201439A
:1022F000094A51610749203909894805400D1146AD
:10230000C968C90AC9020143D160FFF7DFFF00F0C5
:1023100011F810BD200C10000020004070477047DD
:1023200070477047704770477047704770477047F5
:10233000704770470549086A096A012212079143EC
:102340008918024A11621146086270470020004055
:102350000146481E084A904201D901207047481E94
:10236000064A5061FF20064AD0700020034A90615F
:10237000072010610020F1E7FFFFFF0000E000E010
:1023800020ED00E0024803498860034888607047F8
:102390005A5A000000200040A5A5000030B4744641
:1023A000641E2578641CAB4204D3635D5B00E318B4
:1023B00030BC18471D46F8E70146002900D1704798
:1023C000C8B2002804D0C8B2114A105C401CF6E71D
:1023D000FF2000020840002807D0FF20000208402C
:1023E00000120B4A105C0930E9E7FF2000040840A6
:1023F000002807D0FF20000408400014044A105CA5
:102400001130DCE7080E024A105C1930D7E70000F3
:102410008C400000FEB5044615461E460A9F204625
:1024200014304060006000BF256266620898A062B8
:102430000998E0622321E26AA06A00F05DFDE16A8A
:10244000A06A4018021F606A0190206A114B009038
:10245000019900F0ADFBE0613620075535200755A6
:102460000020A0630B98E0630B9820640020206399
:10247000002134200155002020676067009023462A
:10248000054A214601902046443001F0A7FA002079
:10249000FEBD000065350000A5370000FFB581B026
:1024A00004460E4617460A986072607A400840005B
:1024B0006072E66127620020A062049860620025D5
:1024C00006E0EA0021461431501800F015FC6D1C9E
:1024D000012DF6DB05B0F0BD70B50546002406E021
:1024E000E20029461431501800F047FC641C012C0E
:1024F000F6DB70BD00BF704770B50446FDF77AFE8D
:102500000546206F002802D02046216F88472846C4
:10251000FDF774FE70BD10B50A460146002900D1D2
:1025200010BD02E000230B70491C1346521E002B05
:10253000F8D100BFF4E7000070B505461148124914
:10254000486100208861052008610FE000200E49E5
:1025500088610E490E480068FDF7B9FE01210906A1
:102560000C1A00BF08488069A042FBD828466D1E9F
:102570000028EBD104480069400840000249086186
:1025800070BD0000FFFFFF0000E000E0A08601003A
:102590000800002002E0024801F07AF8FBE70000A2
:1025A0001027000004E0FFF765FB0A2001F070F837
:1025B000F9E700001CB505200E21FF23013300229E
:1025C00000910190104911A000F0A3FF104908608C
:1025D0000846006801F0ACF805200F21FF23013305
:1025E0000022009101900B490BA000F092FF0C49D2
:1025F00008600846006801F09BF803E07D20C000F9
:1026000001F046F8FAE70000A52500006B657900A7
:1026100000000020952500006B6579310000000066
:102620000400002010B5044600F032F9FFF7C2FFA5
:1026300010BD000030B51B4C43682468191988424E
:1026400016D04B88002B13D1174B1B6899420FD023
:10265000164B1B688B4201D1144B18604B684360CA
:10266000104B1B68C31A0F4D4C682D686419A3608A
:102670000C4C836824681A19824212D05388002BAC
:102680000FD10A4B1B68834201D1084B1A60436883
:102690005360044B1B68D41A024D43682D685B19C4
:1026A0009C6030BD1C000020200000202400002081
:1026B000FFB58BB004461546169E159804901498E5
:1026C000029040203040002801D05C4800E05C4887
:1026D000039010203040002801D076087600F007E3
:1026E000C00F002801D0302000E020200A900020F8
:1026F000099002203040002812D0002D03DA2D204E
:1027000009906D420CE004203040002802D02B20BC
:10271000099005E008203040002801D020200990D1
:102720000027002D05D1302238467F1C05A90A5408
:102730001DE01AE00E98019001980A280AD1284657
:102740000A21FDF7C4FD009128460A21FDF7BFFDCF
:10275000054603E02807000F00902D090098039913
:102760000A5C38467F1C05A90A54002DE2D1159851
:10277000874200DD159715990298401A02901120A2
:102780003040002814D10998002805D0029800286C
:1027900002DD0298401E029005E00C98844201D2AE
:1027A00020202070641C0298411E02910028F4DC55
:1027B0000998002808D00C98844201D2099820700A
:1027C0000298401E0290641C1020304000280BD15B
:1027D00005E00C98844201D20A982070641C02988B
:1027E000411E02910028F4DC05E00C98844201D2DD
:1027F00030202070641C1598411E1591B842F4DCFD
:1028000006E00C98844202D205A8C05D2070641CCA
:1028100038467F1E002802DD04980028F1D105E02B
:102820000C98844201D220202070641C0298411E22
:1028300002910028F4DC20460FB0F0BD9D4100005D
:102840008C4100001CB514200A21FF230133002213
:1028500000910190044905A000F05BFE044620466B
:1028600000F066FF1CBD0000252600006D61696E4A
:102870000000000010B5044C02E020688047241DD1
:1028800002488442F9D310BDF4410000F841000031
:1028900010B5044C02E020688047241D02488442A1
:1028A000F9D310BDF8410000FC41000010B5FDF760
:1028B000A1FC044604480088401C00B2024908807C
:1028C0002046FDF79BFC10BD7800002010B5FDF7F9
:1028D00091FC04460D480088401E00B20B49088058
:1028E00008460021415E00290CDC002007490880D1
:1028F0002046FDF783FC06480068002805D000F05C
:10290000B1FB02E02046FDF779FC10BD7800002005
:102910007C00002070B50546002D00D170BD1F4819
:102920000068854203D31E480068854200D3F5E75E
:102930002C460C3C0021C9431A4800F069FC608811
:10294000002804D02088F5214901884208D016A02B
:1029500000F0B2F92388628821461AA000F0ACF991
:1029600000206080F52040012080224800688442D9
:1029700001D220480460094960680968611A401A58
:102980001D490968081A1C4908602046FFF752FED5
:10299000044800F011FC00BFC0E700001C0000204C
:1029A00020000020CC020020746F20667265652034
:1029B0006120626164206461746120626C6F636B8A
:1029C0003A0A00006D656D3A203078253038782C51
:1029D000207573656420666C61673A2025642C203D
:1029E0006D6167696320636F64653A2030782530D4
:1029F00034780A00240000202C0000200048704792
:102A0000EC03002000487047EC13002070B5FFF77E
:102A100097F9FFF75BFC7D21C90011480068FDF7BD
:102A200056FC0446FFF794FCFEF7B4FCFEF7ABFF40
:102A3000FFF7CAF8FFF79AF9FEF752FFFFF762F8BF
:102A400008A000F039F9FFF715FFFFF7DBFF044698
:102A5000FFF7D4FF0546214600F094FC70BD00004E
:102A60000800002053797374656D2053746172748B
:102A70002E2E2E2E2E2E2E2E2E2E2E2E2E2E2E2E76
:102A80002E2E0D0A00000000F8B505460024002691
:102A90000D27284600F050FC064600BF0BE0285DDD
:102AA0000A2803D139460548FFF70EF8295D034887
:102AB000FFF70AF8641CB442F1D3F8BD00400040AF
:102AC000044613A0E16900F0F7F815A0A16900F031
:102AD000F3F817A0616900F0EFF819A0216900F080
:102AE000EBF81BA0E16800F0E7F81DA0A16800F07A
:102AF000E3F81FA0616800F0DFF821A0216800F072
:102B0000DBF82348016823A000F0D6F800BFFEE7F9
:102B10007073723A203078253038780A000000004F
:102B20002070633A203078253038780A00000000A1
:102B3000206C723A203078253038780A0000000086
:102B40007231323A203078253038780A000000009F
:102B50007230333A203078253038780A000000008F
:102B60007230323A203078253038780A0000000080
:102B70007230313A203078253038780A0000000071
:102B80007230303A203078253038780A0000000062
:102B90007C00002068617264206661756C74206F2F
:102BA0006E207468726561643A2025730A00000023
:102BB000FFB50C46101DC008C00040380146002576
:102BC00003E00A4EAF00CE516D1C102DF9D30C62FC
:102BD00000264E628E62CE620E634B63009E8E6351
:102BE00001263606CE6304B0F0BD0000EFBEADDEB8
:102BF00010B5FDF7FFFA044604480078401C03496D
:102C000008702046FDF7FAFA10BD000018000020F9
:102C100010B5FDF7EFFA044604480078401E03495A
:102C200008702046FDF7EAFA10BD000018000020E9
:102C300070B5044620680546143D284600F032FD74
:102C4000002070BDF7B505460C46204600F088FD13
:102C50000298002802D0012822D105E02146143133
:102C6000284600F061F81CE02E680EE03746143F5D
:102C70003520015DC05D814206DA214614313846B7
:102C8000143000F051F802E03668AE42EED100BFD9
:102C9000AE4204D121461431284600F045F800E048
:102CA00000BF00BF0020FEBD10B504462046143012
:102CB00000F01CF8002010BD0FB438B505A8009036
:102CC0007F210948009B049A00F032FF04467F2CC4
:102CD00000D97F240448FFF7D7FE0020009038BCBD
:102CE00008BC04B0184700004C020020406000609F
:102CF0007047406000607047406000607047026845
:102D0000516002680A600160486070470268516063
:102D100002680A600160486070470268516002689A
:102D20000A600160486070474268116042684A600A
:102D300041600860704701460868884201D101205F
:102D400070470020FCE701460868884201D1012055
:102D500070470020FCE702684168516042680168E2
:102D600011604060006070470268416851604268CD
:102D700001681160406000607047026841685160FE
:102D8000426801681160406000607047F8B5054610
:102D9000002D00D1F8BDE81C8508AD004F48006843
:102DA000854201D90020F5E70C2D00D20C25002129
:102DB000C9434B4800F02CFA4A4800684A49096860
:102DC000461A7FE04848006884196088002875D159
:102DD00030460C306168081AA8426FD330460C3078
:102DE0006168091A28461830814230D330460C30C9
:102DF000401900903C48016800980F18F5204001E8
:102E000038800020788060687860BE6000986060DC
:102E1000012060803148796800680C30814205D01B
:102E20000098314A79681268891888602F480168CB
:102E300028460C3008182D4908602D48006809689C
:102E4000884219D2294800682949086014E0012005
:102E50006080254960680968611A401A2349096839
:102E6000401822490860224800680968884203D255
:102E70001E4800681E490860F5204001208019485E
:102E80000068844213D107E016480068406816497C
:102E900009684018134908601248006840880028F3
:102EA00005D010480068134909688842ECD10C48E5
:102EB00000F082F920460C306CE7FFE70A48006812
:102EC0008019466805480068401BB04200D979E780
:102ED000034800F071F900205CE7000028000020A2
:102EE000CC020020240000201C0000202C00002028
:102EF0003000002020000020F7B50546019EF4B206
:102F0000042A17D38607B60F002E13D101462602D6
:102F1000264333461E04334304E008C108C108C1F8
:102F200008C1103A102AF8D201E008C1121F042A81
:102F3000FBD20D4601E02C706D1C1646521E002E71
:102F4000F9D1FEBDF8B506460F46304600F044F80C
:102F50000546E868FFF71AFF0446002C00D1F8BDCB
:102F600000212046EA68FFF7C7FF26720020607242
:102F700008223946204600F0E8F9FDF73BF90090B9
:102F800021460C31281DFFF7BAFE0098FDF736F9EF
:102F90002046E4E770B5044600202072FDF72AF9C8
:102FA000054620460C30FFF7D6FE2846FDF726F9E9
:102FB0002046FFF7AFFC70BD70B5044600202072BC
:102FC000FDF718F9054620460C30FFF7C4FE2846E9
:102FD000FDF714F970BD00000246002108E0080169
:102FE000054B185C904202D10801C0187047491C7B
:102FF0000429F4DB0020F9E734000020F7B582B0A3
:1030000004460D4600262846FFF7E6FF0746FFF771
:103010004DFC7E6802E030460C383668381D86422A
:10302000F9D1FFF753FC8020284320720822204664
:10303000049900F08AF9FDF7DDF8019021460C3182
:10304000381DFFF75CFE0198FDF7D8F805B0F0BD1C
:103050000146087A80221040002801D001207047E4
:103060000020FCE7F8B5FDF7C5F8074618480088CA
:10307000002827D117480068FFF79EF9461EF00088
:10308000154908580446143C14480068844218D076
:1030900013490E7011480568046012480078002832
:1030A00009D121461C3128461C30FDF7AAF83846C4
:1030B000FDF7A4F8F8BD21461C3128461C30FDF769
:1030C000A0F800BF3846FDF799F800BFF2E700000E
:1030D0007800002074000020EC0200207C0000201A
:1030E000800000201800002070B50446FDF782F82B
:1030F00005463420005D0009000101210843342108
:1031000008553522125DD2000A4BD01821461431E1
:103110004268116042684A604160086000BF064929
:10312000A06B09680843044908602846FDF766F863
:1031300070BD0000EC0200207400002070B5044651
:10314000FDF758F805462046143002684168516082
:103150004268016811604060006000BF3521095D70
:10316000C9000A4A88180168814201D1012100E0A2
:103170000021002905D00648A16B00688843044956
:1031800008602846FDF73AF870BD0000EC02002008
:1031900074000020F8B504460D4616461F462A4620
:1031A00002212046FFF72AFF2046FFF77DFDA68378
:1031B00067720020F8BD000070B504460025FDF7D9
:1031C00019F8064620461430FFF7B5FD002805D152
:1031D00020461430FFF72CFD01250DE0A08B0B4994
:1031E000884203DAA08B401CA08305E03046FDF73F
:1031F00005F80220C04370BD3046FCF7FFFF012DEB
:1032000001D1FFF72FFF0020F5E70000FFFF0000CE
:1032100073B50546FCF7EEFF0646A88B002806DDD1
:10322000A88B401EA8833046FCF7E8FF2AE00198EF
:10323000002805D13046FCF7E1FF0120C0437CBDEA
:1032400000F04EFA0446002020636A7A21462846A0
:103250001430FFF7F7FC0198002809DD01AA0021CE
:103260002046443000F076FB2046443000F0CAFB94
:103270003046FCF7C3FFFFF7F5FE206B002801D0B6
:10328000206BDCE70020DAE708B509A0FFF714FDA2
:103290000AA0FFF711FD12A00523012203210090CF
:1032A00012A0FFF709FD19A0FFF706FD08BD0000F9
:1032B0000A205C207C202F0A000000002D205254A0
:1032C000202D2020202020546872656164204F70DA
:1032D00065726174696E672053797374656D0A0055
:1032E000417567203136203230323100202F207C6A
:1032F000205C202020202025642E25642E2564209B
:103300006275696C642025730A0000002032303039
:1033100036202D203230323020436F707972696749
:1033200068742062792072742D74687265616420FB
:103330007465616D0A00000001460A4600E0521CF7
:1033400010780028FBD1501A704770B50346002A48
:1033500015D018460C4600BF25780570641C401C2B
:10336000002D07D102E000250570401C551E2A1EC5
:10337000F9D102E0551E2A1EEED100BF00BF18464B
:1033800070BD0000F3B581B00546E81C8608B600A4
:1033900002988708BF00182F08D938461838B0425D
:1033A00004D3B81B18381E49086005E029461DA043
:1033B000029AFFF781FCFEBD294806600468F520EB
:1033C00040012080164800680C3060600020A0603A
:1033D0006080234960680968401822490860F52028
:1033E00040010968088001201E49096848800C488E
:1033F00000680C301B4909684860094800680C30B7
:103400001849096888600023012217A11848FFF7AE
:10341000C1FE134800681749086000BFCBE70000F1
:10342000280000206D656D20696E69742C2065721E
:10343000726F7220626567696E2061646472657381
:103440007320307825782C20616E6420656E6420AE
:103450006164647265737320307825780A00000017
:103460001C00002020000020686561700000000042
:10347000CC0200202400002010B500200B49088059
:10348000002405E0E1000A4A8818FFF732FC641CBA
:10349000202CF7DB1F200749087000200649086030
:1034A000064908600648FFF724FC10BD780000209C
:1034B000EC020020800000207C000020740000202E
:1034C0008400002070B508480068FEF775FF451EAF
:1034D000E800064908580446143C054804602046A4
:1034E0001C30FCF7C6FE70BD74000020EC0200200A
:1034F0007C00002010B5002405E0E100034A881894
:10350000FFF7FAFB641C002CF7D010BD8C000020E4
:103510007047FFB585B006460F461D46314601206F
:10352000FFF710FD04900498002801D109B0F0BD08
:103530002846FFF72BFC0446002C04D10498FFF723
:1035400029FD0020F2E70E990F9801950094029151
:1035500003903A463146079B0498FEF75BFF0498B8
:10356000E4E7000070B513480468FCF743FE054625
:103570002046FEF7C1FF2046FFF7E0FD042134207E
:1035800001552046443000F015FA2046FFF760FD53
:10359000012803D12046FFF70FFD04E02146143136
:1035A0000548FFF7B3FBFFF75DFD2846FCF726FE55
:1035B00070BD00007C0000208400002001E000F0CD
:1035C00001F8FCE770B529E0FCF714FE054600BFE2
:1035D00014480168814201D0012100E00021002946
:1035E00003D12846FCF70AFE19E00E48006804469D
:1035F000143C2046143002684168516042680168FA
:1036000011604060006000BFA06AFFF783F92046A8
:10361000FFF7C0FC2846FCF7F1FD00BFD4E700BF70
:1036200070BD0000840000201FB520201F21C200B3
:10363000074B00930192029103900023054A06A1D3
:10364000074800F00FF8064800F072F81FBD0000B0
:103650004C010020BD3500007469646C65000000F9
:10366000D4000020FFB585B00C460EADE0CD22465B
:1036700001210598FFF7C2FC11986946E0C103904B
:103680002146089B079A0598FEF7C4FE09B0F0BDD5
:1036900070B50446204600F0C7F80546284600F0FD
:1036A00025F870BD70B504463420005D0007000F9A
:1036B000022802D00020C04370BDFCF79BFD0546E8
:1036C00020461430FFF750FB2046443000F018FA33
:1036D0002846FCF793FD2046FFF706FD0020EBE7A8
:1036E00001480068704700007C00002031B5FCF7FD
:1036F00081FD05460D480468204600F031F86A4611
:1037000000212046443000F025F92046443000F0E6
:1037100079F92846FCF772FDFFF7A4FC206B801CAA
:10372000002800D12063002038BD00007C0000206C
:1037300010B504463620015D35200155015D01209C
:103740008840A0630221342001552046FFF7AAFFDC
:10375000FFF7C6FF002801D0FFF784FC002010BD52
:1037600070B504463420005D0007000F012802D028
:103770000020C04370BDFCF73DFD05462046FFF725
:10378000DDFC3420005D00090001022108433421E2
:1037900008552046443000F0B3F92846FCF72EFDCA
:1037A0000020E7E770B5044625460120C0432863A2
:1037B00028461430FFF7D8FA2846FFF795FCFFF7A4
:1037C00051FC70BD70B5FCF715FD05461448046842
:1037D0003420005D0007000F01281CD16169A06939
:1037E000814218D020461430FFF7BEFA3522125D10
:1037F000D2000C4BD0182146143142681160426847
:103800004A604160086000BF2846FCF7F7FCFFF7FC
:1038100029FC002070BD2846FCF7F0FC0020F9E7E9
:103820007C000020EC02002070B50546002D02DA75
:103830000024E44315E07D21C9002846FCF751FD32
:103840007D21C900484304462846FCF74AFD7D20F7
:10385000C0004143401E0E18411C3046FCF741FD9C
:103860000419204670BD0000014800687047000040
:103870001400002010B50A480068401C0849086080
:10388000FFF72EFF0446206C401E2064206C0028A9
:1038900003D1E06B2064FFF795FF00F003F810BD43
:1038A000140000207CB56846FFF726FAFFF7DCFF1E
:1038B0000546FCF79FFC06463DE0244800680446A8
:1038C000143CA06A281A2249884232D22046FEF7C8
:1038D00003FE607A02210840002803D1607A400884
:1038E00040006072214614316846FFF716FAE1691C
:1038F000206A8847FFF7B8FF05466846FFF723FAB6
:10390000002800D017E020461430FFF736FA607A1E
:103910000221084000280DD0607AC007C00F00289F
:1039200008D0607A400840006072204600F06AF8D3
:1039300000E005E000BF0548FFF705FA0028BCD00D
:1039400000BF3046FCF75AFC7CBD00008C00002014
:10395000FFFFFF7FF8B504460E461546FCF74AFC0C
:1039600007463300FEF71AFD0507040A0F141F006F
:10397000606A286018E02868606215E0607A0221B9
:103980008843607210E0607A0221084360720BE0A5
:10399000607AC007C00F002802D00120286001E033
:1039A0000020286000E000BF00BF3846FCF726FC7E
:1039B0000020F8BD70B50446FCF71CFC0546204607
:1039C000FEF78AFD607A4008400060722846FCF7E6
:1039D00015FC2046FFF7F0FA002070BDF8B5074649
:1039E0000C4615461E4622460A213846FFF706FBBE
:1039F00007980090324629463846069BFEF74EFD52
:103A0000F8BD0000FEB50546FCF7F4FB0190284622
:103A1000FEF762FD687A400840006872FFF724FFF5
:103A2000696A4018A862334F0097002430E01BE019
:103A3000A2006B469A5811681422E300D218881A23
:103A4000826AAB6AD21A00D107E0826AAB6AD21AE4
:103A5000294B9A4200D20FE000BFA00069460858E7
:103A60000068A1006A465050A00069460858E1006D
:103A7000C91949688842DBD100BF002C07D0A000DB
:103A8000694608580830611C89006A465050641C19
:103A9000002CCCD019480068401C18490860084622
:103AA0000668294614310098FFF737F9022414E01C
:103AB000B007800F00280DD10122121BD2002B4627
:103AC0001433D1180122121B92006B469858FFF74D
:103AD00024F900E003E0B608641C012CE8D900BF1B
:103AE000687A0121084368720198FCF787FB00207F
:103AF000FEBD00008C000020FFFFFF7F940000202F
:103B000070B50446607AC007C00F002801D1401E7E
:103B100070BDFCF76FFB05462046FEF7DDFC607AC2
:103B20004008400060722846FCF768FB0020EFE781
:103B3000FFB58BB00B9C0B9C0C9826180B9CA642D7
:103B400004D20026F6430B98301A0C9094E10D989D
:103B50000078252806D0B44202D20D980078207053
:103B6000641C86E1002526E00D98401C0D900D9800
:103B700000782D2802D1102005431CE00D98007814
:103B80002B2802D10420054315E00D980078202849
:103B900002D1082005430EE00D980078232802D1B9
:103BA0002020054307E00D980078302802D101203D
:103BB000054300E000E0D7E700BF0027FF430D9872
:103BC000007830380A2804D20DA800F08CF9074696
:103BD0000EE00D9800782A280AD10D98401C0D900F
:103BE0000E9880C80E90002F02DA7F421020054305
:103BF0000020C04303900D9800782E281ED10D9808
:103C0000401C0D900D98007830380A2804D20DA879
:103C100000F069F903900CE00D9800782A2808D18B
:103C20000D98401C0D900E98006803900E98001D92
:103C30000E900398002801DA0020039000200490E1
:103C40000D980078682803D00D9800786C2805D16D
:103C50000D98007804900D98401C0D900A20059056
:103C60000D9800786F287DD00CDC632813D004DC1D
:103C7000252878D0582877D1A2E0642875D0692803
:103C8000F9D1A4E070287ED0732826D075286ED094
:103C90007828F0D197E010202840002808D104E0CF
:103CA000B44201D220202070641C781E071EF7DC6D
:103CB0000E980178001D0E90C8B20790B44201D250
:103CC00007982070641C04E0B44201D220202070C8
:103CD000641C781E071EF7DCCBE00E980068069087
:103CE0000E98001D0E900698002801D16DA0069038
:103CF0000020089002E00898401C08900898B842FC
:103D000004D008990698405C0028F4D10398002854
:103D100005DD03990898884201DD0398089010207A
:103D2000284000280AD104E0B44201D220202070AB
:103D3000641C38467F1E08998842F5DC00200990F3
:103D40000BE0B44202D2069800782070641C0698FA
:103D5000401C06900998401C0990089909988842CF
:103D6000EFDB0AE029E022E035E02FE00BE031E074
:103D7000B44201D220202070641C38467F1E08996E
:103D80008842F5DC75E0781C002802D10827012064
:103D9000054303980097029501900E9804C81023DC
:103DA00031460E902046FEF783FC044661E0B442A3
:103DB00001D225202070641C5BE0082005901EE0E5
:103DC0004020054300BF1020059018E000BF0220EE
:103DD000054300BF13E0B44201D225202070641CCB
:103DE0000D980078002806D0B44202D20D980078D1
:103DF0002070641C02E00D98401E0D9039E000BF59
:103E000004986C280CD10E9800680A900E98001D3A
:103E10000E900220284000281FD00A980A901CE02B
:103E2000049868280DD10E980188001D0E9088B264
:103E30000A900220284000280FD00A9800B20A9069
:103E40000BE00E9800680A900E98001D0E9002205C
:103E50002840002801D00A980A90039800970295FC
:103E6000019031462046059B0A9AFEF721FC044644
:103E700000BF0D98401C0D900D980078002800D0D0
:103E800065E60C98002808D0B44202D200202070C9
:103E900003E0002130462038C1770B98201A0FB07C
:103EA000F0BD0000284E554C4C2900000020704702
:103EB00000207047002070470020704710B5FCF7C5
:103EC00099F9FEF7A3FDFFF7DFF9FFF713FBFFF703
:103ED000D3FAFEF7B7FCFFF71BFBFFF7A5FBFFF7D5
:103EE000F1FA002010BD0146002008E00B685A1CC2
:103EF0000A601B780A2242439A18104630380A6832
:103F00001278303A0A2AF1D37047000070B50125C3
:103F10000400ED074C4020D4441A01D2001B0919BB
:103F2000C60D4B00F2B2FF2A29D01B0E2CD0000286
:103F30000C02D31A2C43DC402843051910D2280A5E
:103F400002D3401C6D0611D0761EF6058019FF2A9B
:103F500000DA70BDC00DC00570BD694000F022F8E8
:103F600001200543C541521C761CE8E764089C40CB
:103F7000C90161408900E7D10124A043E4E71B0E99
:103F8000440200D0034870BD002AFCD1C00FC00716
:103F900070BD00BF0000C07F70B501250400ED07B3
:103FA0004C4022D4441A02D26C40001B0919C60DA1
:103FB0004B00F2B2FF2A4BD01B0E50D000020C0275
:103FC000D31A2C43DC40A843051B05D5AD0019D3FB
:103FD0006D08761E521E37D0F605280A01D28019C8
:103FE00070BD70416D0603D070BD6940FFF794FF4E
:103FF0009C4009026140490001D0401E70BD01246F
:10400000A04370BD6D081DD001202B0C01D12D04E3
:1040100010302B0E01D12D0208302B0F01D12D01B4
:10402000001DAB0F01D1AD00801CEB0F01D16D0065
:10403000401C6D00361A121A680AF5054019012A4B
:1040400002DB70BD002070BDC036300AC00770BDF5
:104050001B0E440201D1FF2B00D1024870BD002A83
:10406000F0D070BD0000C07F04000000030000001D
:104070000200000000093D0000127A000024F40054
:104080004086510100366E0100800096000001005C
:104090000200010003000100020001000400010011
:1040A0000200010003000100020001000500010000
:1040B00002000100030001000200010004000100F1
:1040C00002000100030001000200010006000100DF
:1040D00002000100030001000200010004000100D1
:1040E00002000100030001000200010005000100C0
:1040F00002000100030001000200010004000100B1
:10410000020001000300010002000100070001009D
:104110000200010003000100020001000400010090
:10412000020001000300010002000100050001007F
:104130000200010003000100020001000400010070
:10414000020001000300010002000100060001005E
:104150000200010003000100020001000400010050
:10416000020001000300010002000100050001003F
:104170000200010003000100020001000400010030
:10418000020001000300010002000100303132335F
:1041900034353637383961626364656600303132F0
:1041A00033343536373839414243444546008182FD
:1041B000838485868788898B8C8D8E8F9192939549
:1041C0009697999A9C9D9FA0A2A3A5A7A8AAACAEDA
:1041D000B0B2B3B5B7B9BCBEC0C2C5C7C9CCCED1E9
:1041E000D4D7D9DCDFE2E6E9ECF0F3F7FAFE000021
:1041F000B93E0000B13E0000AD3E0000B53E0000FB
:104200002042000000000020C8000000040100005F
:10421000E8420000C80000208817000020010000CC
:10422000000000000000000000366E0100000000E9
:1042300000FE000000000000000000000000000080
:10424000000000000000000000000000000000006E
:1042500000000000010000003800002038000020AD
:104260007800000002000000480000204800002004
:104270002000000005000000580000205800002029
:10428000300000000A0000006800002068000020E4
:104290002C000000000000000000000000000000F2
:1042A000000000000000000000000000000000000E
:1042B00000000000000000000000000000000000FE
:1042C00000000000010101003F065B4F666D7D07A5
:1042D0007F6F000103070F1F3F7FFF0000000000FA
:0842E0000000000000000000D6
:04000005000000C136
:00000001FF
