:020000040000FA
:10000000D8040020150200002F0200001D2300006C
:1000100000000000000000000000000000000000E0
:10002000000000000000000000000000330200009B
:10003000000000000000000035020000B52B0000A9
:100040004D2900004F2900005129000053290000CC
:10005000AF0A00003D31000061350000633500004B
:10006000A9240000AB2400009F290000A129000062
:100070002D2300002F230000353100003731000010
:10008000393100002124000061310000633100009B
:100090006531000049290000693500009D290000F4
:1000A000CD0600004B2900006535000067350000D3
:1000B000512600001F240000011B00007D0A0000E3
:1000C00000F030F800F050F8103A02D378C878C148
:1000D000FAD8520701D330C830C101D504680C608A
:1000E000704700000023002400250026103A01D3A9
:1000F00078C1FBD8520700D330C100D50B607047E0
:10010000F8B505460E461746284601F06FFD002457
:1001100004E0315D281901F0EBFD641CBC42F8DB02
:10012000F8BD00000CA030C8083824182D18A246CD
:10013000671EAB4654465D46AC4201D100F014F850
:100140007E460F3E0FCCB6460126334200D0FB1A46
:10015000A246AB46334318475C3800007C380000A9
:100160001FB51FBD10B510BD00F072FA1146FFF7A4
:10017000F7FF00F0A3FA00F03BF803B4FFF7F2FF3B
:1001800003BC03F065FA000070B505460C46164640
:1001900002E00FCC0FC5103E102EFAD2082E02D36B
:1001A00003CC03C5083E042E07D301CC01C5361F7E
:1001B00003E021782970641C6D1C761EF9D270BD95
:1001C000704700000FB4054910B503AA029800F06B
:1001D00013FA10BC08BC04B0184700000C00002043
:1001E0007047704770477047C0688021084070476B
:1001F00010B50446C046C0462046FFF7BEFF10BDFE
:1002000010B50346002002E01C5C0C54401C9042D8
:10021000FADB10BD0C480D4A002100A1814200D933
:1002200002440B4802600B4880470B480047FEE73A
:10023000FEE7FEE7FEE7FEE7FEE7000007480849A5
:10024000084A094B70470000000000200000000031
:1002500008ED00E0F5300000C1000000D8000020EB
:10026000D8040020D8020020D802002001E004C0F9
:10027000091F0429FBD28B0701D50280801CC90706
:1002800000D00270704700290BD0C30702D0027063
:10029000401C491E022904D3830702D50280801C1A
:1002A000891EE3E70022EEE70022DFE700220309D0
:1002B0008B422CD3030A8B4211D300239C464EE081
:1002C00003460B433CD4002243088B4231D303093D
:1002D0008B421CD3030A8B4201D394463FE0C309EF
:1002E0008B4201D3CB01C01A524183098B4201D307
:1002F0008B01C01A524143098B4201D34B01C01AF2
:10030000524103098B4201D30B01C01A5241C30869
:100310008B4201D3CB00C01A524183088B4201D3D8
:100320008B00C01A524143088B4201D34B00C01AC4
:100330005241411A00D201465241104670475DE0D9
:10034000CA0F00D04942031000D34042534000225C
:100350009C4603098B422DD3030A8B4212D3FC2205
:10036000890112BA030A8B420CD3890192118B4284
:1003700008D3890192118B4204D389013AD092119A
:1003800000E08909C3098B4201D3CB01C01A524155
:1003900083098B4201D38B01C01A524143098B421E
:1003A00001D34B01C01A524103098B4201D30B0107
:1003B000C01A5241C3088B4201D3CB00C01A52412C
:1003C00083088B4201D38B00C01A5241D9D2430813
:1003D0008B4201D34B00C01A5241411A00D2014650
:1003E000634652415B10104601D34042002B00D5BA
:1003F0004942704763465B1000D3404201B500207C
:10040000C046C04602BD0000F0B5FF252D04C60958
:10041000C209FF2704462E400137CB093E4348401E
:100420002A402B400746002A6BD0002B69D0AA42F5
:1004300067D0AB4265D0002800DA32460125ED05D1
:1004400029432C4309022002090AD21A4B0C7F24AB
:10045000E31A434C000A7C44E35C7D242404121913
:1004600014145B00A218884201D3521C00E0400023
:1004700049420C465C4324115C43DB016415E318DC
:10048000040A5C43C502200D0C4644436419250A46
:100490005D432303EC0C0D46654300030019EB1884
:1004A0004C42A34201D35B18401CD4052018002BFA
:1004B00007D05B00C91804D3401C002901D14008B3
:1004C00040003F2189048A4209D3002A08DC110632
:1004D000090F04D0032149074018C00FC007F0BD21
:1004E00001224100120689187F2252069142F6D25B
:1004F00005214907C84201D59010F0BDFF20C00575
:10050000F0BD002F00DA32461648AA4207D2AB42AD
:1005100005D21902090E17D0F80FC007F0BDFF254C
:1005200063002D06AB42F9D84900A942F6D8AB4288
:1005300001D1A942F2D0A94201D1002101E061001C
:100540004908D0050843F0BD1102090EFBD0FF2079
:100550000243D005F0BD0A460146104654E70000AC
:10056000173500000000C07F0102C21504D001232E
:10057000DB071943002A0ADB9E239A1A02D4084695
:10058000D0407047FF2241001206914201D900205D
:100590007047C017C04370471F22030C02D10F22BF
:1005A00000041CD0030E01D10002083A030F01D150
:1005B0000001121F830F01D18000921E002801DB71
:1005C0004000521ED20551180212511819229040B3
:1005D00004D3491C002801D1490849000846704746
:1005E000C10FC90700D04042012292071143D3E74F
:1005F00001218907D0E70000084B70B50D467B4408
:1006000000F013F804462846FFF7EEFD002802D05C
:100610000020C04370BD204670BD0000273100009F
:1006200001694A1C02610878704700B58FB00291D9
:1006300000210591054901937944039111460490E5
:10064000684600F024F80FB000BD0000E5FFFFFF92
:10065000754600F02FF8AE46050069465346C008BF
:10066000C000854618B020B5FFF7E8FD60BC002744
:100670004908B6460026C0C5C0C5C0C5C0C5C0C56E
:10068000C0C5C0C5C0C5403D49008D467047F8B5DE
:10069000064600244768806800903046F56803E00D
:1006A0000099B847641C3046A8470028F8D1204676
:1006B000F8BD0000004870477800002010B502F037
:1006C00019FD03F043F8002010BD000010B5102004
:1006D00000F02EF9002000F03FF9054908600120E4
:1006E00000F03AF90349086000F07AF910BD000003
:1006F00004000020080000201FB50C2101A802F012
:10070000A9FF0021402001F0EDFD0121402001F072
:10071000E9FD0121102002F041FC00F0A1F90121C6
:10072000684601710021417101214903C18009110D
:10073000018100214181012189038181002181738F
:1007400001A800F011F90021684681704170022172
:10075000017000F04BF90821002000F00DF809218C
:10076000012000F009F800F0EBF801220321182025
:1007700001F08EF91FBD000010B50246130002F013
:100780001DFF100913202D3A47545E6B7885929F08
:10079000A9B6C3D06548006840094001CB06DB0E0E
:1007A0001843624B1860BEE0604800681F235B017D
:1007B00098434B011F246401234018435B4B18608E
:1007C000B1E05A4800681F239B0298438B021F2404
:1007D000A40223401843554B1860A4E05348006816
:1007E0001F23DB039843CB031F24E4032340184358
:1007F0004E4B186097E04D4800681F231B05984337
:100800000B051F24240523401843484B18608AE039
:10081000464800681F235B0698434B061F24640666
:1008200023401843414B18607DE040484068400930
:100830004001CB06DB0E18433C4B586073E03B484D
:1008400040681F235B0198434B011F246401234030
:100850001843364B586066E0344840681F239B02BB
:1008600098438B021F24A402234018432F4B586047
:1008700059E02E4840681F23DB039843CB031F2415
:10088000E40323401843294B58604CE02748406854
:100890001F231B0598430B051F24240523401843E1
:1008A000224B58603FE0214840681F235B06984375
:1008B0004B061F246406234018431C4B586032E04B
:1008C0001A48806840094001CB06DB0E1843174BDD
:1008D000986028E0154880681F235B0198434B010E
:1008E0001F24640123401843104B98601BE00F48FD
:1008F00080681F239B0298438B021F24A40223407D
:1009000018430A4B98600EE0084880681F23DB03F9
:100910009843CB031F24E40323401843034B986000
:1009200001E0042010BD00BF0020FBE74024004090
:100930000249496B8143014A51637047802400405A
:10094000044840680121C9038843401801494860B0
:1009500070470000002400400146024A88001058F9
:10096000704700005024004010B50446002C01D10F
:10097000042010BD012016494860022002F07AFED2
:100980006078A1880843E188084361880843218989
:1009900008430F49496808430D4948600846806884
:1009A00009158843217889020122920211400843E7
:1009B000074988600846806804218843A17A890035
:1009C000042211400843024988600020D1E700005A
:1009D000002400400120014948607047C0240040C5
:1009E0000020014948607047C024004001460029AA
:1009F00002D00878102801DD04207047174880686D
:100A00000122D2039043154A906010468068D214A8
:100A100090434A78D2020123DB021A4010430F4A66
:100A2000906010468068921590438A781202DB101D
:100A30001A401043094A90600848403080680F22ED
:100A4000120590430A78521E12050F231B051A4007
:100A50001043024A403290600020CEE7002400405C
:100A600010B50548006801210843034908600220C9
:100A700002F000FE10BD000000240040704710B5D9
:100A8000002001F0CDFF002001F0CAFF0821402026
:100A900001F0BCFB0921402001F0B8FB0A214020F5
:100AA00001F0B4FB0B21402001F0B0FB10BD7047FA
:100AB00010B53D480078002806D001281BD0022838
:100AC00030D003285FD144E00C21402001F018FC15
:100AD0000D21402001F09AFB0E21402001F096FBF1
:100AE0000F21402001F092FB002001F099FF00202F
:100AF00001F096FF48E00C21402001F087FB0D211A
:100B0000402001F0FDFB0E21402001F07FFB0F2172
:100B1000402001F07BFB002001F082FF002001F06B
:100B20007FFF31E00C21402001F070FB0D214020BF
:100B300001F06CFB0E21402001F0E2FB0F21402070
:100B400001F064FB002001F06BFF762001F068FFEC
:100B50001AE00C21402001F059FB0D21402001F04A
:100B600055FB0E21402001F051FB0F21402001F0E8
:100B7000C7FB002001F054FF0C490D4A1278885C35
:100B800001F04EFF00E000BF00BF07480078401CA6
:100B9000054908700878C117890F0918891089005C
:100BA000411A014A117010BD2F00002032000020B0
:100BB0002D00002070B5B7480068B749884202D9B7
:100BC0000846B4490860B5480078002806D00128D6
:100BD00053D0022878D0032877D103E10C2140209C
:100BE00001F08EFB0D21402001F010FB0E21402072
:100BF00001F00CFB0F21402001F008FBA848007811
:100C0000002812D101F00CFF0821402001F0FEFA6B
:100C10000921402001F0FAFA0A21402001F0F6FAF9
:100C20000B21402001F0F2FA13E09E49087A01F00E
:100C3000F7FE0821402001F063FB0921402001F06C
:100C40005FFB0A21402001F05BFB0B21402001F0FB
:100C500057FB90480068944988420AD9491C8D483E
:100C60000068FFF723FB91490C5C204601F0D8FE99
:100C700002E0002001F0D4FEFBE00C21402001F056
:100C8000C5FA0D21402001F03BFB0E21402001F070
:100C9000BDFA0F21402001F0B9FA81480078002800
:100CA00014D101F0BDFE0821402001F0AFFA092166
:100CB000402001F0ABFA0A21402001F0A7FA0B21F5
:100CC000402001F0A3FA15E031E0D1E07549087A3F
:100CD00001F0A6FE0821402001F012FB092140206E
:100CE00001F00EFB0A21402001F00AFB0B214020FD
:100CF00001F006FB67480068632810D96421654845
:100D00000068FFF7D3FA05460A21FFF7CFFA6748D4
:100D1000405C80210843044601F082FE06E06349FE
:100D2000097880221143084601F07AFEA1E00C21E7
:100D3000402001F06BFA0D21402001F067FA0E21EE
:100D4000402001F0DDFA0F21402001F05FFA584801
:100D50000088401C5649088008460088502801DB5E
:100D60000020088052480088282804DA0A21402000
:100D700001F0C6FA03E00A21402001F047FA484892
:100D8000007800280AD101F04BFE0821402001F034
:100D90003DFA0921402001F039FA0BE04149087A77
:100DA00001F03EFE0821402001F0AAFA092140206E
:100DB00001F0A6FA3748006809280ED90A213548FB
:100DC0000068FFF773FA05460A21FFF76FFA374804
:100DD000445C204601F024FE03E03449087801F029
:100DE0001FFE46E00C21402001F010FA0D214020AA
:100DF00001F00CFA0E21402001F008FA0F214020EA
:100E000001F07EFA26480078002812D101F008FE91
:100E10000821402001F0FAF90921402001F0F6F9FB
:100E20000A21402001F0F2F90B21402001F0EEF9F7
:100E300013E01C49087A01F0F3FD0821402001F07D
:100E40005FFA0921402001F05BFA0A21402001F0FD
:100E500057FA0B21402001F053FA0A210D4800688F
:100E6000FFF724FA1148445C204601F0D9FD00E068
:100E700000BF00BF09480078401C08490870087886
:100E8000C117890F091889108900411A034A117086
:100E900070BD0000040000200F2700002F0000207C
:100EA000300000203C000020E7030000320000205A
:100EB0004600002070B5B7480068B749884202D99B
:100EC0000846B4490860B5480078002806D00128D3
:100ED00053D0022878D0032877D103E10C21402099
:100EE00001F00EFA0D21402001F090F90E21402072
:100EF00001F08CF90F21402001F088F9A848007812
:100F0000002812D101F08CFD0821402001F07EF96B
:100F10000921402001F07AF90A21402001F076F9F8
:100F20000B21402001F072F913E09E49087A01F08C
:100F300077FD0821402001F0E3F90921402001F06C
:100F4000DFF90A21402001F0DBF90B21402001F0FC
:100F5000D7F990480068944988420AD9491C8D48BD
:100F60000068FFF7A3F991490C5C204601F058FD99
:100F700002E0002001F054FDFBE00C21402001F0D4
:100F800045F90D21402001F0BBF90E21402001F070
:100F90003DF90F21402001F039F9814800780028FF
:100FA00014D101F03DFD0821402001F02FF9092165
:100FB000402001F02BF90A21402001F027F90B21F4
:100FC000402001F023F915E031E0D1E07549087ABD
:100FD00001F026FD0821402001F092F9092140206E
:100FE00001F08EF90A21402001F08AF90B214020FE
:100FF00001F086F967480068632810D964216548C4
:101000000068FFF753F905460A21FFF74FF96748D3
:10101000405C80210843044601F002FD06E063497C
:10102000097880221143084601F0FAFCA1E00C2166
:10103000402001F0EBF80D21402001F0E7F80E21EF
:10104000402001F05DF90F21402001F0DFF8584801
:101050000088401C5649088008460088502801DB5B
:101060000020088052480088282804DA0B214020FC
:1010700001F046F903E00B21402001F0C7F8484891
:10108000007800280AD101F0CBFC0821402001F0B3
:10109000BDF80921402001F0B9F80BE04149087A78
:1010A00001F0BEFC0821402001F02AF9092140206E
:1010B00001F026F93748006809280ED90A21354879
:1010C0000068FFF7F3F805460A21FFF7EFF8374805
:1010D000445C204601F0A4FC03E03449087801F0A8
:1010E0009FFC46E00C21402001F090F80D214020AB
:1010F00001F08CF80E21402001F088F80F214020EB
:1011000001F0FEF826480078002812D101F088FC92
:101110000821402001F07AF80921402001F076F8FA
:101120000A21402001F072F80B21402001F06EF8F6
:1011300013E01C49087A01F073FC0821402001F0FB
:10114000DFF80921402001F0DBF80A21402001F0FE
:10115000D7F80B21402001F0D3F80A210D48006890
:10116000FFF7A4F81148445C204601F059FC00E068
:1011700000BF00BF09480078401C08490870087883
:10118000C117890F091889108900411A034A117083
:1011900070BD0000080000200F2700002F00002075
:1011A000300000203C000020E70300003200002057
:1011B0004800002070B55F480078002806D001285C
:1011C0002CD002285AD003287ED183E00C21402065
:1011D00001F096F80D21402001F018F80E21402072
:1011E00001F014F80F21402001F010F8002001F068
:1011F00017FC51484088514988420BDD4E494888C8
:101200007D21C900FFF75CF84D490C5C204601F0D8
:1012100007FC02E0002001F003FC7AE00C214020F2
:1012200000F0F4FF0D21402001F06AF80E2140206B
:1012300000F0ECFF0F21402000F0E8FF002001F05B
:10124000EFFB3D484088632810DD3B494888642116
:10125000FFF736F805460A21FFF732F83848405CB8
:1012600080210843044601F0DBFB06E0344909789D
:1012700080221143084601F0D3FB4AE00C214020B4
:1012800000F0C4FF0D21402000F0C0FF0E214020DF
:1012900001F036F80F21402000F0B8FF002001F0E7
:1012A000BFFB2548408809280FDD234948880A21CB
:1012B000FFF706F805460A21FFF702F82048445CCC
:1012C000204601F0ADFB04E022E01D49087801F062
:1012D000A7FB1EE00C21402000F098FF0D214020CC
:1012E00000F094FF0E21402000F090FF0F214020DD
:1012F00001F006F8002001F093FB0F4948880A210D
:10130000FEF7DEFF0E48445C204601F089FB00E05A
:1013100000BF00BF07480078401C064908700878E5
:10132000C117890F091889108900411A014A1170E3
:1013300070BD00004A0000205C000020E7030000B0
:101340003200002070B55F480078002806D00128E0
:101350002CD002285AD003287ED183E00C214020D3
:1013600000F0CEFF0D21402000F050FF0E21402064
:1013700000F04CFF0F21402000F048FF002001F05A
:101380004FFB51488088514988420BDD4E4988887F
:101390007D21C900FEF794FF4D490C5C204601F009
:1013A0003FFB02E0002001F03BFB7AE00C214020F3
:1013B00000F02CFF0D21402000F0A2FF0E21402064
:1013C00000F024FF0F21402000F020FF002001F05A
:1013D00027FB3D488088632810DD3B4988886421CD
:1013E000FEF76EFF05460A21FEF76AFF3848405CAB
:1013F00080210843044601F013FB06E034490978D4
:1014000080221143084601F00BFB4AE00C214020EA
:1014100000F0FCFE0D21402000F0F8FE0E214020DF
:1014200000F06EFF0F21402000F0F0FE002001F0E0
:10143000F7FA2548808809280FDD234988880A2182
:10144000FEF73EFF05460A21FEF73AFF2048445CBE
:10145000204601F0E5FA04E022E01D49087801F099
:10146000DFFA1EE00C21402000F0D0FE0D214020CC
:1014700000F0CCFE0E21402000F0C8FE0F214020DD
:1014800000F03EFF002001F0CBFA0F4988880A21C6
:10149000FEF716FF0E48445C204601F0C1FA00E05A
:1014A00000BF00BF07480078401C06490870087854
:1014B000C117890F091889108900411A014A117052
:1014C00070BD00004B0000205C000020E70300001E
:1014D0003200002070B55F480078002806D001284F
:1014E0002CD002285AD003287ED183E00C21402042
:1014F00000F006FF0D21402000F088FE0E21402064
:1015000000F084FE0F21402000F080FE002001F05A
:1015100087FA5148C088514988420BDD4E49C88836
:101520007D21C900FEF7CCFE4D490C5C204601F040
:1015300077FA02E0002001F073FA7AE00C214020F3
:1015400000F064FE0D21402000F0DAFE0E21402064
:1015500000F05CFE0F21402000F058FE002001F05A
:101560005FFA3D48C088632810DD3B49C888642184
:10157000FEF7A6FE05460A21FEF7A2FE3848405CAB
:1015800080210843044601F04BFA06E0344909780B
:1015900080221143084601F043FA4AE00C21402022
:1015A00000F034FE0D21402000F030FE0E214020DE
:1015B00000F0A6FE0F21402000F028FE002001F0E0
:1015C0002FFA2548C08809280FDD2349C8880A2139
:1015D000FEF776FE05460A21FEF772FE2048445CBF
:1015E000204601F01DFA04E022E01D49087801F0D0
:1015F00017FA1EE00C21402000F008FE0D214020CB
:1016000000F004FE0E21402000F000FE0F214020DB
:1016100000F076FE002001F003FA0F49C8880A2185
:10162000FEF74EFE0E48445C204601F0F9F900E05A
:1016300000BF00BF07480078401C064908700878C2
:10164000C117890F091889108900411A014A1170C0
:1016500070BD00004C0000205C000020E70300008B
:101660003200002070B55F480078002806D00128BD
:101670002CD002285AD003287ED183E00C214020B0
:1016800000F03EFE0D21402000F0C0FD0E21402064
:1016900000F0BCFD0F21402000F0B8FD002001F05B
:1016A000BFF951484089514988420BDD4E4948896C
:1016B0007D21C900FEF704FE4D490C5C204601F077
:1016C000AFF902E0002001F0ABF97AE00C214020F4
:1016D00000F09CFD0D21402000F012FE0E21402064
:1016E00000F094FD0F21402000F090FD002001F05B
:1016F00097F93D480089632810DD3B49088964213A
:10170000FEF7DEFD05460A21FEF7DAFD3848405CAB
:1017100080210843044601F083F906E03449097842
:1017200080221143084601F07BF94AE00C21402059
:1017300000F06CFD0D21402000F068FD0E214020DE
:1017400000F0DEFD0F21402000F060FD002001F0E0
:1017500067F92548008909280FDD234908890A21EE
:10176000FEF7AEFD05460A21FEF7AAFD2048445CBF
:10177000204601F055F904E022E01D49087801F007
:101780004FF91EE00C21402000F040FD0D214020CB
:1017900000F03CFD0E21402000F038FD0F214020DC
:1017A00000F0AEFD002001F03BF90F4908890A2145
:1017B000FEF786FD0E48445C204601F031F900E05A
:1017C00000BF00BF07480078401C06490870087831
:1017D000C117890F091889108900411A014A11702F
:1017E00070BD00004D0000205C000020E7030000F9
:1017F0003200002070B55F480078002806D001282C
:101800002CD002285AD003287ED183E00C2140201E
:1018100000F076FD0D21402000F0F8FC0E21402064
:1018200000F0F4FC0F21402000F0F0FC002001F05B
:10183000F7F851484089514988420BDD4E494889A3
:101840007D21C900FEF73CFD4D490C5C204601F0AE
:10185000E7F802E0002001F0E3F87AE00C214020F4
:1018600000F0D4FC0D21402000F04AFD0E21402064
:1018700000F0CCFC0F21402000F0C8FC002001F05B
:10188000CFF83D484089632810DD3B4948896421F1
:10189000FEF716FD05460A21FEF712FD3848405CAA
:1018A00080210843044601F0BBF806E0344909787A
:1018B00080221143084601F0B3F84AE00C21402091
:1018C00000F0A4FC0D21402000F0A0FC0E214020DF
:1018D00000F016FD0F21402000F098FC002001F0E0
:1018E0009FF82548408909280FDD234948890A21A6
:1018F000FEF7E6FC05460A21FEF7E2FC2048445CC0
:10190000204601F08DF804E022E01D49087801F03E
:1019100087F81EE00C21402000F078FC0D214020CB
:1019200000F074FC0E21402000F070FC0F214020DC
:1019300000F0E6FC002001F073F80F4948890A2105
:10194000FEF7BEFC0E48445C204601F069F800E05A
:1019500000BF00BF07480078401C0649087008789F
:10196000C117890F091889108900411A014A11709D
:1019700070BD00004E0000205C000020E703000066
:101980003200002010B540480078002806D0012819
:101990001BD0022830D0032864D14CE00C21402019
:1019A00000F0AEFC0D21402000F030FC0E21402064
:1019B00000F02CFC0F21402000F028FC002001F05A
:1019C0002FF8002001F02CF84DE00C21402000F011
:1019D0001DFC0D21402000F093FC0E21402000F062
:1019E00015FC0F21402000F011FC002001F018F838
:1019F000002001F015F836E00C21402000F006FC34
:101A00000D21402000F002FC0E21402000F078FC67
:101A10000F21402000F0FAFB002001F001F81B48E4
:101A2000007B002803D13E2000F0FAFF02E077207F
:101A300000F0F6FF17E00C21402000F0E7FB0D213D
:101A4000402000F0E3FB0E21402000F0DFFB0F21DF
:101A5000402000F055FC002000F0E2FF002000F0E4
:101A6000DFFF00E000BF00BF07480078401C0649C8
:101A700008700878C117890F091889108900411A60
:101A8000014A117010BD00004F0000205C000020D2
:101A900070B504460E4615462046002805DBC206F2
:101AA000D20E01219140144A116000BF31462046F8
:101AB00001F092FD012D0ED12046002809DB00BF68
:101AC00000BFC206D20E012191400C4A116000BF36
:101AD00000BF00BF0FE0204600280ADBC206D20E7E
:101AE00001219140054A80321160BFF34F8FBFF34F
:101AF0006F8F00BF00BF70BD80E200E000E100E03A
:101B000070470000F0B58BB005460E460024FF205C
:101B10000A9000200990202101A8FEF7C5FB284F5C
:101B2000012D0ED0022D0CD0042D0AD0062D08D088
:101B3000082D06D00C2D04D00420099009980BB074
:101B4000F0BD1F48006A0121490288437102012249
:101B50005202114008431A490862002407E0A0001D
:101B6000184908586843A10001AA5050641C082C69
:101B7000F5D30C2D01D1FF20029000241CE0FF20A2
:101B80000A9011E00A98411E0A9100280AD00E48D6
:101B90000B49C8620D48C862A00001A90858A100FD
:101BA000785001E00720CAE7A0003858A10001AA38
:101BB00051588842E6D1641C082CE0D30998BEE74E
:101BC00000000240143900005A5A0000A5A5000088
:101BD00003480449C8620448C8620020086370478B
:101BE0005A5A000000000240A5A5000008B50246B0
:101BF0000023FF2000902548824202D90423184682
:101C000008BDFF20009006E00098411E00910028CA
:101C100001D10920F4E71E48006AC006C00F002861
:101C2000F2D100F03BF8FF20009012E00098411E36
:101C3000009100280BD017481549C8621648C862A1
:101C40000846006A80088000801C086201E00920C4
:101C5000D6E70F48006A8007800F0228E6D10020EF
:101C60001070FF20009006E00098411E00910028AF
:101C700001D10920C4E70648006AC006C00F002849
:101C8000F2D1FFF7A5FF1846BAE70000FFFF0000FA
:101C9000000002405A5A0000A5A50000044805496A
:101CA000C8620548C8620020C0430863704700004E
:101CB0005A5A000000000240A5A5000010B50146D8
:101CC0000020084A084BDA62084ADA621A46126AA9
:101CD0000C239A438B000C2423401A43024B1A62B4
:101CE00010BD00005A5A000000000240A5A50000E7
:101CF00018B502460B460024FF200090244882427B
:101D000002D90424204618BDFF20009006E0009868
:101D1000411E0091002801D10920F4E71D48006A06
:101D2000C006C00F0028F2D1FF20009012E00098FA
:101D3000411E009100280BD017481649C862174869
:101D4000C8620846006A80088000401C086201E002
:101D50000920D8E70F48006A8007800F0128E6D1E4
:101D6000FFF79CFF1370FF20009006E00098411ED3
:101D70000091002801D10920C5E70648006AC00685
:101D8000C00F0028F2D1FFF723FF2046BBE7000079
:101D9000FFFF0000000002405A5A0000A5A5000005
:101DA0001CB501211C2001F0F9F8012168460170E1
:101DB000417000218170C1700171012141716A4639
:101DC0000021084600F03CFA6A460121002000F09C
:101DD00037FA6A460221002000F032FA6A460321EF
:101DE000002000F02DFA6A460421002000F028FAB5
:101DF0006A460521002000F023FA6A4606210020E9
:101E000000F01EFA6A460721002000F019FA6A461F
:101E10000821002000F014FA6A460921002000F091
:101E20000FFA6A460A21002000F00AFA6A460B21DE
:101E3000002000F005FA6A460C21002000F000FAAC
:101E40006A460D21002000F0FBF96A460E210020B1
:101E500000F0F6F96A460F21002000F0F1F90021A8
:101E6000084600F0D3F90121002000F0CFF902214B
:101E7000002000F0CBF90321002000F0C7F9042175
:101E8000002000F0C3F90521002000F0BFF9062171
:101E9000002000F0BBF90721002000F0B7F908216D
:101EA000002000F0B3F90921002000F0AFF90A2169
:101EB000002000F0ABF90B21002000F0A7F90C2165
:101EC000002000F0A3F90D21002000F09FF90E2161
:101ED000002000F09BF90F21002000F097F96A46DE
:101EE0000021402000F0ACF96A460121402000F0BA
:101EF000A7F96A460221402000F0A2F96A460321B0
:101F0000402000F09DF96A460421402000F098F935
:101F10006A460621402000F093F96A4607214020D6
:101F200000F08EF96A460821402000F089F96A46DF
:101F30000921402000F084F96A460A21402000F07F
:101F40007FF96A460B21402000F07AF96A460C219D
:101F5000402000F075F96A460D21402000F070F92C
:101F60006A460E21402000F06BF96A460F2140209E
:101F700000F066F90021402000F048F901214020DE
:101F800000F044F90221402000F040F903214020F4
:101F900000F03CF90421402000F038F905214020F0
:101FA00000F034F90621402000F030F907214020EC
:101FB00000F02CF90821402000F028F909214020E8
:101FC00000F024F90A21402000F020F90B214020E4
:101FD00000F01CF90C21402000F018F90D214020E0
:101FE00000F014F90E21402000F010F90F214020DC
:101FF00000F00CF96A460021802000F021F96A46C1
:102000000121802000F01CF96A460221802000F0A6
:1020100017F96A460321802000F012F96A4604216C
:10202000802000F00DF96A460521802000F008F9B3
:102030006A460621802000F003F96A4607218020C5
:1020400000F0FEF86A460821802000F0F9F86A46A0
:102050000921802000F0F4F86A460A21802000F06F
:10206000EFF86A460B21802000F0EAF86A460C215E
:10207000802000F0E5F86A460D21802000F0E0F8AD
:102080000021802000F0C2F80121802000F0BEF87D
:102090000221802000F0BAF80321802000F0B6F879
:1020A0000421802000F0B2F80521802000F0AEF875
:1020B0000621802000F0AAF80721802000F0A6F871
:1020C0000821802000F0A2F80921802000F09EF86D
:1020D0000A21802000F09AF80B21802000F096F869
:1020E0000C21802000F092F80D21802000F08EF865
:1020F0006A460021C02000F0A3F86A460121C020F2
:1021000000F09EF86A460221C02000F099F86A4665
:102110000321C02000F094F86A460621C02000F098
:102120008FF86A460721C02000F08AF86A46082125
:10213000C02000F085F86A460921C02000F080F830
:102140006A460A21C02000F07BF86A460B21C020B5
:1021500000F076F86A460C21C02000F071F86A465B
:102160000D21C02000F06CF86A460E21C02000F05E
:1021700067F86A460F21C02000F062F80021C020F5
:1021800000F044F80121C02000F040F80221C020F6
:1021900000F03CF80321C02000F038F80421C020F2
:1021A00000F034F80521C02000F030F80621C020EE
:1021B00000F02CF80721C02000F028F80821C020EA
:1021C00000F024F80921C02000F020F80A21C020E6
:1021D00000F01CF80B21C02000F018F80C21C020E2
:1021E00000F014F80D21C02000F010F80E21C020DE
:1021F00000F00CF80F21C02000F008F81CBD0246CA
:102200001068C840C007C00F7047000070B5044692
:102210000D46044960180122294600F05BFC0020AD
:1022200070BD0000140D024070B504460D46034910
:1022300060182946FFF7E3FF70BD0000040D02405F
:1022400070B504460E4615461E49601800223146F8
:1022500000F040FC00201C496118B20088502A7828
:1022600018490C396018314600F034FC6A78154979
:1022700010316018314600F02DFCAA781149143154
:102280006018314600F026FCEA780E4918316018D3
:10229000314600F01FFC2A790A4920316018314686
:1022A00000F018FC094880680121C9038843697956
:1022B000C9030122D2031140084304498860002069
:1022C00070BD00000C0D0240000C0240000F0240E7
:1022D00010B50346024818188C000251002010BDAA
:1022E000000C024070B504460D46044960180122F6
:1022F000294600F0EFFB002070BD00000C0D0240ED
:1023000070B504460D46044960180122294600F0C4
:10231000E1FB002070BD0000100D024008B5002058
:10232000009000BF00980028FCD008BD704770479F
:102330001CB501211C2000F031FE0021684601700F
:102340008170C17008214020FFF760FF0921402003
:10235000FFF75CFF0A214020FFF758FF0B214020C8
:10236000FFF754FF0C214020FFF750FF0D214020C4
:10237000FFF74CFF0E214020FFF748FF0F214020C0
:10238000FFF744FF6A4608214020FFF759FF6A46DD
:1023900009214020FFF754FF6A460A214020FFF739
:1023A0004FFF6A460B214020FFF74AFF6A460C2187
:1023B0004020FFF745FF6A460D214020FFF740FF10
:1023C0006A460E214020FFF73BFF6A460F2140205E
:1023D000FFF736FF1CBD1CB501211C2000F0DEFDFF
:1023E000012168460170417000218170C170017146
:1023F000012141716A4604214020FFF721FF6A460E
:1024000005214020FFF71CFF6A4606214020FFF708
:1024100017FF6A4607214020FFF712FF1CBD7047D7
:1024200010B5074800F033FA012808D1044800F03D
:1024300011FA04480078402108430249087010BD91
:10244000000F0040140000201CB50821684601F070
:1024500001F90121092000F0A1FD002168468170E9
:102460004170022101700021C1700171012141718F
:102470000B49C18069460B4800F011FA094800F089
:10248000E9F90121074800F0F8F9012203211120A0
:10249000FFF7FEFA0121034800F0E5F91CBD00003A
:1024A000FFBF0000000F00407047704770B5044642
:1024B0000D46002229462046143000F00BFB002078
:1024C00070BD70B504460D4601222946201D00F05E
:1024D00001FB002070BD70B504460D46002629465C
:1024E00020461030FFF78BFE0646304670BD0000D8
:1024F000F0B587B005460C460127224A07CA04AB4F
:1025000007C300200390002C02D1042007B0F0BDC7
:1025100000206860608861780843E1880843A188EA
:1025200008432178084368602078402802D020784A
:10253000C02824D1E088C117C90D091849128900A3
:1025400004AA515A8EB2E168B1400846FEF750F82D
:102550000290A068FEF74CF801900299FDF754FF35
:1025600003903F210906039801F026F90290FDF738
:10257000FBFF80B2A86104212846FFF7A2FF0027D5
:102580003846C3E73439000070B504460D4600BF35
:1025900003212046FFF79FFF0028F9D02068000A9A
:1025A0000002E9B20843206000BF01212046FFF786
:1025B00092FF0028F9D001212046FFF777FF002085
:1025C00070BD000000B587B0102103A801F042F8EB
:1025D000062101A801F03EF80121032000F0DEFCF5
:1025E00001211C2000F0DAFC00216846017101AADB
:1025F0000846FFF725FE022200210846FFF768FE85
:1026000001216846017101AA0020FFF719FE02228C
:1026100001210020FFF75CFE00216846C1810421F2
:1026200041730021018200F06FFC059001218902B5
:1026300003A8C180E1214902069140216846017347
:1026400003A90248FFF754FF07B000BD0040004057
:102650007047000010B55C48407980210840002890
:1026600007D0594840794006400E574948718024A8
:1026700066E05548407940210840002807D052487C
:102680004079BF21084050494871402458E04E48E5
:10269000407920210840002807D04B484079DF21AD
:1026A00008404949487120244AE0474840791021B0
:1026B0000840002807D044484079EF2108404249AB
:1026C000487110243CE04048407908210840002827
:1026D00007D03D484079F72108403B49487108241C
:1026E0002EE03948407904210840002807D03648B8
:1026F0004079FB21084034494871042420E03248E5
:10270000407902210840002807D02F484079FD2158
:1027100008402D494871022412E02B484079C00737
:10272000C00F002807D028484079FE2108402649DC
:102730004871012404E0244844790020224948716A
:1027400022480078012837D1102C1BD008DC012C3E
:1027500028D0022C22D0042C1CD0082C26D115E025
:10276000202C0BD0402C05D0802C1FD118A0FDF7B9
:1027700029FD1FE01AA0FDF725FD1BE01CA0FDF7B9
:1027800021FD17E01EA0FDF71DFD13E020A0FDF7C1
:1027900019FD0FE022A0FDF715FD0BE024A0FDF7C9
:1027A00011FD07E027A0FDF70DFD03E0012000F07B
:1027B000E5FE00BF00BF03E0012000F0DFFE00BF28
:1027C00000BF00F097F910BD150000201E0000208A
:1027D00073686F7274206D656E752E2E2E2E2E000E
:1027E0006C6F6E67206D656E752E2E2E2E2E00007E
:1027F00073686F72742075702E2E2E2E2E000000BE
:102800006C6F6E672075702E2E2E2E2E000000002D
:1028100073686F727420646F776E2E2E2E2E2E00CA
:102820006C6F6E6720646F776E2E2E2E2E2E00003A
:1028300073686F727420656E7465722E2E2E2E2E44
:10284000000000006C6F6E6720656E7465722E2E3E
:102850002E2E2E0010B504460022114620461430BC
:1028600000F038F910BD70B505460C46224600212F
:1028700028460C3000F02EF970BD70B505460C46A8
:1028800022460A2128460C3000F024F970BD10B50C
:102890000446002120461030FFF7B1FC10BD30B5D2
:1028A00002467D23DB00D0683024A0430C7824014D
:1028B00030252C402043D060D06801246402A0431E
:1028C0004C78640201256D022C402043D060D06812
:1028D0006C10A0438C7824026D102C402043D060F3
:1028E000D0680824A043CC78E40008252C4020437D
:1028F000D060D0680424A0430C79A40004252C40A7
:102900002043D060D0680224A0434C7964000225A3
:102910002C402043D06005E0D0680006C00F00289E
:1029200000D004E018465C1EA3B20028F4D100BF1A
:10293000002B01D1092030BD5068000C0004CC8868
:10294000204350600020F6E770477047704770479B
:102950007047704710B500BF01210620FFF7D2F87D
:102960000028F9D10E220B490B480068FDF748FCFE
:1029700008480078AB2803D10648407BBA2807D026
:1029800000F000F90E22034903480068FDF7B8FB88
:1029900010BD00005C00002054000020704770470C
:1029A000704700000EB5062101A800F053FE01217A
:1029B0001C2000F0F3FA0121062000F0EFFA0021BC
:1029C00068464171017101AA07210020FFF738FC18
:1029D000012207210020FFF77BFC01AA042100202F
:1029E000FFF72EFC012204210020FFF771FC01AA51
:1029F00005210020FFF724FC012205210020FFF71C
:102A000067FC10216846017000214170C17081701F
:102A10006946024800F089F80EBD00000008004039
:102A200010B504460021094800F093F821460748F4
:102A300000F08BF800BF0421044800F06DF8002876
:102A4000F9D00121014800F084F810BD00080040D1
:102A500010B5FEF714F81C480078012804D00228AD
:102A60000CD004282CD10CE018480078002802D0A3
:102A7000FEF7A0F801E0FEF71DFA22E0FEF718F8D5
:102A80001FE013480078030000F098FD07170508C1
:102A90000B0E11141700FEF78DFB0FE0FEF752FC32
:102AA0000CE0FEF717FD09E0FEF7DCFD06E0FEF79F
:102AB000A1FE03E0FEF766FF00E000BF00BF00E0FC
:102AC00000BF00BF10BD00002C000020310000201E
:102AD0002D00002010B5012A05D1036801248C4087
:102AE0002343036004E0036801248C40A343036094
:102AF00010BD000006484079002807D072B605488E
:102B00000078202108430349087062B6704700002E
:102B1000150000201400002002469068084000289C
:102B200001D0012070470020FCE702460020106021
:102B300008784B7818438B781843CB781843402398
:102B4000184310600020906070470246D16000205A
:102B500070474160704708B50020FFF7AFF80020CC
:102B600000F028FA062000F04BFA002168460170B8
:102B70004170817000F022F80121032000F054F828
:102B800008BD0000AB200A490870FF20F5304880DE
:102B9000FF202D308880FF20A530C880FA200881D2
:102BA000C820488100200873BA204873704700008D
:102BB0005C00002010B5C046C04610BD70B504468C
:102BC00000252078030000F0F9FC0504050C10181E
:102BD0001C0018E0032000F05DFA032000F024FA46
:102BE00011E0032000F0FAF90DE00321084600F09F
:102BF0005FFA032000F028FA05E0072000F0BCF996
:102C000001E0042500BF00BF2078012100F00CF88E
:102C1000207800F029FA607800F086F9A07800F0BA
:102C200097F9284670BD0000F8B505460C46002708
:102C300000F0B8FC002C01D0012000E00020044688
:102C40005148066A2B0000F0B9FC050417394D7293
:102C500098004D48006840084000E107C90F08434C
:102C60004949086000BF002C05D04748C0680005EE
:102C7000C00F0028F7D082E04348006A012109070D
:102C800088434018404908624048C068032108430F
:102C90003E49C8603C480068022188436100022226
:102CA000114008433849086000BF002C05D0364861
:102CB00000694006C00F0028F7D060E03248006885
:102CC00004218843A1000422114008432E490860D2
:102CD00000BF002C05D02C484069C004C00F00285C
:102CE000F7D04CE02848006A0121090788434018C2
:102CF0002549086225484038C068032189030843F4
:102D000022494039C8602048006808218843E10012
:102D10000822114008431C49086000BF002C05D060
:102D2000194880694006C00F0028F7D027E01648F0
:102D3000006A0121090488434018134908621448B5
:102D4000006840084000401C11490860142000F051
:102D500091FC0D4800681021884321011022114088
:102D600008430949086000BF002C05D00648C06B25
:102D70004003C00F0028F7D001E0042700BF00BFC8
:102D8000014806623846F8BD00200040C00D0240F0
:102D90000024004030B589B000241422564904A80C
:102DA000FDF7F2F9544814300068039000200090B9
:102DB0000190029051480188684601814F4841883E
:102DC0006846C1804D488188684681804B48C188EB
:102DD000684641804948203001886846018048485B
:102DE00000680006450F2B0000F0E8FB05042E30BC
:102DF0003E4178004248C0684005400D6946098957
:102E0000884201D1089C1EE03D48C0684005400D45
:102E10006946C988884201D1079C14E03848C068D7
:102E20004005400D69468988884201D1069C0AE028
:102E30003348C0684005400D69464988884201D141
:102E4000059C00E0049C4BE02E4C49E0684600885D
:102E50002B4949698905890D884202D16846C48990
:102E600001E0684684893BE00124E40338E024481B
:102E7000C06B8007800F032829D16846008920494C
:102E8000C9684905490D884201D1089C20E068467F
:102E9000C0881B49C9684905490D884201D1079C72
:102EA00016E0684680881649C9684905490D884278
:102EB00001D1069C0CE0684640881149C968490563
:102EC000490D884201D1059C02E0049C00E00D4CB4
:102ED0000B48C06BC005000F444301E0002400BF55
:102EE00000BF074800684005410F2046C84004461F
:102EF000204609B030BD000040390000000C100031
:102F0000002000400048E80110B50024FFF742FF10
:102F1000044604480068C004810F2046C8400446A7
:102F2000204610BD0020004010B5044600F03AFBDA
:102F3000064800680721090288432102072212027D
:102F40001140084301490860002010BD00200040E6
:102F500010B5044600F026FB064800680321C902AC
:102F60008843E1020322D20211400843014908606C
:102F7000002010BD0020004010B501460020064A88
:102F8000D26B0723DB039A43CB030724E4032340DC
:102F90001A43014BDA6310BD0020004070B50446AF
:102FA0000D462A4621460248FFF794FD002070BDD9
:102FB0002020004001464A00064BD21812885005D6
:102FC000400D054AD268D20AD2020243024BDA60AF
:102FD00000207047000C10000020004010B5014692
:102FE0000020064A526903239B029A438B02032462
:102FF000A40223401A43014B5A6110BD0020004037
:1030000010B5044600F0CEFA064840680721490290
:103010008843610207225202114008430149486077
:10302000002010BD0020004010B501460020054AD8
:10303000126930239A430B01302423401A43014B79
:103040001A6110BD0020004010B501460020054A5D
:10305000926930239A430B01302423401A43014BD9
:103060009A6110BD0020004070B504460025264638
:1030700000F098FA06480068E02188437101E022D8
:10308000114008430249086000F02CF8284670BD42
:103090000020004001460020044A12699208920074
:1030A0008B079B0F1A43014B1A61704700200040A9
:1030B00030B5024600200A4B9B690C24A3439400C0
:1030C0000C252C402343064CA36123469B699B0897
:1030D0009B008C07A40F2343014CA36130BD00006B
:1030E0000020004010B5FFF755FE0149086010BDF3
:1030F0001000002010B50D4949888805800D0C4945
:103100004969890A89020143094A516107492039FD
:1031100009894805400D1146C968C90AC902014319
:10312000D160FFF7DFFF00F02FFA10BD200C100078
:1031300000200040704770477047000010B5002025
:1031400000F020F9012808D1002000F011F903480F
:103150000078802108430149087010BD1400002048
:10316000704770477047000010B504214020FFF7FA
:103170005BF800280AD156480078401CC0B2544978
:103180000870F02801DDF020087015E05048007844
:1031900002280EDD4E480078C8280ADA4D4800782B
:1031A000002803D101204B49087002E00020494962
:1031B000087000204649087005214020FFF734F8C8
:1031C00000280AD144480078401CC0B24249087027
:1031D000F02801DDF020087015E03F480078022853
:1031E0000EDD3D480078C8280ADA3C4800780028FF
:1031F00003D101203949087002E0002037490870E6
:1032000000203549087006214020FFF70DF80028FE
:1032100011D133480078401CC0B231490870F02801
:1032200001DDF02008702E480078C82819D1002050
:103230002C49088015E02A48007802280EDD28482D
:103240000078C8280ADA25480078002803D1012030
:103250002249087002E0002020490870002020491F
:10326000087007214020FEF7DFFF002819D11E4813
:103270000078401CC0B21C490870F02801DDF02025
:10328000087019480078C82821D11448007800280F
:1032900003D101201149087019E000200F4908707E
:1032A00015E01148007802280EDD0F480078C82884
:1032B0000ADA0A480078002803D10120074908707B
:1032C00002E000200549087000200749087010BD81
:1032D00024000020310000202500002030000020C4
:1032E00026000020000000202700002070B50025E7
:1032F0001C480478002C33D0F0202040002805D052
:1033000020111949085C001DC5B201E01648055D91
:103310001648445D72B61348007820401149087081
:1033200062B6002D01D000F021F92B0000F046F923
:10333000091615141312110E0B061600FFF788FB61
:10334000FFF712FF0BE000F0E1F808E0FFF782F969
:1033500005E004E003E002E001E000E000BF00BFA0
:1033600070BD0000140000205839000068390000CA
:103370000146002001228A40D243014B5A61704726
:103380000058004001460020034B1A691346CB4009
:10339000D807C00F704700000058004001460020C9
:1033A000044A1268120C12048BB21A43014B1A60C1
:1033B000704700000058004001460020044A52684F
:1033C000120C12048BB21A43014B5A607047000072
:1033D0000058004000200449C96849084900491CB8
:1033E000014AD160704700000058004000200449A5
:1033F000C9680122920291438918014AD16070473D
:103400000058004010B501460020284AD268032326
:103410001B039A430B781B030324240323401A4302
:10342000224BDA601A46D2685B159A434B785B02EE
:103430000124640223401A431C4BDA601A46D26806
:103440009B159A438B781B02641023401A43174B39
:10345000DA601A46D26870239A43CB781B01702435
:1034600023401A43114BDA601A46D26808239A4364
:103470000B79DB00082423401A430C4BDA601A4610
:10348000D26804239A434B799B00042423401A43B7
:10349000064BDA601A46D26802239A438B795B00A6
:1034A000022423401A43014BDA6010BD005800404B
:1034B0007CB50721684600F0CDF801210B20FFF70D
:1034C0006DFD00216846017041710521C170012127
:1034D00081710021017181704170FFF793FF0A4CE7
:1034E0002046FFF75BFF25462846FFF765FF0020D3
:1034F000FFF73EFFFFF77AFF012203210520FEF7C9
:10350000C7FAFFF767FF7CBD59F1000010B5002432
:1035100021E01248005D00281BD01048005D401ECD
:10352000C0B20E490855002813D1002C06D0012C3A
:1035300005D0022C09D0032C09D107E008E00220B5
:1035400006494870FDF746FA02E001E000E000BFDE
:1035500000BF601CC4B20B2CDBDB10BD6A00002076
:103560007047704770477047704700001E2002493F
:103570000860E12008607047800F00400149087032
:10358000704700001E0000200549086A096A0122F0
:10359000120791438918024A116211460862704766
:1035A0000020004002480349886003488860704753
:1035B0005A5A000000200040A5A5000030B474460F
:1035C000641E2578641CAB4204D3635D5B00E31882
:1035D00030BC18471D46F8E710B5002819DB1A4A19
:1035E00003231B02D21883089B00D2588307DC0EEA
:1035F000FF23A3409A438B071B0E8407E40EA340CE
:103600001A43114B032424021B198408A4001A51E5
:1036100018E00E4A03071B0F083B9B089B00D2587B
:103620008307DC0EFF23A3409A438B071B0E8407FE
:10363000E40EA3401A43054B0407240F083CA408DA
:10364000A4001A5110BD000000E100E01CED00E0F4
:1036500000BF704710B50A460146002900D110BDD1
:1036600002E000230B70491C1346521E002BF8D1B8
:1036700000BFF4E770B505461148124948610020C3
:103680008861052008610FE000200E4988610E491D
:103690000E480068FCF70AFE012109060C1A00BF5B
:1036A00008488069A042FBD828466D1E0028EBD14F
:1036B00004480069400840000249086170BD0000EC
:1036C000FFFFFF0000E000E0A086010010000020E6
:1036D00070B50546114812494861002088610520EF
:1036E000086110E000200E4988617D21C9000D4865
:1036F0000068FCF7DBFD012109060C1A00BF084831
:103700008069A042FBD828466D1E0028EAD10448F3
:103710000069400840000249086170BDFFFFFF00DA
:1037200000E000E01000002070B504460D46E0B255
:103730000A2803D10D210448FEF726FFE1B2024812
:10374000FEF722FF204670BD00400040FFF703FA5D
:10375000FEF726FBFEF73FFEFFF724F9FEF774FEA7
:10376000FFF7A6FEFEF7E4FDFFF7F4F8FCF7C4FF51
:10377000FEF728FF06A0FCF725FD7D20C000FFF71F
:10378000A7FF02200B49487001E0FFF7AFFDFCE7FF
:1037900053797374656D2053746172742E2E2E2EBE
:1037A0002E2E2E2E2E2E2E2E2E2E2E2E2E2E0D0A7E
:1037B000000000006A00002070B501250400ED073C
:1037C0004C4020D4441A01D2001B0919C60D4B00ED
:1037D000F2B2FF2A29D01B0E2CD000020C02D31A01
:1037E0002C43DC402843051910D2280A02D3401C80
:1037F0006D0611D0761EF6058019FF2A00DA70BD1D
:10380000C00DC00570BD694000F022F801200543DD
:10381000C541521C761CE8E764089C40C901614020
:103820008900E7D10124A043E4E71B0E440200D045
:10383000034870BD002AFCD1C00FC00770BD00BF97
:103840000000C07F70B501250400ED074C4022D474
:10385000441A02D26C40001B0919C60D4B00F2B28B
:10386000FF2A4BD01B0E50D000020C02D31A2C435F
:10387000DC40A843051B05D5AD0019D36D08761EA5
:10388000521E37D0F605280A01D2801970BD70414A
:103890006D0603D070BD6940FFF794FF9C4009029C
:1038A0006140490001D0401E70BD0124A04370BD9D
:1038B0006D081DD001202B0C01D12D0410302B0ED2
:1038C00001D12D0208302B0F01D12D01001DAB0FAE
:1038D00001D1AD00801CEB0F01D16D00401C6D00CB
:1038E000361A121A680AF5054019012A02DB70BD62
:1038F000002070BDC036300AC00770BD1B0E4402E8
:1039000001D1FF2B00D1024870BD002AF0D070BD5C
:103910000000C07F20000000170000001B00000016
:1039200050460000E022020018000000F0000000F5
:10393000E803000004000000030000000200000093
:1039400000093D0000127A000024F4004086510175
:1039500000366E010080009600010202030303039B
:103960000404040404040404FFFEFDFBF7EFDFBFBE
:103970007F8182838485868788898B8C8D8E8F91C9
:103980009293959697999A9C9D9FA0A2A3A5A7A86C
:10399000AAACAEB0B2B3B5B7B9BCBEC0C2C5C7C998
:1039A000CCCED1D4D7D9DCDFE2E6E9ECF0F3F7FAFC
:1039B000FE000000D4390000000000205C00000080
:1039C000C8000000303A00005C0000207C040000C9
:1039D000E400000000000000000000000000000003
:1039E0000000000000366E01000000000000000032
:1039F00000000000000001000000000000000000C6
:103A00000101010000003F065B4F666D7D077F6F7F
:103A1000000103070F1F3F7FFF00000000000000B0
:103A2000000000000000000000FE00000000000098
:04000005000000C136
:00000001FF
