:020000040000FA
:10000000C8040020150200002F020000512100004A
:1000100000000000000000000000000000000000E0
:10002000000000000000000000000000330200009B
:10003000000000000000000035020000D52900008B
:100040008127000083270000852700008727000004
:100050009F0A00005D2F0000393400003B3400008F
:10006000DD220000DF220000D3270000D52700009A
:100070006121000063210000552F0000572F000070
:10008000592F000055220000812F0000832F00000F
:10009000852F00007D27000041340000D12700009B
:1000A000CD0600007F2700003D3400003F340000F3
:1000B0008524000053220000351900006D0A00005D
:1000C00000F030F800F050F8103A02D378C878C148
:1000D000FAD8520701D330C830C101D504680C608A
:1000E000704700000023002400250026103A01D3A9
:1000F00078C1FBD8520700D330C100D50B607047E0
:10010000F8B505460E461746284601F089FC00243E
:1001100004E0315D281901F005FD641CBC42F8DBE8
:10012000F8BD00000CA030C8083824182D18A246CD
:10013000671EAB4654465D46AC4201D100F014F850
:100140007E460F3E0FCCB6460126334200D0FB1A46
:10015000A246AB46334318473437000054370000FB
:100160001FB51FBD10B510BD00F072FA1146FFF7A4
:10017000F7FF00F0A3FA00F03BF803B4FFF7F2FF3B
:1001800003BC03F0D1F9000070B505460C461646D5
:1001900002E00FCC0FC5103E102EFAD2082E02D36B
:1001A00003CC03C5083E042E07D301CC01C5361F7E
:1001B00003E021782970641C6D1C761EF9D270BD95
:1001C000704700000FB4054910B503AA029800F06B
:1001D00013FA10BC08BC04B018470000040000204B
:1001E0007047704770477047C0688021084070476B
:1001F00010B50446C046C0462046FFF7BEFF10BDFE
:1002000010B50346002002E01C5C0C54401C9042D8
:10021000FADB10BD0C480D4A002100A1814200D933
:1002200002440B4802600B4880470B480047FEE73A
:10023000FEE7FEE7FEE7FEE7FEE7000007480849A5
:10024000084A094B70470000000000200000000031
:1002500008ED00E0152F0000C1000000C8000020DC
:10026000C8040020C8020020C802002001E004C029
:10027000091F0429FBD28B0701D50280801CC90706
:1002800000D00270704700290BD0C30702D0027063
:10029000401C491E022904D3830702D50280801C1A
:1002A000891EE3E70022EEE70022DFE700220309D0
:1002B0008B422CD3030A8B4211D300239C464EE081
:1002C00003460B433CD4002243088B4231D303093D
:1002D0008B421CD3030A8B4201D394463FE0C309EF
:1002E0008B4201D3CB01C01A524183098B4201D307
:1002F0008B01C01A524143098B4201D34B01C01AF2
:10030000524103098B4201D30B01C01A5241C30869
:100310008B4201D3CB00C01A524183088B4201D3D8
:100320008B00C01A524143088B4201D34B00C01AC4
:100330005241411A00D201465241104670475DE0D9
:10034000CA0F00D04942031000D34042534000225C
:100350009C4603098B422DD3030A8B4212D3FC2205
:10036000890112BA030A8B420CD3890192118B4284
:1003700008D3890192118B4204D389013AD092119A
:1003800000E08909C3098B4201D3CB01C01A524155
:1003900083098B4201D38B01C01A524143098B421E
:1003A00001D34B01C01A524103098B4201D30B0107
:1003B000C01A5241C3088B4201D3CB00C01A52412C
:1003C00083088B4201D38B00C01A5241D9D2430813
:1003D0008B4201D34B00C01A5241411A00D2014650
:1003E000634652415B10104601D34042002B00D5BA
:1003F0004942704763465B1000D3404201B500207C
:10040000C046C04602BD0000F0B5FF252D04C60958
:10041000C209FF2704462E400137CB093E4348401E
:100420002A402B400746002A6BD0002B69D0AA42F5
:1004300067D0AB4265D0002800DA32460125ED05D1
:1004400029432C4309022002090AD21A4B0C7F24AB
:10045000E31A434C000A7C44E35C7D242404121913
:1004600014145B00A218884201D3521C00E0400023
:1004700049420C465C4324115C43DB016415E318DC
:10048000040A5C43C502200D0C4644436419250A46
:100490005D432303EC0C0D46654300030019EB1884
:1004A0004C42A34201D35B18401CD4052018002BFA
:1004B00007D05B00C91804D3401C002901D14008B3
:1004C00040003F2189048A4209D3002A08DC110632
:1004D000090F04D0032149074018C00FC007F0BD21
:1004E00001224100120689187F2252069142F6D25B
:1004F00005214907C84201D59010F0BDFF20C00575
:10050000F0BD002F00DA32461648AA4207D2AB42AD
:1005100005D21902090E17D0F80FC007F0BDFF254C
:1005200063002D06AB42F9D84900A942F6D8AB4288
:1005300001D1A942F2D0A94201D1002101E061001C
:100540004908D0050843F0BD1102090EFBD0FF2079
:100550000243D005F0BD0A460146104654E70000AC
:10056000EF3300000000C07F0102C21504D0012358
:10057000DB071943002A0ADB9E239A1A02D4084695
:10058000D0407047FF2241001206914201D900205D
:100590007047C017C04370471F22030C02D10F22BF
:1005A00000041CD0030E01D10002083A030F01D150
:1005B0000001121F830F01D18000921E002801DB71
:1005C0004000521ED20551180212511819229040B3
:1005D00004D3491C002801D1490849000846704746
:1005E000C10FC90700D04042012292071143D3E74F
:1005F00001218907D0E70000084B70B50D467B4408
:1006000000F013F804462846FFF7EEFD002802D05C
:100610000020C04370BD204670BD0000FF2F0000C9
:1006200001694A1C02610878704700B58FB00291D9
:1006300000210591054901937944039111460490E5
:10064000684600F024F80FB000BD0000E5FFFFFF92
:10065000754600F02FF8AE46050069465346C008BF
:10066000C000854618B020B5FFF7E8FD60BC002744
:100670004908B6460026C0C5C0C5C0C5C0C5C0C56E
:10068000C0C5C0C5C0C5403D49008D467047F8B5DE
:10069000064600244768806800903046F56803E00D
:1006A0000099B847641C3046A8470028F8D1204676
:1006B000F8BD0000004870476400002010B502F04B
:1006C00029FC02F0AFFF002010BD000010B5102083
:1006D00000F026F9002000F037F90249088000F008
:1006E00077F910BD000000201FB50C2101A802F011
:1006F0001DFF0021402001F00FFD0121402001F0ED
:100700000BFD0121102002F059FB00F0A1F901219D
:10071000684601710021417103210903C180012153
:100720004902018100214181012189038181002148
:10073000817301A800F010F90021684681704170B2
:100740000221017000F04AF90821002000F00CF8A5
:100750000921012000F008F800F0EAF80122032145
:10076000182001F0AFF81FBD10B50246130002F0CB
:1007700091FE100913202D3A47545E6B7885929FA5
:10078000A9B6C3D06548006840094001CB06DB0E1E
:100790001843624B1860BEE0604800681F235B018D
:1007A00098434B011F246401234018435B4B18609E
:1007B000B1E05A4800681F239B0298438B021F2414
:1007C000A40223401843554B1860A4E05348006826
:1007D0001F23DB039843CB031F24E4032340184368
:1007E0004E4B186097E04D4800681F231B05984347
:1007F0000B051F24240523401843484B18608AE04A
:10080000464800681F235B0698434B061F24640676
:1008100023401843414B18607DE040484068400940
:100820004001CB06DB0E18433C4B586073E03B485D
:1008300040681F235B0198434B011F246401234040
:100840001843364B586066E0344840681F239B02CB
:1008500098438B021F24A402234018432F4B586057
:1008600059E02E4840681F23DB039843CB031F2425
:10087000E40323401843294B58604CE02748406864
:100880001F231B0598430B051F24240523401843F1
:10089000224B58603FE0214840681F235B06984385
:1008A0004B061F246406234018431C4B586032E05B
:1008B0001A48806840094001CB06DB0E1843174BED
:1008C000986028E0154880681F235B0198434B011E
:1008D0001F24640123401843104B98601BE00F480D
:1008E00080681F239B0298438B021F24A40223408D
:1008F00018430A4B98600EE0084880681F23DB030A
:100900009843CB031F24E40323401843034B986010
:1009100001E0042010BD00BF0020FBE740240040A0
:100920000249496B8143014A51637047802400406A
:10093000044840680121C9038843401801494860C0
:1009400070470000002400400146024A8800105809
:10095000704700005024004010B50446002C01D11F
:10096000042010BD012016494860022002F0EEFD6F
:100970006078A1880843E188084361880843218999
:1009800008430F49496808430D4948600846806894
:1009900009158843217889020122920211400843F7
:1009A000074988600846806804218843A17A890045
:1009B000042211400843024988600020D1E700006A
:1009C000002400400120014948607047C0240040D5
:1009D0000020014948607047C024004001460029BA
:1009E00002D00878102801DD04207047174880687D
:1009F0000122D2039043154A906010468068D214B9
:100A000090434A78D2020123DB021A4010430F4A76
:100A1000906010468068921590438A781202DB102D
:100A20001A401043094A90600848403080680F22FD
:100A3000120590430A78521E12050F231B051A4017
:100A40001043024A403290600020CEE7002400406C
:100A500010B50548006801210843034908600220D9
:100A600002F074FD10BD000000240040704710B576
:100A7000002001F0EFFE002001F0ECFE08214020F4
:100A800001F0DEFA0921402001F0DAFA0A214020C3
:100A900001F0D6FA0B21402001F0D2FA10BD7047C8
:100AA00010B53D480078002806D001281BD0022848
:100AB00030D003285FD144E00C21402001F03AFB04
:100AC0000D21402001F0BCFA0E21402001F0B8FABF
:100AD0000F21402001F0B4FA002001F0BBFE0020FD
:100AE00001F0B8FE48E00C21402001F0A9FA0D21E8
:100AF000402001F01FFB0E21402001F0A1FA0F2140
:100B0000402001F09DFA002001F0A4FE002001F039
:100B1000A1FE31E00C21402001F092FA0D2140208D
:100B200001F08EFA0E21402001F004FB0F2140203D
:100B300001F086FA002001F08DFE762001F08AFE99
:100B40001AE00C21402001F07BFA0D21402001F039
:100B500077FA0E21402001F073FA0F21402001F0B6
:100B6000E9FA002001F076FE0C490D4A1278885C03
:100B700001F070FE00E000BF00BF07480078401C95
:100B8000054908700878C117890F0918891089006C
:100B9000411A014A117010BD2700002029000020D1
:100BA0002500002070B5A8480088A849884202DDC9
:100BB0000846A5490880A6480078002806D00128E4
:100BC00049D002287DD003287CD10DE10C214020A2
:100BD00001F0B0FA0D21402001F032FA0E21402040
:100BE00001F02EFA0F21402001F02AFA9948C0881E
:100BF00095490988884204DC0A21402001F09AFACC
:100C000003E00A21402001F01BFA924840898E49F6
:100C10000988884204DB0B21402001F08BFA03E0B5
:100C20000B21402001F00CFA002001F013FE864851
:100C30000088894988420ADD491C83480088FFF7FB
:100C40003FFB86490C5C204601F004FE02E00020D8
:100C500001F000FEE7E00C21402001F0F1F90D2148
:100C6000402001F067FA0E21402001F0E9F90F2140
:100C7000402001F0E5F97748808873490988884267
:100C80000ADC7448C08870490988884204DD0A215A
:100C9000402001F04FFA03E00A21402001F0D0F992
:100CA0006C4840896849098888420CDA694800899B
:100CB00065490988884206DB0B21402001F03AFA99
:100CC00005E025E0AEE00B21402001F0B9F96449D0
:100CD000087801F0BFFD5C480088632810DD6421BE
:100CE00059480088FFF7ECFA05460A21FFF7E8FAB1
:100CF0005A48405C80210843044601F0ABFD06E001
:100D00005649097880221143084601F0A3FD8AE084
:100D10000C21402001F094F90D21402001F090F9C0
:100D20000E21402001F006FA0F21402001F088F941
:100D30004C480088401C4B4908800846008814280D
:100D400001DB00200880474800880A2804DA0B21CC
:100D5000402001F0EFF903E00B21402001F070F991
:100D60003948008890280ADA37490C88E117090FBA
:100D7000091909113A4A505C01F06CFD1CE0324837
:100D8000008890280CDB30480088A02808DA344915
:100D9000087A01F05FFD0821402001F0CBF90BE05B
:100DA0002F49087A01F056FD0821402001F0C2F9D0
:100DB0000921402001F0BEF92348008809280EDDF2
:100DC0000A2121480088FFF77BFA05460A21FFF730
:100DD00077FA2248445C204601F03CFD03E01F49BD
:100DE000087801F037FD1EE00C21402001F028F9C1
:100DF0000D21402001F024F90E21402001F020F9BE
:100E00000F21402001F096F9002001F023FD0A2176
:100E10000D480088FFF754FA1048445C204601F062
:100E200019FD00E000BF00BF09480078401C0849D8
:100E300008700878C117890F091889108900411AAC
:100E4000034A117070BD0000000000200F27000051
:100E50002700002048000020E703000029000020B0
:100E6000330000203C00002070B5B948007800280D
:100E700006D001285AD002287ED003287DD116E161
:100E80000C21402001F056F90D21402001F0D8F846
:100E90000E21402001F0D4F80F21402001F0D0F8BD
:100EA000002001F0D7FCAB480078032828D1AA48DD
:100EB0000078401CA849087008460078502801DBDB
:100EC00000200870A4480078282815DAA348408834
:100ED000A34988420BDDA14948887D21C900FFF75D
:100EE000EFF9A0490C5C204601F0B4FC1DE09D49DF
:100EF000087801F0AFFC18E0002001F0ABFC14E032
:100F000096484088964988420BDD944948887D215F
:100F1000C900FFF7D5F993490C5C204601F09AFC13
:100F200003E09049087801F095FC01E10C21402094
:100F300001F086F80D21402001F0FCF80E21402040
:100F400001F07EF80F21402001F07AF8002001F036
:100F500081FC80480078022832D17F480078401C0C
:100F60007D49087008460078502801DB0020087091
:100F700079480078282801E03FE0D8E01CDA77487B
:100F80004088632810DD754948886421FFF798F987
:100F900005460A21FFF794F97248405C8021084316
:100FA000044601F057FC27E06E490978802211437E
:100FB000084601F04FFC1FE0002001F04BFC1BE055
:100FC00066484088632810DD644948886421FFF73B
:100FD00077F905460A21FFF773F96248405C8021E2
:100FE0000843044601F036FC06E05E490978802299
:100FF0001143084601F02EFC9AE00C21402001F03C
:101000001FF80D21402001F01BF80E21402001F0B7
:1010100091F80F21402001F013F8002001F01AFC94
:101020004C48007801282AD14B480078401C4A4996
:10103000087008460078502801DB002008704648F8
:101040000078282817DA4548408809280EDD4349EA
:1010500048880A21FFF734F905460A21FFF730F9DD
:101060004048445C204601F0F5FB1FE03D4908780C
:1010700001F0F0FB1AE0002001F0ECFB16E037482D
:10108000408809280EDD354948880A21FFF718F9FC
:1010900005460A21FFF714F93248445C204601F066
:1010A000D9FB03E02F49087801F0D4FB40E00C2184
:1010B000402000F0C5FF0D21402000F0C1FF0E21AF
:1010C000402000F0BDFF0F21402001F033F8002048
:1010D00001F0C0FB1F48007800281DD11E48007891
:1010E000401C1D49087008460078502801DB00208C
:1010F00008701948007828280ADA184948880A210F
:10110000FFF7DEF81748445C204601F0A3FB0DE032
:10111000002001F09FFB09E0104948880A21FFF7F1
:10112000CFF81048445C204601F094FB00E000BF7B
:1011300000BF07480078401C054908700878C117AF
:10114000890F091889108900411A014A117070BD70
:1011500027000020280000203E000020480000203A
:10116000E70300002900002070B5604800780028DF
:1011700006D001282DD002285BD003287DD185E040
:101180000C21402000F0D6FF0D21402000F058FF38
:101190000E21402000F054FF0F21402000F050FFAE
:1011A000002001F057FB52488088524988420BDDED
:1011B0004F4988887D21C900FFF782F84E490C5CB1
:1011C000204601F047FB03E04B49087801F042FB61
:1011D0007BE00C21402000F033FF0D21402000F087
:1011E000A9FF0E21402000F02BFF0F21402000F02E
:1011F00027FF002001F02EFB3D488088632810DD8A
:101200003B4988886421FFF75BF805460A21FFF710
:1012100057F83948405C80210843044601F01AFB26
:1012200006E03549097880221143084601F012FB97
:101230004BE00C21402000F003FF0D21402000F086
:10124000FFFE0E21402000F075FF0F21402000F02E
:10125000F7FE002001F0FEFA25488088092810DDFD
:10126000234988880A21FFF72BF805460A21FFF752
:1012700027F82148445C204600E025E001F0EAFA26
:1012800003E01D49087801F0E5FA1EE00C2140203A
:1012900000F0D6FE0D21402000F0D2FE0E214020AD
:1012A00000F0CEFE0F21402000F044FF002001F0AE
:1012B000D1FA0F4988880A21FFF702F80E48445CEA
:1012C000204601F0C7FA00E000BF00BF07480078E1
:1012D000401C064908700878C117890F0918891041
:1012E0008900411A014A117070BD000027000020DA
:1012F00048000020E70300002900002070B5604886
:101300000078002806D001282DD002285BD00328C1
:101310007DD185E00C21402000F00CFF0D21402004
:1013200000F08EFE0E21402000F08AFE0F214020AA
:1013300000F086FE002001F08DFA5248C088524924
:1013400088420BDD4F49C8887D21C900FEF7B8FFF0
:101350004E490C5C204601F07DFA03E04B490878C9
:1013600001F078FA7BE00C21402000F069FE0D21AD
:10137000402000F0DFFE0E21402000F061FE0F2132
:10138000402000F05DFE002001F064FA3D48C08876
:10139000632810DD3B49C8886421FEF791FF0546AC
:1013A0000A21FEF78DFF3948405C8021084304463E
:1013B00001F050FA06E035490978802211430846C9
:1013C00001F048FA4BE00C21402000F039FE0D21DD
:1013D000402000F035FE0E21402000F0ABFE0F2132
:1013E000402000F02DFE002001F034FA2548C0888E
:1013F000092810DD2349C8880A21FEF761FF054648
:101400000A21FEF75DFF2148445C204600E025E00C
:1014100001F020FA03E01D49087801F01BFA1EE0F4
:101420000C21402000F00CFE0D21402000F008FEB1
:101430000E21402000F004FE0F21402000F07AFE33
:10144000002001F007FA0F49C8880A21FEF738FF8B
:101450000E48445C204601F0FDF900E000BF00BFEB
:1014600007480078401C064908700878C117890FA2
:10147000091889108900411A014A117070BD0000D5
:101480002700002048000020E7030000290000207A
:1014900070B560480078002806D001282DD00228B9
:1014A0005BD003287DD185E00C21402000F042FE76
:1014B0000D21402000F0C4FD0E21402000F0C0FDB1
:1014C0000F21402000F0BCFD002001F0C3F952487C
:1014D0004089524988420BDD4F4948897D21C90026
:1014E000FEF7EEFE4E490C5C204601F0B3F903E036
:1014F0004B49087801F0AEF97BE00C21402000F068
:101500009FFD0D21402000F015FE0E21402000F02F
:1015100097FD0F21402000F093FD002001F09AF983
:101520003D480089632810DD3B4908896421FEF7A6
:10153000C7FE05460A21FEF7C3FE3948405C8021FC
:101540000843044601F086F906E03549097880220F
:101550001143084601F07EF94BE00C21402000F0D9
:101560006FFD0D21402000F06BFD0E21402000F0AA
:10157000E1FD0F21402000F063FD002001F06AF939
:1015800025480089092810DD234908890A21FEF72A
:1015900097FE05460A21FEF793FE2148445C20464B
:1015A00000E025E001F056F903E01D49087801F05C
:1015B00051F91EE00C21402000F042FD0D21402099
:1015C00000F03EFD0E21402000F03AFD0F214020AA
:1015D00000F0B0FD002001F03DF90F4908890A2113
:1015E000FEF76EFE0E48445C204601F033F900E041
:1015F00000BF00BF07480078401C06490870087803
:10160000C117890F091889108900411A014A117000
:1016100070BD00002700002048000020E703000004
:101620002900002070B560480078002806D0012805
:101630002DD002285BD003287DD185E00C214020ED
:1016400000F078FD0D21402000F0FAFC0E21402032
:1016500000F0F6FC0F21402000F0F2FC002001F029
:10166000F9F852484089524988420BDD4F49488970
:101670007D21C900FEF724FE4E490C5C204601F096
:10168000E9F803E04B49087801F0E4F87BE00C212D
:10169000402000F0D5FC0D21402000F04BFD0E2134
:1016A000402000F0CDFC0F21402000F0C9FC0020BC
:1016B00001F0D0F83D484089632810DD3B49488956
:1016C0006421FEF7FDFD05460A21FEF7F9FD3948C4
:1016D000405C80210843044601F0BCF806E035492F
:1016E000097880221143084601F0B4F84BE00C2140
:1016F000402000F0A5FC0D21402000F0A1FC0E21AF
:10170000402000F017FD0F21402000F099FC002040
:1017100001F0A0F825484089092810DD23494889AF
:101720000A21FEF7CDFD05460A21FEF7C9FD214835
:10173000445C204600E025E001F08CF803E01D4900
:10174000087801F087F81EE00C21402000F078FCBA
:101750000D21402000F074FC0E21402000F070FCB0
:101760000F21402000F0E6FC002001F073F80F4943
:1017700048890A21FEF7A4FD0E48445C204601F08A
:1017800069F800E000BF00BF07480078401C064928
:1017900008700878C117890F091889108900411A43
:1017A000014A117070BD0000270000204800002091
:1017B000E70300002900002010B540480078002809
:1017C00006D001281BD0022830D0032864D14CE079
:1017D0000C21402000F0AEFC0D21402000F030FC38
:1017E0000E21402000F02CFC0F21402000F028FCAE
:1017F000002001F02FF8002001F02CF84DE00C2122
:10180000402000F01DFC0D21402000F093FC0E2133
:10181000402000F015FC0F21402000F011FC0020BA
:1018200001F018F8002001F015F836E00C214020F6
:1018300000F006FC0D21402000F002FC0E214020AB
:1018400000F078FC0F21402000F0FAFB002001F0AE
:1018500001F81B48007B002803D13E2000F0FAFF6E
:1018600002E0772000F0F6FF17E00C21402000F0A6
:10187000E7FB0D21402000F0E3FB0E21402000F0AB
:10188000DFFB0F21402000F055FC002000F0E2FFBC
:10189000002000F0DFFF00E000BF00BF0748007835
:1018A000401C064908700878C117890F091889106B
:1018B0008900411A014A117010BD00002700002064
:1018C0004800002070B504460E4615462046002804
:1018D00005DBC206D20E01219140144A116000BFFF
:1018E0003146204601F0E4FD012D0ED120460028AE
:1018F00009DB00BF00BFC206D20E012191400C4A95
:10190000116000BF00BF00BF0FE0204600280ADBC7
:10191000C206D20E01219140054A80321160BFF308
:101920004F8FBFF36F8F00BF00BF70BD80E200E03C
:1019300000E100E070470000F0B58BB005460E46B0
:101940000024FF200A9000200990202101A8FEF722
:10195000ABFC284F012D0ED0022D0CD0042D0AD047
:10196000062D08D0082D06D00C2D04D00420099097
:1019700009980BB0F0BD1F48006A01214902884355
:10198000710201225202114008431A4908620024E0
:1019900007E0A000184908586843A10001AA505068
:1019A000641C082CF5D30C2D01D1FF2002900024DB
:1019B0001CE0FF200A9011E00A98411E0A910028BD
:1019C0000AD00E480B49C8620D48C862A00001A9A0
:1019D0000858A100785001E00720CAE7A000385855
:1019E000A10001AA51588842E6D1641C082CE0D31A
:1019F0000998BEE700000240EC3700005A5A000088
:101A0000A5A5000003480449C8620448C862002034
:101A1000086370475A5A000000000240A5A5000064
:101A200008B502460023FF2000902548824202D9D3
:101A30000423184608BDFF20009006E00098411ED0
:101A40000091002801D10920F4E71E48006AC00671
:101A5000C00F0028F2D100F03BF8FF20009012E008
:101A60000098411E009100280BD017481549C86204
:101A70001648C8620846006A80088000801C086218
:101A800001E00920D6E70F48006A8007800F02288E
:101A9000E6D100201070FF20009006E00098411E63
:101AA0000091002801D10920C4E70648006AC00659
:101AB000C00F0028F2D1FFF7A5FF1846BAE70000D3
:101AC000FFFF0000000002405A5A0000A5A50000D8
:101AD00004480549C8620548C8620020C04308633D
:101AE000704700005A5A000000000240A5A50000FF
:101AF00010B501460020084A084BDA62084ADA624B
:101B00001A46126A0C239A438B000C2423401A4372
:101B1000024B1A6210BD00005A5A00000000024039
:101B2000A5A5000018B502460B460024FF20009032
:101B30002448824202D90424204618BDFF20009088
:101B400006E00098411E0091002801D10920F4E729
:101B50001D48006AC006C00F0028F2D1FF20009087
:101B600012E00098411E009100280BD0174816493A
:101B7000C8621748C8620846006A80088000401C96
:101B8000086201E00920D8E70F48006A8007800F4B
:101B90000128E6D1FFF79CFF1370FF20009006E0BC
:101BA0000098411E0091002801D10920C5E7064890
:101BB000006AC006C00F0028F2D1FFF723FF2046BD
:101BC000BBE70000FFFF0000000002405A5A00007F
:101BD000A5A500001CB501211C2001F0EFF8012192
:101BE00068460170417000218170C170017101214E
:101BF00041716A460021084600F03CFA6A4601211C
:101C0000002000F037FA6A460221002000F032FA84
:101C10006A460321002000F02DFA6A4604210020C4
:101C200000F028FA6A460521002000F023FA6A46EF
:101C30000621002000F01EFA6A460721002000F06D
:101C400019FA6A460821002000F014FA6A460921B0
:101C5000002000F00FFA6A460A21002000F00AFA7C
:101C60006A460B21002000F005FA6A460C2100208C
:101C700000F000FA6A460D21002000F0FBF96A46E8
:101C80000E21002000F0F6F96A460F21002000F036
:101C9000F1F90021084600F0D3F90121002000F0FD
:101CA000CFF90221002000F0CBF90321002000F041
:101CB000C7F90421002000F0C3F90521002000F03D
:101CC000BFF90621002000F0BBF90721002000F039
:101CD000B7F90821002000F0B3F90921002000F035
:101CE000AFF90A21002000F0ABF90B21002000F031
:101CF000A7F90C21002000F0A3F90D21002000F02D
:101D00009FF90E21002000F09BF90F21002000F028
:101D100097F96A460021402000F0ACF96A4601219B
:101D2000402000F0A7F96A460221402000F0A2F905
:101D30006A460321402000F09DF96A4604214020B4
:101D400000F098F96A460621402000F093F96A46AF
:101D50000721402000F08EF96A460821402000F05B
:101D600089F96A460921402000F084F96A460A216F
:101D7000402000F07FF96A460B21402000F07AF9FC
:101D80006A460C21402000F075F96A460D2140207A
:101D900000F070F96A460E21402000F06BF96A46A7
:101DA0000F21402000F066F90021402000F048F9A2
:101DB0000121402000F044F90221402000F040F9C8
:101DC0000321402000F03CF90421402000F038F9C4
:101DD0000521402000F034F90621402000F030F9C0
:101DE0000721402000F02CF90821402000F028F9BC
:101DF0000921402000F024F90A21402000F020F9B8
:101E00000B21402000F01CF90C21402000F018F9B3
:101E10000D21402000F014F90E21402000F010F9AF
:101E20000F21402000F00CF96A460021802000F0CC
:101E300021F96A460121802000F01CF96A4602213E
:101E4000802000F017F96A460321802000F012F983
:101E50006A460421802000F00DF96A4605218020A1
:101E600000F008F96A460621802000F003F96A466E
:101E70000721802000F0FEF86A460821802000F04B
:101E8000F9F86A460921802000F0F4F86A460A2130
:101E9000802000F0EFF86A460B21802000F0EAF87D
:101EA0006A460C21802000F0E5F86A460D2180206A
:101EB00000F0E0F80021802000F0C2F8012180202D
:101EC00000F0BEF80221802000F0BAF80321802043
:101ED00000F0B6F80421802000F0B2F8052180203F
:101EE00000F0AEF80621802000F0AAF8072180203B
:101EF00000F0A6F80821802000F0A2F80921802037
:101F000000F09EF80A21802000F09AF80B21802032
:101F100000F096F80C21802000F092F80D2180202E
:101F200000F08EF86A460021C02000F0A3F86A464F
:101F30000121C02000F09EF86A460221C02000F076
:101F400099F86A460321C02000F094F86A460621F9
:101F5000C02000F08FF86A460721C02000F08AF800
:101F60006A460821C02000F085F86A460921C02091
:101F700000F080F86A460A21C02000F07BF86A462B
:101F80000B21C02000F076F86A460C21C02000F03A
:101F900071F86A460D21C02000F06CF86A460E21E7
:101FA000C02000F067F86A460F21C02000F062F8F8
:101FB0000021C02000F044F80121C02000F040F8CA
:101FC0000221C02000F03CF80321C02000F038F8C6
:101FD0000421C02000F034F80521C02000F030F8C2
:101FE0000621C02000F02CF80721C02000F028F8BE
:101FF0000821C02000F024F80921C02000F020F8BA
:102000000A21C02000F01CF80B21C02000F018F8B5
:102010000C21C02000F014F80D21C02000F010F8B1
:102020000E21C02000F00CF80F21C02000F008F8AD
:102030001CBD02461068C840C007C00F70470000B2
:1020400070B504460D46044960180122294600F087
:1020500051FC002070BD0000140D024070B5044614
:102060000D46034960182946FFF7E3FF70BD0000E5
:10207000040D024070B504460E4615461E49601810
:102080000022314600F036FC00201C496118B200E5
:1020900088502A7818490C396018314600F02AFC1B
:1020A0006A78154910316018314600F023FCAA788F
:1020B000114914316018314600F01CFCEA780E49D1
:1020C00018316018314600F015FC2A790A49203190
:1020D0006018314600F00EFC094880680121C903F0
:1020E00088436979C9030122D20311400843044996
:1020F0008860002070BD00000C0D0240000C024002
:10210000000F024010B50346024818188C00025117
:10211000002010BD000C024070B504460D46044975
:1021200060180122294600F0E5FB002070BD000088
:102130000C0D024070B504460D460449601801229A
:10214000294600F0D7FB002070BD0000100D0240B2
:1021500008B50020009000BF00980028FCD008BD02
:10216000704770471CB501211C2000F027FE00219C
:10217000684601708170C17008214020FFF760FF40
:1021800009214020FFF75CFF0A214020FFF758FF9C
:102190000B214020FFF754FF0C214020FFF750FF98
:1021A0000D214020FFF74CFF0E214020FFF748FF94
:1021B0000F214020FFF744FF6A4608214020FFF727
:1021C00059FF6A4609214020FFF754FF6A460A2159
:1021D0004020FFF74FFF6A460B214020FFF74AFFE0
:1021E0006A460C214020FFF745FF6A460D2140203A
:1021F000FFF740FF6A460E214020FFF73BFF6A468B
:102200000F214020FFF736FF1CBD1CB501211C200B
:1022100000F0D4FD012168460170417000218170F9
:10222000C1700171012141716A4604214020FFF70C
:1022300021FF6A4605214020FFF71CFF6A46062160
:102240004020FFF717FF6A4607214020FFF712FFE3
:102250001CBD704710B5074800F033FA012808D1BB
:10226000044800F011FA044800784021084302496C
:10227000087010BD000F00400C0000201CB50821A4
:10228000684601F053F90121092000F097FD002173
:10229000684681704170022101700021C170017196
:1022A000012141710B49C18069460B4800F011FAC8
:1022B000094800F0E9F90121074800F0F8F9012286
:1022C00003211120FFF7FEFA0121034800F0E5F990
:1022D0001CBD0000FFBF0000000F004070477047AA
:1022E00070B504460D46002229462046143000F001
:1022F00001FB002070BD70B504460D460122294641
:10230000201D00F0F7FA002070BD70B504460D46A0
:102310000026294620461030FFF78BFE0646304641
:1023200070BD0000F0B587B005460C460127224A73
:1023300007CA04AB07C300200390002C02D104207D
:1023400007B0F0BD00206860608861780843E188CC
:102350000843A18808432178084368602078402812
:1023600002D02078C02824D1E088C117C90D0918EF
:102370004912890004AA515A8EB2E168B140084658
:10238000FEF736F90290A068FEF732F90190029943
:10239000FEF73AF803903F210906039801F078F917
:1023A0000290FEF7E1F880B2A86104212846FFF709
:1023B000A2FF00273846C3E70C38000070B504467A
:1023C0000D4600BF03212046FFF79FFF0028F9D0EC
:1023D0002068000A0002E9B20843206000BF012122
:1023E0002046FFF792FF0028F9D001212046FFF791
:1023F00077FF002070BD000000B587B0102103A852
:1024000001F094F8062101A801F090F801210320C1
:1024100000F0D4FC01211C2000F0D0FC0021684613
:10242000017101AA0846FFF725FE02220021084695
:10243000FFF768FE01216846017101AA0020FFF73D
:1024400019FE022201210020FFF75CFE00216846F0
:10245000C181042141730021018200F065FC0590D7
:102460000121890203A8C180E1214902069140218E
:102470006846017303A90248FFF754FF07B000BD87
:10248000004000407047000010B55C484079802152
:102490000840002807D0594840794006400E574967
:1024A0004871802466E05548407940210840002862
:1024B00007D052484079BF21084050494871402414
:1024C00058E04E48407920210840002807D04B486A
:1024D0004079DF2108404949487120244AE04748B3
:1024E000407910210840002807D044484079EF2166
:1024F00008404249487110243CE040484079082196
:102500000840002807D03D484079F72108403B4962
:10251000487108242EE039484079042108400028F9
:1025200007D036484079FB210840344948710424DB
:1025300020E03248407902210840002807D02F4887
:102540004079FD2108402D494871022412E02B48B2
:102550004079C007C00F002807D028484079FE21E5
:10256000084026494871012404E0244844790020A9
:102570002249487122480078012837D1102C1BD0FD
:1025800008DC012C28D0022C22D0042C1CD0082CD2
:1025900026D115E0202C0BD0402C05D0802C1FD14B
:1025A00018A0FDF70FFE1FE01AA0FDF70BFE1BE0C1
:1025B0001CA0FDF707FE17E01EA0FDF703FE13E0C9
:1025C00020A0FDF7FFFD0FE022A0FDF7FBFD0BE0D3
:1025D00024A0FDF7F7FD07E027A0FDF7F3FD03E0DA
:1025E000012000F037FF00BF00BF03E0012000F032
:1025F00031FF00BF00BF00F08DF910BD0D000020BD
:102600001600002073686F7274206D656E752E2E33
:102610002E2E2E006C6F6E67206D656E752E2E2E21
:102620002E2E000073686F72742075702E2E2E2E61
:102630002E0000006C6F6E672075702E2E2E2E2ED1
:102640000000000073686F727420646F776E2E2E26
:102650002E2E2E006C6F6E6720646F776E2E2E2EDE
:102660002E2E000073686F727420656E7465722E72
:102670002E2E2E2E000000006C6F6E6720656E748B
:1026800065722E2E2E2E2E0010B504460022114605
:102690002046143000F02EF910BD70B505460C46EA
:1026A0002246002128460C3000F024F970BD70B598
:1026B00005460C4622460A2128460C3000F01AF93D
:1026C00070BD10B50446002120461030FFF7B1FC64
:1026D00010BD30B502467D23DB00D0683024A04316
:1026E0000C78240130252C402043D060D068012490
:1026F0006402A0434C78640201256D022C40204303
:10270000D060D0686C10A0438C7824026D102C40EF
:102710002043D060D0680824A043CC78E40008258A
:102720002C402043D060D0680424A0430C79A4003E
:1027300004252C402043D060D0680224A0434C796B
:10274000640002252C402043D06005E0D0680006DC
:10275000C00F002800D004E018465C1EA3B2002879
:10276000F4D100BF002B01D1092030BD5068000C0E
:102770000004CC88204350600020F6E77047704783
:10278000704770477047704710B500BF01210620A1
:10279000FFF7D2F80028F9D10E220B490B48006848
:1027A000FDF72EFD08480078AB2803D10648407B92
:1027B000BA2807D000F0F6F80E2203490348006853
:1027C000FDF79EFC10BD00004800002040000020E6
:1027D00070477047704700000EB5062101A800F051
:1027E000A5FE01211C2000F0E9FA0121062000F0DD
:1027F000E5FA002168464171017101AA0721002014
:10280000FFF738FC012207210020FFF77BFC01AA1B
:1028100004210020FFF72EFC012204210020FFF7F5
:1028200071FC01AA05210020FFF724FC01220521EB
:102830000020FFF767FC10216846017000214170FD
:10284000C17081706946024800F07FF80EBD00003B
:102850000008004010B504460021094800F089F83E
:102860002146074800F081F800BF0421044800F029
:1028700063F80028F9D00121014800F07AF810BD72
:102880000008004010B5FEF7F2F81848007801285B
:1028900004D0022805D0042825D105E0FEF782F9EE
:1028A00022E0FEF7FDF81FE011480078030000F079
:1028B000F1FD071705080B0E11141700FEF7D4FAE7
:1028C0000FE0FEF751FC0CE0FEF718FD09E0FEF703
:1028D000DFFD06E0FEF7A6FE03E0FEF76DFF00E079
:1028E00000BF00BF00E000BF00BF10BD24000020FB
:1028F0002500002010B5012A05D1036801248C4071
:102900002343036004E0036801248C40A343036075
:1029100010BD000006484079002807D072B605486F
:102920000078202108430349087062B67047000010
:102930000D0000200C00002002469068084000288E
:1029400001D0012070470020FCE702460020106003
:1029500008784B7818438B781843CB78184340237A
:10296000184310600020906070470246D16000203C
:1029700070474160704708B50020FFF7B9F80020A4
:1029800000F028FA062000F04BFA0021684601709A
:102990004170817000F022F80121032000F054F80A
:1029A00008BD0000AB200A490870FF20F5304880C0
:1029B000FF202D308880FF20A530C880FA200881B4
:1029C000C820488100200873BA204873704700006F
:1029D0004800002010B5C046C04610BD70B5044682
:1029E00000252078030000F055FD0504050C1018A3
:1029F0001C0018E0032000F05DFA032000F024FA28
:102A000011E0032000F0FAF90DE00321084600F080
:102A10005FFA032000F028FA05E0072000F0BCF977
:102A200001E0042500BF00BF2078012100F00CF870
:102A3000207800F029FA607800F086F9A07800F09C
:102A400097F9284670BD0000F8B505460C460027EA
:102A500000F014FD002C01D0012000E0002004460D
:102A60005148066A2B0000F015FD050417394D7218
:102A700098004D48006840084000E107C90F08432E
:102A80004949086000BF002C05D04748C0680005D0
:102A9000C00F0028F7D082E04348006A01210907EF
:102AA00088434018404908624048C06803210843F1
:102AB0003E49C8603C480068022188436100022208
:102AC000114008433849086000BF002C05D0364843
:102AD00000694006C00F0028F7D060E03248006867
:102AE00004218843A1000422114008432E490860B4
:102AF00000BF002C05D02C484069C004C00F00283E
:102B0000F7D04CE02848006A0121090788434018A3
:102B10002549086225484038C068032189030843D5
:102B200022494039C8602048006808218843E100F4
:102B30000822114008431C49086000BF002C05D042
:102B4000194880694006C00F0028F7D027E01648D2
:102B5000006A012109048843401813490862144897
:102B6000006840084000401C11490860142000F033
:102B7000EDFC0D480068102188432101102211400E
:102B800008430949086000BF002C05D00648C06B07
:102B90004003C00F0028F7D001E0042700BF00BFAA
:102BA000014806623846F8BD00200040C00D0240D2
:102BB0000024004030B589B000241422564904A8EE
:102BC000FDF7E2FA544814300068039000200090AA
:102BD0000190029051480188684601814F48418820
:102BE0006846C1804D488188684681804B48C188CD
:102BF000684641804948203001886846018048483D
:102C000000680006450F2B0000F044FC05042E3040
:102C10003E4178004248C0684005400D6946098938
:102C2000884201D1089C1EE03D48C0684005400D27
:102C30006946C988884201D1079C14E03848C068B9
:102C40004005400D69468988884201D1069C0AE00A
:102C50003348C0684005400D69464988884201D123
:102C6000059C00E0049C4BE02E4C49E0684600883F
:102C70002B4949698905890D884202D16846C48972
:102C800001E0684684893BE00124E40338E02448FD
:102C9000C06B8007800F032829D16846008920492E
:102CA000C9684905490D884201D1089C20E0684661
:102CB000C0881B49C9684905490D884201D1079C54
:102CC00016E0684680881649C9684905490D88425A
:102CD00001D1069C0CE0684640881149C968490545
:102CE000490D884201D1059C02E0049C00E00D4C96
:102CF0000B48C06BC005000F444301E0002400BF37
:102D000000BF074800684005410F2046C840044600
:102D1000204609B030BD000018380000000C10003B
:102D2000002000400048E80110B50024FFF742FFF2
:102D3000044604480068C004810F2046C840044689
:102D4000204610BD0020004010B5044600F096FB60
:102D5000064800680721090288432102072212025F
:102D60001140084301490860002010BD00200040C8
:102D700010B5044600F082FB064800680321C90232
:102D80008843E1020322D20211400843014908604E
:102D9000002010BD0020004010B501460020064A6A
:102DA000D26B0723DB039A43CB030724E4032340BE
:102DB0001A43014BDA6310BD0020004070B5044691
:102DC0000D462A4621460248FFF794FD002070BDBB
:102DD0002020004001464A00064BD21812885005B8
:102DE000400D054AD268D20AD2020243024BDA6091
:102DF00000207047000C10000020004010B5014674
:102E00000020064A526903239B029A438B02032443
:102E1000A40223401A43014B5A6110BD0020004018
:102E200010B5044600F02AFB064840680721490215
:102E30008843610207225202114008430149486059
:102E4000002010BD0020004010B501460020054ABA
:102E5000126930239A430B01302423401A43014B5B
:102E60001A6110BD0020004010B501460020054A3F
:102E7000926930239A430B01302423401A43014BBB
:102E80009A6110BD0020004070B50446002526461A
:102E900000F0F4FA06480068E02188437101E0225E
:102EA000114008430249086000F02CF8284670BD24
:102EB0000020004001460020044A12699208920056
:102EC0008B079B0F1A43014B1A617047002000408B
:102ED00030B5024600200A4B9B690C24A3439400A2
:102EE0000C252C402343064CA36123469B699B0879
:102EF0009B008C07A40F2343014CA36130BD00004D
:102F00000020004010B5FFF755FE0149086010BDD4
:102F10000800002010B50D4949888805800D0C492E
:102F20004969890A89020143094A516107492039DF
:102F300009894805400D1146C968C90AC9020143FB
:102F4000D160FFF7DFFF00F08BFA10BD200C1000FE
:102F500000200040704770477047000010B5002007
:102F600000F06CF9012808D1002000F05DF9034859
:102F70000078802108430149087010BD0C00002032
:102F8000704770477047000010B504214020FFF7DC
:102F900065F8002827D179480078401CC0B27749ED
:102FA0000870F02801DDF020087074480078C82807
:102FB0004ED173480078012804D0022809D0042893
:102FC0000CD107E002206E49087001206D4908709D
:102FD00008E000BF01206A49087003E00120684949
:102FE000087000BF34E06548007802282DDD634892
:102FF0000078C82829DAF020634988706048007892
:10300000012804D0022803D0042819D10CE01BE0C9
:103010005C480078401C5B49087008460078062828
:1030200001DD0120087000BF58480078401C574956
:10303000087008460078032801DD0020087003E0CE
:1030400001204F49087000BF00BF00204B490870A5
:1030500005214020FFF702F800280AD14C480078EB
:10306000401CC0B24A490870F02801DDF020087009
:103070000DE047480078022806DD45480078C8285A
:1030800002DAF0204049887000204149087006218A
:103090004020FEF7E3FF002811D13E480078401C95
:1030A000C0B23C490870F02801DDF02008703948B2
:1030B0000078C82822D10020374908801EE0354812
:1030C0000078022817DD33480078C82813DAF0208A
:1030D0002D4988702A480078012804D0022803D09E
:1030E000042803D101E005E004E003E001202449C5
:1030F000087000BF00BF002026490870072140204B
:10310000FEF7ACFF00280AD124480078401CC0B26A
:1031100022490870F02801DDF02008702CE01F48DB
:103120000078022825DD1D480078C82821DA1448D7
:103130000078012804D0022803D0042814D10BE021
:1031400016E004200E4908700E48007814490870F3
:1031500000200E4908700BE0022009490870104851
:1031600000780849087003E001200549087000BF95
:1031700000BF00200949087010BD00001C0000209D
:1031800024000020250000205600002028000020F8
:103190001D0000201E000020000000201F00002055
:1031A0002200002070B500251C480478002C33D084
:1031B000F0202040002805D020111949085C001D8E
:1031C000C5B201E01648055D1648445D72B6134865
:1031D000007820401149087062B6002D01D000F03F
:1031E00031F92B0000F056F9091615141312110EBF
:1031F0000B061600FFF746FBFFF7C6FE0BE000F0DC
:10320000E1F808E0FFF740F905E004E003E002E040
:1032100001E000E000BF00BF70BD00000C00002016
:1032200030380000403800000146002001228A406A
:10323000D243014B5A6170470058004001460020BC
:10324000034B1A691346CB40D807C00F70470000E4
:103250000058004001460020044A1268120C120473
:103260008BB21A43014B1A607047000000580040AF
:1032700001460020044A5268120C12048BB21A4311
:10328000014B5A607047000000580040002004497C
:10329000C96849084900491C014AD16070470000CB
:1032A0000058004000200449C9680122920291435D
:1032B0008918014AD16070470058004010B5014696
:1032C0000020284AD26803231B039A430B781B0370
:1032D0000324240323401A43224BDA601A46D2689F
:1032E0005B159A434B785B020124640223401A4326
:1032F0001C4BDA601A46D2689B159A438B781B02E6
:10330000641023401A43174BDA601A46D2687023C0
:103310009A43CB781B01702423401A43114BDA6087
:103320001A46D26808239A430B79DB00082423400D
:103330001A430C4BDA601A46D26804239A434B793D
:103340009B00042423401A43064BDA601A46D268D5
:1033500002239A438B795B00022423401A43014BDA
:10336000DA6010BD005800407CB50721684600F0C7
:10337000DDF801210B20FFF721FD002168460170D7
:1033800041710521C170012181710021017181709C
:103390004170FFF793FF0A4C2046FFF75BFF25467D
:1033A0002846FFF765FF0020FFF73EFFFFF77AFF93
:1033B000012203210520FEF785FAFFF767FF7CBD98
:1033C00059F1000010B500242AE01748005D0028DC
:1033D00024D01548005D401EC0B21349085500288E
:1033E0001CD1002C06D0012C05D0022C09D0032CB6
:1033F00012D110E011E002200B494870FDF7E2FA0B
:103400000BE00120094908700020094908700120DB
:103410000849087001E000E000BF00BF601CC4B2B2
:103420000B2CD2DB10BD0000560000202400002031
:103430002800002025000020704770477047704723
:10344000704700001E2002490860E12008607047B4
:10345000800F0040014908707047000016000020EE
:103460000549086A096A0122120791438918024A2C
:10347000116211460862704700200040024803496B
:1034800088600348886070475A5A00000020004056
:10349000A5A5000030B47446641E2578641CAB42B8
:1034A00004D3635D5B00E31830BC18471D46F8E7A2
:1034B00010B5002819DB1A4A03231B02D21883080F
:1034C0009B00D2588307DC0EFF23A3409A438B074F
:1034D0001B0E8407E40EA3401A43114B032424025D
:1034E0001B198408A4001A5118E00E4A03071B0F89
:1034F000083B9B089B00D2588307DC0EFF23A340A8
:103500009A438B071B0E8407E40EA3401A43054B16
:103510000407240F083CA408A4001A5110BD0000A1
:1035200000E100E01CED00E000BF704710B50A4666
:103530000146002900D110BD02E000230B70491C98
:103540001346521E002BF8D100BFF4E770B50546B4
:1035500011481249486100208861052008610FE088
:1035600000200E4988610E490E480068FCF79EFE57
:10357000012109060C1A00BF08488069A042FBD847
:1035800028466D1E0028EBD1044800694008400021
:103590000249086170BD0000FFFFFF0000E000E08D
:1035A000A08601000800002070B5054611481249A8
:1035B0004861002088610520086110E000200E4964
:1035C00088617D21C9000D480068FCF76FFE01216C
:1035D00009060C1A00BF08488069A042FBD828469B
:1035E0006D1E0028EAD104480069400840000249E5
:1035F000086170BDFFFFFF0000E000E00800002050
:1036000070B504460D46E0B20A2803D10D210448E6
:10361000FEF7D4FEE1B20248FEF7D0FE204670BDB0
:1036200000400040FFF7A7F9FEF7D4FAFEF7EDFDE2
:10363000FFF7D2F8FEF722FEFFF796FEFEF792FDA7
:10364000FFF7A2F8FDF750F8FEF7D6FE06A0FCF74C
:10365000B9FD7D20C000FFF7A7FF02200B4948708D
:1036600001E0FFF79FFDFCE753797374656D20530C
:10367000746172742E2E2E2E2E2E2E2E2E2E2E2E67
:103680002E2E2E2E2E2E0D0A000000005600002099
:1036900070B501250400ED074C4020D4441A01D236
:1036A000001B0919C60D4B00F2B2FF2A29D01B0ED0
:1036B0002CD000020C02D31A2C43DC4028430519FD
:1036C00010D2280A02D3401C6D0611D0761EF605D2
:1036D0008019FF2A00DA70BDC00DC00570BD6940B9
:1036E00000F022F801200543C541521C761CE8E792
:1036F00064089C40C90161408900E7D10124A043CE
:10370000E4E71B0E440200D0034870BD002AFCD140
:10371000C00FC00770BD00BF0000C07F70B501259D
:103720000400ED074C4022D4441A02D26C40001B26
:103730000919C60D4B00F2B2FF2A4BD01B0E50D018
:1037400000020C02D31A2C43DC40A843051B05D50C
:10375000AD0019D36D08761E521E37D0F605280A23
:1037600001D2801970BD70416D0603D070BD6940F3
:10377000FFF794FF9C4009026140490001D0401EC0
:1037800070BD0124A04370BD6D081DD001202B0C1D
:1037900001D12D0410302B0E01D12D0208302B0F3A
:1037A00001D12D01001DAB0F01D1AD00801CEB0F2D
:1037B00001D16D00401C6D00361A121A680AF50519
:1037C0004019012A02DB70BD002070BDC036300AEE
:1037D000C00770BD1B0E440201D1FF2B00D102486F
:1037E00070BD002AF0D070BD0000C07F2000000036
:1037F000170000001B00000050460000E0220200FD
:1038000018000000F0000000E803000004000000C1
:10381000030000000200000000093D0000127A00D1
:103820000024F4004086510100366E0100800096AD
:103830000001020203030303040404040404040457
:10384000FFFEFDFBF7EFDFBF7F81828384858687E4
:1038500088898B8C8D8E8F919293959697999A9C4F
:103860009D9FA0A2A3A5A7A8AAACAEB0B2B3B5B7BE
:10387000B9BCBEC0C2C5C7C9CCCED1D4D7D9DCDF94
:10388000E2E6E9ECF0F3F7FAFE000000AC380000E5
:103890000000002048000000C8000000F4380000CC
:1038A0004800002080040000E40000000000000048
:1038B0000000000000366E01000000000000000063
:1038C00000000000000001000000000000000000F7
:1038D00001010100003F065B4F666D7D077F6F00B1
:1038E0000103070F1F3F7FFF0000000000FE0000E4
:0438F00000000000D4
:04000005000000C136
:00000001FF
