:020000040000FA
:10000000C8040020150200002F020000E1200000BB
:1000100000000000000000000000000000000000E0
:10002000000000000000000000000000330200009B
:10003000000000000000000035020000D92E000082
:10004000852C0000872C0000892C00008B2C0000E0
:100050009F0A0000613400004D3800004F38000056
:100060006D2200006F220000D72C0000D92C000068
:10007000F1200000F3200000593400005B34000040
:100080005D340000E5210000853400008734000065
:1000900089340000812C000055380000D52C000068
:1000A000CD060000832C00005138000053380000BA
:1000B00015240000E3210000C51800006D0A0000AF
:1000C00000F030F800F050F8103A02D378C878C148
:1000D000FAD8520701D330C830C101D504680C608A
:1000E000704700000023002400250026103A01D3A9
:1000F00078C1FBD8520700D330C100D50B607047E0
:10010000F8B505460E461746284601F051FC002476
:1001100004E0315D281901F0CDFC641CBC42F8DB21
:10012000F8BD00000CA030C8083824182D18A246CD
:10013000671EAB4654465D46AC4201D100F014F850
:100140007E460F3E0FCCB6460126334200D0FB1A46
:10015000A246AB4633431847483B0000683B0000CB
:100160001FB51FBD10B510BD00F072FA1146FFF7A4
:10017000F7FF00F0A3FA00F03BF803B4FFF7F2FF3B
:1001800003BC03F0DBFB000070B505460C461646C9
:1001900002E00FCC0FC5103E102EFAD2082E02D36B
:1001A00003CC03C5083E042E07D301CC01C5361F7E
:1001B00003E021782970641C6D1C761EF9D270BD95
:1001C000704700000FB4054910B503AA029800F06B
:1001D00013FA10BC08BC04B018470000040000204B
:1001E0007047704770477047C0688021084070476B
:1001F00010B50446C046C0462046FFF7BEFF10BDFE
:1002000010B50346002002E01C5C0C54401C9042D8
:10021000FADB10BD0C480D4A002100A1814200D933
:1002200002440B4802600B4880470B480047FEE73A
:10023000FEE7FEE7FEE7FEE7FEE7000007480849A5
:10024000084A094B70470000000000200000000031
:1002500008ED00E019340000C1000000C8000020D3
:10026000C8040020C8020020C802002001E004C029
:10027000091F0429FBD28B0701D50280801CC90706
:1002800000D00270704700290BD0C30702D0027063
:10029000401C491E022904D3830702D50280801C1A
:1002A000891EE3E70022EEE70022DFE700220309D0
:1002B0008B422CD3030A8B4211D300239C464EE081
:1002C00003460B433CD4002243088B4231D303093D
:1002D0008B421CD3030A8B4201D394463FE0C309EF
:1002E0008B4201D3CB01C01A524183098B4201D307
:1002F0008B01C01A524143098B4201D34B01C01AF2
:10030000524103098B4201D30B01C01A5241C30869
:100310008B4201D3CB00C01A524183088B4201D3D8
:100320008B00C01A524143088B4201D34B00C01AC4
:100330005241411A00D201465241104670475DE0D9
:10034000CA0F00D04942031000D34042534000225C
:100350009C4603098B422DD3030A8B4212D3FC2205
:10036000890112BA030A8B420CD3890192118B4284
:1003700008D3890192118B4204D389013AD092119A
:1003800000E08909C3098B4201D3CB01C01A524155
:1003900083098B4201D38B01C01A524143098B421E
:1003A00001D34B01C01A524103098B4201D30B0107
:1003B000C01A5241C3088B4201D3CB00C01A52412C
:1003C00083088B4201D38B00C01A5241D9D2430813
:1003D0008B4201D34B00C01A5241411A00D2014650
:1003E000634652415B10104601D34042002B00D5BA
:1003F0004942704763465B1000D3404201B500207C
:10040000C046C04602BD0000F0B5FF252D04C60958
:10041000C209FF2704462E400137CB093E4348401E
:100420002A402B400746002A6BD0002B69D0AA42F5
:1004300067D0AB4265D0002800DA32460125ED05D1
:1004400029432C4309022002090AD21A4B0C7F24AB
:10045000E31A434C000A7C44E35C7D242404121913
:1004600014145B00A218884201D3521C00E0400023
:1004700049420C465C4324115C43DB016415E318DC
:10048000040A5C43C502200D0C4644436419250A46
:100490005D432303EC0C0D46654300030019EB1884
:1004A0004C42A34201D35B18401CD4052018002BFA
:1004B00007D05B00C91804D3401C002901D14008B3
:1004C00040003F2189048A4209D3002A08DC110632
:1004D000090F04D0032149074018C00FC007F0BD21
:1004E00001224100120689187F2252069142F6D25B
:1004F00005214907C84201D59010F0BDFF20C00575
:10050000F0BD002F00DA32461648AA4207D2AB42AD
:1005100005D21902090E17D0F80FC007F0BDFF254C
:1005200063002D06AB42F9D84900A942F6D8AB4288
:1005300001D1A942F2D0A94201D1002101E061001C
:100540004908D0050843F0BD1102090EFBD0FF2079
:100550000243D005F0BD0A460146104654E70000AC
:10056000033800000000C07F0102C21504D001233F
:10057000DB071943002A0ADB9E239A1A02D4084695
:10058000D0407047FF2241001206914201D900205D
:100590007047C017C04370471F22030C02D10F22BF
:1005A00000041CD0030E01D10002083A030F01D150
:1005B0000001121F830F01D18000921E002801DB71
:1005C0004000521ED20551180212511819229040B3
:1005D00004D3491C002801D1490849000846704746
:1005E000C10FC90700D04042012292071143D3E74F
:1005F00001218907D0E70000084B70B50D467B4408
:1006000000F013F804462846FFF7EEFD002802D05C
:100610000020C04370BD204670BD000013340000B0
:1006200001694A1C02610878704700B58FB00291D9
:1006300000210591054901937944039111460490E5
:10064000684600F024F80FB000BD0000E5FFFFFF92
:10065000754600F02FF8AE46050069465346C008BF
:10066000C000854618B020B5FFF7E8FD60BC002744
:100670004908B6460026C0C5C0C5C0C5C0C5C0C56E
:10068000C0C5C0C5C0C5403D49008D467047F8B5DE
:10069000064600244768806800903046F56803E00D
:1006A0000099B847641C3046A8470028F8D1204676
:1006B000F8BD0000004870476400002010B502F04B
:1006C000ABFE03F0B9F9002010BD000010B51020FA
:1006D00000F026F9002000F037F90249088000F008
:1006E00077F910BD000000201FB50C2101A803F010
:1006F00027F90021402001F0D7FC0121402001F022
:10070000D3FC0121102002F0DBFD00F0A1F9012152
:10071000684601710021417103210903C180012153
:100720004902018100214181012189038181002148
:10073000817301A800F010F90021684681704170B2
:100740000221017000F04AF90821002000F00CF8A5
:100750000921012000F008F800F0EAF80122032145
:10076000182001F077F81FBD10B50246130003F002
:100770009BF8100913202D3A47545E6B7885929FA1
:10078000A9B6C3D06548006840094001CB06DB0E1E
:100790001843624B1860BEE0604800681F235B018D
:1007A00098434B011F246401234018435B4B18609E
:1007B000B1E05A4800681F239B0298438B021F2414
:1007C000A40223401843554B1860A4E05348006826
:1007D0001F23DB039843CB031F24E4032340184368
:1007E0004E4B186097E04D4800681F231B05984347
:1007F0000B051F24240523401843484B18608AE04A
:10080000464800681F235B0698434B061F24640676
:1008100023401843414B18607DE040484068400940
:100820004001CB06DB0E18433C4B586073E03B485D
:1008300040681F235B0198434B011F246401234040
:100840001843364B586066E0344840681F239B02CB
:1008500098438B021F24A402234018432F4B586057
:1008600059E02E4840681F23DB039843CB031F2425
:10087000E40323401843294B58604CE02748406864
:100880001F231B0598430B051F24240523401843F1
:10089000224B58603FE0214840681F235B06984385
:1008A0004B061F246406234018431C4B586032E05B
:1008B0001A48806840094001CB06DB0E1843174BED
:1008C000986028E0154880681F235B0198434B011E
:1008D0001F24640123401843104B98601BE00F480D
:1008E00080681F239B0298438B021F24A40223408D
:1008F00018430A4B98600EE0084880681F23DB030A
:100900009843CB031F24E40323401843034B986010
:1009100001E0042010BD00BF0020FBE740240040A0
:100920000249496B8143014A51637047802400406A
:10093000044840680121C9038843401801494860C0
:1009400070470000002400400146024A8800105809
:10095000704700005024004010B50446002C01D11F
:10096000042010BD012016494860022002F0F8FF63
:100970006078A1880843E188084361880843218999
:1009800008430F49496808430D4948600846806894
:1009900009158843217889020122920211400843F7
:1009A000074988600846806804218843A17A890045
:1009B000042211400843024988600020D1E700006A
:1009C000002400400120014948607047C0240040D5
:1009D0000020014948607047C024004001460029BA
:1009E00002D00878102801DD04207047174880687D
:1009F0000122D2039043154A906010468068D214B9
:100A000090434A78D2020123DB021A4010430F4A76
:100A1000906010468068921590438A781202DB102D
:100A20001A401043094A90600848403080680F22FD
:100A3000120590430A78521E12050F231B051A4017
:100A40001043024A403290600020CEE7002400406C
:100A500010B50548006801210843034908600220D9
:100A600002F07EFF10BD000000240040704710B56A
:100A7000002002F071F9002002F06EF908214020F8
:100A800001F0A6FA0921402001F0A2FA0A21402033
:100A900001F09EFA0B21402001F09AFA10BD704738
:100AA00010B53D480078002806D001281BD0022848
:100AB00030D003285FD144E00C21402001F002FB3C
:100AC0000D21402001F084FA0E21402001F080FA2F
:100AD0000F21402001F07CFA002002F03DF90020B7
:100AE00002F03AF948E00C21402001F071FA0D21A2
:100AF000402001F0E7FA0E21402001F069FA0F21B1
:100B0000402001F065FA002002F026F9002002F0F2
:100B100023F931E00C21402001F05AFA0D21402048
:100B200001F056FA0E21402001F0CCFA0F214020AE
:100B300001F04EFA002002F00FF9762002F00CF9D5
:100B40001AE00C21402001F043FA0D21402001F071
:100B50003FFA0E21402001F03BFA0F21402001F026
:100B6000B1FA002002F0F8F80C490D4A1278885CBE
:100B700002F0F2F800E000BF00BF07480078401C18
:100B8000054908700878C117890F0918891089006C
:100B9000411A014A117010BD2700002029000020D1
:100BA0002500002070B5A8480088A849884202DDC9
:100BB0000846A5490880A6480078002806D00128E4
:100BC00049D002287DD003287CD10DE10C214020A2
:100BD00001F078FA0D21402001F0FAF90E214020B1
:100BE00001F0F6F90F21402001F0F2F99948C08890
:100BF00095490988884204DC0A21402001F062FA04
:100C000003E00A21402001F0E3F9924840898E492F
:100C10000988884204DB0B21402001F053FA03E0ED
:100C20000B21402001F0D4F9002002F095F886480D
:100C30000088894988420ADD491C83480088FFF7FB
:100C40003FFB86490C5C204602F086F802E000205B
:100C500002F082F8E7E00C21402001F0B9F90D2103
:100C6000402001F02FFA0E21402001F0B1F90F21B0
:100C7000402001F0ADF9774880887349098888429F
:100C80000ADC7448C08870490988884204DD0A215A
:100C9000402001F017FA03E00A21402001F098F902
:100CA0006C4840896849098888420CDA694800899B
:100CB00065490988884206DB0B21402001F002FAD1
:100CC00005E025E0AEE00B21402001F081F9644908
:100CD000087802F041F85C480088632810DD642140
:100CE00059480088FFF7ECFA05460A21FFF7E8FAB1
:100CF0005A48405C80210843044602F02DF806E083
:100D00005649097880221143084602F025F88AE006
:100D10000C21402001F05CF90D21402001F058F930
:100D20000E21402001F0CEF90F21402001F050F9B2
:100D30004C480088401C4B4908800846008814280D
:100D400001DB00200880474800880A2804DA0B21CC
:100D5000402001F0B7F903E00B21402001F038F901
:100D60003948008890280ADA37490C88E117090FBA
:100D7000091909113A4A505C01F0EEFF1CE03248B3
:100D8000008890280CDB30480088A02808DA344915
:100D9000087A01F0E1FF0821402001F093F90BE00F
:100DA0002F49087A01F0D8FF0821402001F08AF984
:100DB0000921402001F086F92348008809280EDD2A
:100DC0000A2121480088FFF77BFA05460A21FFF730
:100DD00077FA2248445C204601F0BEFF03E01F4939
:100DE000087801F0B9FF1EE00C21402001F0F0F876
:100DF0000D21402001F0ECF80E21402001F0E8F830
:100E00000F21402001F05EF9002001F0A5FF0A212A
:100E10000D480088FFF754FA1048445C204601F062
:100E20009BFF00E000BF00BF09480078401C084954
:100E300008700878C117890F091889108900411AAC
:100E4000034A117070BD0000000000200F27000051
:100E50002700002048000020E703000029000020B0
:100E6000330000203C00002070B59C48007800282A
:100E700006D001284BD0022876D0032875D1DFE0B8
:100E80000C21402001F01EF90D21402001F0A0F8B6
:100E90000E21402001F09CF80F21402001F098F82D
:100EA000002001F059FF8E480078032819D18D48A1
:100EB0000078401C8B49087008460078502801DBF8
:100EC0000020087087480078282806DA8649C97803
:100ED000864A505C01F040FF18E0002001F03CFF22
:100EE00014E083484088834988420BDD8049488864
:100EF0007D21C900FFF7E4F97C490C5C204601F034
:100F00002BFF03E07949087801F026FFD5E00C219A
:100F1000402001F05DF80D21402001F0D3F80E21B2
:100F2000402001F055F80F21402001F051F8002039
:100F300001F012FF6A48007802281BD16948007846
:100F4000401C6849087008460078502801DB0020E2
:100F5000087064480078282808DA63498978634A69
:100F6000505C01F0F9FE21E021E0A5E0802001F0D5
:100F7000F3FE1BE05E484088632810DD5C4948882A
:100F80006421FFF79DF905460A21FFF799F95748B3
:100F9000405C80210843044601F0DEFE06E0534930
:100FA000097880221143084601F0D6FE85E00C2125
:100FB000402001F00DF80D21402001F009F80E212C
:100FC000402001F07FF80F21402001F001F80020BF
:100FD00001F0C2FE42480078012819D1414800784A
:100FE000401C4049087008460078502801DB00206A
:100FF00008703C480078282806DA3B4949783B4A83
:10100000505C01F0A9FE1AE0002001F0A5FE16E0F8
:101010003748408809280EDD354948880A21FFF7FE
:101020004FF905460A21FFF74BF93048445C20464A
:1010300001F092FE03E02D49087801F08DFE3CE0BE
:101040000C21402000F0C4FF0D21402000F0C0FF23
:101050000E21402000F0BCFF0F21402001F032F8AB
:10106000002001F079FE1E480078002819D11D48A3
:101070000078401C1B49087008460078502801DBA6
:101080000020087017480078282806DA16490978E1
:10109000164A505C01F060FE0DE0002001F05CFE9D
:1010A00009E0134948880A21FFF70AF90F48445C10
:1010B000204601F051FE00E000BF00BF0748007865
:1010C000401C064908700878C117890F0918891053
:1010D0008900411A014A117070BD000027000020EC
:1010E000280000203E0000201700002029000020DA
:1010F00048000020E703000070B560480078002831
:1011000006D001282DD002285BD003287DD185E0B0
:101110000C21402000F0D6FF0D21402000F058FFA8
:101120000E21402000F054FF0F21402000F050FF1E
:10113000002001F011FE52488088524988420BDDA0
:101140004F4988887D21C900FFF7BAF84E490C5CE9
:10115000204601F001FE03E04B49087801F0FCFD58
:101160007BE00C21402000F033FF0D21402000F0F7
:10117000A9FF0E21402000F02BFF0F21402000F09E
:1011800027FF002001F0E8FD3D488088632810DD3E
:101190003B4988886421FFF793F805460A21FFF749
:1011A0008FF83948405C80210843044601F0D4FDA3
:1011B00006E03549097880221143084601F0CCFD4C
:1011C0004BE00C21402000F003FF0D21402000F0F7
:1011D000FFFE0E21402000F075FF0F21402000F09F
:1011E000F7FE002001F0B8FD25488088092810DDB1
:1011F000234988880A21FFF763F805460A21FFF78B
:101200005FF82148445C204600E025E001F0A4FDA1
:1012100003E01D49087801F09FFD1EE00C214020ED
:1012200000F0D6FE0D21402000F0D2FE0E2140201D
:1012300000F0CEFE0F21402000F044FF002001F01E
:101240008BFD0F4988880A21FFF73AF80E48445C65
:10125000204601F081FD00E000BF00BF0748007894
:10126000401C064908700878C117890F09188910B1
:101270008900411A014A117070BD0000270000204A
:1012800048000020E70300002900002070B56048F6
:101290000078002806D001282DD002285BD0032832
:1012A0007DD185E00C21402000F00CFF0D21402075
:1012B00000F08EFE0E21402000F08AFE0F2140201B
:1012C00000F086FE002001F047FD5248C0885249D8
:1012D00088420BDD4F49C8887D21C900FEF7F0FF29
:1012E0004E490C5C204601F037FD03E04B4908787D
:1012F00001F032FD7BE00C21402000F069FE0D2161
:10130000402000F0DFFE0E21402000F061FE0F21A2
:10131000402000F05DFE002001F01EFD3D48C08829
:10132000632810DD3B49C8886421FEF7C9FF0546E4
:101330000A21FEF7C5FF3948405C80210843044676
:1013400001F00AFD06E0354909788022114308467C
:1013500001F002FD4BE00C21402000F039FE0D2190
:10136000402000F035FE0E21402000F0ABFE0F21A2
:10137000402000F02DFE002001F0EEFC2548C08842
:10138000092810DD2349C8880A21FEF799FF054680
:101390000A21FEF795FF2148445C204600E025E045
:1013A00001F0DAFC03E01D49087801F0D5FC1EE0ED
:1013B0000C21402000F00CFE0D21402000F008FE22
:1013C0000E21402000F004FE0F21402000F07AFEA4
:1013D000002001F0C1FC0F49C8880A21FEF770FF08
:1013E0000E48445C204601F0B7FC00E000BF00BF9F
:1013F00007480078401C064908700878C117890F13
:10140000091889108900411A014A117070BD000045
:101410002700002048000020E703000029000020EA
:1014200070B560480078002806D001282DD0022829
:101430005BD003287DD185E00C21402000F042FEE6
:101440000D21402000F0C4FD0E21402000F0C0FD21
:101450000F21402000F0BCFD002001F07DFC52482F
:101460004089524988420BDD4F4948897D21C90096
:10147000FEF726FF4E490C5C204601F06DFC03E0B0
:101480004B49087801F068FC7BE00C21402000F01B
:101490009FFD0D21402000F015FE0E21402000F0A0
:1014A00097FD0F21402000F093FD002001F054FC37
:1014B0003D480089632810DD3B4908896421FEF717
:1014C000FFFE05460A21FEF7FBFE3948405C8021FD
:1014D0000843044601F040FC06E0354909788022C3
:1014E0001143084601F038FC4BE00C21402000F08D
:1014F0006FFD0D21402000F06BFD0E21402000F01B
:10150000E1FD0F21402000F063FD002001F024FCEC
:1015100025480089092810DD234908890A21FEF79A
:10152000CFFE05460A21FEF7CBFE2148445C20464B
:1015300000E025E001F010FC03E01D49087801F00F
:101540000BFC1EE00C21402000F042FD0D2140204C
:1015500000F03EFD0E21402000F03AFD0F2140201A
:1015600000F0B0FD002001F0F7FB0F4908890A21C7
:10157000FEF7A6FE0E48445C204601F0EDFB00E0BD
:1015800000BF00BF07480078401C06490870087873
:10159000C117890F091889108900411A014A117071
:1015A00070BD00002700002048000020E703000075
:1015B0002900002070B560480078002806D0012876
:1015C0002DD002285BD003287DD185E00C2140205E
:1015D00000F078FD0D21402000F0FAFC0E214020A3
:1015E00000F0F6FC0F21402000F0F2FC002001F09A
:1015F000B3FB52484089524988420BDD4F49488924
:101600007D21C900FEF75CFE4E490C5C204601F0CE
:10161000A3FB03E04B49087801F09EFB7BE00C2123
:10162000402000F0D5FC0D21402000F04BFD0E21A4
:10163000402000F0CDFC0F21402000F0C9FC00202C
:1016400001F08AFB3D484089632810DD3B49488909
:101650006421FEF735FE05460A21FEF731FE3948C2
:10166000405C80210843044601F076FB06E03549E2
:10167000097880221143084601F06EFB4BE00C21F3
:10168000402000F0A5FC0D21402000F0A1FC0E211F
:10169000402000F017FD0F21402000F099FC0020B1
:1016A00001F05AFB25484089092810DD2349488963
:1016B0000A21FEF705FE05460A21FEF701FE214834
:1016C000445C204600E025E001F046FB03E01D49B4
:1016D000087801F041FB1EE00C21402000F078FC6E
:1016E0000D21402000F074FC0E21402000F070FC21
:1016F0000F21402000F0E6FC002001F02DFB0F49F7
:1017000048890A21FEF7DCFD0E48445C204601F0C2
:1017100023FB00E000BF00BF07480078401C0649DB
:1017200008700878C117890F091889108900411AB3
:10173000014A117070BD0000270000204800002001
:10174000E70300002900002010B540480078002879
:1017500006D001281BD0022830D0032864D14CE0E9
:101760000C21402000F0AEFC0D21402000F030FCA8
:101770000E21402000F02CFC0F21402000F028FC1E
:10178000002001F0E9FA002001F0E6FA4DE00C211A
:10179000402000F01DFC0D21402000F093FC0E21A4
:1017A000402000F015FC0F21402000F011FC00202B
:1017B00001F0D2FA002001F0CFFA36E00C214020EF
:1017C00000F006FC0D21402000F002FC0E2140201C
:1017D00000F078FC0F21402000F0FAFB002001F01F
:1017E000BBFA1B48007B002803D13E2001F0B4FA6D
:1017F00002E0772001F0B0FA17E00C21402000F061
:10180000E7FB0D21402000F0E3FB0E21402000F01B
:10181000DFFB0F21402000F055FC002001F09CFA76
:10182000002001F099FA00E000BF00BF07480078EF
:10183000401C064908700878C117890F09188910DB
:101840008900411A014A117010BD000027000020D4
:101850004800002070B504460E4615462046002874
:1018600005DBC206D20E01219140144A116000BF6F
:101870003146204602F026F8012D0ED120460028E0
:1018800009DB00BF00BFC206D20E012191400C4A05
:10189000116000BF00BF00BF0FE0204600280ADB38
:1018A000C206D20E01219140054A80321160BFF379
:1018B0004F8FBFF36F8F00BF00BF70BD80E200E0AD
:1018C00000E100E070470000F0B58BB005460E4621
:1018D0000024FF200A9000200990202101A8FEF793
:1018E000E3FC284F012D0ED0022D0CD0042D0AD080
:1018F000062D08D0082D06D00C2D04D00420099008
:1019000009980BB0F0BD1F48006A012149028843C5
:10191000710201225202114008431A490862002450
:1019200007E0A000184908586843A10001AA5050D8
:10193000641C082CF5D30C2D01D1FF20029000244B
:101940001CE0FF200A9011E00A98411E0A9100282D
:101950000AD00E480B49C8620D48C862A00001A910
:101960000858A100785001E00720CAE7A0003858C5
:10197000A10001AA51588842E6D1641C082CE0D38A
:101980000998BEE700000240003C00005A5A0000DF
:10199000A5A5000003480449C8620448C8620020A5
:1019A000086370475A5A000000000240A5A50000D5
:1019B00008B502460023FF2000902548824202D944
:1019C0000423184608BDFF20009006E00098411E41
:1019D0000091002801D10920F4E71E48006AC006E2
:1019E000C00F0028F2D100F03BF8FF20009012E079
:1019F0000098411E009100280BD017481549C86275
:101A00001648C8620846006A80088000801C086288
:101A100001E00920D6E70F48006A8007800F0228FE
:101A2000E6D100201070FF20009006E00098411ED3
:101A30000091002801D10920C4E70648006AC006C9
:101A4000C00F0028F2D1FFF7A5FF1846BAE7000043
:101A5000FFFF0000000002405A5A0000A5A5000048
:101A600004480549C8620548C8620020C0430863AD
:101A7000704700005A5A000000000240A5A500006F
:101A800010B501460020084A084BDA62084ADA62BB
:101A90001A46126A0C239A438B000C2423401A43E3
:101AA000024B1A6210BD00005A5A000000000240AA
:101AB000A5A5000018B502460B460024FF200090A3
:101AC0002448824202D90424204618BDFF200090F9
:101AD00006E00098411E0091002801D10920F4E79A
:101AE0001D48006AC006C00F0028F2D1FF200090F8
:101AF00012E00098411E009100280BD017481649AB
:101B0000C8621748C8620846006A80088000401C06
:101B1000086201E00920D8E70F48006A8007800FBB
:101B20000128E6D1FFF79CFF1370FF20009006E02C
:101B30000098411E0091002801D10920C5E7064800
:101B4000006AC006C00F0028F2D1FFF723FF20462D
:101B5000BBE70000FFFF0000000002405A5A0000EF
:101B6000A5A500001CB501211C2001F0A9FB012145
:101B700068460170417000218170C17001710121BE
:101B800041716A460021084600F03CFA6A4601218C
:101B9000002000F037FA6A460221002000F032FAF5
:101BA0006A460321002000F02DFA6A460421002035
:101BB00000F028FA6A460521002000F023FA6A4660
:101BC0000621002000F01EFA6A460721002000F0DE
:101BD00019FA6A460821002000F014FA6A46092121
:101BE000002000F00FFA6A460A21002000F00AFAED
:101BF0006A460B21002000F005FA6A460C210020FD
:101C000000F000FA6A460D21002000F0FBF96A4658
:101C10000E21002000F0F6F96A460F21002000F0A6
:101C2000F1F90021084600F0D3F90121002000F06D
:101C3000CFF90221002000F0CBF90321002000F0B1
:101C4000C7F90421002000F0C3F90521002000F0AD
:101C5000BFF90621002000F0BBF90721002000F0A9
:101C6000B7F90821002000F0B3F90921002000F0A5
:101C7000AFF90A21002000F0ABF90B21002000F0A1
:101C8000A7F90C21002000F0A3F90D21002000F09D
:101C90009FF90E21002000F09BF90F21002000F099
:101CA00097F96A460021402000F0ACF96A4601210C
:101CB000402000F0A7F96A460221402000F0A2F976
:101CC0006A460321402000F09DF96A460421402025
:101CD00000F098F96A460621402000F093F96A4620
:101CE0000721402000F08EF96A460821402000F0CC
:101CF00089F96A460921402000F084F96A460A21E0
:101D0000402000F07FF96A460B21402000F07AF96C
:101D10006A460C21402000F075F96A460D214020EA
:101D200000F070F96A460E21402000F06BF96A4617
:101D30000F21402000F066F90021402000F048F912
:101D40000121402000F044F90221402000F040F938
:101D50000321402000F03CF90421402000F038F934
:101D60000521402000F034F90621402000F030F930
:101D70000721402000F02CF90821402000F028F92C
:101D80000921402000F024F90A21402000F020F928
:101D90000B21402000F01CF90C21402000F018F924
:101DA0000D21402000F014F90E21402000F010F920
:101DB0000F21402000F00CF96A460021802000F03D
:101DC00021F96A460121802000F01CF96A460221AF
:101DD000802000F017F96A460321802000F012F9F4
:101DE0006A460421802000F00DF96A460521802012
:101DF00000F008F96A460621802000F003F96A46DF
:101E00000721802000F0FEF86A460821802000F0BB
:101E1000F9F86A460921802000F0F4F86A460A21A0
:101E2000802000F0EFF86A460B21802000F0EAF8ED
:101E30006A460C21802000F0E5F86A460D218020DA
:101E400000F0E0F80021802000F0C2F8012180209D
:101E500000F0BEF80221802000F0BAF803218020B3
:101E600000F0B6F80421802000F0B2F805218020AF
:101E700000F0AEF80621802000F0AAF807218020AB
:101E800000F0A6F80821802000F0A2F809218020A7
:101E900000F09EF80A21802000F09AF80B218020A3
:101EA00000F096F80C21802000F092F80D2180209F
:101EB00000F08EF86A460021C02000F0A3F86A46C0
:101EC0000121C02000F09EF86A460221C02000F0E7
:101ED00099F86A460321C02000F094F86A4606216A
:101EE000C02000F08FF86A460721C02000F08AF871
:101EF0006A460821C02000F085F86A460921C02002
:101F000000F080F86A460A21C02000F07BF86A469B
:101F10000B21C02000F076F86A460C21C02000F0AA
:101F200071F86A460D21C02000F06CF86A460E2157
:101F3000C02000F067F86A460F21C02000F062F868
:101F40000021C02000F044F80121C02000F040F83A
:101F50000221C02000F03CF80321C02000F038F836
:101F60000421C02000F034F80521C02000F030F832
:101F70000621C02000F02CF80721C02000F028F82E
:101F80000821C02000F024F80921C02000F020F82A
:101F90000A21C02000F01CF80B21C02000F018F826
:101FA0000C21C02000F014F80D21C02000F010F822
:101FB0000E21C02000F00CF80F21C02000F008F81E
:101FC0001CBD02461068C840C007C00F7047000023
:101FD00070B504460D46044960180122294600F0F8
:101FE0000BFF002070BD0000140D024070B50446C8
:101FF0000D46034960182946FFF7E3FF70BD000056
:10200000040D024070B504460E4615461E49601880
:102010000022314600F0F0FE00201C496118B20099
:1020200088502A7818490C396018314600F0E4FECF
:102030006A78154910316018314600F0DDFEAA7843
:10204000114914316018314600F0D6FEEA780E4985
:1020500018316018314600F0CFFE2A790A49203144
:102060006018314600F0C8FE094880680121C903A4
:1020700088436979C9030122D20311400843044906
:102080008860002070BD00000C0D0240000C024072
:10209000000F024010B50346024818188C00025188
:1020A000002010BD000C024070B504460D460449E6
:1020B00060180122294600F09FFE002070BD00003C
:1020C0000C0D024070B504460D460449601801220B
:1020D000294600F091FE002070BD0000100D024066
:1020E00008B50020009000BF00980028FCD008BD73
:1020F000704770471CB501211C2001F0E1F8002158
:10210000684601708170C17008214020FFF760FFB0
:1021100009214020FFF75CFF0A214020FFF758FF0C
:102120000B214020FFF754FF0C214020FFF750FF08
:102130000D214020FFF74CFF0E214020FFF748FF04
:102140000F214020FFF744FF6A4608214020FFF797
:1021500059FF6A4609214020FFF754FF6A460A21C9
:102160004020FFF74FFF6A460B214020FFF74AFF50
:102170006A460C214020FFF745FF6A460D214020AA
:10218000FFF740FF6A460E214020FFF73BFF6A46FB
:102190000F214020FFF736FF1CBD1CB501211C207C
:1021A00001F08EF8012168460170417000218170B4
:1021B000C1700171012141716A4604214020FFF77D
:1021C00021FF6A4605214020FFF71CFF6A460621D1
:1021D0004020FFF717FF6A4607214020FFF712FF54
:1021E0001CBD704710B5074800F0D7FC012808D186
:1021F000044800F0B5FC0448007840210843024937
:10220000087010BD000F00400C0000201CB5082114
:10221000684601F095FB0121092001F051F80021E9
:10222000684681704170022101700021C170017106
:10223000012141710B49C18069460B4800F0B5FC92
:10224000094800F08DFC0121074800F09CFC0122A8
:1022500003211120FFF7FEFA0121034800F089FC59
:102260001CBD0000FFBF0000000F0040704770471A
:1022700070B504460D46002229462046143000F071
:10228000BBFD002070BD70B504460D4601222946F5
:10229000201D00F0B1FD002070BD70B504460D4654
:1022A0000026294620461030FFF78BFE06463046B2
:1022B00070BD0000F0B587B005460C460127224AE4
:1022C00007CA04AB07C300200390002C02D10420EE
:1022D00007B0F0BD00206860608861780843E1883D
:1022E0000843A18808432178084368602078402883
:1022F00002D02078C02824D1E088C117C90D091860
:102300004912890004AA515A8EB2E168B1400846C8
:10231000FEF76EF90290A068FEF76AF90190029943
:10232000FEF772F803903F210906039801F0BAFB0B
:102330000290FEF719F980B2A86104212846FFF740
:10234000A2FF00273846C3E7203C000070B50446D2
:102350000D4600BF03212046FFF79FFF0028F9D05C
:102360002068000A0002E9B20843206000BF012192
:102370002046FFF792FF0028F9D001212046FFF701
:1023800077FF002070BD000000B587B0102103A8C2
:1023900001F0D6FA062101A801F0D2FA01210320AA
:1023A00000F08EFF01211C2000F08AFF002168460A
:1023B000017101AA0846FFF725FE02220021084606
:1023C000FFF768FE01216846017101AA0020FFF7AE
:1023D00019FE022201210020FFF75CFE0021684661
:1023E000C181042141730021018200F01FFF05908B
:1023F0000121890203A8C180E121490206914021FF
:102400006846017303A90248FFF754FF07B000BDF7
:10241000004000407047000070B5F84840798021C6
:102420000840002807D0F54840794006400EF3499F
:102430004871802466E0F148407940210840002836
:1024400007D0EE484079BF210840EC49487140244C
:1024500058E0EA48407920210840002807D0E748A2
:102460004079DF210840E549487120244AE0E348EB
:10247000407910210840002807D0E0484079EF213A
:102480000840DE49487110243CE0DC4840790821CE
:102490000840002807D0D9484079F7210840D7499B
:1024A000487108242EE0D5484079042108400028CE
:1024B00007D0D2484079FB210840D0494871042414
:1024C00020E0CE48407902210840002807D0CB48C0
:1024D0004079FD210840C9494871022412E0C748EB
:1024E0004079C007C00F002807D0C4484079FE21BA
:1024F0000840C2494871012404E0C04844790020E2
:10250000BE494871BE480078012870D1202C55D0B2
:1025100006DC022C6CD0082C6BD0102C6AD189E21E
:10252000402C2FD0802CF9D1B6480078012804D057
:10253000022803D004281FD10FE021E0F020B24987
:102540008870B2480078401CB0490870084600788E
:10255000062801DD0120087000BFF020AA4988701C
:10256000AB480078401CAA49087008460078032848
:1025700001DD0020087003E00120A249087000BFBF
:1025800000BFD9E29F480078012804D002280DD06E
:1025900004280AD10BE0F0209B4988700220994959
:1025A000087001209949087006E000BF00BF1021A3
:1025B000062000F04FFB00BF00BFBDE2F0209249B3
:1025C000887090480078012804D0022803D004289D
:1025D0003FD101E041E040E08D48007800280AD07A
:1025E000012813D002281CD0032830D124E0A5E212
:1025F0008EE034E09CE287480078401CC0B28549F8
:102600000870092801DD0020087020E0814840782A
:10261000401CC0B27F494870092801DD0020487085
:1026200015E07C488078401CC0B27A49887009283F
:1026300001DD002088700AE07648C078401CC0B2F6
:102640007449C870092801DD0020C87000BF00BFB0
:1026500003E001206B49087000BF00BF6CE2F0206E
:102660006949887067480078012804D0022803D09F
:10267000042847D101E049E048E065480078002897
:1026800006D0012812D002281ED0032838D129E014
:1026900060480078002805D05E480078401E5D49FB
:1026A000087002E009205B49087029E05948407829
:1026B000002805D057484078401E5649487002E02F
:1026C0000920544948701BE052488078002805D002
:1026D00050488078401E4F49887002E009204D49DB
:1026E00088700DE04B48C078002805D04948C07874
:1026F000401E4849C87002E009204649C87000BF22
:1027000000BF03E001203F49087000BF00BF13E293
:102710003C480078012804D0022803D004286CD15A
:102720000AE185E104203749087000203849087023
:1027300036480078030001F0B7F806FC0432719FB8
:10274000CDFC354948880A21FDF7BAFDC8B23149A8
:102750000870314948880A21FDF7B2FD05460A2173
:10276000FDF7AEFDC8B22B4948702B49488864215B
:10277000FDF7A6FD05460A21FDF7A2FDC8B22549D1
:102780008870254948887D21C900FDF799FD0546D7
:102790000A21FDF795FDC8B21E49C870CAE01E495E
:1027A00088880A21FDF78CFDC8B21A4908701A49B9
:1027B00088880A21FDF784FD05460A21FDF780FD82
:1027C000C8B214494870144988886421FDF778FD1F
:1027D00005460A21FDF774FDC8B20E4988700E49FE
:1027E00088887D21C900FDF76BFD05460A21FDF7AC
:1027F00067FDC8B20749C8709CE015E10D000020D4
:102800001B0000202400002056000020250000208E
:10281000280000201700002048000020CB49C8886D
:102820000A21FDF74DFDC8B2C9490870C749C888DB
:102830000A21FDF745FD05460A21FDF741FDC8B215
:10284000C3494870C149C8886421FDF739FD054670
:102850000A21FDF735FDC8B2BD498870BB49C8885B
:102860007D21C900FDF72CFD05460A21FDF728FD55
:10287000C8B2B749C8705DE0B44908890A21FDF7BC
:102880001FFDC8B2B2490870B04908890A21FDF796
:1028900017FD05460A21FDF713FDC8B2AC49487083
:1028A000AA4908896421FDF70BFD05460A21FDF7B9
:1028B00007FDC8B2A6498870A44908897D21C900CE
:1028C000FDF7FEFC05460A21FDF7FAFCC8B2A04957
:1028D000C8702FE09D4948890A21FDF7F1FCC8B274
:1028E0009B490870994948890A21FDF7E9FC05468A
:1028F0000A21FDF7E5FCC8B295494870934948891B
:102900006421FDF7DDFC05460A21FDF7D9FCC8B2BC
:102910008F4988708D4948897D21C900FDF7D0FC19
:1029200005460A21FDF7CCFCC8B28949C87001E010
:10293000FFE700BF00BF7BE00220864908708648A1
:102940000078030000F0B0FF066D04192E43586DA7
:102950007F48C0787D21C90048437D498978642239
:10296000514341187A4840780A2250430818784960
:10297000097840187549488054E07548C0787D2131
:10298000C90048437249897864225143411870480C
:1029900040780A22504308186D49097840186B495D
:1029A00088803FE06A48C0787D21C9004843684973
:1029B0008978642251434118654840780A2250437F
:1029C00008186349097840186049C8802AE06048BF
:1029D000C0787D21C90048435D498978642251430C
:1029E00041185B4840780A22504308185849097832
:1029F00040185649088115E05548C0787D21C90026
:102A000048435349897864225143411850484078DB
:102A10000A22504308184E49097840184B4948810A
:102A200000E000BF00BF03E001204A49087000BF7A
:102A300000BF81E001204749087000204749087025
:102A400001204549087008460078030000F02CFF7B
:102A5000066D04192E43586D3D48C0787D21C9008C
:102A600048433B49897864225143411838484078AB
:102A70000A225043081836490978401833494880DB
:102A800054E03348C0787D21C900484330498978F3
:102A90006422514341182E4840780A2250430818B6
:102AA0002B4909784018294988803FE02848C07898
:102AB0007D21C90048432649897864225143411841
:102AC000234840780A2250430818214909784018C1
:102AD0001E49C8802AE01E48C0787D21C9004843AD
:102AE0001B498978642251434118194840780A22C9
:102AF000504308181649097840181449088115E010
:102B00001348C0787D21C90048431149897864225F
:102B1000514341180E4840780A22504308180C4986
:102B2000097840180949488100E000BF00BF03E070
:102B3000012000F099FE00BF00BF03E0012000F07B
:102B400093FE00BF00BF00F067F970BD4800002091
:102B5000170000202400002025000020280000206D
:102B600010B50446002211462046143000F044F906
:102B700010BD70B505460C462246002128460C3093
:102B800000F03AF970BD70B505460C4622460A21A0
:102B900028460C3000F030F970BD10B50446002115
:102BA00020461030FFF70DFA10BD30B502467D23E8
:102BB000DB00D0683024A0430C78240130252C4061
:102BC0002043D060D06801246402A0434C786402A2
:102BD00001256D022C402043D060D0686C10A043CA
:102BE0008C7824026D102C402043D060D0680824DB
:102BF000A043CC78E40008252C402043D060D06866
:102C00000424A0430C79A40004252C402043D06068
:102C1000D0680224A0434C79640002252C40204354
:102C2000D06005E0D0680006C00F002800D004E0A6
:102C300018465C1EA3B20028F4D100BF002B01D1BE
:102C4000092030BD5068000C0004CC88204350603F
:102C50000020F6E710B572B6421E074B9A5C0A4395
:102C6000431E054CE25401229A40044B1B781A4340
:102C7000024B1A7062B610BD0D0000200C0000203F
:102C800070477047704770477047704710B500BF76
:102C900001210620FEF718FE0028F9D10E220B496B
:102CA0000B480068FDF7ACFA08480078AB2803D160
:102CB0000648407BBA2807D000F0F6F80E220349F8
:102CC00003480068FDF71CFA10BD00004800002012
:102CD0004000002070477047704700000EB5062185
:102CE00001A800F02DFE01211C2000F0E9FA0121CD
:102CF000062000F0E5FA002168464171017101AA41
:102D000007210020FFF77EF9012207210020FFF7AD
:102D1000C1F901AA04210020FFF774F9012204215E
:102D20000020FFF7B7F901AA05210020FFF76AF993
:102D3000012205210020FFF7ADF91021684601703E
:102D400000214170C17081706946024800F07FF82F
:102D50000EBD00000008004010B5044600210948DF
:102D600000F089F82146074800F081F800BF0421EF
:102D7000044800F063F80028F9D00121014800F070
:102D80007AF810BD0008004010B5FDF770FE184835
:102D90000078012804D0022805D0042825D105E0B8
:102DA000FDF700FF22E0FDF77BFE1FE011480078F1
:102DB000030000F079FD071705080B0E111417002A
:102DC000FEF752F80FE0FEF797F90CE0FEF75EFA17
:102DD00009E0FEF725FB06E0FEF7ECFB03E0FEF75B
:102DE000B3FC00E000BF00BF00E000BF00BF10BDAB
:102DF000240000202500002010B5012A05D1036819
:102E000001248C402343036004E0036801248C40C8
:102E1000A343036010BD000006484079002807D096
:102E200072B605480078202108430349087062B64D
:102E3000704700000D0000200C0000200246906842
:102E40000840002801D0012070470020FCE702461E
:102E50000020106008784B7818438B781843CB78A3
:102E600018434023184310600020906070470246CA
:102E7000D160002070474160704708B50020FEF720
:102E8000FFFD002000F028FA062000F04BFA002198
:102E9000684601704170817000F022F80121032022
:102EA00000F054F808BD0000AB200A490870FF206C
:102EB000F5304880FF202D308880FF20A530C88065
:102EC000FA200881C820488100200873BA2048737E
:102ED000704700004800002010B5C046C04610BD35
:102EE00070B5044600252078030000F0DDFC0504E1
:102EF000050C10181C0018E0032000F05DFA0320F8
:102F000000F024FA11E0032000F0FAF90DE00321AB
:102F1000084600F05FFA032000F028FA05E00720D9
:102F200000F0BCF901E0042500BF00BF20780121BA
:102F300000F00CF8207800F029FA607800F086F9AB
:102F4000A07800F097F9284670BD0000F8B5054656
:102F50000C46002700F09CFC002C01D0012000E072
:102F6000002004465148066A2B0000F09DFC050431
:102F700017394D7298004D48006840084000E1073D
:102F8000C90F08434949086000BF002C05D04748D5
:102F9000C0680005C00F0028F7D082E04348006AEF
:102FA0000121090788434018404908624048C06829
:102FB000032108433E49C8603C4800680221884319
:102FC00061000222114008433849086000BF002C0C
:102FD00005D0364800694006C00F0028F7D060E0F1
:102FE0003248006804218843A100042211400843AC
:102FF0002E49086000BF002C05D02C484069C00451
:10300000C00F0028F7D04CE02848006A01210907CA
:10301000884340182549086225484038C068032184
:103020008903084322494039C860204800680821C4
:103030008843E1000822114008431C49086000BF92
:10304000002C05D0194880694006C00F0028F7D031
:1030500027E01648006A01210904884340181349F3
:1030600008621448006840084000401C114908608C
:10307000142000F075FC0D480068102188432101E0
:103080001022114008430949086000BF002C05D0F8
:103090000648C06B4003C00F0028F7D001E00427AA
:1030A00000BF00BF014806623846F8BD002000405E
:1030B000C00D02400024004030B589B00024142225
:1030C000564904A8FDF760F854481430006803908E
:1030D00000200090019002905148018868460181CB
:1030E0004F4841886846C1804D4881886846818044
:1030F0004B48C1886846418049482030018868466D
:103100000180484800680006450F2B0000F0CCFB0A
:1031100005042E303E4178004248C0684005400D0D
:1031200069460989884201D1089C1EE03D48C06873
:103130004005400D6946C988884201D1079C14E0CA
:103140003848C0684005400D69468988884201D1E9
:10315000069C0AE03348C0684005400D694649882E
:10316000884201D1059C00E0049C4BE02E4C49E0D4
:10317000684600882B4949698905890D884202D132
:103180006846C48901E0684684893BE00124E40381
:1031900038E02448C06B8007800F032829D1684697
:1031A00000892049C9684905490D884201D1089C18
:1031B00020E06846C0881B49C9684905490D884216
:1031C00001D1079C16E0684680881649C968490500
:1031D000490D884201D1069C0CE06846408811499F
:1031E000C9684905490D884201D1059C02E0049C4B
:1031F00000E00D4C0B48C06BC005000F444301E0DC
:10320000002400BF00BF074800684005410F20466A
:10321000C8400446204609B030BD00002C3C0000E8
:10322000000C1000002000400048E80110B5002408
:10323000FFF742FF044604480068C004810F20469F
:10324000C8400446204610BD0020004010B504468A
:1032500000F01EFB0648006807210902884321028E
:10326000072212021140084301490860002010BDE6
:103270000020004010B5044600F00AFB0648006834
:103280000321C9028843E1020322D202114008430C
:1032900001490860002010BD0020004010B5014623
:1032A0000020064AD26B0723DB039A43CB03072493
:1032B000E40323401A43014BDA6310BD00200040B1
:1032C00070B504460D462A4621460248FFF794FD94
:1032D000002070BD2020004001464A00064BD21855
:1032E00012885005400D054AD268D20AD202024324
:1032F000024BDA6000207047000C100000200040F4
:1033000010B501460020064A526903239B029A43E6
:103310008B020324A40223401A43014B5A6110BDBF
:103320000020004010B5044600F0B2FA064840689C
:1033300007214902884361020722520211400843D3
:1033400001494860002010BD0020004010B5014632
:103350000020054A126930239A430B013024234090
:103360001A43014B1A6110BD0020004010B5014600
:103370000020054A926930239A430B0130242340F0
:103380001A43014B9A6110BD0020004070B50446FD
:103390000025264600F07CFA06480068E0218843B4
:1033A0007101E022114008430249086000F02CF846
:1033B000284670BD0020004001460020044A1269E2
:1033C000920892008B079B0F1A43014B1A617047BA
:1033D0000020004030B5024600200A4B9B690C24B7
:1033E000A34394000C252C402343064CA3612346A1
:1033F0009B699B089B008C07A40F2343014CA3618E
:1034000030BD00000020004010B5FFF755FE014917
:10341000086010BD0800002010B50D4949888805D6
:10342000800D0C494969890A89020143094A5161A1
:103430000749203909894805400D1146C968C90A5C
:10344000C9020143D160FFF7DFFF00F013FA10BD9E
:10345000200C1000002000407047704770470000AB
:1034600010B5002000F000F9012808D1002000F07C
:10347000F1F803480078802108430149087010BD25
:103480000C000020704770477047000010B5042101
:103490004020FEF7ABFD002812D149480078401CBF
:1034A000C0B247490870F02801DDF0200870444898
:1034B0000078C82813D140210620FFF7CBFB0EE08F
:1034C0003F480078022807DD3D480078C82803DA25
:1034D00080210620FFF7BEFB002039490870052136
:1034E0004020FEF783FD00280FD136480078401CAD
:1034F000C0B234490870F02801DDF020087031486E
:103500000078C82810D100BF0EE02E4800780228AD
:1035100007DD2C480078C82803DA20210620FFF7B1
:1035200099FB00202749087006214020FEF75EFD28
:1035300000280FD124480078401CC0B222490870EE
:10354000F02801DDF02008701F480078C82810D14D
:1035500000BF0EE01C480078022807DD1A480078FA
:10356000C82803DA08210620FFF774FB002016495B
:10357000087007214020FEF739FD00280FD11348BD
:103580000078401CC0B211490870F02801DDF0201D
:1035900008700E480078C82810D100BF0EE00B4814
:1035A0000078022807DD09480078C82803DA0221DC
:1035B0000620FFF74FFB00200449087010BD0000F3
:1035C0001E0000201F0000202000002021000020FD
:1035D00070B500251C480478002C33D0F020204022
:1035E000002805D020111949085C001DC5B201E072
:1035F0001648055D1648445D72B6134800782040B1
:103600001149087062B6002D01D000F025F92B0099
:1036100000F04AF9091615141312110E0B061600C4
:10362000FFF7B2FBFFF732FF0BE000F0E1F808E034
:10363000FEF7F2FE05E004E003E002E001E000E056
:1036400000BF00BF70BD00000C000020443C000023
:10365000543C00000146002001228A40D243014B25
:103660005A6170470058004001460020034B1A6918
:103670001346CB40D807C00F7047000000580040E9
:1036800001460020044A1268120C12048BB21A433D
:10369000014B1A60704700000058004001460020AE
:1036A000044A5268120C12048BB21A43014B5A603E
:1036B000704700000058004000200449C9684908CC
:1036C0004900491C014AD160704700000058004081
:1036D00000200449C9680122920291438918014AD5
:1036E000D16070470058004010B501460020284ABC
:1036F000D26803231B039A430B781B030324240380
:1037000023401A43224BDA601A46D2685B159A436B
:103710004B785B020124640223401A431C4BDA609D
:103720001A46D2689B159A438B781B02641023407B
:103730001A43174BDA601A46D26870239A43CB7843
:103740001B01702423401A43114BDA601A46D268D9
:1037500008239A430B79DB00082423401A430C4BBF
:10376000DA601A46D26804239A434B799B000424FA
:1037700023401A43064BDA601A46D26802239A4362
:103780008B795B00022423401A43014BDA6010BDA1
:10379000005800407CB50721684600F0D1F80121AF
:1037A0000B20FFF78DFD0021684601704171052156
:1037B000C170012181710021017181704170FFF799
:1037C00093FF0A4C2046FFF75BFF25462846FFF78C
:1037D00065FF0020FFF73EFFFFF77AFF012203217C
:1037E0000520FEF737F8FFF767FF7CBD59F10000B1
:1037F00010B5002425E01448005D00281FD01248B1
:10380000005D401EC0B210490855002817D1002C99
:1038100006D0012C05D0022C09D0032C0DD10BE0D1
:103820000CE0022008494870FDF7CCF806E01021B2
:103830000620FFF70FFA01E000E000BF00BF601CA8
:10384000C4B20B2CD7DB10BD560000207047704768
:1038500070477047704700001E2002490860E12051
:1038600008607047800F00400149087070470000F1
:103870001B0000200549086A096A012212079143CA
:103880008918024A11621146086270470020004000
:103890000248034988600348886070475A5A00000C
:1038A00000200040A5A5000030B47446641E2578B1
:1038B000641CAB4204D3635D5B00E31830BC184763
:1038C0001D46F8E710B5002819DB1A4A03231B022E
:1038D000D21883089B00D2588307DC0EFF23A34035
:1038E0009A438B071B0E8407E40EA3401A43114B27
:1038F000032424021B198408A4001A5118E00E4A5C
:1039000003071B0F083B9B089B00D2588307DC0E64
:10391000FF23A3409A438B071B0E8407E40EA340AA
:103920001A43054B0407240F083CA408A4001A51AD
:1039300010BD000000E100E01CED00E000BF70479A
:1039400010B50A460146002900D110BD02E000234F
:103950000B70491C1346521E002BF8D100BFF4E730
:1039600070B505461148124948610020886105205C
:1039700008610FE000200E4988610E490E4800687A
:10398000FCF794FC012109060C1A00BF0848806965
:10399000A042FBD828466D1E0028EBD104480069E0
:1039A000400840000249086170BD0000FFFFFF00B1
:1039B00000E000E0A08601000800002070B5054688
:1039C000114812494861002088610520086110E013
:1039D00000200E4988617D21C9000D480068FCF770
:1039E00065FC012109060C1A00BF08488069A04245
:1039F000FBD828466D1E0028EAD10448006940081B
:103A000040000249086170BDFFFFFF0000E000E0D8
:103A10000800002070B504460D46E0B20A2803D124
:103A20000D210448FEF792FCE1B20248FEF78EFC3D
:103A3000204670BD00400040FFF71FFAFEF792F8E5
:103A4000FEF7ABFBFFF74AF9FEF7E0FBFFF7A2FE3C
:103A5000FEF750FBFFF71AF9FCF746FEFEF794FC61
:103A600006A0FCF7AFFB7D20C000FFF7A7FF0220F8
:103A70000B49487001E0FFF7ABFDFCE75379737425
:103A8000656D2053746172742E2E2E2E2E2E2E2EC6
:103A90002E2E2E2E2E2E2E2E2E2E0D0A0000000043
:103AA0005600002070B501250400ED074C4020D4DD
:103AB000441A01D2001B0919C60D4B00F2B2FF2AAD
:103AC00029D01B0E2CD000020C02D31A2C43DC4050
:103AD0002843051910D2280A02D3401C6D0611D0C4
:103AE000761EF6058019FF2A00DA70BDC00DC005EC
:103AF00070BD694000F022F801200543C541521C09
:103B0000761CE8E764089C40C90161408900E7D160
:103B10000124A043E4E71B0E440200D0034870BD1B
:103B2000002AFCD1C00FC00770BD00BF0000C07FDD
:103B300070B501250400ED074C4022D4441A02D28E
:103B40006C40001B0919C60D4B00F2B2FF2A4BD086
:103B50001B0E50D000020C02D31A2C43DC40A843A9
:103B6000051B05D5AD0019D36D08761E521E37D042
:103B7000F605280A01D2801970BD70416D0603D088
:103B800070BD6940FFF794FF9C4009026140490005
:103B900001D0401E70BD0124A04370BD6D081DD032
:103BA00001202B0C01D12D0410302B0E01D12D0240
:103BB00008302B0F01D12D01001DAB0F01D1AD003D
:103BC000801CEB0F01D16D00401C6D00361A121ADB
:103BD000680AF5054019012A02DB70BD002070BD9E
:103BE000C036300AC00770BD1B0E440201D1FF2B46
:103BF00000D1024870BD002AF0D070BD0000C07F27
:103C000020000000170000001B00000050460000CC
:103C1000E022020018000000F0000000E8030000AD
:103C200004000000030000000200000000093D0045
:103C300000127A000024F4004086510100366E0123
:103C4000008000960001020203030303040404043D
:103C500004040404FFFEFDFBF7EFDFBF7F818283D6
:103C60008485868788898B8C8D8E8F91929395968B
:103C700097999A9C9D9FA0A2A3A5A7A8AAACAEB015
:103C8000B2B3B5B7B9BCBEC0C2C5C7C9CCCED1D41A
:103C9000D7D9DCDFE2E6E9ECF0F3F7FAFE0000004A
:103CA000C03C00000000002048000000C8000000E8
:103CB000083D00004800002080040000E4000000EF
:103CC000000000000000000000366E01000000004F
:103CD00000000000000001000000000000000000E3
:103CE0000000000001010100003F065B4F666D7D92
:103CF000077F6F000103070F1F3F7FFF00000000D9
:083D000000FE000000000000BD
:04000005000000C136
:00000001FF
