:020000040000FA
:10000000D0040020150200002F020000052300008C
:1000100000000000000000000000000000000000E0
:10002000000000000000000000000000330200009B
:10003000000000000000000035020000CD3100008B
:10004000A12F0000A32F0000A52F0000A72F000064
:10005000EF0A000055370000413B0000433B000021
:100060009124000093240000F32F0000F52F0000DE
:1000700015230000172300004D3700004F37000004
:100080005137000009240000793700007B37000059
:100090007D3700009D2F0000493B0000F12F00003C
:1000A000CD0600009F2F0000453B0000473B0000AD
:1000B0003926000007240000E91A0000BD0A0000EC
:1000C00000F030F800F050F8103A02D378C878C148
:1000D000FAD8520701D330C830C101D504680C608A
:1000E000704700000023002400250026103A01D3A9
:1000F00078C1FBD8520700D330C100D50B607047E0
:10010000F8B505460E461746284601F063FD002463
:1001100004E0315D281901F0DFFD641CBC42F8DB0E
:10012000F8BD00000CA030C8083824182D18A246CD
:10013000671EAB4654465D46AC4201D100F014F850
:100140007E460F3E0FCCB6460126334200D0FB1A46
:10015000A246AB46334318473C3E00005C3E0000DD
:100160001FB51FBD10B510BD00F072FA1146FFF7A4
:10017000F7FF00F0A3FA00F03BF803B4FFF7F2FF3B
:1001800003BC03F055FD000070B505460C4616464D
:1001900002E00FCC0FC5103E102EFAD2082E02D36B
:1001A00003CC03C5083E042E07D301CC01C5361F7E
:1001B00003E021782970641C6D1C761EF9D270BD95
:1001C000704700000FB4054910B503AA029800F06B
:1001D00013FA10BC08BC04B018470000040000204B
:1001E0007047704770477047C0688021084070476B
:1001F00010B50446C046C0462046FFF7BEFF10BDFE
:1002000010B50346002002E01C5C0C54401C9042D8
:10021000FADB10BD0C480D4A002100A1814200D933
:1002200002440B4802600B4880470B480047FEE73A
:10023000FEE7FEE7FEE7FEE7FEE7000007480849A5
:10024000084A094B70470000000000200000000031
:1002500008ED00E00D370000C1000000D0000020D4
:10026000D0040020D0020020D002002001E004C011
:10027000091F0429FBD28B0701D50280801CC90706
:1002800000D00270704700290BD0C30702D0027063
:10029000401C491E022904D3830702D50280801C1A
:1002A000891EE3E70022EEE70022DFE700220309D0
:1002B0008B422CD3030A8B4211D300239C464EE081
:1002C00003460B433CD4002243088B4231D303093D
:1002D0008B421CD3030A8B4201D394463FE0C309EF
:1002E0008B4201D3CB01C01A524183098B4201D307
:1002F0008B01C01A524143098B4201D34B01C01AF2
:10030000524103098B4201D30B01C01A5241C30869
:100310008B4201D3CB00C01A524183088B4201D3D8
:100320008B00C01A524143088B4201D34B00C01AC4
:100330005241411A00D201465241104670475DE0D9
:10034000CA0F00D04942031000D34042534000225C
:100350009C4603098B422DD3030A8B4212D3FC2205
:10036000890112BA030A8B420CD3890192118B4284
:1003700008D3890192118B4204D389013AD092119A
:1003800000E08909C3098B4201D3CB01C01A524155
:1003900083098B4201D38B01C01A524143098B421E
:1003A00001D34B01C01A524103098B4201D30B0107
:1003B000C01A5241C3088B4201D3CB00C01A52412C
:1003C00083088B4201D38B00C01A5241D9D2430813
:1003D0008B4201D34B00C01A5241411A00D2014650
:1003E000634652415B10104601D34042002B00D5BA
:1003F0004942704763465B1000D3404201B500207C
:10040000C046C04602BD0000F0B5FF252D04C60958
:10041000C209FF2704462E400137CB093E4348401E
:100420002A402B400746002A6BD0002B69D0AA42F5
:1004300067D0AB4265D0002800DA32460125ED05D1
:1004400029432C4309022002090AD21A4B0C7F24AB
:10045000E31A434C000A7C44E35C7D242404121913
:1004600014145B00A218884201D3521C00E0400023
:1004700049420C465C4324115C43DB016415E318DC
:10048000040A5C43C502200D0C4644436419250A46
:100490005D432303EC0C0D46654300030019EB1884
:1004A0004C42A34201D35B18401CD4052018002BFA
:1004B00007D05B00C91804D3401C002901D14008B3
:1004C00040003F2189048A4209D3002A08DC110632
:1004D000090F04D0032149074018C00FC007F0BD21
:1004E00001224100120689187F2252069142F6D25B
:1004F00005214907C84201D59010F0BDFF20C00575
:10050000F0BD002F00DA32461648AA4207D2AB42AD
:1005100005D21902090E17D0F80FC007F0BDFF254C
:1005200063002D06AB42F9D84900A942F6D8AB4288
:1005300001D1A942F2D0A94201D1002101E061001C
:100540004908D0050843F0BD1102090EFBD0FF2079
:100550000243D005F0BD0A460146104654E70000AC
:10056000F73A00000000C07F0102C21504D0012349
:10057000DB071943002A0ADB9E239A1A02D4084695
:10058000D0407047FF2241001206914201D900205D
:100590007047C017C04370471F22030C02D10F22BF
:1005A00000041CD0030E01D10002083A030F01D150
:1005B0000001121F830F01D18000921E002801DB71
:1005C0004000521ED20551180212511819229040B3
:1005D00004D3491C002801D1490849000846704746
:1005E000C10FC90700D04042012292071143D3E74F
:1005F00001218907D0E70000084B70B50D467B4408
:1006000000F013F804462846FFF7EEFD002802D05C
:100610000020C04370BD204670BD000007370000B9
:1006200001694A1C02610878704700B58FB00291D9
:1006300000210591054901937944039111460490E5
:10064000684600F024F80FB000BD0000E5FFFFFF92
:10065000754600F02FF8AE46050069465346C008BF
:10066000C000854618B020B5FFF7E8FD60BC002744
:100670004908B6460026C0C5C0C5C0C5C0C5C0C56E
:10068000C0C5C0C5C0C5403D49008D467047F8B5DE
:10069000064600244768806800903046F56803E00D
:1006A0000099B847641C3046A8470028F8D1204676
:1006B000F8BD0000004870477000002010B503F03E
:1006C00025F803F033FB002010BD000010B510200A
:1006D00000F04EF90A48007B002804D100F05CF9D4
:1006E0000849088004E0012000F056F90549088017
:1006F0000421062002F03CFC00F092F910BD00003D
:10070000540000201600002070B5044608490988EE
:10071000FA22514348000749FFF7D2FD0646FFF78A
:100720005FFF05462846FFF71FFF208070BD0000D1
:1007300016000020FF0F00001FB50C2101A803F0D8
:1007400079FA0021402001F0C1FD0121402001F093
:10075000BDFD0121102002F02DFF00F0A1F90121C3
:10076000684601710021417103210903C180012103
:1007700049020181002141810121890381810021F8
:10078000817301A800F010F9002168468170417062
:100790000221017000F04AF90821002000F00CF855
:1007A0000921012000F008F800F0EAF801220321F5
:1007B000182001F061F91FBD10B50246130003F0C7
:1007C000EDF9100913202D3A47545E6B7885929FFE
:1007D000A9B6C3D06548006840094001CB06DB0ECE
:1007E0001843624B1860BEE0604800681F235B013D
:1007F00098434B011F246401234018435B4B18604E
:10080000B1E05A4800681F239B0298438B021F24C3
:10081000A40223401843554B1860A4E053480068D5
:100820001F23DB039843CB031F24E4032340184317
:100830004E4B186097E04D4800681F231B059843F6
:100840000B051F24240523401843484B18608AE0F9
:10085000464800681F235B0698434B061F24640626
:1008600023401843414B18607DE0404840684009F0
:100870004001CB06DB0E18433C4B586073E03B480D
:1008800040681F235B0198434B011F2464012340F0
:100890001843364B586066E0344840681F239B027B
:1008A00098438B021F24A402234018432F4B586007
:1008B00059E02E4840681F23DB039843CB031F24D5
:1008C000E40323401843294B58604CE02748406814
:1008D0001F231B0598430B051F24240523401843A1
:1008E000224B58603FE0214840681F235B06984335
:1008F0004B061F246406234018431C4B586032E00B
:100900001A48806840094001CB06DB0E1843174B9C
:10091000986028E0154880681F235B0198434B01CD
:100920001F24640123401843104B98601BE00F48BC
:1009300080681F239B0298438B021F24A40223403C
:1009400018430A4B98600EE0084880681F23DB03B9
:100950009843CB031F24E40323401843034B9860C0
:1009600001E0042010BD00BF0020FBE74024004050
:100970000249496B8143014A51637047802400401A
:10098000044840680121C903884340180149486070
:1009900070470000002400400146024A88001058B9
:1009A000704700005024004010B50446002C01D1CF
:1009B000042010BD012016494860022003F04AF9C6
:1009C0006078A1880843E188084361880843218949
:1009D00008430F49496808430D4948600846806844
:1009E00009158843217889020122920211400843A7
:1009F000074988600846806804218843A17A8900F5
:100A0000042211400843024988600020D1E7000019
:100A1000002400400120014948607047C024004084
:100A20000020014948607047C02400400146002969
:100A300002D00878102801DD04207047174880682C
:100A40000122D2039043154A906010468068D21468
:100A500090434A78D2020123DB021A4010430F4A26
:100A6000906010468068921590438A781202DB10DD
:100A70001A401043094A90600848403080680F22AD
:100A8000120590430A78521E12050F231B051A40C7
:100A90001043024A403290600020CEE7002400401C
:100AA00010B5054800680121084303490860022089
:100AB00003F0D0F810BD000000240040704710B5CE
:100AC000002002F0D7FA002002F0D4FA08214020DA
:100AD00001F090FB0921402001F08CFB0A2140200D
:100AE00001F088FB0B21402001F084FB10BD704712
:100AF00070B504462088A02806DA2588E817000F7C
:100B000040190005000E70BD2088A0280BDB20884E
:100B1000C82808DA21880846A0380A21FFF7D0FB48
:100B20000A30C0B2EFE72088C8280BDB2088FA28FB
:100B300008DA21880846C8381921FFF7C1FB0E30B2
:100B4000C0B2E0E72088FA280DDB2088FF212D3194
:100B5000884208DA21880846FA380A21FFF7B0FBF4
:100B60001030C0B2CFE72088FF212D3188420EDB44
:100B70002088FF21A531884209DA21880846FF38FC
:100B80002D380C21FFF79CFB1430C0B2BBE7208846
:100B9000FF21A53188420FDB2088FF21F5318842F3
:100BA0000ADA20880146FF39A539C817400F4018D6
:100BB000C0101E30C0B2A6E72820A4E710B5C64872
:100BC0000078002806D0012868D002287ED00328AB
:100BD0007DD126E10C21402001F086FB0D21402033
:100BE00001F008FB0E21402001F004FB0F21402002
:100BF00001F000FBB948C088B9490988884204DC83
:100C00000A21402001F070FB03E00A21402001F09E
:100C1000F1FAB2484089B2490988884204DB0B21C5
:100C2000402001F061FB03E00B21402001F0E2FADB
:100C3000AC480078142804DAAB49087802F01AFAB4
:100C400028E0A848007814280BDBA64800781C2868
:100C500007DCA44909781439A34A505C02F00AFA67
:100C600018E0A04800781D2808D19F49087A02F0B2
:100C700001FA0821402001F037FB0BE09A49087A7D
:100C800002F0F8F90821402001F02EFB0921402054
:100C900001F02AFB002002F0EDF90CE10C214020CC
:100CA00001F0A8FA0D21402001F01EFB0E2140208A
:100CB00001F0A0FA0F21402001F09CFA87488088BB
:100CC0008749098888420DDC844801E059E0F1E059
:100CD000C08883490988884204DD0A21402001F048
:100CE00003FB03E00A21402001F084FA7B4840899D
:100CF0007B49098888420ADA784800897849098856
:100D0000884204DB0B21402001F0EEFA03E00B21C6
:100D1000402001F06FFA734800780A2804DA72491B
:100D2000087802F0A7F928E06E4800780A280BDB63
:100D30006C480078122807DC6A4909780A396A4A3F
:100D4000505C02F097F918E066480078132808D143
:100D50006549087A02F08EF90821402001F0C4FAB2
:100D60000BE06149087A02F085F90821402001F082
:100D7000BBFA0921402001F0B7FA002002F07AF90D
:100D800099E00C21402001F035FA0D21402001F0BE
:100D900031FA0E21402001F0A7FA0F21402001F086
:100DA00029FA52480088401C5049088008460088AB
:100DB000282801DB002008804C480088142804DA29
:100DC0000B21402001F090FA03E00B21402001F0BC
:100DD00011FA44480078082806DA4349414A127853
:100DE000885C02F047F918E03E480078092808D1ED
:100DF0003D49087A02F03EF90821402001F074FADA
:100E00000BE03949087A02F035F90821402001F059
:100E10006BFA0921402001F067FA762002F02AF9E6
:100E200049E00C21402001F0E5F90D21402001F0BE
:100E3000E1F90E21402001F0DDF90F21402001F001
:100E400053FA284800781E2804DA2749087802F067
:100E500011F928E0234800781E280BDB2148007890
:100E6000262807DC1F4909781E391F4A505C02F00A
:100E700001F918E01B480078272808D11A49087A98
:100E800002F0F8F80821402001F02EFA0BE0164994
:100E9000087A02F0EFF80821402001F025FA092134
:100EA000402001F021FA1249124A1278885C02F0BF
:100EB000E1F800E000BF00BF07480078401C064989
:100EC00008700878C117890F091889108900411A1C
:100ED000014A117010BD00002900002054000020BC
:100EE000000000202B0000203600002042000020DF
:100EF0002C0000202700002070B5E648007800286C
:100F000006D001287BD0022873D0032872D163E178
:100F10000C21402001F0E8F90D21402001F06AF990
:100F20000E21402001F066F90F21402001F062F906
:100F3000D948C088D9490988884204DC0A21402060
:100F400001F0D2F903E00A21402001F053F9D24820
:100F50004089D2490988884204DB0B21402001F0F6
:100F6000C3F903E00B21402001F044F9CC4800789C
:100F7000142804DACB49087802F07CF828E0C84845
:100F8000007814280BDBC64800781C2807DCC4490D
:100F900009781439C34A505C02F06CF818E0C04874
:100FA00000781D2808D1BF49087A02F063F80821AB
:100FB000402001F099F90BE0BA49087A02F05AF89A
:100FC0000821402001F090F90921402001F08CF91E
:100FD000B2480088B44988420DDD491CAF480088FA
:100FE000FFF76EF9B1490C5C204602F043F805E0CA
:100FF00005E08DE03DE1002002F03CF83AE10C21F3
:10100000402001F0F7F80D21402001F06DF90E218C
:10101000402001F0EFF80F21402001F0EBF89E484E
:1010200080889E49098888420ADC9B48C0889B4981
:101030000988884204DD0A21402001F055F903E0C7
:101040000A21402001F0D6F8934840899349098845
:1010500088420ADA9048008990490988884204DB6E
:101060000B21402001F040F903E00B21402001F06A
:10107000C1F88B4800780A2804DA8A49087801F018
:10108000F9FF28E0864800780A280BDB84480078BE
:10109000122807DC824909780A39824A505C01F03B
:1010A000E9FF18E07E480078132808D17D49087AC6
:1010B00001F0E0FF0821402001F016F90BE079492A
:1010C000087A01F0D7FF0821402001F00DF909212D
:1010D000402001F009F971480088632810DD64217F
:1010E0006E480088FFF7ECF805460A21FFF7E8F89C
:1010F0006E48405C80210843044601F0BBFF06E0D7
:101100006A49097880221143084601F0B3FFB1E033
:101110000C21402001F06EF80D21402001F06AF80A
:101120000E21402001F0E0F80F21402001F062F88C
:101130005F480088401C5E490880084600882828CF
:1011400001DB002008805A480088142804DA0B21AB
:10115000402001F0C9F803E00B21402001F04AF8DB
:101160004F480078082806DA4E494D4A1278885CC4
:1011700001F080FF18E04A480078092808D1494961
:10118000087A01F077FF0821402001F0ADF80BE06C
:101190004449087A01F06EFF0821402001F0A4F8CC
:1011A0000921402001F0A0F83C48008809280EDD04
:1011B0000A213A480088FFF783F805460A21FFF71D
:1011C0007FF83A48445C204601F054FF03E0374979
:1011D000087801F04FFF4DE00C21402001F00AF8A3
:1011E0000D21402001F006F80E21402001F002F808
:1011F0000F21402001F078F8294800781E2804DAF1
:101200002849087801F036FF28E0254800781E2894
:101210000BDB23480078262807DC214909781E3992
:10122000204A505C01F026FF18E01D48007827286E
:1012300008D11C49087A01F01DFF0821402001F067
:1012400053F80BE01749087A01F014FF08214020F9
:1012500001F04AF80921402001F046F80A210F4820
:101260000088FFF72DF81148445C204601F002FF8A
:1012700000E000BF00BF07480078401C0549087027
:101280000878C117890F091889108900411A014A85
:10129000117070BD290000205400002000000020C3
:1012A0002B00002036000020E70300002C00002067
:1012B0004000002010B5D2480078002806D0012850
:1012C00068D002287ED003287DD141E10C21402046
:1012D00001F00AF80D21402000F08CFF0E21402083
:1012E00000F088FF0F21402000F084FFC548C0882F
:1012F000C5490988884204DC0A21402000F0F4FF37
:1013000003E00A21402000F075FFBE484089BE4935
:101310000988884204DB0B21402000F0E5FF03E050
:101320000B21402000F066FFB8480078142804DA4A
:10133000B749087801F09EFE28E0B44800781428E8
:101340000BDBB24800781C2807DCB0490978143957
:10135000AF4A505C01F08EFE18E0AC4800781D28C2
:1013600008D1AB49087A01F085FE0821402000F041
:10137000BBFF0BE0A649087A01F07CFE0821402063
:1013800000F0B2FF0921402000F0AEFF002001F084
:1013900071FE24E10C21402000F02CFF0D214020A3
:1013A00000F0A2FF0E21402000F024FF0F2140207A
:1013B00000F020FF934880889349098888420DDC1B
:1013C000904801E059E009E1C0888F4909888842C6
:1013D00004DD0A21402000F087FF03E00A214020BD
:1013E00000F008FF874840898749098888420ADA5F
:1013F0008448008984490988884204DB0B21402005
:1014000000F072FF03E00B21402000F0F3FE7F4864
:1014100000780A2804DA7E49087801F02BFE28E0DB
:101420007A4800780A280BDB78480078122807DC15
:10143000764909780A39764A505C01F01BFE18E0BB
:1014400072480078132808D17149087A01F012FE19
:101450000821402000F048FF0BE06D49087A01F0B8
:1014600009FE0821402000F03FFF0921402000F044
:101470003BFF002001F0FEFDB1E00C21402000F018
:10148000B9FE0D21402000F0B5FE0E21402000F0F5
:101490002BFF0F21402000F0ADFE5E480088401C6D
:1014A0005C49088008460088282801DB0020088065
:1014B00058480088142804DA0B21402000F014FF5B
:1014C00003E00B21402000F095FE504800780828EA
:1014D00006DA4F494D4A1278885C01F0CBFD18E0DE
:1014E0004A480078092808D14949087A01F0C2FD24
:1014F0000821402000F0F8FE0BE04549087A01F091
:10150000B9FD0821402000F0EFFE0921402000F045
:10151000EBFE41480078401C3F49087008460078BF
:10152000502801DB002008703B48007828280BDA9F
:101530003448007B002803D13E2001F09BFD06E0EB
:10154000772001F097FD02E0002001F093FD46E0D6
:101550000C21402000F04EFE0D21402000F04AFEFC
:101560000E21402000F046FE0F21402000F0BCFE7E
:10157000264800781E2804DA2549087801F07AFD0B
:1015800028E0224800781E280BDB20480078262817
:1015900007DC1E4909781E391D4A505C01F06AFDBE
:1015A00018E01A480078272808D11949087A01F06C
:1015B00061FD0821402000F097FE0BE01449087AF5
:1015C00001F058FD0821402000F08EFE0921402046
:1015D00000F08AFE002001F04DFD00E000BF00BFDA
:1015E00007480078401C064908700878C117890F21
:1015F000091889108900411A014A117010BD0000B4
:101600002900002054000020000000202B000020B2
:10161000360000204A0000204800002010B5FB489A
:101620000078002806D001287ED002287DD003282B
:101630007CD18FE10C21402000F056FE0D2140208E
:1016400000F0D8FD0E21402000F0D4FD0F214020F5
:1016500000F0D0FDEE48C088EE490988884204DCDD
:101660000A21402000F040FE03E00A21402000F063
:10167000C1FDE7484089E7490988884204DB0B211E
:10168000402000F031FE03E00B21402000F0B2FDCD
:10169000E1480078142804DAE049087801F0EAFC0F
:1016A00028E0DD48007814280BDBDB4800781C2894
:1016B00007DCD94909781439D84A505C01F0DAFCC2
:1016C00018E0D54800781D2808D1D449087A01F0DF
:1016D000D1FC0821402000F007FE0BE0CF49087A3A
:1016E00001F0C8FC0821402000F0FEFD0921402047
:1016F00000F0FAFDCA48007803281CD1C9480078D8
:10170000401CC849087008460078502801DB0020BA
:101710000870C4480078282809DAC349C978C34A40
:10172000505C01F0A7FC0CE00CE0A2E08DE1002091
:1017300001F0A0FC05E0BC49C978BC4A505C01F04E
:1017400099FC83E10C21402000F054FD0D21402044
:1017500000F0CAFD0E21402000F04CFD0F2140207A
:1017600000F048FDAA488088AA49098888420ADC16
:10177000A748C088A7490988884204DD0A2140207B
:1017800000F0B2FD03E00A21402000F033FDA04844
:101790004089A049098888420ADA9D4800899D4904
:1017A0000988884204DB0B21402000F09DFD03E006
:1017B0000B21402000F01EFD974800780A2804DA2B
:1017C0009649087801F056FC28E0934800780A28EA
:1017D0000BDB91480078122807DC8F4909780A3919
:1017E0008E4A505C01F046FC18E08B4800781328C4
:1017F00008D18A49087A01F03DFC0821402000F018
:1018000073FD0BE08549087A01F034FC0821402083
:1018100000F06AFD0921402000F066FD8048007854
:1018200002281CD17F480078401C7E490870084679
:101830000078502801DB002008707A4800782828BA
:1018400009DA79498978794A515C8022114308463E
:1018500001F010FC0CE0802001F00CFC08E0724963
:101860008978724A515C80221143084601F002FCDB
:10187000ECE00C21402000F0BDFC0D21402000F0E8
:10188000B9FC0E21402000F02FFD0F21402000F078
:10189000B1FC67480088401C6549088008460088FC
:1018A000282801DB0020088061480088142804DA19
:1018B0000B21402000F018FD03E00B21402000F038
:1018C00099FC55480078082806DA5449524A12789B
:1018D000885C01F0CFFB18E04F480078092808D158
:1018E0004E49087A01F0C6FB0821402000F0FCFCBC
:1018F0000BE04A49087A01F0BDFB0821402000F0C6
:10190000F3FC0921402000F0EFFC45480078012855
:1019100019D144480078401C4249087008460078B4
:10192000502801DB002008703E480078282806DA9D
:101930003D4949783D4A505C01F09CFB09E000209C
:1019400001F098FB05E038494978384A505C01F0CD
:1019500091FB7BE00C21402000F04CFC0D2140204D
:1019600000F048FC0E21402000F044FC0F214020F4
:1019700000F0BAFC284800781E2804DA27490878C5
:1019800001F078FB28E0244800781E280BDB224871
:101990000078262807DC204909781E391F4A505C48
:1019A00001F068FB18E01C480078272808D11B4983
:1019B000087A01F05FFB0821402000F095FC0BE065
:1019C0001649087A01F056FB0821402000F08CFCF3
:1019D0000921402000F088FC1148007800282DD112
:1019E00010480078401C0F490870084600785028BD
:1019F00001DB002008700B48007828281ADA0A4911
:101A000009780A4A505C01F035FB1DE029000020EE
:101A100054000020000000202B0000203600002091
:101A20002A00002044000020190000202C00002083
:101A300046000020002001F01DFB05E00B4909785D
:101A40000B4A505C01F016FB00E000BF00BF0948E4
:101A50000078401C074908700878C117890F0918D9
:101A600089108900411A034A117010BD1900002025
:101A70002C0000202900002070B504460E461546B3
:101A80002046002805DBC206D20E01219140144AEF
:101A9000116000BF3146204602F08EF8012D0ED1B4
:101AA0002046002809DB00BF00BFC206D20E01217C
:101AB00091400C4A116000BF00BF00BF0FE02046FC
:101AC00000280ADBC206D20E01219140054A80326D
:101AD0001160BFF34F8FBFF36F8F00BF00BF70BDAA
:101AE00080E200E000E100E070470000F0B58BB05C
:101AF00005460E460024FF200A9000200990202170
:101B000001A8FEF7D1FB284F012D0ED0022D0CD0DD
:101B1000042D0AD0062D08D0082D06D00C2D04D097
:101B20000420099009980BB0F0BD1F48006A0121FC
:101B300049028843710201225202114008431A49A6
:101B40000862002407E0A000184908586843A10073
:101B500001AA5050641C082CF5D30C2D01D1FF2094
:101B6000029000241CE0FF200A9011E00A98411E18
:101B70000A9100280AD00E480B49C8620D48C86275
:101B8000A00001A90858A100785001E00720CAE789
:101B9000A0003858A10001AA51588842E6D1641C1F
:101BA000082CE0D30998BEE700000240F43E000094
:101BB0005A5A0000A5A5000003480449C862044819
:101BC000C8620020086370475A5A000000000240B3
:101BD000A5A5000008B502460023FF200090254877
:101BE000824202D90423184608BDFF20009006E077
:101BF0000098411E0091002801D10920F4E71E48F9
:101C0000006AC006C00F0028F2D100F03BF8FF20A8
:101C1000009012E00098411E009100280BD0174858
:101C20001549C8621648C8620846006A80088000E4
:101C3000801C086201E00920D6E70F48006A80078F
:101C4000800F0228E6D100201070FF20009006E0EF
:101C50000098411E0091002801D10920C4E70648E0
:101C6000006AC006C00F0028F2D1FFF7A5FF184692
:101C7000BAE70000FFFF0000000002405A5A0000CF
:101C8000A5A5000004480549C8620548C8620020AF
:101C9000C0430863704700005A5A00000000024029
:101CA000A5A5000010B501460020084A084BDA62DD
:101CB000084ADA621A46126A0C239A438B000C24F3
:101CC00023401A43024B1A6210BD00005A5A00000A
:101CD00000000240A5A5000018B502460B460024EE
:101CE000FF2000902448824202D90424204618BDD7
:101CF000FF20009006E00098411E0091002801D1CD
:101D00000920F4E71D48006AC006C00F0028F2D180
:101D1000FF20009012E00098411E009100280BD097
:101D200017481649C8621748C8620846006A800802
:101D30008000401C086201E00920D8E70F48006AD3
:101D40008007800F0128E6D1FFF79CFF1370FF206A
:101D5000009006E00098411E0091002801D1092062
:101D6000C5E70648006AC006C00F0028F2D1FFF799
:101D700023FF2046BBE70000FFFF000000000240F9
:101D80005A5A0000A5A500001CB501211C2001F035
:101D900011FC012168460170417000218170C17001
:101DA0000171012141716A460021084600F03CFAA8
:101DB0006A460121002000F037FA6A46022100201D
:101DC00000F032FA6A460321002000F02DFA6A463C
:101DD0000421002000F028FA6A460521002000F0C6
:101DE00023FA6A460621002000F01EFA6A460721FF
:101DF000002000F019FA6A460821002000F014FAC9
:101E00006A460921002000F00FFA6A460A210020E4
:101E100000F00AFA6A460B21002000F005FA6A4633
:101E20000C21002000F000FA6A460D21002000F08D
:101E3000FBF96A460E21002000F0F6F96A460F21F0
:101E4000002000F0F1F90021084600F0D3F901214B
:101E5000002000F0CFF90221002000F0CBF903218F
:101E6000002000F0C7F90421002000F0C3F905218B
:101E7000002000F0BFF90621002000F0BBF9072187
:101E8000002000F0B7F90821002000F0B3F9092183
:101E9000002000F0AFF90A21002000F0ABF90B217F
:101EA000002000F0A7F90C21002000F0A3F90D217B
:101EB000002000F09FF90E21002000F09BF90F2177
:101EC000002000F097F96A460021402000F0ACF9AC
:101ED0006A460121402000F0A7F96A46022140200D
:101EE00000F0A2F96A460321402000F09DF96A46FD
:101EF0000421402000F098F96A460621402000F0B5
:101F000093F96A460721402000F08EF96A460821BD
:101F1000402000F089F96A460921402000F084F948
:101F20006A460A21402000F07FF96A460B214020D2
:101F300000F07AF96A460C21402000F075F96A46F3
:101F40000D21402000F070F96A460E21402000F07B
:101F50006BF96A460F21402000F066F9002140200D
:101F600000F048F90121402000F044F9022140200E
:101F700000F040F90321402000F03CF9042140200A
:101F800000F038F90521402000F034F90621402006
:101F900000F030F90721402000F02CF90821402002
:101FA00000F028F90921402000F024F90A214020FE
:101FB00000F020F90B21402000F01CF90C214020FA
:101FC00000F018F90D21402000F014F90E214020F6
:101FD00000F010F90F21402000F00CF96A460021B2
:101FE000802000F021F96A460121802000F01CF9D0
:101FF0006A460221802000F017F96A4603218020FA
:1020000000F012F96A460421802000F00DF96A46BA
:102010000521802000F008F96A460621802000F0A2
:1020200003F96A460721802000F0FEF86A4608217D
:10203000802000F0F9F86A460921802000F0F4F8C9
:102040006A460A21802000F0EFF86A460B218020C2
:1020500000F0EAF86A460C21802000F0E5F86A46B4
:102060000D21802000F0E0F80021802000F0C2F86F
:102070000121802000F0BEF80221802000F0BAF893
:102080000321802000F0B6F80421802000F0B2F88F
:102090000521802000F0AEF80621802000F0AAF88B
:1020A0000721802000F0A6F80821802000F0A2F887
:1020B0000921802000F09EF80A21802000F09AF883
:1020C0000B21802000F096F80C21802000F092F87F
:1020D0000D21802000F08EF86A460021C02000F01B
:1020E000A3F86A460121C02000F09EF86A4602214A
:1020F000C02000F099F86A460321C02000F094F84F
:102100006A460621C02000F08FF86A460721C020E9
:1021100000F08AF86A460821C02000F085F86A4677
:102120000921C02000F080F86A460A21C02000F092
:102130007BF86A460B21C02000F076F86A460C2135
:10214000C02000F071F86A460D21C02000F06CF844
:102150006A460E21C02000F067F86A460F21C020B1
:1021600000F062F80021C02000F044F80121C020F6
:1021700000F040F80221C02000F03CF80321C0200C
:1021800000F038F80421C02000F034F80521C02008
:1021900000F030F80621C02000F02CF80721C02004
:1021A00000F028F80821C02000F024F80921C02000
:1021B00000F020F80A21C02000F01CF80B21C020FC
:1021C00000F018F80C21C02000F014F80D21C020F8
:1021D00000F010F80E21C02000F00CF80F21C020F4
:1021E00000F008F81CBD02461068C840C007C00FC8
:1021F0007047000070B504460D460449601801227E
:10220000294600F073FF002070BD0000140D02404D
:1022100070B504460D46034960182946FFF7E3FFF1
:1022200070BD0000040D024070B504460E46154610
:102230001E4960180022314600F058FF00201C495A
:102240006118B20088502A7818490C396018314654
:1022500000F04CFF6A78154910316018314600F0E3
:1022600045FFAA78114914316018314600F03EFF4D
:10227000EA780E4918316018314600F037FF2A79A4
:102280000A4920316018314600F030FF0948806863
:102290000121C90388436979C9030122D20311408E
:1022A000084304498860002070BD00000C0D024006
:1022B000000C0240000F024010B5034602481818F7
:1022C0008C000251002010BD000C024070B5044685
:1022D0000D46044960180122294600F007FF00203E
:1022E00070BD00000C0D024070B504460D46044957
:1022F00060180122294600F0F9FE002070BD0000A0
:10230000100D024008B50020009000BF0098002882
:10231000FCD008BD704770471CB501211C2001F09E
:1023200049F90021684601708170C1700821402080
:10233000FFF760FF09214020FFF75CFF0A214020E2
:10234000FFF758FF0B214020FFF754FF0C214020DE
:10235000FFF750FF0D214020FFF74CFF0E214020DA
:10236000FFF748FF0F214020FFF744FF6A4608218E
:102370004020FFF759FF6A4609214020FFF754FF2C
:102380006A460A214020FFF74FFF6A460B21402092
:10239000FFF74AFF6A460C214020FFF745FF6A46D7
:1023A0000D214020FFF740FF6A460E214020FFF735
:1023B0003BFF6A460F214020FFF736FF1CBD1CB5CE
:1023C00001211C2001F0F6F80121684601704170DE
:1023D00000218170C1700171012141716A4604219F
:1023E0004020FFF721FF6A4605214020FFF71CFF30
:1023F0006A4606214020FFF717FF6A460721402062
:10240000FFF712FF1CBD704710B5074800F053FDE1
:10241000012808D1044800F031FD0448007840212B
:1024200008430249087010BD000F00400C00002056
:102430001CB50821684601F0FDFB0121092001F0CF
:10244000B9F80021684681704170022101700021B5
:10245000C1700171012141710B49C18069460B486E
:1024600000F031FD094800F009FD0121074800F0A6
:1024700018FD012203211120FFF7FEFA0121034874
:1024800000F005FD1CBD0000FFBF0000000F004074
:102490007047704770B504460D4600222946204615
:1024A000143000F023FE002070BD70B504460D46C8
:1024B00001222946201D00F019FE002070BD70B5D4
:1024C00004460D460026294620461030FFF78BFEB5
:1024D0000646304670BD0000F0B587B005460C4694
:1024E0000127224A07CA04AB07C300200390002C2F
:1024F00002D1042007B0F0BD0020686060886178D8
:102500000843E1880843A1880843217808436860AC
:102510002078402802D02078C02824D1E088C11734
:10252000C90D09184912890004AA515A8EB2E168EE
:10253000B1400846FEF75CF80290A068FEF758F834
:1025400001900299FDF760FF03903F21090603986F
:1025500001F022FC0290FEF707F880B2A861042186
:102560002846FFF7A2FF00273846C3E7143F0000C4
:1025700070B504460D4600BF03212046FFF79FFFBC
:102580000028F9D02068000A0002E9B20843206060
:1025900000BF01212046FFF792FF0028F9D001215A
:1025A0002046FFF777FF002070BD000000B587B020
:1025B000102103A801F03EFB062101A801F03AFB1F
:1025C0000121032000F0F6FF01211C2000F0F2FFA2
:1025D00000216846017101AA0846FFF725FE022284
:1025E00000210846FFF768FE01216846017101AA33
:1025F0000020FFF719FE022201210020FFF75CFEF8
:1026000000216846C181042141730021018200F04C
:1026100087FF05900121890203A8C180E1214902B9
:10262000069140216846017303A90248FFF754FF51
:1026300007B000BD004000407047000070B5F94889
:10264000407980210840002807D0F64840794006AC
:10265000400EF4494871802466E0F24840794021F8
:102660000840002807D0EF484079BF210840ED49D5
:102670004871402458E0EB48407920210840002868
:1026800007D0E8484079DF210840E6494871202416
:102690004AE0E448407910210840002807D0E1488A
:1026A0004079EF210840DF49487110243CE0DD48C3
:1026B000407908210840002807D0DA484079F721FE
:1026C0000840D849487108242EE0D64840790421B2
:1026D0000840002807D0D3484079FB210840D14961
:1026E0004871042420E0CF484079022108400028A6
:1026F00007D0CC484079FD210840CA4948710224DE
:1027000012E0C8484079C007C00F002807D0C5486C
:102710004079FE210840C3494871012404E0C148C2
:1027200044790020BF494871BF48007801287DD115
:10273000102C7CD006DC022C7AD0042C79D0082C0A
:1027400078D1E5E1202C76D0402C75D0802CF7D1C3
:10275000B6480078012804D0022803D004286CD1A0
:102760000AE11CE1F020B2498870B2480078401CB0
:10277000B049087008460078062801DD012008707D
:10278000AC480078030001F009FA06F404326997B6
:10279000C5F4A94948880A21FDF792FDC8B2A749A6
:1027A0000870A54948880A21FDF78AFD05460A21D7
:1027B000FDF786FDC8B2A14948709F494888642149
:1027C000FDF77EFD05460A21FDF77AFDC8B29B495B
:1027D0008870994948887D21C900FDF771FD05463B
:1027E0000A21FDF76DFDC8B29449C870C2E0924954
:1027F00088880A21FDF764FDC8B2904908708E49A7
:1028000088880A21FDF75CFD05460A21FDF758FD81
:10281000C8B28A494870884988886421FDF750FD0C
:1028200005460A21FDF74CFDC8B207E01EE36FE242
:10283000D7E1F9E214E30EE1B3E0ACE07F49887040
:102840007D4988887D21C900FDF73AFD05460A21AA
:10285000FDF736FDC8B27949C8708BE07649C88863
:102860000A21FDF72DFDC8B2744908707249C88865
:102870000A21FDF725FD05460A21FDF721FDC8B215
:102880006E4948706C49C8886421FDF719FD0546FA
:102890000A21FDF715FDC8B2684988706649C888E5
:1028A0007D21C900FDF70CFD05460A21FDF708FD55
:1028B000C8B26249C8705DE05F4908890A21FDF726
:1028C000FFFCC8B25D4908705B4908890A21FDF721
:1028D000F7FC05460A21FDF7F3FCC8B257494870DA
:1028E000554908896421FDF7EBFC05460A21FDF7EF
:1028F000E7FCC8B2514988704F4908897D21C90059
:10290000FDF7DEFC05460A21FDF7DAFCC8B24B49AB
:10291000C8702FE0484948890A21FDF7D1FCC8B2A8
:1029200046490870444948890A21FDF7C9FC054613
:102930000A21FDF7C5FCC8B2404948703E494889A4
:102940006421FDF7BDFC05460A21FDF7B9FCC8B2BC
:102950003A498870384948897D21C900FDF7B0FCA3
:1029600005460A21FDF7ACFCC8B23449C87001E045
:10297000FFE700BF00BF00BFF0202D49887030483E
:102980000078401C2E49087008460078032801DDB5
:102990000020087003E001202449087000BF00BF38
:1029A00062E222480078012804D002284BD0042893
:1029B00048D149E0F0201E49887002201B49087068
:1029C00001201C4908701C4948880A21FDF778FC41
:1029D000C8B21A490870184948880A21FDF770FCE6
:1029E00005460A21FDF76CFCC8B21449487012492B
:1029F00048886421FDF764FC05460A21FDF760FC68
:102A0000C8B20E4988700C4948887D21C900FDF77D
:102A100057FC05460A21FDF753FCC8B20749C870A8
:102A200017E000000D0000201D00002026000020FF
:102A30006200002027000020540000201900002020
:102A40002A00002000BF00BF1021062000F090FAED
:102A500000BF00BF08E2F9480078012804D002282E
:102A600003D004284ED101E050E04FE0F020F449BB
:102A70008870F448007806280BD1F348007B0028C2
:102A800003D10120F04908733BE00020EE490873B0
:102A900037E0EE480078002806D001280FD0022841
:102AA00018D003282CD120E0E9480078401CC0B29F
:102AB000E7490870092801DD0020087020E0E4489B
:102AC0004078401CC0B2E2494870092801DD00206E
:102AD000487015E0DE488078401CC0B2DC49887040
:102AE000092801DD002088700AE0D948C078401C20
:102AF000C0B2D749C870092801DD0020C87000BFE6
:102B000000BF03E00120CD49087000BF00BFABE16A
:102B1000CA480078012804D0022803D004285AD1DA
:102B200001E05CE05BE0F020C5498870C5480078B2
:102B300006280BD1C448007B002803D10120C249DC
:102B4000087347E00020C049087343E0BF4800789D
:102B5000002806D0012812D002281ED0032838D120
:102B600029E0BB480078002805D0B9480078401E0D
:102B7000B749087002E00920B549087029E0B44857
:102B80004078002805D0B2484078401EB0494870CF
:102B900002E00920AE4948701BE0AD48807800286B
:102BA00005D0AB488078401EA949887002E0092012
:102BB000A74988700DE0A648C078002805D0A44831
:102BC000C078401EA249C87002E00920A049C87020
:102BD00000BF00BF03E001209849087000BF00BF9C
:102BE00042E196480078012804D0022803D0042846
:102BF0007ED10AE08AE0F0209149887004208F4954
:102C0000087000209149087080E0F0208C4988709D
:102C100002208A4908708B480078030000F0BEFF4C
:102C2000066F04192E43586F8948C0787D21C9006A
:102C30004843874989786422514341188448407841
:102C40000A22504308188249097840187E49488072
:102C500056E07F48C0787D21C90048437C49897887
:102C60006422514341187A4840780A225043081898
:102C70007749097840187449888041E07448C078E1
:102C80007D21C90048437249897864225143411823
:102C90006F4840780A22504308186D490978401857
:102CA0006949C8802CE06A48C0787D21C900484342
:102CB00067498978642251434118654840780A225F
:102CC000504308186249097840185F49088117E0A5
:102CD0005F48C0787D21C90048435D4989786422F6
:102CE000514341185A4840780A225043081800E0DE
:102CF00008E05749097840185349488100E000BF6F
:102D000000BF03E001204D49087000BF00BFABE0E9
:102D100000204B49887049480078012871D0494803
:102D20000078030000F03AFF066E04192E43586E37
:102D30004748C0787D21C9004843454989786422C5
:102D400051434118424840780A22504308184049EC
:102D5000097840183C49488055E03D48C0787D21BD
:102D6000C90048433A498978642251434118384898
:102D700040780A22504308183549097840183249EA
:102D8000888040E03248C0787D21C90048433049FE
:102D900089786422514341182D4840780A225043D3
:102DA00008182B49097840182749C8802BE0284883
:102DB000C0787D21C9004843254989786422514360
:102DC0004118234840780A225043081820490978BE
:102DD00040181D49088116E01D48C0787D21C900B2
:102DE00048431B4989786422514341181848407868
:102DF0000A22504308181649097840181249488198
:102E000001E010E000BF00BF01200C490870002065
:102E10000E49087001200B4908700E220A490D481E
:102E20000068FDF76DF91FE00B48FDF76DFC0A48DF
:102E3000FDF75EFE0949087016E00000260000203C
:102E40006200002027000020540000202A000020FB
:102E5000190000204C000020000000202B00002062
:102E6000012000F07BFE00BF00BF03E0012000F066
:102E700075FE00BF00BF00F049F970BD10B50446F3
:102E8000002211462046143000F030F910BD70B514
:102E900005460C462246002128460C3000F026F953
:102EA00070BD70B505460C4622460A2128460C30F6
:102EB00000F01CF970BD10B504460021204610300A
:102EC000FFF791F910BD30B502467D23DB00D068D5
:102ED0003024A0430C78240130252C402043D060BE
:102EE000D06801246402A0434C78640201256D027D
:102EF0002C402043D060D0686C10A0438C78240212
:102F00006D102C402043D060D0680824A043CC78BA
:102F1000E40008252C402043D060D0680424A0435E
:102F20000C79A40004252C402043D060D0680224F2
:102F3000A0434C79640002252C402043D06005E07A
:102F4000D0680006C00F002800D004E018465C1EC0
:102F5000A3B20028F4D100BF002B01D1092030BD5D
:102F60005068000C0004CC88204350600020F6E735
:102F700010B572B6421E074B9A5C0A43431E054CBD
:102F8000E25401229A40044B1B781A43024B1A70F8
:102F900062B610BD0D0000200C0000207047704785
:102FA000704770477047704710B500BF0121062079
:102FB000FEF79CFD0028F9D10E220B490B48006852
:102FC000FDF71EF908480078AB2803D10648407B7E
:102FD000BA2807D000F0E2F80E220349034800683F
:102FE000FDF78EF810BD0000540000204C000020BA
:102FF00070477047704700000EB5062101A800F029
:1030000019FE01211C2000F0D5FA0121062000F054
:10301000D1FA002168464171017101AA07210020FF
:10302000FFF702F9012207210020FFF745F901AA65
:1030300004210020FFF7F8F8012204210020FFF707
:103040003BF901AA05210020FFF7EEF80122052136
:103050000020FFF731F9102168460170002141700E
:10306000C17081706946024800F06BF80EBD000027
:103070000008004010B504460021094800F075F82A
:103080002146074800F06DF800BF0421044800F015
:103090004FF80028F9D00121014800F066F810BD72
:1030A0000008004010B5FDF70AFD0E480078012821
:1030B00004D0022805D0042810D105E0FDF71CFF3C
:1030C0000DE0FDF77BFD0AE007480078062802D1F5
:1030D000FEF7F0F801E0FEF7A1FA00E000BF00BF44
:1030E00010BD0000260000202700002010B5012A96
:1030F00005D1036801248C402343036004E0036886
:1031000001248C40A343036010BD000006484079B1
:10311000002807D072B605480078202108430349EB
:10312000087062B6704700000D0000200C000020FF
:10313000024690680840002801D001207047002016
:10314000FCE702460020106008784B7818438B7823
:103150001843CB7818434023184310600020906038
:1031600070470246D160002070474160704708B543
:103170000020FEF797FD002000F028FA062000F05E
:103180004BFA0021684601704170817000F022F80E
:103190000121032000F054F808BD0000AB200A49CB
:1031A0000870FF20F5304880FF202D308880FF20F8
:1031B000A530C880FA200881C82048810020087303
:1031C000BA204873704700005400002010B5C04674
:1031D000C04610BD70B5044600252078030000F0FD
:1031E000DDFC0504050C10181C0018E0032000F09D
:1031F0005DFA032000F024FA11E0032000F0FAF950
:103200000DE00321084600F05FFA032000F028FAE1
:1032100005E0072000F0BCF901E0042500BF00BF75
:103220002078012100F00CF8207800F029FA60786D
:1032300000F086F9A07800F097F9284670BD0000EC
:10324000F8B505460C46002700F09CFC002C01D088
:10325000012000E0002004465148066A2B0000F0DF
:103260009DFC050417394D7298004D4800684008D0
:103270004000E107C90F08434949086000BF002C1E
:1032800005D04748C0680005C00F0028F7D082E08D
:103290004348006A012109078843401840490862F1
:1032A0004048C068032108433E49C8603C48006864
:1032B0000221884361000222114008433849086016
:1032C00000BF002C05D0364800694006C00F00281A
:1032D000F7D060E03248006804218843A10004224E
:1032E000114008432E49086000BF002C05D02C482F
:1032F0004069C004C00F0028F7D04CE02848006A9D
:1033000001210907884340182549086225484038AB
:10331000C06803218903084322494039C860204816
:10332000006808218843E1000822114008431C4935
:10333000086000BF002C05D0194880694006C00F06
:103340000028F7D027E01648006A012109048843C5
:103350004018134908621448006840084000401CA7
:1033600011490860142000F075FC0D480068102118
:10337000884321011022114008430949086000BF19
:10338000002C05D00648C06B4003C00F0028F7D0C2
:1033900001E0042700BF00BF014806623846F8BDBF
:1033A00000200040C00D02400024004030B589B02C
:1033B00000241422564904A8FCF7E6FE54481430B1
:1033C000006803900020009001900290514801880D
:1033D000684601814F4841886846C1804D488188D0
:1033E000684681804B48C188684641804948203002
:1033F000018868460180484800680006450F2B0098
:1034000000F0CCFB05042E303E4178004248C068F5
:103410004005400D69460989884201D1089C1EE09B
:103420003D48C0684005400D6946C988884201D1C1
:10343000079C14E03848C0684005400D69468988FB
:10344000884201D1069C0AE03348C0684005400D1F
:1034500069464988884201D1059C00E0049C4BE004
:103460002E4C49E0684600882B4949698905890D39
:10347000884202D16846C48901E0684684893BE0FD
:103480000124E40338E02448C06B8007800F032840
:1034900029D1684600892049C9684905490D8842F3
:1034A00001D1089C20E06846C0881B49C9684905CD
:1034B000490D884201D1079C16E06846808816496C
:1034C000C9684905490D884201D1069C0CE068464F
:1034D00040881149C9684905490D884201D1059CB8
:1034E00002E0049C00E00D4C0B48C06BC005000FCF
:1034F000444301E0002400BF00BF074800684005C6
:10350000410F2046C8400446204609B030BD0000A7
:10351000203F0000000C1000002000400048E8019F
:1035200010B50024FFF742FF044604480068C004B9
:10353000810F2046C8400446204610BD00200040B0
:1035400010B5044600F01EFB06480068072109027A
:1035500088432102072212021140084301490860F2
:10356000002010BD0020004010B5044600F00AFB0A
:10357000064800680321C9028843E1020322D202FF
:103580001140084301490860002010BD00200040A0
:1035900010B501460020064AD26B0723DB039A438D
:1035A000CB030724E40323401A43014BDA6310BD25
:1035B0000020004070B504460D462A4621460248C8
:1035C000FFF794FD002070BD2020004001464A0016
:1035D000064BD21812885005400D054AD268D20A0F
:1035E000D2020243024BDA6000207047000C100048
:1035F0000020004010B501460020064A526903230E
:103600009B029A438B020324A40223401A43014BDA
:103610005A6110BD0020004010B5044600F0B2FA17
:103620000648406807214902884361020722520286
:103630001140084301494860002010BD00200040AF
:1036400010B501460020054A126930239A430B0148
:10365000302423401A43014B1A6110BD0020004062
:1036600010B501460020054A926930239A430B01A8
:10367000302423401A43014B9A6110BD00200040C2
:1036800070B504460025264600F07CFA064800681E
:10369000E02188437101E02211400843024908609B
:1036A00000F02CF8284670BD0020004001460020A4
:1036B000044A1269920892008B079B0F1A43014B30
:1036C0001A6170470020004030B5024600200A4BC6
:1036D0009B690C24A34394000C252C402343064CE7
:1036E000A36123469B699B089B008C07A40F23437F
:1036F000014CA36130BD00000020004010B5FFF771
:1037000055FE0149086010BD0800002010B50D49A4
:1037100049888805800D0C494969890A8902014355
:10372000094A51610749203909894805400D114668
:10373000C968C90AC9020143D160FFF7DFFF00F081
:1037400013FA10BD200C1000002000407047704795
:103750007047000010B5002000F000F9012808D1E2
:10376000002000F0F1F80348007880210843014967
:10377000087010BD0C0000207047704770470000B3
:1037800010B504214020FEF743FD002812D149481E
:103790000078401CC0B247490870F02801DDF020D5
:1037A000087044480078C82813D140210620FFF74C
:1037B000DFFB0EE03F480078022807DD3D48007837
:1037C000C82803DA80210620FFF7D2FB0020394900
:1037D000087005214020FEF71BFD00280FD1364858
:1037E0000078401CC0B234490870F02801DDF02098
:1037F000087031480078C82810D100BF0EE02E486C
:103800000078022807DD2C480078C82803DA202138
:103810000620FFF7ADFB0020274908700621402055
:10382000FEF7F6FC00280FD124480078401CC0B2F7
:1038300022490870F02801DDF02008701F48007848
:10384000C82810D100BF0EE01C480078022807DD10
:103850001A480078C82803DA08210620FFF788FBF9
:1038600000201649087007214020FEF7D1FC0028EF
:103870000FD113480078401CC0B211490870F028DD
:1038800001DDF02008700E480078C82810D100BF74
:103890000EE00B480078022807DD09480078C828A8
:1038A00003DA02210620FFF763FB002004490870B9
:1038B00010BD000020000020210000202200002078
:1038C0002300002070B500251C480478002C33D05C
:1038D000F0202040002805D020111949085C001D67
:1038E000C5B201E01648055D1648445D72B613483E
:1038F000007820401149087062B6002D01D000F018
:1039000025F92B0000F04AF9091615141312110EAF
:103910000B061600FFF7C6FBFFF732FF0BE000F0C7
:10392000E1F808E0FEF78AFE05E004E003E002E0CB
:1039300001E000E000BF00BF70BD00000C000020EF
:10394000383F0000483F00000146002001228A4025
:10395000D243014B5A617047005800400146002095
:10396000034B1A691346CB40D807C00F70470000BD
:103970000058004001460020044A1268120C12044C
:103980008BB21A43014B1A60704700000058004088
:1039900001460020044A5268120C12048BB21A43EA
:1039A000014B5A6070470000005800400020044955
:1039B000C96849084900491C014AD16070470000A4
:1039C0000058004000200449C96801229202914336
:1039D0008918014AD16070470058004010B501466F
:1039E0000020284AD26803231B039A430B781B0349
:1039F0000324240323401A43224BDA601A46D26878
:103A00005B159A434B785B020124640223401A43FE
:103A10001C4BDA601A46D2689B159A438B781B02BE
:103A2000641023401A43174BDA601A46D268702399
:103A30009A43CB781B01702423401A43114BDA6060
:103A40001A46D26808239A430B79DB0008242340E6
:103A50001A430C4BDA601A46D26804239A434B7916
:103A60009B00042423401A43064BDA601A46D268AE
:103A700002239A438B795B00022423401A43014BB3
:103A8000DA6010BD005800407CB50721684600F0A0
:103A9000D1F801210B20FFF78DFD00216846017050
:103AA00041710521C1700121817100210171817075
:103AB0004170FFF793FF0A4C2046FFF75BFF254656
:103AC0002846FFF765FF0020FFF73EFFFFF77AFF6C
:103AD000012203210520FDF7CFFFFFF767FF7CBD23
:103AE00059F1000010B5002425E01448005D0028BD
:103AF0001FD01248005D401EC0B210490855002872
:103B000017D1002C06D0012C05D0022C09D0032C93
:103B10000DD10BE00CE0022008494870FCF77AFF59
:103B200006E010210620FFF723FA01E000E000BFC5
:103B300000BF601CC4B20B2CD7DB10BD620000209C
:103B40007047704770477047704700001E20024959
:103B50000860E12008607047800F0040014908704C
:103B6000704700001D0000200549086A096A01220B
:103B7000120791438918024A116211460862704780
:103B8000002000400248034988600348886070476D
:103B90005A5A000000200040A5A5000030B4744629
:103BA000641E2578641CAB4204D3635D5B00E3189C
:103BB00030BC18471D46F8E710B5002819DB1A4A33
:103BC00003231B02D21883089B00D2588307DC0E04
:103BD000FF23A3409A438B071B0E8407E40EA340E8
:103BE0001A43114B032424021B198408A4001A5100
:103BF00018E00E4A03071B0F083B9B089B00D25896
:103C00008307DC0EFF23A3409A438B071B0E840718
:103C1000E40EA3401A43054B0407240F083CA408F4
:103C2000A4001A5110BD000000E100E01CED00E00E
:103C300000BF704710B50A460146002900D110BDEB
:103C400002E000230B70491C1346521E002BF8D1D2
:103C500000BFF4E770B505461148124948610020DD
:103C60008861052008610FE000200E4988610E4937
:103C70000E480068FCF71AFB012109060C1A00BF68
:103C800008488069A042FBD828466D1E0028EBD169
:103C900004480069400840000249086170BD000006
:103CA000FFFFFF0000E000E0A08601000800002008
:103CB00070B5054611481249486100208861052009
:103CC000086110E000200E4988617D21C9000D487F
:103CD0000068FCF7EBFA012109060C1A00BF08483E
:103CE0008069A042FBD828466D1E0028EAD104480E
:103CF0000069400840000249086170BDFFFFFF00F5
:103D000000E000E00800002070B504460D46E0B277
:103D10000A2803D10D210448FEF72AFCE1B202482B
:103D2000FEF726FC204670BD00400040FFF71FFA5A
:103D3000FEF72AF8FEF743FBFFF75EF9FEF778FB84
:103D4000FFF7A2FEFEF7E8FAFFF72EF9FCF7F4FC06
:103D5000FEF72CFC06A0FCF735FA7D20C000FFF72B
:103D6000A7FF02200B49487001E0FFF7ABFDFCE71D
:103D700053797374656D2053746172742E2E2E2ED8
:103D80002E2E2E2E2E2E2E2E2E2E2E2E2E2E0D0A98
:103D9000000000006200002070B501250400ED075E
:103DA0004C4020D4441A01D2001B0919C60D4B0007
:103DB000F2B2FF2A29D01B0E2CD000020C02D31A1B
:103DC0002C43DC402843051910D2280A02D3401C9A
:103DD0006D0611D0761EF6058019FF2A00DA70BD37
:103DE000C00DC00570BD694000F022F801200543F8
:103DF000C541521C761CE8E764089C40C90161403B
:103E00008900E7D10124A043E4E71B0E440200D05F
:103E1000034870BD002AFCD1C00FC00770BD00BFB1
:103E20000000C07F70B501250400ED074C4022D48E
:103E3000441A02D26C40001B0919C60D4B00F2B2A5
:103E4000FF2A4BD01B0E50D000020C02D31A2C4379
:103E5000DC40A843051B05D5AD0019D36D08761EBF
:103E6000521E37D0F605280A01D2801970BD704164
:103E70006D0603D070BD6940FFF794FF9C400902B6
:103E80006140490001D0401E70BD0124A04370BDB7
:103E90006D081DD001202B0C01D12D0410302B0EEC
:103EA00001D12D0208302B0F01D12D01001DAB0FC8
:103EB00001D1AD00801CEB0F01D16D00401C6D00E5
:103EC000361A121A680AF5054019012A02DB70BD7C
:103ED000002070BDC036300AC00770BD1B0E440202
:103EE00001D1FF2B00D1024870BD002AF0D070BD77
:103EF0000000C07F20000000170000001B00000031
:103F000050460000E022020018000000F00000000F
:103F1000E8030000040000000300000002000000AD
:103F200000093D0000127A000024F400408651018F
:103F300000366E01008000960001020203030303B5
:103F40000404040404040404FFFEFDFBF7EFDFBFD8
:103F50007F8182838485868788898B8C8D8E8F91E3
:103F60009293959697999A9C9D9FA0A2A3A5A7A886
:103F7000AAACAEB0B2B3B5B7B9BCBEC0C2C5C7C9B2
:103F8000CCCED1D4D7D9DCDFE2E6E9ECF0F3F7FA16
:103F9000FE000000B43F00000000002054000000BC
:103FA000C800000008400000540000207C0400000D
:103FB000E4000000000000000000000000366E0178
:103FC00000000000000000000000000001000000F0
:103FD00000000000000000000000010101000000DE
:103FE0003F065B4F666D7D077F6F000103070F1F64
:103FF0003F7FFF0000000000000000000000000004
:0840000000FE000000000000BA
:04000005000000C136
:00000001FF
