:020000040000FA
:10000000C8040020150200002F020000A11A000001
:1000100000000000000000000000000000000000E0
:10002000000000000000000000000000330200009B
:10003000000000000000000035020000352900002B
:10004000092700000B2700000D2700000F270000E4
:10005000F30A0000BD2E0000A9320000AB32000000
:100060002D1C00002F1C00005B2700005D270000F6
:10007000B11A0000B31A0000B52E0000B72E000020
:10008000B92E0000A51B0000E12E0000E32E0000A9
:10009000E52E000005270000B132000059270000BE
:1000A000CD06000007270000AD320000AF3200008F
:1000B000D51D0000A31B000085120000C10A00002E
:1000C00000F030F800F050F8103A02D378C878C148
:1000D000FAD8520701D330C830C101D504680C608A
:1000E000704700000023002400250026103A01D3A9
:1000F00078C1FBD8520700D330C100D50B607047E0
:10010000F8B505460E461746284601F031F9002499
:1001100004E0315D281901F0ADF9641CBC42F8DB44
:10012000F8BD00000CA030C8083824182D18A246CD
:10013000671EAB4654465D46AC4201D100F014F850
:100140007E460F3E0FCCB6460126334200D0FB1A46
:10015000A246AB4633431847A4350000C43500001F
:100160001FB51FBD10B510BD00F072FA1146FFF7A4
:10017000F7FF00F0A3FA00F03BF803B4FFF7F2FF3B
:1001800003BC03F009F9000070B505460C4616469D
:1001900002E00FCC0FC5103E102EFAD2082E02D36B
:1001A00003CC03C5083E042E07D301CC01C5361F7E
:1001B00003E021782970641C6D1C761EF9D270BD95
:1001C000704700000FB4054910B503AA029800F06B
:1001D00013FA10BC08BC04B018470000040000204B
:1001E0007047704770477047C0688021084070476B
:1001F00010B50446C046C0462046FFF7BEFF10BDFE
:1002000010B50346002002E01C5C0C54401C9042D8
:10021000FADB10BD0C480D4A002100A1814200D933
:1002200002440B4802600B4880470B480047FEE73A
:10023000FEE7FEE7FEE7FEE7FEE7000007480849A5
:10024000084A094B70470000000000200000000031
:1002500008ED00E0752E0000C1000000C80000207D
:10026000C8040020C8020020C802002001E004C029
:10027000091F0429FBD28B0701D50280801CC90706
:1002800000D00270704700290BD0C30702D0027063
:10029000401C491E022904D3830702D50280801C1A
:1002A000891EE3E70022EEE70022DFE700220309D0
:1002B0008B422CD3030A8B4211D300239C464EE081
:1002C00003460B433CD4002243088B4231D303093D
:1002D0008B421CD3030A8B4201D394463FE0C309EF
:1002E0008B4201D3CB01C01A524183098B4201D307
:1002F0008B01C01A524143098B4201D34B01C01AF2
:10030000524103098B4201D30B01C01A5241C30869
:100310008B4201D3CB00C01A524183088B4201D3D8
:100320008B00C01A524143088B4201D34B00C01AC4
:100330005241411A00D201465241104670475DE0D9
:10034000CA0F00D04942031000D34042534000225C
:100350009C4603098B422DD3030A8B4212D3FC2205
:10036000890112BA030A8B420CD3890192118B4284
:1003700008D3890192118B4204D389013AD092119A
:1003800000E08909C3098B4201D3CB01C01A524155
:1003900083098B4201D38B01C01A524143098B421E
:1003A00001D34B01C01A524103098B4201D30B0107
:1003B000C01A5241C3088B4201D3CB00C01A52412C
:1003C00083088B4201D38B00C01A5241D9D2430813
:1003D0008B4201D34B00C01A5241411A00D2014650
:1003E000634652415B10104601D34042002B00D5BA
:1003F0004942704763465B1000D3404201B500207C
:10040000C046C04602BD0000F0B5FF252D04C60958
:10041000C209FF2704462E400137CB093E4348401E
:100420002A402B400746002A6BD0002B69D0AA42F5
:1004300067D0AB4265D0002800DA32460125ED05D1
:1004400029432C4309022002090AD21A4B0C7F24AB
:10045000E31A434C000A7C44E35C7D242404121913
:1004600014145B00A218884201D3521C00E0400023
:1004700049420C465C4324115C43DB016415E318DC
:10048000040A5C43C502200D0C4644436419250A46
:100490005D432303EC0C0D46654300030019EB1884
:1004A0004C42A34201D35B18401CD4052018002BFA
:1004B00007D05B00C91804D3401C002901D14008B3
:1004C00040003F2189048A4209D3002A08DC110632
:1004D000090F04D0032149074018C00FC007F0BD21
:1004E00001224100120689187F2252069142F6D25B
:1004F00005214907C84201D59010F0BDFF20C00575
:10050000F0BD002F00DA32461648AA4207D2AB42AD
:1005100005D21902090E17D0F80FC007F0BDFF254C
:1005200063002D06AB42F9D84900A942F6D8AB4288
:1005300001D1A942F2D0A94201D1002101E061001C
:100540004908D0050843F0BD1102090EFBD0FF2079
:100550000243D005F0BD0A460146104654E70000AC
:100560005F3200000000C07F0102C21504D00123E9
:10057000DB071943002A0ADB9E239A1A02D4084695
:10058000D0407047FF2241001206914201D900205D
:100590007047C017C04370471F22030C02D10F22BF
:1005A00000041CD0030E01D10002083A030F01D150
:1005B0000001121F830F01D18000921E002801DB71
:1005C0004000521ED20551180212511819229040B3
:1005D00004D3491C002801D1490849000846704746
:1005E000C10FC90700D04042012292071143D3E74F
:1005F00001218907D0E70000084B70B50D467B4408
:1006000000F013F804462846FFF7EEFD002802D05C
:100610000020C04370BD204670BD00006F2E00005A
:1006200001694A1C02610878704700B58FB00291D9
:1006300000210591054901937944039111460490E5
:10064000684600F024F80FB000BD0000E5FFFFFF92
:10065000754600F02FF8AE46050069465346C008BF
:10066000C000854618B020B5FFF7E8FD60BC002744
:100670004908B6460026C0C5C0C5C0C5C0C5C0C56E
:10068000C0C5C0C5C0C5403D49008D467047F8B5DE
:10069000064600244768806800903046F56803E00D
:1006A0000099B847641C3046A8470028F8D1204676
:1006B000F8BD0000004870476800002010B502F047
:1006C000D9FB02F0E7FE002010BD000010B510209D
:1006D00000F050F90A48007B002804D100F05EF9D0
:1006E0000849088004E0012000F058F90549088015
:1006F0000421062001F0F0FF00F094F910BD000085
:100700004C0000201600002070B509490988FA2223
:10071000514348000749FFF7D3FD0546FFF760FF47
:1007200004462046FFF720FF0349088070BD000003
:1007300016000020FF0F0000000000201FB50C2154
:1007400001A802F02BFE0021402001F08DF90121CB
:10075000402001F089F90121102002F0DFFA00F0B9
:10076000A1F90121684601710021417103210903AA
:10077000C1800121490201810021418101218903B8
:1007800081810021817301A800F010F900216846E1
:10079000817041700221017000F04AF908210020A7
:1007A00000F00CF80921012000F008F800F0EAF848
:1007B00001220321182000F02DFD1FBD10B50246B7
:1007C000130002F09FFD100913202D3A47545E6B71
:1007D0007885929FA9B6C3D065480068400940015A
:1007E000CB06DB0E1843624B1860BEE06048006821
:1007F0001F235B0198434B011F24640123401843CE
:100800005B4B1860B1E05A4800681F239B02984375
:100810008B021F24A40223401843554B1860A4E008
:10082000534800681F23DB039843CB031F24E403D2
:10083000234018434E4B186097E04D4800681F2333
:100840001B0598430B051F24240523401843484BE0
:1008500018608AE0464800681F235B0698434B06F1
:100860001F24640623401843414B18607DE0404834
:10087000406840094001CB06DB0E18433C4B5860F2
:1008800073E03B4840681F235B0198434B011F24E2
:10089000640123401843364B586066E03448406892
:1008A0001F239B0298438B021F24A402234018435A
:1008B0002F4B586059E02E4840681F23DB039843B4
:1008C000CB031F24E40323401843294B58604CE01A
:1008D000274840681F231B0598430B051F24240548
:1008E00023401843224B58603FE0214840681F23B3
:1008F0005B0698434B061F246406234018431C4B99
:10090000586032E01A48806840094001CB06DB0E8F
:100910001843174B986028E0154880681F235B0137
:1009200098434B011F24640123401843104B9860E7
:100930001BE00F4880681F239B0298438B021F24F3
:10094000A402234018430A4B98600EE008488068D0
:100950001F23DB039843CB031F24E40323401843E6
:10096000034B986001E0042010BD00BF0020FBE7AE
:10097000402400400249496B8143014A516370475A
:1009800080240040044840680121C903884340187E
:100990000149486070470000002400400146024AB7
:1009A00088001058704700005024004010B50446DD
:1009B000002C01D1042010BD0120164948600220FE
:1009C00002F0FCFC6078A1880843E1880843618854
:1009D0000843218908430F49496808430D49486085
:1009E000084680680915884321788902012292020D
:1009F00011400843074988600846806804218843FD
:100A0000A17A89000422114008430249886000202D
:100A1000D1E70000002400400120014948607047F0
:100A2000C02400400020014948607047C0240040B5
:100A30000146002902D00878102801DD0420704703
:100A4000174880680122D2039043154A90601046EF
:100A50008068D21490434A78D2020123DB021A4004
:100A600010430F4A906010468068921590438A7830
:100A70001202DB101A401043094A906008484030C7
:100A800080680F22120590430A78521E12050F2328
:100A90001B051A401043024A403290600020CEE706
:100AA0000024004010B505480068012108430349AF
:100AB0000860022002F082FC10BD0000002400400B
:100AC000704710B5002001F089FE002001F086FE7D
:100AD0000821402000F05CFF0921402000F058FF71
:100AE0000A21402000F054FF0B21402000F050FF6D
:100AF00010BD704710B53D480078002806D0012889
:100B00001BD0022830D003285FD144E00C214020C4
:100B100000F0B8FF0D21402000F03AFF0E214020E8
:100B200000F036FF0F21402000F032FF002001F0DE
:100B300055FE002001F052FE48E00C21402000F05C
:100B400027FF0D21402000F09DFF0E21402000F0E6
:100B50001FFF0F21402000F01BFF002001F03EFE90
:100B6000002001F03BFE31E00C21402000F010FF9E
:100B70000D21402000F00CFF0E21402000F082FFEC
:100B80000F21402000F004FF002001F027FE762016
:100B900001F024FE1AE00C21402000F0F9FE0D21A6
:100BA000402000F0F5FE0E21402000F0F1FE0F2164
:100BB000402000F067FF002001F010FE0C490D4AB4
:100BC0001278885C01F00AFE00E000BF00BF074811
:100BD0000078401C054908700878C117890F09186A
:100BE00089108900411A014A117010BD29000020A6
:100BF0002B0000202700002070B5A8480088A849D5
:100C0000884202DD0846A5490880A64800780028E9
:100C100006D0012849D002287DD003287CD10DE1DF
:100C20000C21402000F02EFF0D21402000F0B0FEEE
:100C30000E21402000F0ACFE0F21402000F0A8FE65
:100C40009948C08895490988884204DC0A214020D7
:100C500000F018FF03E00A21402000F099FE9248BE
:100C600040898E490988884204DB0B21402000F02E
:100C700009FF03E00B21402000F08AFE002001F074
:100C8000ADFD86480088894988420ADD491C8348B1
:100C90000088FFF715FB86490C5C204601F09EFD9D
:100CA00002E0002001F09AFDE7E00C21402000F076
:100CB0006FFE0D21402000F0E5FE0E21402000F0E7
:100CC00067FE0F21402000F063FE7748808873495B
:100CD000098888420ADC7448C088704909888842BB
:100CE00004DD0A21402000F0CDFE03E00A2140206F
:100CF00000F04EFE6C4840896849098888420CDA49
:100D00006948008965490988884206DB0B21402033
:100D100000F0B8FE05E025E0AEE00B21402000F039
:100D200037FE6449087801F059FD5C480088632863
:100D300010DD642159480088FFF7C2FA05460A21F0
:100D4000FFF7BEFA5A48405C80210843044601F090
:100D500045FD06E05649097880221143084601F016
:100D60003DFD8AE00C21402000F012FE0D214020C4
:100D700000F00EFE0E21402000F084FE0F214020E6
:100D800000F006FE4C480088401C4B49088008468D
:100D90000088282801DB00200880474800881428A4
:100DA00004DA0B21402000F06DFE03E00B2140200F
:100DB00000F0EEFD3948008890280ADA37490C889F
:100DC000E117090F091909113A4A505C01F006FDB3
:100DD0001CE03248008890280CDB30480088A028AE
:100DE00008DA3449087A01F0F9FC0821402000F0C3
:100DF00049FE0BE02F49087A01F0F0FC0821402061
:100E000000F040FE0921402000F03CFE234800880D
:100E100009280EDD0A2121480088FFF751FA05460E
:100E20000A21FFF74DFA2248445C204601F0D6FC27
:100E300003E01F49087801F0D1FC1EE00C2140209E
:100E400000F0A6FD0D21402000F0A2FD0E21402063
:100E500000F09EFD0F21402000F014FE002001F064
:100E6000BDFC0A210D480088FFF72AFA1048445CAF
:100E7000204601F0B3FC00E000BF00BF0948007845
:100E8000401C084908700878C117890F0918891093
:100E90008900411A034A117070BD00000000002053
:100EA0000F270000290000204C000020E70300006D
:100EB0002B000020350000203E00002010B54A48DD
:100EC0000078002806D001281BD0022830D0032843
:100ED00078D15FE00C21402000F0D4FD0D214020AE
:100EE00000F056FD0E21402000F052FD0F21402061
:100EF00000F04EFD002001F071FC002001F06EFCBE
:100F000061E00C21402000F043FD0D21402000F065
:100F1000B9FD0E21402000F03BFD0F21402000F0E4
:100F200037FD002001F05AFC002001F057FC4AE098
:100F30000C21402000F02CFD0D21402000F028FD68
:100F40000E21402000F09EFD0F21402000F020FDEA
:100F5000002001F043FC25480078401C234908701C
:100F600008460078502801DB002008701F480078F0
:100F700028280BDA1E48007B002803D13E2001F010
:100F80002DFC06E0772001F029FC02E0002001F0B2
:100F900025FC18E00C21402000F0FAFC0D21402037
:100FA00000F0F6FC0E21402000F0F2FC0F21402062
:100FB00000F068FD002001F011FC002001F00EFCA3
:100FC00001E0FFE700BF00BF07480078401C06496A
:100FD00008700878C117890F091889108900411A0B
:100FE000014A117010BD00002900002041000020BE
:100FF0004C00002010B582480078002806D0012857
:101000003CD002287AD0032877D1AFE00C214020D1
:1010100000F038FD0D21402000F0BAFC0E214020E8
:1010200000F0B6FC0F21402000F0B2FC002001F0DF
:10103000D5FB74480078032819D173480078401C08
:101040007149087008460078502801DB00200870BC
:101050006D480078282806DA6C49C9786C4A505CDB
:1010600001F0BCFB09E0002001F0B8FB05E0674996
:10107000C978674A505C01F0B1FBB0E00C21402018
:1010800000F086FC0D21402000F0FCFC0E214020E9
:1010900000F07EFC0F21402000F07AFC002001F0DF
:1010A0009DFB5848007802281CD157480078401C06
:1010B0005549087008460078502801DB0020087068
:1010C00051480078282809DA50498978504A515CFB
:1010D00080221143084601F081FB0CE0802001F0E2
:1010E0007DFB08E049498978494A515C80221143D7
:1010F000084601F073FB72E000E06FE00C21402035
:1011000000F046FC0D21402000F042FC0E21402062
:1011100000F0B8FC0F21402000F03AFC002001F064
:101120005DFB38480078012819D137480078401C09
:101130003549087008460078502801DB0020087007
:1011400031480078282806DA30494978304A505C1E
:1011500001F044FB09E0002001F040FB05E02B49D1
:1011600049782B4A505C01F039FB38E00C214020D3
:1011700000F00EFC0D21402000F00AFC0E21402062
:1011800000F006FC0F21402000F07CFC002001F064
:1011900025FB1C480078002819D11B480078401C0A
:1011A0001949087008460078502801DB00200870B3
:1011B00015480078282806DA14490978144A505C42
:1011C00001F00CFB09E0002001F008FB05E00F49ED
:1011D00009780F4A505C01F001FB00E000BF00BF3E
:1011E00007480078401C064908700878C117890F25
:1011F000091889108900411A014A117010BD0000B8
:10120000290000202A0000204000002019000020B2
:101210002B00002070B504460E46154620460028D7
:1012200005DBC206D20E01219140144A116000BFB5
:101230003146204602F074F8012D0ED120460028D8
:1012400009DB00BF00BFC206D20E012191400C4A4B
:10125000116000BF00BF00BF0FE0204600280ADB7E
:10126000C206D20E01219140054A80321160BFF3BF
:101270004F8FBFF36F8F00BF00BF70BD80E200E0F3
:1012800000E100E070470000F0B58BB005460E4667
:101290000024FF200A9000200990202101A8FFF7D8
:1012A00003F8284F012D0ED0022D0CD0042D0AD0AA
:1012B000062D08D0082D06D00C2D04D0042009904E
:1012C00009980BB0F0BD1F48006A0121490288430C
:1012D000710201225202114008431A490862002497
:1012E00007E0A000184908586843A10001AA50501F
:1012F000641C082CF5D30C2D01D1FF200290002492
:101300001CE0FF200A9011E00A98411E0A91002873
:101310000AD00E480B49C8620D48C862A00001A956
:101320000858A100785001E00720CAE7A00038580B
:10133000A10001AA51588842E6D1641C082CE0D3D0
:101340000998BEE7000002405C3600005A5A0000CF
:10135000A5A5000003480449C8620448C8620020EB
:10136000086370475A5A000000000240A5A500001B
:1013700008B502460023FF2000902548824202D98A
:101380000423184608BDFF20009006E00098411E87
:101390000091002801D10920F4E71E48006AC00628
:1013A000C00F0028F2D100F03BF8FF20009012E0BF
:1013B0000098411E009100280BD017481549C862BB
:1013C0001648C8620846006A80088000801C0862CF
:1013D00001E00920D6E70F48006A8007800F022845
:1013E000E6D100201070FF20009006E00098411E1A
:1013F0000091002801D10920C4E70648006AC00610
:10140000C00F0028F2D1FFF7A5FF1846BAE7000089
:10141000FFFF0000000002405A5A0000A5A500008E
:1014200004480549C8620548C8620020C0430863F3
:10143000704700005A5A000000000240A5A50000B5
:1014400010B501460020084A084BDA62084ADA6201
:101450001A46126A0C239A438B000C2423401A4329
:10146000024B1A6210BD00005A5A000000000240F0
:10147000A5A5000018B502460B460024FF200090E9
:101480002448824202D90424204618BDFF2000903F
:1014900006E00098411E0091002801D10920F4E7E0
:1014A0001D48006AC006C00F0028F2D1FF2000903E
:1014B00012E00098411E009100280BD017481649F1
:1014C000C8621748C8620846006A80088000401C4D
:1014D000086201E00920D8E70F48006A8007800F02
:1014E0000128E6D1FFF79CFF1370FF20009006E073
:1014F0000098411E0091002801D10920C5E7064847
:10150000006AC006C00F0028F2D1FFF723FF204673
:10151000BBE70000FFFF0000000002405A5A000035
:10152000A5A500001CB501211C2001F0F7FB01213D
:1015300068460170417000218170C1700171012104
:1015400041716A460021084600F03CFA6A460121D2
:10155000002000F037FA6A460221002000F032FA3B
:101560006A460321002000F02DFA6A46042100207B
:1015700000F028FA6A460521002000F023FA6A46A6
:101580000621002000F01EFA6A460721002000F024
:1015900019FA6A460821002000F014FA6A46092167
:1015A000002000F00FFA6A460A21002000F00AFA33
:1015B0006A460B21002000F005FA6A460C21002043
:1015C00000F000FA6A460D21002000F0FBF96A469F
:1015D0000E21002000F0F6F96A460F21002000F0ED
:1015E000F1F90021084600F0D3F90121002000F0B4
:1015F000CFF90221002000F0CBF90321002000F0F8
:10160000C7F90421002000F0C3F90521002000F0F3
:10161000BFF90621002000F0BBF90721002000F0EF
:10162000B7F90821002000F0B3F90921002000F0EB
:10163000AFF90A21002000F0ABF90B21002000F0E7
:10164000A7F90C21002000F0A3F90D21002000F0E3
:101650009FF90E21002000F09BF90F21002000F0DF
:1016600097F96A460021402000F0ACF96A46012152
:10167000402000F0A7F96A460221402000F0A2F9BC
:101680006A460321402000F09DF96A46042140206B
:1016900000F098F96A460621402000F093F96A4666
:1016A0000721402000F08EF96A460821402000F012
:1016B00089F96A460921402000F084F96A460A2126
:1016C000402000F07FF96A460B21402000F07AF9B3
:1016D0006A460C21402000F075F96A460D21402031
:1016E00000F070F96A460E21402000F06BF96A465E
:1016F0000F21402000F066F90021402000F048F959
:101700000121402000F044F90221402000F040F97E
:101710000321402000F03CF90421402000F038F97A
:101720000521402000F034F90621402000F030F976
:101730000721402000F02CF90821402000F028F972
:101740000921402000F024F90A21402000F020F96E
:101750000B21402000F01CF90C21402000F018F96A
:101760000D21402000F014F90E21402000F010F966
:101770000F21402000F00CF96A460021802000F083
:1017800021F96A460121802000F01CF96A460221F5
:10179000802000F017F96A460321802000F012F93A
:1017A0006A460421802000F00DF96A460521802058
:1017B00000F008F96A460621802000F003F96A4625
:1017C0000721802000F0FEF86A460821802000F002
:1017D000F9F86A460921802000F0F4F86A460A21E7
:1017E000802000F0EFF86A460B21802000F0EAF834
:1017F0006A460C21802000F0E5F86A460D21802021
:1018000000F0E0F80021802000F0C2F801218020E3
:1018100000F0BEF80221802000F0BAF803218020F9
:1018200000F0B6F80421802000F0B2F805218020F5
:1018300000F0AEF80621802000F0AAF807218020F1
:1018400000F0A6F80821802000F0A2F809218020ED
:1018500000F09EF80A21802000F09AF80B218020E9
:1018600000F096F80C21802000F092F80D218020E5
:1018700000F08EF86A460021C02000F0A3F86A4606
:101880000121C02000F09EF86A460221C02000F02D
:1018900099F86A460321C02000F094F86A460621B0
:1018A000C02000F08FF86A460721C02000F08AF8B7
:1018B0006A460821C02000F085F86A460921C02048
:1018C00000F080F86A460A21C02000F07BF86A46E2
:1018D0000B21C02000F076F86A460C21C02000F0F1
:1018E00071F86A460D21C02000F06CF86A460E219E
:1018F000C02000F067F86A460F21C02000F062F8AF
:101900000021C02000F044F80121C02000F040F880
:101910000221C02000F03CF80321C02000F038F87C
:101920000421C02000F034F80521C02000F030F878
:101930000621C02000F02CF80721C02000F028F874
:101940000821C02000F024F80921C02000F020F870
:101950000A21C02000F01CF80B21C02000F018F86C
:101960000C21C02000F014F80D21C02000F010F868
:101970000E21C02000F00CF80F21C02000F008F864
:101980001CBD02461068C840C007C00F7047000069
:1019900070B504460D46044960180122294600F03E
:1019A00059FF002070BD0000140D024070B50446C0
:1019B0000D46034960182946FFF7E3FF70BD00009C
:1019C000040D024070B504460E4615461E496018C7
:1019D0000022314600F03EFF00201C496118B20091
:1019E00088502A7818490C396018314600F032FFC7
:1019F0006A78154910316018314600F02BFFAA783B
:101A0000114914316018314600F024FFEA780E497C
:101A100018316018314600F01DFF2A790A4920313B
:101A20006018314600F016FF094880680121C9039B
:101A300088436979C9030122D2031140084304494C
:101A40008860002070BD00000C0D0240000C0240B8
:101A5000000F024010B50346024818188C000251CE
:101A6000002010BD000C024070B504460D4604492C
:101A700060180122294600F0EDFE002070BD000034
:101A80000C0D024070B504460D4604496018012251
:101A9000294600F0DFFE002070BD0000100D02405E
:101AA00008B50020009000BF00980028FCD008BDB9
:101AB000704770471CB501211C2001F02FF900214F
:101AC000684601708170C17008214020FFF760FFF7
:101AD00009214020FFF75CFF0A214020FFF758FF53
:101AE0000B214020FFF754FF0C214020FFF750FF4F
:101AF0000D214020FFF74CFF0E214020FFF748FF4B
:101B00000F214020FFF744FF6A4608214020FFF7DD
:101B100059FF6A4609214020FFF754FF6A460A210F
:101B20004020FFF74FFF6A460B214020FFF74AFF96
:101B30006A460C214020FFF745FF6A460D214020F0
:101B4000FFF740FF6A460E214020FFF73BFF6A4641
:101B50000F214020FFF736FF1CBD1CB501211C20C2
:101B600001F0DCF8012168460170417000218170AC
:101B7000C1700171012141716A4604214020FFF7C3
:101B800021FF6A4605214020FFF71CFF6A46062117
:101B90004020FFF717FF6A4607214020FFF712FF9A
:101BA0001CBD704710B5074800F039FD012808D169
:101BB000044800F017FD044800784021084302491A
:101BC000087010BD000F00400C0000201CB508215B
:101BD000684601F0E3FB0121092001F09FF8002194
:101BE000684681704170022101700021C17001714D
:101BF000012141710B49C18069460B4800F017FD76
:101C0000094800F0EFFC0121074800F0FEFC01222A
:101C100003211120FFF7FEFA0121034800F0EBFC3D
:101C20001CBD0000FFBF0000000F00407047704760
:101C300070B504460D46002229462046143000F0B7
:101C400009FE002070BD70B504460D4601222946EC
:101C5000201D00F0FFFD002070BD70B504460D464C
:101C60000026294620461030FFF78BFE06463046F8
:101C700070BD0000F0B587B005460C460127224A2A
:101C800007CA04AB07C300200390002C02D1042034
:101C900007B0F0BD00206860608861780843E18883
:101CA0000843A188084321780843686020784028C9
:101CB00002D02078C02824D1E088C117C90D0918A6
:101CC0004912890004AA515A8EB2E168B14008460F
:101CD000FEF78EFC0290A068FEF78AFC0190029944
:101CE000FEF792FB03903F210906039801F008FCE0
:101CF0000290FEF739FC80B2A86104212846FFF764
:101D0000A2FF00273846C3E77C36000070B50446C2
:101D10000D4600BF03212046FFF79FFF0028F9D0A2
:101D20002068000A0002E9B20843206000BF0121D8
:101D30002046FFF792FF0028F9D001212046FFF747
:101D400077FF002070BD000000B587B0102103A808
:101D500001F024FB062101A801F020FB0121032052
:101D600000F0DCFF01211C2000F0D8FF00216846B4
:101D7000017101AA0846FFF725FE0222002108464C
:101D8000FFF768FE01216846017101AA0020FFF7F4
:101D900019FE022201210020FFF75CFE00216846A7
:101DA000C181042141730021018200F06DFF059083
:101DB0000121890203A8C180E12149020691402145
:101DC0006846017303A90248FFF754FF07B000BD3E
:101DD000004000407047000070B5F948407980210C
:101DE0000840002807D0F64840794006400EF449E4
:101DF0004871802466E0F24840794021084000287C
:101E000007D0EF484079BF210840ED494871402490
:101E100058E0EB48407920210840002807D0E848E6
:101E20004079DF210840E649487120244AE0E4482F
:101E3000407910210840002807D0E1484079EF217F
:101E40000840DF49487110243CE0DD484079082112
:101E50000840002807D0DA484079F7210840D849DF
:101E6000487108242EE0D648407904210840002813
:101E700007D0D3484079FB210840D1494871042458
:101E800020E0CF48407902210840002807D0CC4804
:101E90004079FD210840CA494871022412E0C8482F
:101EA0004079C007C00F002807D0C5484079FE21FF
:101EB0000840C3494871012404E0C1484479002026
:101EC000BF494871BF48007801287DD1102C7CD0D3
:101ED00006DC022C7AD0042C79D0082C78D1E5E1EC
:101EE000202C76D0402C75D0802CF7D1B6480078C5
:101EF000012804D0022803D004286CD10AE11CE197
:101F0000F020B2498870B2480078401CB04908708F
:101F100008460078062801DD01200870AC480078EA
:101F2000030001F0EFF906F404326997C5F4A949FA
:101F300048880A21FEF7C4F9C8B2A7490870A54924
:101F400048880A21FEF7BCF905460A21FEF7B8F9D0
:101F5000C8B2A14948709F4948886421FEF7B0F98A
:101F600005460A21FEF7ACF9C8B29B498870994929
:101F700048887D21C900FEF7A3F905460A21FEF72E
:101F80009FF9C8B29449C870C2E0924988880A2172
:101F9000FEF796F9C8B2904908708E4988880A21E0
:101FA000FEF78EF905460A21FEF78AF9C8B28A497A
:101FB0004870884988886421FEF782F905460A211D
:101FC000FEF77EF9C8B207E0F6E268E2D7E1EAE29E
:101FD000ECE20EE1B3E0ACE07F4988707D4988888F
:101FE0007D21C900FEF76CF905460A21FEF768F964
:101FF000C8B27949C8708BE07649C8880A21FEF7D3
:102000005FF9C8B2744908707249C8880A21FEF79E
:1020100057F905460A21FEF753F9C8B26E494870D0
:102020006C49C8886421FEF74BF905460A21FEF782
:1020300047F9C8B2684988706649C8887D21C900D7
:10204000FEF73EF905460A21FEF73AF9C8B26249A1
:10205000C8705DE05F4908890A21FEF731F9C8B20E
:102060005D4908705B4908890A21FEF729F9054690
:102070000A21FEF725F9C8B2574948705549088921
:102080006421FEF71DF905460A21FEF719F9C8B2C9
:10209000514988704F4908897D21C900FEF710F920
:1020A00005460A21FEF70CF9C8B24B49C8702FE06B
:1020B000484948890A21FEF703F9C8B24649087021
:1020C000444948890A21FEF7FBF805460A21FEF734
:1020D000F7F8C8B2404948703E4948896421FEF784
:1020E000EFF805460A21FEF7EBF8C8B23A498870C6
:1020F000384948897D21C900FEF7E2F805460A21E2
:10210000FEF7DEF8C8B23449C87001E0FFE700BF4F
:1021100000BF00BFF0202D49887030480078401C77
:102120002E49087008460078032801DD0020087059
:1021300003E001202449087000BF00BF3AE22248B2
:102140000078012804D002284BD0042848D149E067
:10215000F0201E49887002201B49087001201C498C
:1021600008701C4948880A21FEF7AAF8C8B21A4923
:102170000870184948880A21FEF7A2F805460A2186
:10218000FEF79EF8C8B21449487012494888642185
:10219000FEF796F805460A21FEF792F8C8B20E49F6
:1021A00088700C4948887D21C900FEF789F80546EA
:1021B0000A21FEF785F8C8B20749C87017E0000089
:1021C0000D0000201D000020260000205A000020E5
:1021D000270000204C000020190000202A000020C9
:1021E00000BF00BF1021062000F076FA00BF00BF3C
:1021F000E0E1F020F4498870F4480078012804D028
:10220000022803D004284BD101E04DE04CE0F04817
:10221000007806280BD1EF48007B002803D101206D
:10222000EC4908733BE00020EA49087337E0EA48CC
:102230000078002806D001280FD0022818D00328E3
:102240002CD120E0E5480078401CC0B2E34908707A
:10225000092801DD0020087020E0E0484078401C9B
:10226000C0B2DE494870092801DD0020487015E041
:10227000DA488078401CC0B2D8498870092801DD4E
:10228000002088700AE0D548C078401CC0B2D3490D
:10229000C870092801DD0020C87000BF00BF03E03E
:1022A0000120CA49087000BF00BF83E1F020C64981
:1022B0008870C6480078012804D0022803D004287A
:1022C00057D101E059E058E0C148007806280BD109
:1022D000C048007B002803D10120BE49087347E0B5
:1022E0000020BC49087343E0BB480078002806D0B2
:1022F000012812D002281ED0032838D129E0B7487F
:102300000078002805D0B5480078401EB349087011
:1023100002E00920B149087029E0B048407800285F
:1023200005D0AE484078401EAC49487002E0092014
:10233000AA4948701BE0A9488078002805D0A74822
:102340008078401EA549887002E00920A349887062
:102350000DE0A248C078002805D0A048C078401EF3
:102360009E49C87002E009209C49C87000BF00BFA8
:1023700003E001209549087000BF00BF1AE19348AF
:102380000078012804D0022803D004287DD107E07A
:1023900083E004208D49087000208F4908707CE09C
:1023A00002208A4908708A480078030000F0AAFFDA
:1023B000066E04192E43586E8848C0787D21C900E6
:1023C00048438649897864225143411883484078BC
:1023D0000A22504308188149097840187D494880ED
:1023E00055E07E48C0787D21C90048437B49897803
:1023F000642251434118794840780A225043081812
:102400007649097840187349888040E07348C0785D
:102410007D21C9004843714989786422514341189C
:102420006E4840780A22504308186C4909784018D1
:102430006849C8802BE06948C0787D21C9004843BD
:1024400066498978642251434118644840780A22D9
:10245000504308186149097840185E49088116E020
:102460005E48C0787D21C90048435C498978642270
:1024700051434118594840780A2250430818574997
:10248000097840185349488101E002E000BF00BFCD
:1024900003E001204D49087000BF00BF8AE04C48AE
:1024A0000078030000F02EFF066D04192E43586DCE
:1024B0004A48C0787D21C900484348498978642248
:1024C00051434118454840780A225043081843496F
:1024D000097840183F49488054E04048C0787D2141
:1024E000C90048433D4989786422514341183B481B
:1024F00040780A225043081838490978401835496D
:1025000088803FE03548C0787D21C9004843334981
:102510008978642251434118304840780A22504358
:1025200008182E49097840182A49C8802AE02B4803
:10253000C0787D21C90048432849897864225143E5
:102540004118264840780A22504308182349097840
:1025500040182049088115E02048C0787D21C90035
:1025600048431E4989786422514341181B484078EA
:102570000A2250430818194909784018154948811A
:1025800000E000BF00BF0120104908700020124980
:10259000087001200E4908700E220E49104800688C
:1025A000FDF7AEFD06E0FEF7AFF803E0012000F016
:1025B00089FE00BF00BF03E0012000F083FE00BFE2
:1025C00000BF00F057F970BD5A000020260000201F
:1025D000270000204C0000202A00002019000020C5
:1025E0004400002010B50446002211462046143055
:1025F00000F030F910BD70B505460C4622460021AA
:1026000028460C3000F026F970BD70B505460C4622
:1026100022460A2128460C3000F01CF970BD10B586
:102620000446002120461030FFF7ABF910BD30B54D
:1026300002467D23DB00D0683024A0430C782401BF
:1026400030252C402043D060D06801246402A04390
:102650004C78640201256D022C402043D060D06884
:102660006C10A0438C7824026D102C402043D06065
:10267000D0680824A043CC78E40008252C402043EF
:10268000D060D0680424A0430C79A40004252C4019
:102690002043D060D0680224A0434C796400022516
:1026A0002C402043D06005E0D0680006C00F002811
:1026B00000D004E018465C1EA3B20028F4D100BF8D
:1026C000002B01D1092030BD5068000C0004CC88DB
:1026D000204350600020F6E710B572B6421E074B4B
:1026E0009A5C0A43431E054CE25401229A40044B73
:1026F0001B781A43024B1A7062B610BD0D00002001
:102700000C00002070477047704770477047704753
:1027100010B500BF01210620FEF7B6FD0028F9D153
:102720000E220B490B480068FDF76AFD0848007847
:10273000AB2803D10648407BBA2807D000F0E2F866
:102740000E22034903480068FDF7DAFC10BD0000C3
:102750004C00002044000020704770477047000084
:102760000EB5062101A800F019FE01211C2000F081
:10277000D5FA0121062000F0D1FA00216846417106
:10278000017101AA07210020FFF71CF9012207218E
:102790000020FFF75FF901AA04210020FFF712F9DA
:1027A000012204210020FFF755F901AA052100208C
:1027B000FFF708F9012205210020FFF74BF910214E
:1027C0006846017000214170C170817069460248FD
:1027D00000F06BF80EBD00000008004010B5044684
:1027E0000021094800F075F82146074800F06DF80F
:1027F00000BF0421044800F04FF80028F9D001215F
:10280000014800F066F810BD0008004010B5FEF762
:1028100058F90E480078012804D0022805D0042871
:1028200010D105E0FEF7E8F90DE0FEF763F90AE0E4
:1028300007480078062802D1FEF740FB01E0FEF7CA
:10284000D9FB00E000BF00BF10BD00002600002043
:102850002700002010B5012A05D1036801248C400F
:102860002343036004E0036801248C40A343036016
:1028700010BD000006484079002807D072B6054810
:102880000078202108430349087062B670470000B1
:102890000D0000200C00002002469068084000282F
:1028A00001D0012070470020FCE7024600201060A4
:1028B00008784B7818438B781843CB78184340231B
:1028C000184310600020906070470246D1600020DD
:1028D00070474160704708B50020FEF7B1FD002049
:1028E00000F028FA062000F04BFA0021684601703B
:1028F0004170817000F022F80121032000F054F8AB
:1029000008BD0000AB200A490870FF20F530488060
:10291000FF202D308880FF20A530C880FA20088154
:10292000C820488100200873BA204873704700000F
:102930004C00002010B5C046C04610BD70B504461E
:1029400000252078030000F0DDFC0504050C1018BC
:102950001C0018E0032000F05DFA032000F024FAC8
:1029600011E0032000F0FAF90DE00321084600F021
:102970005FFA032000F028FA05E0072000F0BCF918
:1029800001E0042500BF00BF2078012100F00CF811
:10299000207800F029FA607800F086F9A07800F03D
:1029A00097F9284670BD0000F8B505460C4600278B
:1029B00000F09CFC002C01D0012000E00020044627
:1029C0005148066A2B0000F09DFC050417394D7232
:1029D00098004D48006840084000E107C90F0843CF
:1029E0004949086000BF002C05D04748C068000571
:1029F000C00F0028F7D082E04348006A0121090790
:102A000088434018404908624048C0680321084391
:102A10003E49C8603C4800680221884361000222A8
:102A2000114008433849086000BF002C05D03648E3
:102A300000694006C00F0028F7D060E03248006807
:102A400004218843A1000422114008432E49086054
:102A500000BF002C05D02C484069C004C00F0028DE
:102A6000F7D04CE02848006A012109078843401844
:102A70002549086225484038C06803218903084376
:102A800022494039C8602048006808218843E10095
:102A90000822114008431C49086000BF002C05D0E3
:102AA000194880694006C00F0028F7D027E0164873
:102AB000006A012109048843401813490862144838
:102AC000006840084000401C11490860142000F0D4
:102AD00075FC0D4800681021884321011022114027
:102AE00008430949086000BF002C05D00648C06BA8
:102AF0004003C00F0028F7D001E0042700BF00BF4B
:102B0000014806623846F8BD00200040C00D024072
:102B10000024004030B589B000241422564904A88E
:102B2000FDF732FB544814300068039000200090F9
:102B30000190029051480188684601814F484188C0
:102B40006846C1804D488188684681804B48C1886D
:102B500068464180494820300188684601804848DD
:102B600000680006450F2B0000F0CCFB05042E305A
:102B70003E4178004248C0684005400D69460989D9
:102B8000884201D1089C1EE03D48C0684005400DC8
:102B90006946C988884201D1079C14E03848C0685A
:102BA0004005400D69468988884201D1069C0AE0AB
:102BB0003348C0684005400D69464988884201D1C4
:102BC000059C00E0049C4BE02E4C49E068460088E0
:102BD0002B4949698905890D884202D16846C48913
:102BE00001E0684684893BE00124E40338E024489E
:102BF000C06B8007800F032829D1684600892049CF
:102C0000C9684905490D884201D1089C20E0684601
:102C1000C0881B49C9684905490D884201D1079CF4
:102C200016E0684680881649C9684905490D8842FA
:102C300001D1069C0CE0684640881149C9684905E5
:102C4000490D884201D1059C02E0049C00E00D4C36
:102C50000B48C06BC005000F444301E0002400BFD7
:102C600000BF074800684005410F2046C8400446A1
:102C7000204609B030BD000088360000000C10006E
:102C8000002000400048E80110B50024FFF742FF93
:102C9000044604480068C004810F2046C84004462A
:102CA000204610BD0020004010B5044600F01EFB79
:102CB0000648006807210902884321020722120200
:102CC0001140084301490860002010BD0020004069
:102CD00010B5044600F00AFB064800680321C9024B
:102CE0008843E1020322D2021140084301490860EF
:102CF000002010BD0020004010B501460020064A0B
:102D0000D26B0723DB039A43CB030724E40323405E
:102D10001A43014BDA6310BD0020004070B5044631
:102D20000D462A4621460248FFF794FD002070BD5B
:102D30002020004001464A00064BD2181288500558
:102D4000400D054AD268D20AD2020243024BDA6031
:102D500000207047000C10000020004010B5014614
:102D60000020064A526903239B029A438B020324E4
:102D7000A40223401A43014B5A6110BD00200040B9
:102D800010B5044600F0B2FA06484068072149022F
:102D900088436102072252021140084301494860FA
:102DA000002010BD0020004010B501460020054A5B
:102DB000126930239A430B01302423401A43014BFC
:102DC0001A6110BD0020004010B501460020054AE0
:102DD000926930239A430B01302423401A43014B5C
:102DE0009A6110BD0020004070B5044600252646BB
:102DF00000F07CFA06480068E02188437101E02277
:102E0000114008430249086000F02CF8284670BDC4
:102E10000020004001460020044A126992089200F6
:102E20008B079B0F1A43014B1A617047002000402B
:102E300030B5024600200A4B9B690C24A343940042
:102E40000C252C402343064CA36123469B699B0819
:102E50009B008C07A40F2343014CA36130BD0000ED
:102E60000020004010B5FFF755FE0149086010BD75
:102E70000800002010B50D4949888805800D0C49CF
:102E80004969890A89020143094A51610749203980
:102E900009894805400D1146C968C90AC90201439C
:102EA000D160FFF7DFFF00F013FA10BD200C100017
:102EB00000200040704770477047000010B50020A8
:102EC00000F000F9012808D1002000F0F1F80348D3
:102ED0000078802108430149087010BD0C000020D3
:102EE000704770477047000010B504214020FEF77E
:102EF0005DFD002812D149480078401CC0B2474906
:102F00000870F02801DDF020087044480078C828D7
:102F100013D140210620FFF7DFFB0EE03F48007889
:102F2000022807DD3D480078C82803DA8021062002
:102F3000FFF7D2FB00203949087005214020FEF739
:102F400035FD00280FD136480078401CC0B2344906
:102F50000870F02801DDF020087031480078C8289A
:102F600010D100BF0EE02E480078022807DD2C4863
:102F70000078C82803DA20210620FFF7ADFB0020E7
:102F80002749087006214020FEF710FD00280FD1C8
:102F900024480078401CC0B222490870F02801DDA6
:102FA000F02008701F480078C82810D100BF0EE03C
:102FB0001C480078022807DD1A480078C82803DA80
:102FC00008210620FFF788FB00201649087007211A
:102FD0004020FEF7EBFC00280FD113480078401C7E
:102FE000C0B211490870F02801DDF02008700E48C9
:102FF0000078C82810D100BF0EE00B4800780228E6
:1030000007DD09480078C82803DA02210620FFF707
:1030100063FB00200449087010BD00002000002060
:1030200021000020220000202300002070B5002590
:103030001C480478002C33D0F0202040002805D014
:1030400020111949085C001DC5B201E01648055D54
:103050001648445D72B61348007820401149087044
:1030600062B6002D01D000F025F92B0000F04AF9DE
:10307000091615141312110E0B061600FFF7C6FBE6
:10308000FFF732FF0BE000F0E1F808E0FEF7A4FEE6
:1030900005E004E003E002E001E000E000BF00BF63
:1030A00070BD00000C000020A0360000B03600000B
:1030B0000146002001228A40D243014B5A617047E9
:1030C0000058004001460020034B1A691346CB40CC
:1030D000D807C00F7047000000580040014600208C
:1030E000044A1268120C12048BB21A43014B1A6084
:1030F000704700000058004001460020044A526812
:10310000120C12048BB21A43014B5A607047000034
:103110000058004000200449C96849084900491C7A
:10312000014AD16070470000005800400020044967
:10313000C9680122920291438918014AD1607047FF
:103140000058004010B501460020284AD2680323E9
:103150001B039A430B781B030324240323401A43C5
:10316000224BDA601A46D2685B159A434B785B02B1
:103170000124640223401A431C4BDA601A46D268C9
:103180009B159A438B781B02641023401A43174BFC
:10319000DA601A46D26870239A43CB781B017024F8
:1031A00023401A43114BDA601A46D26808239A4327
:1031B0000B79DB00082423401A430C4BDA601A46D3
:1031C000D26804239A434B799B00042423401A437A
:1031D000064BDA601A46D26802239A438B795B0069
:1031E000022423401A43014BDA6010BD005800400E
:1031F0007CB50721684600F0D1F801210B20FFF7CC
:103200008DFD00216846017041710521C1700121C9
:1032100081710021017181704170FFF793FF0A4CA9
:103220002046FFF75BFF25462846FFF765FF002095
:10323000FFF73EFFFFF77AFF012203210520FDF78C
:10324000E9FFFFF767FF7CBD59F1000010B50024CE
:1032500025E01448005D00281FD01248005D401E84
:10326000C0B210490855002817D1002C06D0012CF7
:1032700005D0022C09D0032C0DD10BE00CE002206C
:1032800008494870FDF7C8FB06E010210620FFF74B
:1032900023FA01E000E000BF00BF601CC4B20B2CA9
:1032A000D7DB10BD5A000020704770477047704749
:1032B000704700001E2002490860E1200860704746
:1032C000800F004001490870704700001D00002079
:1032D0000549086A096A0122120791438918024ABE
:1032E00011621146086270470020004002480349FD
:1032F00088600348886070475A5A000000200040E8
:10330000A5A5000030B47446641E2578641CAB4249
:1033100004D3635D5B00E31830BC18471D46F8E733
:1033200010B5002819DB1A4A03231B02D2188308A0
:103330009B00D2588307DC0EFF23A3409A438B07E0
:103340001B0E8407E40EA3401A43114B03242402EE
:103350001B198408A4001A5118E00E4A03071B0F1A
:10336000083B9B089B00D2588307DC0EFF23A34039
:103370009A438B071B0E8407E40EA3401A43054BA8
:103380000407240F083CA408A4001A5110BD000033
:1033900000E100E01CED00E000BF704710B50A46F8
:1033A0000146002900D110BD02E000230B70491C2A
:1033B0001346521E002BF8D100BFF4E770B5054646
:1033C00011481249486100208861052008610FE01A
:1033D00000200E4988610E490E480068FCF766FF20
:1033E000012109060C1A00BF08488069A042FBD8D9
:1033F00028466D1E0028EBD10448006940084000B3
:103400000249086170BD0000FFFFFF0000E000E01E
:10341000A08601000800002070B505461148124939
:103420004861002088610520086110E000200E49F5
:1034300088617D21C9000D480068FCF737FF012134
:1034400009060C1A00BF08488069A042FBD828462C
:103450006D1E0028EAD10448006940084000024976
:10346000086170BDFFFFFF0000E000E008000020E1
:1034700070B504460D46E0B20A2803D10D21044878
:10348000FEF744FCE1B20248FEF740FC204670BD66
:1034900000400040FFF71FFAFEF744F8FEF75DFB1F
:1034A000FFF75EF9FEF792FBFFF7A2FEFEF702FBC5
:1034B000FFF72EF9FDF742F9FEF746FC06A0FCF7F0
:1034C00081FE7D20C000FFF7A7FF02200B49487056
:1034D00001E0FFF7ABFDFCE753797374656D205392
:1034E000746172742E2E2E2E2E2E2E2E2E2E2E2EF9
:1034F0002E2E2E2E2E2E0D0A000000005A00002027
:1035000070B501250400ED074C4020D4441A01D2C7
:10351000001B0919C60D4B00F2B2FF2A29D01B0E61
:103520002CD000020C02D31A2C43DC40284305198E
:1035300010D2280A02D3401C6D0611D0761EF60563
:103540008019FF2A00DA70BDC00DC00570BD69404A
:1035500000F022F801200543C541521C761CE8E723
:1035600064089C40C90161408900E7D10124A0435F
:10357000E4E71B0E440200D0034870BD002AFCD1D2
:10358000C00FC00770BD00BF0000C07F70B501252F
:103590000400ED074C4022D4441A02D26C40001BB8
:1035A0000919C60D4B00F2B2FF2A4BD01B0E50D0AA
:1035B00000020C02D31A2C43DC40A843051B05D59E
:1035C000AD0019D36D08761E521E37D0F605280AB5
:1035D00001D2801970BD70416D0603D070BD694085
:1035E000FFF794FF9C4009026140490001D0401E52
:1035F00070BD0124A04370BD6D081DD001202B0CAF
:1036000001D12D0410302B0E01D12D0208302B0FCB
:1036100001D12D01001DAB0F01D1AD00801CEB0FBE
:1036200001D16D00401C6D00361A121A680AF505AA
:103630004019012A02DB70BD002070BDC036300A7F
:10364000C00770BD1B0E440201D1FF2B00D1024800
:1036500070BD002AF0D070BD0000C07F20000000C7
:10366000170000001B00000050460000E02202008E
:1036700018000000F0000000E80300000400000053
:10368000030000000200000000093D0000127A0063
:103690000024F4004086510100366E01008000963F
:1036A00000010202030303030404040404040404E9
:1036B000FFFEFDFBF7EFDFBF7F8182838485868776
:1036C00088898B8C8D8E8F919293959697999A9CE1
:1036D0009D9FA0A2A3A5A7A8AAACAEB0B2B3B5B750
:1036E000B9BCBEC0C2C5C7C9CCCED1D4D7D9DCDF26
:1036F000E2E6E9ECF0F3F7FAFE0000001C37000008
:10370000000000204C000000C800000068370000E6
:103710004C0000207C040000E400000000000000D9
:103720000000000000366E010000000000000000F4
:103730000000000001000000000000000000000088
:10374000000001010100003F065B4F666D7D077FB1
:103750006F000103070F1F3F7FFF00000000000004
:0837600000FE00000000000063
:04000005000000C136
:00000001FF
