:020000040000FA
:10000000B0050020150200002F020000F5220000BC
:1000100000000000000000000000000000000000E0
:10002000000000000000000000000000330200009B
:10003000000000000000000035020000B52E0000A6
:100040002D2900002F29000031290000332900004C
:10005000FD0100003D340000ED450000F1450000C9
:10006000E1240000E3240000172A0000192A000000
:10007000652300006723000035340000373400009A
:10008000393400005924000061340000633400005A
:10009000653400002929000053480000152A00009B
:1000A000790600002B2900004F480000514800004D
:1000B000E524000057240000FF010000FB010000C0
:1000C00000F030F800F050F8103A02D378C878C148
:1000D000FAD8520701D330C830C101D504680C608A
:1000E000704700000023002400250026103A01D3A9
:1000F00078C1FBD8520700D330C100D50B607047E0
:10010000F8B505460E461746284601F031FD002495
:1001100004E0315D281901F0ADFD641CBC42F8DB40
:10012000F8BD00000CA030C8083824182D18A246CD
:10013000671EAB4654465D46AC4201D100F014F850
:100140007E460F3E0FCCB6460126334200D0FB1A46
:10015000A246AB4633431847104B0000304B00001B
:100160001FB51FBD10B510BD00F053FA1146FFF7C3
:10017000F7FF00F079FA00F06BFA03B4FFF7F2FF33
:1001800003BC04F0DFFB000070B505460C461646C4
:1001900002E00FCC0FC5103E102EFAD2082E02D36B
:1001A00003CC03C5083E042E07D301CC01C5361F7E
:1001B00003E021782970641C6D1C761EF9D270BD95
:1001C00070477047704770470102C21504D0012381
:1001D000DB071943002A0ADB9E239A1A02D4084639
:1001E000D0407047FF2241001206914201D9002001
:1001F0007047C017C04370477047704770477047DB
:1002000010B50346002002E01C5C0C54401C9042D8
:10021000FADB10BD0C480D4A002100A1814200D933
:1002200002440B4802600B4880470B480047FEE73A
:10023000FEE7FEE7FEE7FEE7FEE7000007480849A5
:10024000084A094B70470000000000200000000031
:1002500008ED00E0F5330000C1000000B00100200F
:10026000B0050020B0030020B0030020034670B5A5
:1002700002460B439B070FD10E4CE60100E008C27B
:1002800008C91D1B9D433542F9D0D9B21170521CCB
:1002900000290DD01B0AF8E70B78491C1370521C7B
:1002A000002B05D00B78491C1370521C002BF3D186
:1002B00070BD00000101010101E004C0091F042913
:1002C000FBD28B0701D50280801CC90700D00270C9
:1002D000704700290BD0C30702D00270401C491E92
:1002E000022904D3830702D50280801C891EE3E71C
:1002F0000022EEE70022DFE7002203098B422CD325
:10030000030A8B4211D300239C464EE003460B4365
:100310003CD4002243088B4231D303098B421CD3C7
:10032000030A8B4201D394463FE0C3098B4201D3B9
:10033000CB01C01A524183098B4201D38B01C01AF1
:10034000524143098B4201D34B01C01A5241030968
:100350008B4201D30B01C01A5241C3088B4201D317
:10036000CB00C01A524183088B4201D38B00C01AC4
:10037000524143088B4201D34B00C01A5241411AEB
:1003800000D201465241104670475DE0CA0F00D0CE
:100390004942031000D34042534000229C460309C7
:1003A0008B422DD3030A8B4212D3FC22890112BA4D
:1003B000030A8B420CD3890192118B4208D3890125
:1003C00092118B4204D389013AD0921100E089093D
:1003D000C3098B4201D3CB01C01A524183098B421E
:1003E00001D38B01C01A524143098B4201D34B0107
:1003F000C01A524103098B4201D30B01C01A52416A
:10040000C3088B4201D3CB00C01A524183088B42F0
:1004100001D38B00C01A5241D9D243088B4201D379
:100420004B00C01A5241411A00D201466346524164
:100430005B10104601D34042002B00D54942704763
:1004400063465B1000D3404201B50020C046C04661
:1004500002BD0000F0B5FF252D04C609C209FF2723
:1004600004462E400137CB093E4348402A402B40EA
:100470000746002A6BD0002B69D0AA4267D0AB4256
:1004800065D0002800DA32460125ED0529432C43CA
:1004900009022002090AD21A4B0C7F24E31A434CAA
:1004A000000A7C44E35C7D242404121914145B00CC
:1004B000A218884201D3521C00E0400049420C4679
:1004C0005C4324115C43DB016415E318040A5C43BC
:1004D000C502200D0C4644436419250A5D432303DD
:1004E000EC0C0D46654300030019EB184C42A34287
:1004F00001D35B18401CD4052018002B07D05B00EB
:10050000C91804D3401C002901D1400840003F21F4
:1005100089048A4209D3002A08DC1106090F04D095
:10052000032149074018C00FC007F0BD0122410058
:10053000120689187F2252069142F6D205214907F8
:10054000C84201D59010F0BDFF20C005F0BD002FBE
:1005500000DA32461648AA4207D2AB4205D2190247
:10056000090E17D0F80FC007F0BDFF2563002D0658
:10057000AB42F9D84900A942F6D8AB4201D1A94211
:10058000F2D0A94201D1002101E061004908D00563
:100590000843F0BD1102090EFBD0FF200243D00535
:1005A000F0BD0A460146104654E700007F470000B0
:1005B0000000C07F1F22030C02D10F2200041CD0B8
:1005C000030E01D10002083A030F01D10001121FEE
:1005D000830F01D18000921E002801DB4000521ED3
:1005E000D2055118021251181922904004D3491C07
:1005F000002801D14908490008467047C10FC907C2
:1006000000D04042012292071143D3E7012189071C
:10061000D0E7754600F024F8AE460500694653461B
:10062000C008C000854618B020B5FFF707FE60BCC3
:1006300000274908B6460026C0C5C0C5C0C5C0C50C
:10064000C0C5C0C5C0C5C0C5403D49008D46704746
:1006500010B50446C046C0462046FFF78EFD10BDCB
:10066000004870474C01002010B502F0C3FE04F0B2
:10067000D5F9002010BD000010B5102000F054F98D
:10068000012000F065F9044908808021052002F06E
:1006900035F900F0A1F910BD1600002070B505462F
:1006A0001248007B00280DD1114909885539114A9B
:1006B000514308461049FFF729FE0646FFF79EFF03
:1006C00004460EE00A490988FF39F539BF22920035
:1006D000514308460949FFF719FE0646FFF78EFF0A
:1006E00004462046FFF770FD288070BD680000209A
:1006F0001600002016030000FF0F0000E6090000AE
:100700001FB50C2101A804F01FF90121402001F0C0
:10071000D5FD0121102002F0C1FD00F09DF901215D
:10072000684601710021417103210903C180012143
:100730004902018100214181012189038181002138
:10074000817301A800F00CF90021684681704170A6
:100750000221017000F046F90921012000F008F89B
:1007600000F0EAF801220321182001F055F91FBD1D
:1007700010B50246130004F09BF8100913202D3A1F
:1007800047545E6B7885929FA9B6C3D065480068D0
:1007900040094001CB06DB0E1843624B1860BEE0F7
:1007A000604800681F235B0198434B011F246401CC
:1007B000234018435B4B1860B1E05A4800681F2380
:1007C0009B0298438B021F24A40223401843554BDD
:1007D0001860A4E0534800681F23DB039843CB0351
:1007E0001F24E403234018434E4B186097E04D4804
:1007F00000681F231B0598430B051F242405234075
:100800001843484B18608AE0464800681F235B067F
:1008100098434B061F24640623401843414B18603D
:100820007DE04048406840094001CB06DB0E18439C
:100830003C4B586073E03B4840681F235B01984382
:100840004B011F24640123401843364B586066E077
:10085000344840681F239B0298438B021F24A40244
:10086000234018432F4B586059E02E4840681F23FF
:10087000DB039843CB031F24E40323401843294B95
:1008800058604CE0274840681F231B0598430B0520
:100890001F24240523401843224B58603FE0214881
:1008A00040681F235B0698434B061F2464062340C1
:1008B00018431C4B586032E01A48806840094001D8
:1008C000CB06DB0E1843174B986028E0154880686C
:1008D0001F235B0198434B011F24640123401843ED
:1008E000104B98601BE00F4880681F239B029843C1
:1008F0008B021F24A402234018430A4B98600EE089
:10090000084880681F23DB039843CB031F24E403BC
:1009100023401843034B986001E0042010BD00BF42
:100920000020FBE7402400400249496B8143014A13
:100930005163704780240040044840680121C90386
:100940008843401801494860704700000024004077
:100950000146024A880010587047000050240040A9
:1009600010B50446002C01D1042010BD0120164909
:100970004860022003F0F8FF6078A1880843E1880E
:10098000084361880843218908430F49496808439F
:100990000D49486008468068091588432178890216
:1009A0000122920211400843074988600846806886
:1009B00004218843A17A8900042211400843024996
:1009C00088600020D1E70000002400400120014998
:1009D00048607047C02400400020014948607047CB
:1009E000C02400400146002902D00878102801DD0B
:1009F00004207047174880680122D2039043154AAB
:100A0000906010468068D21490434A78D202012345
:100A1000DB021A4010430F4A90601046806892151E
:100A200090438A781202DB101A401043094A906002
:100A30000848403080680F22120590430A78521E01
:100A400012050F231B051A401043024A40329060E2
:100A50000020CEE70024004010B5054800680121C1
:100A6000084303490860022003F07EFF10BD000028
:100A700000240040002000BF04E00021064A115479
:100A8000411CC8B20449603109798142F5DC002279
:100A9000014960310A717047E500002010B500205F
:100AA00001F0FAFF002001F0F7FF0821402001F0DB
:100AB00099FB0921402001F095FB0A21402001F01B
:100AC00091FB0B21402001F08DFB10BD10B50446B9
:100AD0002088062801DA002010BD2088062809DBBE
:100AE0002088F62806DA2188881D0C21FFF70EFCE5
:100AF000C0B2F1E72088F6280DDB2088FF21F53110
:100B0000884208DA21880846F6380D21FFF7FEFBF7
:100B10001530C0B2E0E72820DEE7000010B5CA4873
:100B20000078002806D0012868D002287ED003284B
:100B30007DD12FE10C21402001F0CEFB0D21402082
:100B400001F050FB0E21402001F04CFB0F21402012
:100B500001F048FBBD48008840210840002804D02F
:100B60000A21402001F0B8FB03E00A21402001F0F7
:100B700039FBB648008810210840002804D00B211A
:100B8000402001F0A9FB03E00B21402001F02AFBEB
:100B9000AF480078142804DAAE49087801F07CFFE9
:100BA00028E0AB48007814280BDBA94800781C2803
:100BB00007DCA74909781439A64A505C01F06CFF9C
:100BC00018E0A34800781D2808D1A249087A01F04E
:100BD00063FF0821402001F07FFB0BE09D49087A6C
:100BE00001F05AFF0821402001F076FB0921402046
:100BF00001F072FB002001F04FFF15E10C214020B5
:100C000001F0F0FA0D21402001F066FB0E2140209A
:100C100001F0E8FA0F21402001F0E4FA8B48008847
:100C20000121C9020840002807D001E04FE0FAE0A6
:100C30000A21402001F050FB03E00A21402001F08E
:100C4000D1FA82480088012189020840002804D096
:100C50000B21402001F040FB03E00B21402001F07C
:100C6000C1FA7B4800780A2804DA7A49087801F04A
:100C700013FF28E0764800780A280BDB74480078D8
:100C8000122807DC724909780A39724A505C01F06F
:100C900003FF18E06E480078132808D16D49087AE0
:100CA00001F0FAFE0821402001F016FB0BE0694933
:100CB000087A01F0F1FE0821402001F00DFB092126
:100CC000402001F009FB002001F0E6FEACE00C2121
:100CD000402001F087FA0D21402001F083FA0E2117
:100CE000402001F0F9FA0F21402001F07BFA57482B
:100CF000008802210840002808D00A21402001F085
:100D0000EBFA0B21402001F0E7FA1BE00A2140201A
:100D100001F068FA50480088401C4F490880084696
:100D20000088C82801DB002008804B480088642820
:100D300004DA0B21402001F0CFFA03E00B21402020
:100D400001F050FA42480078082806DA4149404A42
:100D50001278885C01F0A0FE18E03D480078092870
:100D600008D13C49087A01F097FE0821402001F0A3
:100D7000B3FA0BE03749087A01F08EFE08214020D3
:100D800001F0AAFA0921402001F0A6FA762001F02C
:100D900083FE49E00C21402001F024FA0D2140207F
:100DA00001F020FA0E21402001F01CFA0F21402012
:100DB00001F092FA264800781E2804DA25490878BE
:100DC00001F06AFE28E0224800781E280BDB20484C
:100DD0000078262807DC1E4909781E391D4A505C18
:100DE00001F05AFE18E01A480078272808D119495E
:100DF000087A01F051FE0821402001F06DFA0BE065
:100E00001449087A01F048FE0821402001F064FAF4
:100E10000921402001F060FA1049114A1278885CDB
:100E200001F03AFE00E000BF00BF07480078401C18
:100E3000054908700878C117890F091889108900B9
:100E4000411A014A117010BD2D000020040000203D
:100E50002F0000203A000020460000203000002033
:100E60002B00002070B5EB480078002806D0012840
:100E70007BD0022873D0032872D16CE10C21402072
:100E800001F02AFA0D21402001F0ACF90E2140209A
:100E900001F0A8F90F21402001F0A4F9DE480088F4
:100EA00040210840002804D00A21402001F014FA13
:100EB00003E00A21402001F095F9D748008810216D
:100EC0000840002804D00B21402001F005FA03E07F
:100ED0000B21402001F086F9D0480078142804DA6C
:100EE000CF49087801F0D8FD28E0CC4800781428D4
:100EF0000BDBCA4800781C2807DCC849097814397C
:100F0000C74A505C01F0C8FD18E0C44800781D28AD
:100F100008D1C349087A01F0BFFD0821402001F043
:100F2000DBF90BE0BE49087A01F0B6FD082140204C
:100F300001F0D2F90921402001F0CEF9B94800882A
:100F4000B94988420DDD491CB6480088FFF7DEF933
:100F5000B6490C5C204601F09FFD05E005E083E00A
:100F600046E1002001F098FD43E10C21402001F012
:100F700039F90D21402001F0AFF90E21402001F098
:100F800031F90F21402001F02DF9A34800880121FB
:100F9000C9020840002804D00A21402001F09CF931
:100FA00003E00A21402001F01DF99B48008801213F
:100FB00089020840002804D00B21402001F08CF960
:100FC00003E00B21402001F00DF9944800780A2835
:100FD00004DA9349087801F05FFD28E08F48007833
:100FE0000A280BDB8D480078122807DC8B4909782A
:100FF0000A398B4A505C01F04FFD18E087480078B1
:10100000132808D18649087A01F046FD08214020BE
:1010100001F062F90BE08249087A01F03DFD0821F8
:10102000402001F059F90921402001F055F97D488F
:101030000088632810DD64217A480088FFF766F98C
:1010400005460A21FFF762F97848405C8021084391
:10105000044601F021FD06E074490978802211431D
:10106000084601F019FDC4E00C21402001F0BAF857
:101070000D21402001F0B6F80E21402001F02CF99E
:101080000F21402001F0AEF863480088022108409B
:10109000002808D00A21402001F01EF90B21402031
:1010A00001F01AF91BE00A21402001F09BF860488A
:1010B0000088401C5E49088008460088C82801DB7B
:1010C000002008805A480088642804DA0B21402058
:1010D00001F002F903E00B21402001F083F84F48B2
:1010E0000078082806DA4E494C4A1278885C01F0EC
:1010F000D3FC18E049480078092808D14849087A03
:1011000001F0CAFC0821402001F0E6F80BE0444958
:10111000087A01F0C1FC0821402001F0DDF8092126
:10112000402001F0D9F83F48008809280EDD0A2147
:101130003C480088FFF7EAF805460A21FFF7E6F881
:101140003A48445C204601F0A7FC03E037490878A0
:1011500001F0A2FC4DE00C21402001F043F80D21EC
:10116000402001F03FF80E21402001F03BF80F2114
:10117000402001F0B1F8294800781E2804DA2849F7
:10118000087801F089FC28E0244800781E280BDB51
:1011900022480078262807DC204909781E39204A91
:1011A000505C01F079FC18E01C480078272808D131
:1011B0001B49087A01F070FC0821402001F08CF8EE
:1011C0000BE01749087A01F067FC0821402001F084
:1011D00083F80921402001F07FF80A211148008896
:1011E000FFF794F81148445C204601F055FC00E0FC
:1011F00000BF00BF07480078401C06490870087807
:10120000C117890F091889108900411A014A117004
:1012100070BD00002D000020040000202F000020E1
:101220003A00002002000020E70300003000002008
:101230004400002010B5D6480078002806D00128C8
:1012400068D002287ED003287DD14AE10C214020BD
:1012500001F042F80D21402000F0C4FF0E21402093
:1012600000F0C0FF0F21402000F0BCFFC9480088FB
:1012700040210840002804D00A21402001F02CF829
:1012800003E00A21402000F0ADFFC2480088102191
:101290000840002804D00B21402001F01DF803E095
:1012A0000B21402000F09EFFBB480078142804DA90
:1012B000BA49087801F0F0FB28E0B7480078142814
:1012C0000BDBB54800781C2807DCB34909781439D2
:1012D000B24A505C01F0E0FB18E0AF4800781D28EE
:1012E00008D1AE49087A01F0D7FB0821402000F070
:1012F000F3FF0BE0A949087A01F0CEFB082140205A
:1013000000F0EAFF0921402000F0E6FF002001F094
:10131000C3FB2DE10C21402000F064FF0D21402093
:1013200000F0DAFF0E21402000F05CFF0F2140208A
:1013300000F058FF974800880121C90208400028A2
:1013400007D001E04FE012E10A21402000F0C4FF85
:1013500003E00A21402000F045FF8E48008801216B
:1013600089020840002804D00B21402000F0B4FF7F
:1013700003E00B21402000F035FF874800780A2861
:1013800004DA8649087801F087FB28E08248007873
:101390000A280BDB80480078122807DC7E49097890
:1013A0000A397E4A505C01F077FB18E07A480078F1
:1013B000132808D17949087A01F06EFB08214020F2
:1013C00000F08AFF0BE07549087A01F065FB0821FF
:1013D000402000F081FF0921402000F07DFF002027
:1013E00001F05AFBC4E00C21402000F0FBFE0D216F
:1013F000402000F0F7FE0E21402000F06DFF0F218D
:10140000402000F0EFFE63480088022108400028D9
:1014100008D00A21402000F05FFF0B21402000F09F
:101420005BFF1BE00A21402000F0DCFE5C480088E6
:10143000401C5B49088008460088C82801DB002062
:10144000088057480088642804DA0B21402000F007
:1014500043FF03E00B21402000F0C4FE4E4800781B
:10146000082806DA4D494C4A1278885C01F014FBD2
:1014700018E049480078092808D14849087A01F05D
:101480000BFB0821402000F027FF0BE04349087ABE
:1014900001F002FB0821402000F01EFF092140203E
:1014A00000F01AFF3F480078401C3E49087008468B
:1014B0000078502801DB002008703A48007828287E
:1014C0000BDA3948007B002803D13E2001F0E4FA12
:1014D00006E0772001F0E0FA02E0002001F0DCFAFB
:1014E00046E00C21402000F07DFE0D21402000F060
:1014F00079FE0E21402000F075FE0F21402000F003
:10150000EBFE254800781E2804DA2449087801F00B
:10151000C3FA28E0204800781E280BDB1E4800781C
:10152000262807DC1C4909781E391C4A505C01F04A
:10153000B3FA18E018480078272808D11749087A24
:1015400001F0AAFA0821402000F0C6FE0BE0134982
:10155000087A01F0A1FA0821402000F0BDFE09211F
:10156000402000F0B9FE002001F096FA00E000BF34
:1015700000BF07480078401C054908700878C1176B
:10158000890F091889108900411A014A117010BD8C
:101590002D000020040000202F0000203A00002031
:1015A0004E0000204C0000206800002010B5FE48CE
:1015B0000078002806D001287ED002287DD003289C
:1015C0007CD198E10C21402000F086FE0D214020C6
:1015D00000F008FE0E21402000F004FE0F21402004
:1015E00000F000FEF148008840210840002804D0A7
:1015F0000A21402000F070FE03E00A21402000F0A4
:10160000F1FDEA48008810210840002804D00B2191
:10161000402000F061FE03E00B21402000F0E2FDDD
:10162000E3480078142804DAE249087801F034FA33
:1016300028E0DF48007814280BDBDD4800781C2800
:1016400007DCDB4909781439DA4A505C01F024FAE6
:1016500018E0D74800781D2808D1D649087A01F04B
:101660001BFA0821402000F037FE0BE0D149087A30
:1016700001F012FA0821402000F02EFE092140203E
:1016800000F02AFECC48007803281CD1CB48007813
:10169000401CCA49087008460078502801DB002029
:1016A0000870C6480078282809DAC549C978C54AAB
:1016B000505C01F0F1F90CE00CE098E095E10020BD
:1016C00001F0EAF905E0BE49C978BE4A505C01F074
:1016D000E3F98BE10C21402000F084FD0D21402036
:1016E00000F0FAFD0E21402000F07CFD0F2140208B
:1016F00000F078FDAD4800880121C90208400028AB
:1017000004D00A21402000F0E7FD03E00A21402038
:1017100000F068FDA54800880121890208400028E2
:1017200004D00B21402000F0D7FD03E00B21402026
:1017300000F058FD9E4800780A2804DA9D49087890
:1017400001F0AAF928E09A4800780A280BDB9848AB
:101750000078122807DC964909780A39954A505CC6
:1017600001F09AF918E092480078132808D19149BD
:10177000087A01F091F90821402000F0ADFD0BE05E
:101780008C49087A01F088F90821402000F0A4FD76
:101790000921402000F0A0FD8748007802281CD1D4
:1017A00086480078401C8549087008460078502813
:1017B00001DB0020087081480078282809DA804978
:1017C0008978804A515C80221143084601F064F90F
:1017D0000CE0802001F060F908E079498978794AC5
:1017E000515C80221143084601F056F9FEE00C21BD
:1017F000402000F0F7FC0D21402000F0F3FC0E210A
:10180000402000F069FD0F21402000F0EBFC67480C
:10181000008802210840002808D00A21402000F05A
:101820005BFD0B21402000F057FD1BE00A2140200A
:1018300000F0D8FC64480088401C634908800846D2
:101840000088C82801DB002008805F4800886428E1
:1018500004DA0B21402000F03FFD03E00B21402083
:1018600000F0C0FC52480078082806DA5149504A76
:101870001278885C01F010F918E04D4800780928CA
:1018800008D14C49087A01F007F90821402000F0FE
:1018900023FD0BE04749087A01F0FEF808214020BB
:1018A00000F01AFD0921402000F016FD42480078A2
:1018B000012819D141480078401C40490870084669
:1018C0000078502801DB002008703C480078282868
:1018D00006DA3B4949783B4A505C01F0DDF809E003
:1018E000002001F0D9F805E035494978354A505CC7
:1018F00001F0D2F87AE00C21402000F073FC0D21B9
:10190000402000F06FFC0E21402000F06BFC0F2106
:10191000402000F0E1FC264800781E2804DA254922
:10192000087801F0B9F828E0214800781E280BDB80
:101930001F480078262807DC1D4909781E391D4AF2
:10194000505C01F0A9F818E019480078272808D160
:101950001849087A01F0A0F80821402000F0BCFCEA
:101960000BE01449087A01F097F80821402000F0B4
:10197000B3FC0921402000F0AFFC0F48007800289C
:101980002CD10E480078401C0C490870084600789D
:10199000502801DB0020087008480078282819DA50
:1019A00007490978074A11E02D00002004000020B3
:1019B0002F0000203A0000202E00002048000020C8
:1019C00018000020300000204A000020505C01F088
:1019D00063F809E0002001F05FF805E00B490978A1
:1019E0000B4A505C01F058F800E000BF00BF094806
:1019F0000078401C074908700878C117890F09183A
:101A000089108900411A034A117010BD1800002086
:101A1000300000202D00002070B504460E4615460B
:101A20002046002805DBC206D20E01219140144A4F
:101A3000116000BF3146204602F048FF012D0ED153
:101A40002046002809DB00BF00BFC206D20E0121DC
:101A500091400C4A116000BF00BF00BF0FE020465C
:101A600000280ADBC206D20E01219140054A8032CD
:101A70001160BFF34F8FBFF36F8F00BF00BF70BD0A
:101A800080E200E000E100E0F0B58BB005460E46D4
:101A90000024FF200A9000200990202101A8FEF7D1
:101AA00029FC284F012D0ED0022D0CD0042D0AD078
:101AB000062D08D0082D06D00C2D04D00420099046
:101AC00009980BB0F0BD1F48006A01214902884304
:101AD000710201225202114008431A49086200248F
:101AE00007E0A000184908586843A10001AA505017
:101AF000641C082CF5D30C2D01D1FF20029000248A
:101B00001CE0FF200A9011E00A98411E0A9100286B
:101B10000AD00E480B49C8620D48C862A00001A94E
:101B20000858A100785001E00720CAE7A000385803
:101B3000A10001AA51588842E6D1641C082CE0D3C8
:101B40000998BEE700000240CC4B00005A5A000042
:101B5000A5A5000003480449C8620448C8620020E3
:101B6000086370475A5A000000000240A5A5000013
:101B700008B502460023FF2000902548824202D982
:101B80000423184608BDFF20009006E00098411E7F
:101B90000091002801D10920F4E71E48006AC00620
:101BA000C00F0028F2D100F03BF8FF20009012E0B7
:101BB0000098411E009100280BD017481549C862B3
:101BC0001648C8620846006A80088000801C0862C7
:101BD00001E00920D6E70F48006A8007800F02283D
:101BE000E6D100201070FF20009006E00098411E12
:101BF0000091002801D10920C4E70648006AC00608
:101C0000C00F0028F2D1FFF7A5FF1846BAE7000081
:101C1000FFFF0000000002405A5A0000A5A5000086
:101C200004480549C8620548C8620020C0430863EB
:101C3000704700005A5A000000000240A5A50000AD
:101C400010B501460020084A084BDA62084ADA62F9
:101C50001A46126A0C239A438B000C2423401A4321
:101C6000024B1A6210BD00005A5A000000000240E8
:101C7000A5A5000018B502460B460024FF200090E1
:101C80002448824202D90424204618BDFF20009037
:101C900006E00098411E0091002801D10920F4E7D8
:101CA0001D48006AC006C00F0028F2D1FF20009036
:101CB00012E00098411E009100280BD017481649E9
:101CC000C8621748C8620846006A80088000401C45
:101CD000086201E00920D8E70F48006A8007800FFA
:101CE0000128E6D1FFF79CFF1370FF20009006E06B
:101CF0000098411E0091002801D10920C5E706483F
:101D0000006AC006C00F0028F2D1FFF723FF20466B
:101D1000BBE70000FFFF0000000002405A5A00002D
:101D2000A5A500001CB501211C2001F0B7FA012176
:101D300068460170417000218170C17001710121FC
:101D400041716A460021084600F066FA6A460121A0
:101D5000002000F061FA6A460221002000F05CFADF
:101D60006A460321002000F057FA6A460421002049
:101D700000F052FA6A460521002000F04DFA6A464A
:101D80000621002000F048FA6A460721002000F0F2
:101D900043FA6A460821002000F03EFA6A4609210B
:101DA000002000F039FA6A460A21002000F034FAD7
:101DB0006A460B21002000F02FFA6A460C21002011
:101DC00000F02AFA6A460D21002000F025FA6A4642
:101DD0000E21002000F020FA6A460F21002000F0BA
:101DE0001BFA0021084600F0FDF90121002000F057
:101DF000F9F90221002000F0F5F90321002000F09C
:101E0000F1F90421002000F0EDF90521002000F097
:101E1000E9F90621002000F0E5F90721002000F093
:101E2000E1F90821002000F0DDF90921002000F08F
:101E3000D9F90A21002000F0D5F90B21002000F08B
:101E4000D1F90C21002000F0CDF90D21002000F087
:101E5000C9F90E21002000F0C5F90F21002000F083
:101E6000C1F96A460021402000F0D6F96A460121F6
:101E7000402000F0D1F96A460221402000F0CCF960
:101E80006A460321402000F0C7F96A460421402039
:101E900000F0C2F96A460621402000F0BDF96A460A
:101EA0000721402000F0B8F96A460821402000F0E0
:101EB000B3F96A460921402000F0AEF96A460A21CA
:101EC000402000F0A9F96A460B21402000F0A4F957
:101ED0006A460C21402000F09FF96A460D214020FF
:101EE00000F09AF96A460E21402000F095F96A4602
:101EF0000F21402000F090F90021402000F072F9FD
:101F00000121402000F06EF90221402000F06AF922
:101F10000321402000F066F90421402000F062F91E
:101F20000521402000F05EF90621402000F05AF91A
:101F30000721402000F056F90821402000F052F916
:101F40000921402000F04EF90A21402000F04AF912
:101F50000B21402000F046F90C21402000F042F90E
:101F60000D21402000F03EF90E21402000F03AF90A
:101F70000F21402000F036F96A460021802000F051
:101F80004BF96A460121802000F046F96A46022199
:101F9000802000F041F96A460321802000F03CF9DE
:101FA0006A460421802000F037F96A460521802026
:101FB00000F032F96A460621802000F02DF96A46C9
:101FC0000721802000F028F96A460821802000F0CF
:101FD00023F96A460921802000F01EF96A460A2189
:101FE000802000F019F96A460B21802000F014F9D6
:101FF0006A460C21802000F00FF96A460D218020EE
:1020000000F00AF90021802000F0ECF80121802086
:1020100000F0E8F80221802000F0E4F8032180209D
:1020200000F0E0F80421802000F0DCF80521802099
:1020300000F0D8F80621802000F0D4F80721802095
:1020400000F0D0F80821802000F0CCF80921802091
:1020500000F0C8F80A21802000F0C4F80B2180208D
:1020600000F0C0F80C21802000F0BCF80D21802089
:1020700000F0B8F86A460021C02000F0CDF86A46AA
:102080000121C02000F0C8F86A460221C02000F0FB
:10209000C3F86A460321C02000F0BEF86A46062154
:1020A000C02000F0B9F86A460721C02000F0B4F85B
:1020B0006A460821C02000F0AFF86A460921C02016
:1020C00000F0AAF86A460A21C02000F0A5F86A4686
:1020D0000B21C02000F0A0F86A460C21C02000F0BF
:1020E0009BF86A460D21C02000F096F86A460E2142
:1020F000C02000F091F86A460F21C02000F08CF853
:102100000021C02000F06EF80121C02000F06AF824
:102110000221C02000F066F80321C02000F062F820
:102120000421C02000F05EF80521C02000F05AF81C
:102130000621C02000F056F80721C02000F052F818
:102140000821C02000F04EF80921C02000F04AF814
:102150000A21C02000F046F80B21C02000F042F810
:102160000C21C02000F03EF80D21C02000F03AF80C
:102170000E21C02000F036F80F21C02000F032F808
:102180000021684601708170C1706A460F210020ED
:1021900000F042F86A460621C02000F03DF86A4689
:1021A0000721C02000F038F86A460221402000F0E4
:1021B00033F86A460B21002000F02EF80F21002092
:1021C00000F08AF80721C02000F086F802214020A4
:1021D00000F008F81CBD02461068C840C007C00FD8
:1021E0007047000070B504460D460449601801228E
:1021F000294600F0D1FD002070BD0000140D024002
:1022000070B504460D46034960182946FFF7E3FF01
:1022100070BD0000040D024070B504460E46154620
:102220001E4960180022314600F0B6FD00201C490E
:102230006118B20088502A7818490C396018314664
:1022400000F0AAFD6A78154910316018314600F097
:10225000A3FDAA78114914316018314600F09CFDA5
:10226000EA780E4918316018314600F095FD2A7958
:102270000A4920316018314600F08EFD0948806817
:102280000121C90388436979C9030122D20311409E
:10229000084304498860002070BD00000C0D024016
:1022A000000C0240000F024010B503460248181807
:1022B0008C000251002010BD000C024070B5044695
:1022C0000D46044960180122294600F065FD0020F2
:1022D00070BD00000C0D024070B504460D46044967
:1022E00060180122294600F057FD002070BD000053
:1022F000100D024008B50020009000BF0098002893
:10230000FCD008BDF7B503460E4600210022029816
:10231000002800D1FEBD00221EE0B05C0411B05CBC
:1023200005072D0F5004010C092C03DC204630302A
:10233000585402E0204637305854092D05DC284611
:102340003030C7B2481C1F5404E028463730C7B2AB
:10235000481C1F54501C82B202988242DDDB881C4C
:1023600080B2D7E7704770471CB501211C2000F0F0
:1023700095FF0021684601708170C17008214020DE
:10238000FFF730FF09214020FFF72CFF0A214020F2
:10239000FFF728FF0B214020FFF724FF0C214020EE
:1023A000FFF720FF0D214020FFF71CFF0E214020EA
:1023B000FFF718FF0F214020FFF714FF6A4608219E
:1023C0004020FFF729FF6A4609214020FFF724FF3C
:1023D0006A460A214020FFF71FFF6A460B21402072
:1023E000FFF71AFF6A460C214020FFF715FF6A46E7
:1023F0000D214020FFF710FF6A460E214020FFF715
:102400000BFF6A460F214020FFF706FF1CBD1CB5DD
:1024100001211C2000F042FF01216846017041703B
:1024200000218170C1700171012141716A4604214E
:102430004020FFF7F1FE6A4605214020FFF7ECFE41
:102440006A4606214020FFF7E7FE6A460721402042
:10245000FFF7E2FE1CBD704710B5074800F0F1F928
:10246000012808D1044800F0CFF904480078402141
:1024700008430249087010BD000F00400C00002006
:102480001CB50821684602F05FFA0121092000F01E
:1024900005FF002168468170417002210170002112
:1024A000C1700171012141710B49C18069460B481E
:1024B00000F0CFF9094800F0A7F90121074800F022
:1024C000B6F9012203211120FFF7A6FA01210348E2
:1024D00000F0A3F91CBD0000FFBF0000000F00408A
:1024E000704770477047000010B50020524988704F
:1024F00052480078012871D051480078030002F05A
:10250000D7F9066E04192E43586E4E48C0787D21C7
:10251000C90048434B4989786422514341184948CE
:1025200040780A225043081846490978401846491D
:10253000488055E04348C0787D21C900484341495F
:1025400089786422514341183E4840780A2250431A
:1025500008183C49097840183B49888040E03948D0
:10256000C0787D21C90048433649897864225143A7
:102570004118344840780A225043081831490978F4
:1025800040183149C8802BE02E48C0787D21C90011
:1025900048432C498978642251434118294840789E
:1025A0000A2250430818274909784018264908810B
:1025B00016E02448C0787D21C90048432149897824
:1025C0006422514341181F4840780A22504308189A
:1025D0001C49097840181C49488101E02BE000BFE4
:1025E00000BF01201549087000201849087001201B
:1025F000134908701448007B00280BD11448008848
:10260000012149020843124908800621C020FFF732
:10261000E9FD0AE00E4800880121490288430C497F
:1026200008800621C020FFF757FE0E220649094800
:102630000068FDF765FD10BD760000202A0000202F
:102640002B00002018000020680000202E00002031
:10265000040000205800002010B504460348047010
:102660008021032000F04AF910BD00006000002026
:1026700010B56248407980210840002807D05F48A3
:1026800040794006400E5D494871802466E05B4811
:10269000407940210840002807D058484079BF21A0
:1026A000084056494871402458E054484079202158
:1026B0000840002807D051484079DF2108404F49A1
:1026C000487120244AE04D484079102108400028F4
:1026D00007D04A484079EF21084048494871102402
:1026E0003CE04648407908210840002807D043488C
:1026F0004079F72108404149487108242EE03F48BD
:10270000407904210840002807D03C484079FB214B
:1027100008403A494871042420E0384840790221B1
:102720000840002807D035484079FD21084033494A
:102730004871022412E031484079C007C00F0028D8
:1027400007D02E484079FE2108402C4948710124C9
:1027500004E02A4844790020284948712848007834
:10276000012802D0032841D11DE0042C0ED0402CBA
:1027700010D0802C11D12348008880218843214922
:1027800008800B210020FFF72DFD0AE0032002F056
:1027900069F806E0FFF7A8FE03E0012002F062F806
:1027A00000BF00BF26E0102C15D0402C10D0802C8C
:1027B00019D11448008880210843124908800B2150
:1027C0000020FFF789FD0121032000F097F80BE0BE
:1027D000FFF78AFE08E00121032000F08FF80120B6
:1027E00002F040F800E000BF00BF03E0012002F06B
:1027F00039F800BF00BF00F0F1FA10BD0D00002055
:102800001C0000200400002010B5044600221146E0
:102810002046143000F0C0FA10BD70B505460C46D5
:102820002246002128460C3000F0B6FA70BD70B583
:1028300005460C4622460A2128460C3000F0ACFA28
:1028400070BD10B50446002120461030FFF7C3FCD0
:1028500010BD30B502467D23DB00D0683024A04394
:102860000C78240130252C402043D060D06801240E
:102870006402A0434C78640201256D022C40204381
:10288000D060D0686C10A0438C7824026D102C406E
:102890002043D060D0680824A043CC78E400082509
:1028A0002C402043D060D0680424A0430C79A400BD
:1028B00004252C402043D060D0680224A0434C79EA
:1028C000640002252C402043D06005E0D06800065B
:1028D000C00F002800D004E018465C1EA3B20028F8
:1028E000F4D100BF002B01D1092030BD5068000C8D
:1028F0000004CC88204350600020F6E710B572B683
:10290000421E074B9A5C0A43431E054CE2540122C7
:102910009A40044B1B781A43024B1A7062B610BDE2
:102920000D0000200C000020704770477047704772
:102930007047704710B500BF01210620FFF7A4F8CB
:102940000028F9D10E22184918480068FDF758FCF4
:1029500015480078AB2803D11348407BBA2807D02C
:1029600000F090FA0E22104910480068FDF7C8FBED
:102970000D48007B00280BD10D4800880121490239
:1029800008430B4908800621C020FFF72BFC0AE012
:10299000074800880121490288430549088006212B
:1029A000C020FFF799FC10BD6800002058000020EF
:1029B0000400002010B5002426E01548005D002822
:1029C00020D01348005D401EC0B2114908550028B0
:1029D00018D1230001F06CFF05040C111213140030
:1029E0003C200B49087001210320FFF787FF08E016
:1029F00002210320FFF782FF03E002E001E000E094
:102A000000BF00BF601CC4B2052CD6DB10BD0000A7
:102A10005000002070477047704700000EB5062137
:102A200001A801F091FF01211C2000F037FC0121D9
:102A3000062000F033FC002168464171017101AAB3
:102A400007210020FFF7E8FB012207210020FFF704
:102A50002BFC01AA04210020FFF7DEFB0122042148
:102A60000020FFF721FC01AA05210020FFF7D4FB7D
:102A7000012205210020FFF717FC10216846017094
:102A800000214170C17081706946024800F0C1F9AF
:102A90000EBD00000008004010B5044600210948A2
:102AA00000F0CBF92146074800F0C3F900BF04212C
:102AB000044800F0A5F90028F9D00121014800F0F0
:102AC000BCF910BD0008004010B5FDF7E7FF0E4847
:102AD0000078012804D0022805D0042810D105E090
:102AE000FEF7C0F90DE0FEF719F80AE00748007894
:102AF000062802D1FEF79EFB01E0FEF757FD00E03D
:102B000000BF00BF10BD00002A0000202B000020E5
:102B100033B581B0002430222146641C7B484254E6
:102B20002146641C42540D222146641C42540A2250
:102B30002146641C425441222146641C42545422C2
:102B40002146641C42542B222146641C42544E22CE
:102B50002046611CCCB26D490A5453222046611CA8
:102B6000CCB26A490A542046611CCCB267490A5467
:102B700054222046611CCCB264490A5441222046AA
:102B8000611CCCB261490A5454222046611CCCB26B
:102B90005E490A5455222046611CCCB25B490A5456
:102BA00053222046611CCCB258490A543D2220468B
:102BB000611CCCB255490A5430222046611CCCB26B
:102BC00052490A5478222046611CCCB24F490A541B
:102BD0000819012201A9FFF795FBA01CC4B22C2201
:102BE0002046611CCCB249490A540819012202A9A5
:102BF000FFF788FBA01CC4B244490819012202A9AE
:102C00000131FFF77FFBA01CC4B241480088FDF7EB
:102C1000FDFC05463F49FDF71DFC00903B490819A6
:102C200004226946FFF76EFB20460830C4B23A49D9
:102C30000889FDF7EBFC05463649FDF70BFC0090D3
:102C40003249081904226946FFF75CFB2046083028
:102C5000C4B231494889FDF7D9FC05462D49FDF735
:102C6000F9FB00902949081904226946FFF74AFB3D
:102C700020460830C4B228498888FDF7C7FC0546BD
:102C80002449FDF7E7FB0090204908190422694612
:102C9000FFF738FB20460830C4B21F49C888FDF74B
:102CA000B5FC05461B49FDF7D5FB009017490819EF
:102CB00004226946FFF726FB20460830C4B21649B5
:102CC0004888FDF7A3FC05461249FDF7C3FB0090B9
:102CD0000E49081904226946FFF714FB2046083004
:102CE000C4B20D222046611CCCB208490A540A2203
:102CF0002046611CCCB205490A5400222046611CC2
:102D0000CCB202490A5400F09BF83EBD810000207D
:102D1000020000200000C8426800002010B53020EA
:102D20001C49087048700D2088700A20C870412026
:102D30000871542048712B2088714E20C87153208F
:102D4000087243204872532088725420C8723D2074
:102D50000873302048732C2088733620C8733020C5
:102D600008742C204874302088742C20C8743020BB
:102D700008752C204875302088752C20C8753120A6
:102D800008760D2048760A2088760020C87600F064
:102D900057F810BD8100002010B5012A05D1036845
:102DA00001248C402343036004E0036801248C4029
:102DB000A343036010BD000006488078002807D0B8
:102DC00072B605480078042108430349087062B6CA
:102DD000704700000D0000200C00002006484079DC
:102DE000002807D072B6054800782021084303491F
:102DF000087062B6704700000D0000200C00002033
:102E0000024690680840002801D001207047002049
:102E1000FCE702460020106008784B7818438B7856
:102E20001843CB781843402318431060002090606B
:102E300070470246D1600020704741607047000033
:102E400010B5FF203130034908600121014801F02D
:102E500090FC10BD0001004008B50020FEF7F0FE18
:102E6000002000F027FA062000F04AFA0021684608
:102E700001704170817000F021F80121032000F001
:102E800053F808BDAB200A490870FF20F530488090
:102E9000FF202D308880FF20A530C880FA200881CF
:102EA000C820488100200873BA204873704700008A
:102EB0006800002010B5C046C04610BD70B504467D
:102EC00000252078030001F0F3FC0504050C101820
:102ED0001C0018E0032000F05DFA032000F024FA43
:102EE00011E0032000F0FAF90DE00321084600F09C
:102EF0005FFA032000F028FA05E0072000F0BCF993
:102F000001E0042500BF00BF2078012100F00CF88B
:102F1000207800F029FA607800F086F9A07800F0B7
:102F200097F9284670BD0000F8B505460C46002705
:102F300001F0B2FC002C01D0012000E0002004468A
:102F40005148066A2B0001F0B3FC050417394D7295
:102F500098004D48006840084000E107C90F084349
:102F60004949086000BF002C05D04748C0680005EB
:102F7000C00F0028F7D082E04348006A012109070A
:102F800088434018404908624048C068032108430C
:102F90003E49C8603C480068022188436100022223
:102FA000114008433849086000BF002C05D036485E
:102FB00000694006C00F0028F7D060E03248006882
:102FC00004218843A1000422114008432E490860CF
:102FD00000BF002C05D02C484069C004C00F002859
:102FE000F7D04CE02848006A0121090788434018BF
:102FF0002549086225484038C068032189030843F1
:1030000022494039C8602048006808218843E1000F
:103010000822114008431C49086000BF002C05D05D
:10302000194880694006C00F0028F7D027E01648ED
:10303000006A0121090488434018134908621448B2
:10304000006840084000401C11490860142001F04D
:103050008BFC0D480068102188432101102211408B
:1030600008430949086000BF002C05D00648C06B22
:103070004003C00F0028F7D001E0042700BF00BFC5
:10308000014806623846F8BD00200040C00D0240ED
:103090000024004030B589B000241422564904A809
:1030A000FDF772F854481430006803900020009037
:1030B0000190029051480188684601814F4841883B
:1030C0006846C1804D488188684681804B48C188E8
:1030D0006846418049482030018868460180484858
:1030E00000680006450F2B0001F0E2FB05042E30BE
:1030F0003E4178004248C0684005400D6946098954
:10310000884201D1089C1EE03D48C0684005400D42
:103110006946C988884201D1079C14E03848C068D4
:103120004005400D69468988884201D1069C0AE025
:103130003348C0684005400D69464988884201D13E
:10314000059C00E0049C4BE02E4C49E0684600885A
:103150002B4949698905890D884202D16846C4898D
:1031600001E0684684893BE00124E40338E0244818
:10317000C06B8007800F032829D168460089204949
:10318000C9684905490D884201D1089C20E068467C
:10319000C0881B49C9684905490D884201D1079C6F
:1031A00016E0684680881649C9684905490D884275
:1031B00001D1069C0CE0684640881149C968490560
:1031C000490D884201D1059C02E0049C00E00D4CB1
:1031D0000B48C06BC005000F444301E0002400BF52
:1031E00000BF074800684005410F2046C84004461C
:1031F000204609B030BD0000EC4B0000000C100070
:10320000002000400048E80110B50024FFF742FF0D
:10321000044604480068C004810F2046C8400446A4
:10322000204610BD0020004010B5044601F034FBDC
:10323000064800680721090288432102072212027A
:103240001140084301490860002010BD00200040E3
:1032500010B5044601F020FB064800680321C902AE
:103260008843E1020322D202114008430149086069
:10327000002010BD0020004010B501460020064A85
:10328000D26B0723DB039A43CB030724E4032340D9
:103290001A43014BDA6310BD0020004070B50446AC
:1032A0000D462A4621460248FFF776FD002070BDF4
:1032B0002020004001464A00064BD21812885005D3
:1032C000400D054AD268D20AD2020243024BDA60AC
:1032D00000207047000C10000020004010B501468F
:1032E0000020064A526903239B029A438B0203245F
:1032F000A40223401A43014B5A6110BD0020004034
:1033000010B5044601F0C8FA064840680721490292
:103310008843610207225202114008430149486074
:10332000002010BD0020004010B501460020054AD5
:10333000126930239A430B01302423401A43014B76
:103340001A6110BD0020004010B501460020054A5A
:10335000926930239A430B01302423401A43014BD6
:103360009A6110BD0020004070B504460025264635
:1033700001F092FA06480068E02188437101E022DA
:10338000114008430249086000F02CF8284670BD3F
:103390000020004001460020044A12699208920071
:1033A0008B079B0F1A43014B1A61704700200040A6
:1033B00030B5024600200A4B9B690C24A3439400BD
:1033C0000C252C402343064CA36123469B699B0894
:1033D0009B008C07A40F2343014CA36130BD000068
:1033E0000020004010B5FFF755FE0149086010BDF0
:1033F0000800002010B50D4949888805800D0C494A
:103400004969890A89020143094A516107492039FA
:1034100009894805400D1146C968C90AC902014316
:10342000D160FFF7DFFF01F029FA10BD200C10007A
:1034300000200040704770477047000010B5002022
:1034400000F0BEFF012808D1002000F0AFFF0348C4
:103450000078802108430149087010BD0C0000204D
:10346000704770477047000010B57448FDF716F9B3
:103470007348C0887149098888421ADC71480088FD
:10348000402108436F490880084600880121C9028D
:1034900088436C49088008460088012189028843D6
:1034A00068490880084600881021884365490880DB
:1034B00088E06348808861490988884220DC604848
:1034C000C0885E49098888421ADD5E48008801216B
:1034D000C90208435B4908800846008840218843A8
:1034E00058490880084600880121890288435549C7
:1034F000088008460088102188435249088061E00E
:103500004F4840894D490988884220DA4C48008953
:103510004A49098888421ADB4A4800880121890201
:1035200008434849088008460088402188434549A7
:103530000880084600880121C90288434149088063
:1035400008460088102188433E4908803AE03C48FC
:1035500040893A49098888421ADB3A480088102194
:103560000843384908800846008840218843354987
:103570000880084600880121C90288433149088033
:10358000084600880121890288432E49088019E0F5
:103590002C480088402188432A4908800846008832
:1035A0000121C90288432749088008460088012173
:1035B00089028843234908800846008810218843EF
:1035C000204908801E4840881C490988884206DA3C
:1035D0001C480088042108431A49088005E019485E
:1035E0000088042188431749088016480088402134
:1035F0000840002805D11348008810210840002801
:1036000008D011480078012804D104210620FFF7D2
:1036100075F912E00B4800884021084000280CD1C1
:103620000848008810210840002806D10648007884
:10363000032802D10620FFF761F910BD0200002027
:1036400068000020040000201C00002010B50421A8
:103650004020FEF7D5FD002858D1FB480088401CCB
:1036600080B2F94908807D210901884202DD481CA9
:10367000F5490880F44800887D210901884244D139
:10368000F2480078012804D002283AD0042837D123
:1036900038E0F020EE4988700220EC4908700120E3
:1036A000EC490870EC4948880A21FCF72FFEC8B2A3
:1036B000EA490870E84948880A21FCF727FE0446D1
:1036C0000A21FCF723FEC8B2E4494870E249488861
:1036D0006421FCF71BFE04460A21FCF717FEC8B262
:1036E000DE498870DC4948887D21C900FCF70EFE60
:1036F00004460A21FCF70AFEC8B2D849C87004E0A3
:1037000000BF00BFFEF7F0FE00BF2DE1CE480088ED
:1037100014287DDDCC4800887D210901884277DAB4
:10372000CA480078012804D0022803D0042870D1A8
:1037300003E115E1F020C6498870C6480078401CB6
:10374000C449087008460078062801DD0120087089
:10375000C0480078030001F0ABF806ED0432639135
:10376000BFEDBD4948880A21FCF7D0FDC8B2BB496E
:103770000870B94948880A21FCF7C8FD04460A21A7
:10378000FCF7C4FDC8B2B5494870B3494888642104
:10379000FCF7BCFD04460A21FCF7B8FDC8B2AF49EE
:1037A0008870AD4948887D21C900FCF7AFFD04460B
:1037B0000A21FCF7ABFDC8B2A849C870BBE0A64916
:1037C00088880A21FCF7A2FDC8B2A4490870A24962
:1037D00088880A21FCF79AFD04460A21FCF796FD29
:1037E000C8B29E4948709C4988886421FCF78EFDC8
:1037F00004460A21FCF78AFDC8B2984988709649A8
:1038000088887D21C900FCF781FD04460A2101E07A
:10381000A7E0A1E0FCF77AFDC8B29049C8708AE041
:103820008D49C8880A21FCF771FDC8B28B49087020
:103830008949C8880A21FCF769FD04460A21FCF77A
:1038400065FDC8B2854948708349C8886421FCF782
:103850005DFD04460A21FCF759FDC8B27F49887016
:103860007D49C8887D21C900FCF750FD04460A2126
:10387000FCF74CFDC8B27949C8705CE0764908890C
:103880000A21FCF743FDC8B27449087072490889DF
:103890000A21FCF73BFD04460A21FCF737FDC8B2BC
:1038A0006E4948706C4908896421FCF72FFD044675
:1038B0000A21FCF72BFDC8B268498870664908895F
:1038C0007D21C900FCF722FD04460A21FCF71EFDFC
:1038D000C8B26249C8702EE05F4948890A21FCF7E6
:1038E00015FDC8B25D4908705B4948890A21FCF79B
:1038F0000DFD04460A21FCF709FDC8B2574948707E
:10390000554948896421FCF701FD04460A21FCF76A
:10391000FDFCC8B2514988704F4948897D21C900D2
:10392000FCF7F4FC04460A21FCF7F0FCC8B24B4952
:10393000C87000E000BF00BF00BFF020444988709D
:1039400047480078401C464908700846007803281C
:1039500001DD0020087003E001203C49087000BF31
:1039600000BF00203849088005214020FEF748FCB0
:10397000002814D13B480088401C80B23949088097
:103980007D210901884202DD481C364908803548FE
:1039900000887D21090188427BD100BF79E0314850
:1039A0000088142872DD2F4800887D210901884293
:1039B0006CDA26480078012804D0022803D00428B5
:1039C0005FD101E061E060E0F0202149887021488A
:1039D000007806280BD12048007B002803D1012065
:1039E0001D4908734CE000201B49087348E01C483F
:1039F0000078002806D001280FD0022818D003280C
:103A00003DD131E015480078401CC0B21349087020
:103A1000092801DD0020087031E010484078401C82
:103A2000C0B20E494870092801DD0020487026E028
:103A30000A488078401CC0B208498870092801DD16
:103A4000002088701BE021E0200000202A000020D8
:103A5000760000202B0000206800002018000020C5
:103A60002E00002022000020BE48C078401CC0B2BA
:103A7000BC49C870092801DD0020C87000BF00BF24
:103A800003E00120B849087000BF00BF0020B7491B
:103A9000088006214020FEF7B3FB002814D1B4486B
:103AA0000088401C80B2B24908807D21090188420B
:103AB00002DD481CAE490880AD4800887D2109011F
:103AC000884276D100BF74E0A948008814286DDDD3
:103AD000A74800887D210901884267DAA24800785A
:103AE000012804D0022803D004285AD101E05CE068
:103AF0005BE0F0209F4988709F48007806280BD132
:103B00009E48007B002803D101209C49087347E0B0
:103B100000209A49087343E099480078002806D0AD
:103B2000012812D002281ED0032838D129E08D4860
:103B30000078002805D08B480078401E894908701D
:103B400002E009208749087029E08648407800286B
:103B500005D084484078401E8249487002E0092020
:103B6000804948701BE07F488078002805D07D4858
:103B70008078401E7B49887002E00920794988706E
:103B80000DE07848C078002805D07648C078401EFF
:103B90007449C87002E009207249C87000BF00BFB4
:103BA00003E001207049087000BF00BF0020704989
:103BB000088007214020FEF723FB002826D171480A
:103BC0000088401C80B26F4908807D21090188422D
:103BD00002DD481C6B4908806A4800887D21090184
:103BE000884212D160480078012804D0022806D00B
:103BF000042806D104E00420FEF72EFD05E004E0D1
:103C000003E001205849087000BFAAE05D48008821
:103C100014286FDD5B4800887D210901884269DA3C
:103C200051480078012804D002280BD0042877D10D
:103C300012E055480078401C5349087004204D4953
:103C4000C8718AE0F0204B4988700420464908700A
:103C500000204B49087080E0F0204649887002201F
:103C60004149087044480078030000F021FE066FC7
:103C700004192E445A6F3B48C0787D21C90048433F
:103C800038498978642251434118364840780A22DD
:103C9000504308183349097840183849488056E09D
:103CA0003048C0787D21C90048432E498978642274
:103CB000514341182B4840780A225043081829499B
:103CC000097840182D49888041E02648C0787D2138
:103CD000C900484323498978642251434118214847
:103CE00040780A22504308181E4909784018234991
:103CF000C8802CE032E01B48C0787D21C9004843D1
:103D000018498978642251434118164840780A229C
:103D1000504308181349097840181849088116E0DB
:103D200017E01048C0787D21C90048430D498978C3
:103D30006422514341180B4840780A225043081826
:103D40000849097840180D49488100E000BF00BFCC
:103D500003E001200449087000BF00BF00200949AA
:103D6000088010BD180000202A000020220000203A
:103D700024000020760000202B0000206800002096
:103D80002E000020260000206100002010B5F84819
:103D9000807880210840002807D0F54880784006C8
:103DA000400EF3498870802466E0F1488078402115
:103DB0000840002807D0EE488078BF210840EC4931
:103DC0008870402458E0EA48807820210840002884
:103DD00007D0E7488078DF210840E5498870202433
:103DE0004AE0E348807810210840002807D0E048E6
:103DF0008078EF210840DE49887010243CE0DC48E0
:103E0000807808210840002807D0D9488078F72119
:103E10000840D749887008242EE0D54880780421CE
:103E20000840002807D0D2488078FB210840D049BC
:103E30008870042420E0CE488078022108400028C1
:103E400007D0CB488078FD210840C94988700224FA
:103E500012E0C7488078C007C00F002807D0C448C8
:103E60008078FE210840C2498870012404E0C048DF
:103E700084780020BE498870BE480078030000F0B6
:103E800017FD05FB04ADC557FA00202C1DD0402CB2
:103E900032D0802C49D1B8480078002802D00128BF
:103EA00010D105E0FEF73AFF0620B44908710AE098
:103EB000B3A1B748FCF7DAF9FEF7C2FF0620AF4915
:103EC000087100E000BF00BF30E0B2480078401C3D
:103ED000B0490870084600780A2808DB0020A64987
:103EE0000870AC4908700220FEF7B6FB03E08021A1
:103EF0000320FEF703FD19E00020A64908709F4942
:103F000008719D480078401C9B490870084600785D
:103F1000022805D1FEF7A0FB00209749087003E0B6
:103F200080210320FEF7EAFC00E000BF00BF6EE145
:103F3000202C20D0402C35D0802C4CD18E480078BD
:103F4000002802D0012813D108E0934801887B2083
:103F5000FEF7DEFD0620894908710AE08FA18C4832
:103F6000FCF784F9FEF76CFF06208449087100E035
:103F700000BF00BF30E087480078401C85490870CA
:103F8000084600780A2808DB00207B490870814930
:103F900008700220FEF760FB03E080210320FEF79B
:103FA000ADFC19E000207B49087074490871724823
:103FB0000078401C7049087008460078022805D136
:103FC000FEF74AFB00206C49087003E080210320C3
:103FD000FEF794FC00E000BF00BF18E1012C0ED0FA
:103FE000042C05D0802C0ED10020634908700BE012
:103FF0006FA16748FCF73AF9FEF722FF04E00320BF
:10400000FEF72AFB00E000BF00BF00E1202C39D002
:10401000402C1BD0802C47D157480078002802D074
:10402000012810D105E0FEF779FE062053490871FA
:104030000AE05948018862480078FEF769FD0620C9
:104040004E49087100E000BF00BF2EE0002051493A
:1040500008704A49087148480078401C4649087071
:1040600008460078022808D10020FEF7F5FA002063
:104070004149087005E0C9E019E080210320FEF7FE
:104080003DFC12E043480078401C42490870084655
:1040900000780A2803DB0220FEF7DEFA03E0802125
:1040A0000320FEF72BFC00E000BF00BFAFE0102CA8
:1040B00020D006DC022C59D0042C3DD0082C56D13F
:1040C00041E0202C24D0402C0BD0802C4FD133A1A8
:1040D0002F48FCF7CBF8FEF7B3FE062027490871FE
:1040E00092E000202B4908702449087107203549C7
:1040F000487089E00020324908703349087033491C
:1041000008700220FEF7A8FA00202E4948707BE0D4
:1041100020480078401C1F490870084600780A288B
:1041200005DB002008700220FEF796FA03E08021EC
:104130000320FEF7E3FB67E01DA11548FCF796F8A6
:10414000FEF77EFE60E021480078401C1F490870A1
:1041500000201C4948701D4800780A2838DB0020E0
:104160001A4908700220FEF777FA34E034E04AE09A
:104170000D00002060000020650000207600002077
:1041800030300D0A41542B43434C4B0D0A000000C4
:1041900081000020620000200400002030300D0A61
:1041A00041542B4E534556454E540D0A0000000015
:1041B00030300D0A41542B4E534A4F494E0D0A00E0
:1041C0000600002050000020630000206400002052
:1041D0000320FEF741FA17E00F480078401C0E4913
:1041E000087000200D4948700B4800780A2806DB4B
:1041F0000020094908700220FEF72EFA02E0032091
:10420000FEF72AFA00E000BF00BF00E000BF00BFD9
:10421000FEF7D2FD10BD000063000020500000201A
:1042200070B5002400BF0EE02C48005D4F2808D177
:104230002A49601C085C4B2803D140210320FEF76B
:104240005DFB601CC4B2254860300079A042EBDC05
:1042500000243BE02148005D2B2835D11F49601C1C
:10426000085C4E2830D1A01C085C53282CD1E01CDF
:10427000085C532828D1201D085C542824D1601DD7
:10428000085C412820D1A01D085C54281CD1E01DE9
:10429000085C452818D120460930085C3038C5B282
:1042A00020460B30085C3038C6B2052E0CD1022DEA
:1042B00004D110210320FEF721FB05E0032D03D1DB
:1042C00008210320FEF71AFB601CC4B203486030CB
:1042D0000079A042BEDCFCF7CDFB70BDE5000020FC
:1042E00070B500252B480478002C51D0F0202040D8
:1042F000002805D020112849085C001DC5B201E046
:104300002548055D2548445D72B622480078204066
:104310002049087062B6002D01D000F09BFA2B00F6
:1043200000F0C6FA093433322F2C24211E06340043
:10433000FEF7CAFBFFF78AF91948807900280ED0EA
:1043400017484079401CC1B215484171142906DD57
:1043500000214171817180210420FEF7CFFA16E01F
:1043600000F0F2F813E0FEF783F910E0FFF77CF8B5
:104370000C48FCF7ABFB0C49087008E0FFF750FF56
:1043800005E0FFF703FD02E001E000E000BF00BF31
:1043900070BD00000C0000200C4C00001C4C000004
:1043A00045010020020000202F00002001460020CF
:1043B00001228A40D243014B5A61704700580040A5
:1043C00001460020034B1A691346CB40D807C00FA3
:1043D000704700000058004001460020044A12685F
:1043E000120C12048BB21A43014B1A607047000082
:1043F0000058004001460020044A5268120C120482
:104400008BB21A43014B5A607047000000580040BD
:1044100000200449C96849084900491C014AD16083
:10442000704700000058004000200449C96801227C
:10443000920291438918014AD160704700580040A8
:1044400010B501460020284AD26803231B039A4373
:104450000B781B030324240323401A43224BDA6006
:104460001A46D2685B159A434B785B0201246402BA
:1044700023401A431C4BDA601A46D2689B159A43B4
:104480008B781B02641023401A43174BDA601A46DC
:10449000D26870239A43CB781B01702423401A43BF
:1044A000114BDA601A46D26808239A430B79DB0075
:1044B000082423401A430C4BDA601A46D2680423BE
:1044C0009A434B799B00042423401A43064BDA603D
:1044D0001A46D26802239A438B795B000224234058
:1044E0001A43014BDA6010BD005800407CB507212B
:1044F000684600F029FA01210B20FEF7CFFE0021CB
:104500006846017041710621C1700121817100214D
:10451000017181704170FFF793FF0A4C2046FFF74D
:104520005BFF25462846FFF765FF0020FFF73EFFAB
:10453000FFF77AFF012203210520FDF76DFAFFF74F
:1045400067FF7CBD88FE000010B5002447E02548C9
:10455000005D002841D02348005D401EC0B22149C3
:104560000855002839D1230000F0A2F90B07080EE6
:104570001314191A212D2E2F35002DE00220194970
:104580004870FCF723FA27E040210620FEF7B6F931
:1045900022E021E020210320FEF7B0F91CE01BE01F
:1045A0000120FEF759F8012000F05CF914E00E48F4
:1045B0000078032803DB04210320FEF79FF9002085
:1045C0000949087008E007E006E07820054988728C
:1045D000FEF7F0F900E000BF00BF601CC4B20B2C76
:1045E000B5DB10BD760000206100002070470000A0
:1045F00010B50021204800F0C6F8002814D0002192
:104600001D4800F097F801211C488171002141717B
:10461000194800F00FF919490A790979491CCBB2F8
:1046200016490B71603988540121134800F0ABF82A
:10463000002820D00121104800F07CF810480078B4
:10464000642805DC0F480E490978405C002807D132
:1046500000200B4908700121074800F076F80AE0B5
:10466000074802780078401C054B18700548815CAB
:10467000014800F0E3F810BD0001004045010020B2
:10468000000000208100002000B587B0062105A8A9
:1046900000F05AF9102101A800F056F901211C2060
:1046A000FEF7FCFD00216846017505AA02210020E5
:1046B000FDF7B2FD012202210020FDF7F5FD0121E9
:1046C0006846017505AA03210020FDF7A5FD01221A
:1046D00003210020FDF7E8FD01210846FEF7DEFD7D
:1046E0004021684601710021C180042141714B21A4
:1046F000C9010491012149020181FEF785FD039062
:1047000001A90B4800F04CF80021094800F012F80C
:104710000121074800F00EF80021054800F029F8B3
:10472000012203210720FDF777F907B000BD000043
:104730000001004070B504460D460022294620467F
:104740001430FEF729FB002070BD70B504460D46FD
:1047500000222946201DFEF71FFB002070BD70B50A
:1047600004460D4601222946201DFEF715FB0020B8
:1047700070BD70B504460D4601222946201DFEF786
:104780000BFB002070BD70B504460D46002629467F
:1047900020461030FDF71FFD0646304670BD000074
:1047A000F0B585B005460C460127214903C904919F
:1047B000039000200290002C02D1042005B0F0BD2F
:1047C00000206860608861780843A18808432178E8
:1047D000084368602078402802D02078C02824D17F
:1047E000A088C117C90D09184912890003AA515A96
:1047F0008EB2E168B1400846FBF708FF0190A0685F
:10480000FBF704FF00900199FBF724FE02903F2183
:104810000906029800F02CF90190FBF7D5FC80B254
:10482000A86104212846FFF79AFF00273846C5E70C
:10483000044C000001460868C0B270470246106888
:10484000000A0002CBB21843106000207047704786
:10485000704770471E2002490860E12008607047D9
:10486000800F004010B504460348047080210620E4
:10487000FEF744F810BD00001C0000200549086A3E
:10488000096A0122120791438918024A11621146EE
:1048900008627047002000400248034988600348CE
:1048A000886070475A5A000000200040A5A500000B
:1048B00030B47446641E2578641CAB4204D3635D37
:1048C0005B00E31830BC18471D46F8E710B5002818
:1048D00019DB1A4A03231B02D21883089B00D25803
:1048E0008307DC0EFF23A3409A438B071B0E84072C
:1048F000E40EA3401A43114B032424021B1984081D
:10490000A4001A5118E00E4A03071B0F083B9B082E
:104910009B00D2588307DC0EFF23A3409A438B07EA
:104920001B0E8407E40EA3401A43054B0407240F13
:10493000083CA408A4001A5110BD000000E100E0EA
:104940001CED00E000BF704710B50A460146002983
:1049500000D110BD02E000230B70491C1346521E0B
:10496000002BF8D100BFF4E770B505461148124995
:10497000486100208861052008610FE000200E4991
:1049800088610E490E480068FBF7B6FC0121090654
:104990000C1A00BF08488069A042FBD828466D1E4B
:1049A0000028EBD104480069400840000249086132
:1049B00070BD0000FFFFFF0000E000E0A0860100E6
:1049C0000800002070B505461148124948610020D2
:1049D00088610520086110E000200E4988617D2172
:1049E000C9000D480068FBF787FC012109060C1A75
:1049F00000BF08488069A042FBD828466D1E0028E9
:104A0000EAD104480069400840000249086170BDCD
:104A1000FFFFFF0000E000E008000020FEF71CFAA6
:104A2000FDF780F9FDF7F3FCFDF7F8FFFDF728FD32
:104A3000FFF75CFDFFF728FEFDF796FCFDF77AFF18
:104A4000FBF75EFEFF20F530FFF7BCFF02200649B2
:104A500048708871782088723C200449087001E011
:104A6000FFF73EFCFCE7000076000020500000202D
:104A700070B501250400ED074C4020D4441A01D242
:104A8000001B0919C60D4B00F2B2FF2A29D01B0EDC
:104A90002CD000020C02D31A2C43DC402843051909
:104AA00010D2280A02D3401C6D0611D0761EF605DE
:104AB0008019FF2A00DA70BDC00DC00570BD6940C5
:104AC00000F022F801200543C541521C761CE8E79E
:104AD00064089C40C90161408900E7D10124A043DA
:104AE000E4E71B0E440200D0034870BD002AFCD14D
:104AF000C00FC00770BD00BF0000C07F70B50125AA
:104B00000400ED074C4022D4441A02D26C40001B32
:104B10000919C60D4B00F2B2FF2A4BD01B0E50D024
:104B200000020C02D31A2C43DC40A843051B05D518
:104B3000AD0019D36D08761E521E37D0F605280A2F
:104B400001D2801970BD70416D0603D070BD6940FF
:104B5000FFF794FF9C4009026140490001D0401ECC
:104B600070BD0124A04370BD6D081DD001202B0C29
:104B700001D12D0410302B0E01D12D0208302B0F46
:104B800001D12D01001DAB0F01D1AD00801CEB0F39
:104B900001D16D00401C6D00361A121A680AF50525
:104BA0004019012A02DB70BD002070BDC036300AFA
:104BB000C00770BD1B0E440201D1FF2B00D102487B
:104BC00070BD002AF0D070BD0000C07F2000000042
:104BD000170000001B00000050460000E022020009
:104BE00018000000F0000000E803000000093D008C
:104BF00000127A000024F4004086510100366E0154
:104C00000080009604000000030000000001020282
:104C1000030303030404040404040404FFFEFDFB73
:104C2000F7EFDFBF7F8182838485868788898B8CBD
:104C30008D8E8F919293959697999A9C9D9FA0A205
:104C4000A3A5A7A8AAACAEB0B2B3B5B7B9BCBEC055
:104C5000C2C5C7C9CCCED1D4D7D9DCDFE2E6E9ECF6
:104C6000F0F3F7FAFE000000884C0000000000207E
:104C700068000000C8000000F04C00006800002040
:104C800048050000E40000000000000000000000F3
:104C900000366E010000000000000000000000006F
:104CA0000000000000000000000000000000000004
:104CB00000000101010000003F065B4F666D7D07AB
:104CC0007F6F000103070F1F3F7FFF000000000000
:104CD00000000000000000000000000000000000D4
:104CE00000FE0000000000000100000000000000C5
:04000005000000C136
:00000001FF
