:020000040000FA
:1000000078050020150200002F0200008522000064
:1000100000000000000000000000000000000000E0
:10002000000000000000000000000000330200009B
:1000300000000000000000003502000065310000F3
:10004000452E0000472E0000492E00004B2E0000D8
:10005000FD010000ED360000514100005541000057
:100060007124000073240000F72E0000F92E000018
:10007000F5220000F7220000E5360000E736000018
:10008000E9360000E92300001137000013370000B3
:1000900015370000412E000093430000F52E0000AC
:1000A0002D060000432E00008F4300009143000006
:1000B00075240000E7230000FF010000FB010000A1
:1000C00000F030F800F050F8103A02D378C878C148
:1000D000FAD8520701D330C830C101D504680C608A
:1000E000704700000023002400250026103A01D3A9
:1000F00078C1FBD8520700D330C100D50B607047E0
:10010000F8B505460E461746284601F023FD0024A3
:1001100004E0315D281901F09FFD641CBC42F8DB4E
:10012000F8BD00000CA030C8083824182D18A246CD
:10013000671EAB4654465D46AC4201D100F014F850
:100140007E460F3E0FCCB6460126334200D0FB1A46
:10015000A246AB46334318474446000064460000BD
:100160001FB51FBD10B510BD00F02DFA1146FFF7E9
:10017000F7FF00F053FA00F045FA03B4FFF7F2FF7F
:1001800003BC04F079F9000070B505460C4616462C
:1001900002E00FCC0FC5103E102EFAD2082E02D36B
:1001A00003CC03C5083E042E07D301CC01C5361F7E
:1001B00003E021782970641C6D1C761EF9D270BD95
:1001C00070477047704770470102C21504D0012381
:1001D000DB071943002A0ADB9E239A1A02D4084639
:1001E000D0407047FF2241001206914201D9002001
:1001F0007047C017C04370477047704770477047DB
:1002000010B50346002002E01C5C0C54401C9042D8
:10021000FADB10BD0C480D4A002100A1814200D933
:1002200002440B4802600B4880470B480047FEE73A
:10023000FEE7FEE7FEE7FEE7FEE7000007480849A5
:10024000084A094B70470000000000200000000031
:1002500008ED00E0A5360000C10000007801002094
:1002600078050020780300207803002001E004C016
:10027000091F0429FBD28B0701D50280801CC90706
:1002800000D00270704700290BD0C30702D0027063
:10029000401C491E022904D3830702D50280801C1A
:1002A000891EE3E70022EEE70022DFE700220309D0
:1002B0008B422CD3030A8B4211D300239C464EE081
:1002C00003460B433CD4002243088B4231D303093D
:1002D0008B421CD3030A8B4201D394463FE0C309EF
:1002E0008B4201D3CB01C01A524183098B4201D307
:1002F0008B01C01A524143098B4201D34B01C01AF2
:10030000524103098B4201D30B01C01A5241C30869
:100310008B4201D3CB00C01A524183088B4201D3D8
:100320008B00C01A524143088B4201D34B00C01AC4
:100330005241411A00D201465241104670475DE0D9
:10034000CA0F00D04942031000D34042534000225C
:100350009C4603098B422DD3030A8B4212D3FC2205
:10036000890112BA030A8B420CD3890192118B4284
:1003700008D3890192118B4204D389013AD092119A
:1003800000E08909C3098B4201D3CB01C01A524155
:1003900083098B4201D38B01C01A524143098B421E
:1003A00001D34B01C01A524103098B4201D30B0107
:1003B000C01A5241C3088B4201D3CB00C01A52412C
:1003C00083088B4201D38B00C01A5241D9D2430813
:1003D0008B4201D34B00C01A5241411A00D2014650
:1003E000634652415B10104601D34042002B00D5BA
:1003F0004942704763465B1000D3404201B500207C
:10040000C046C04602BD0000F0B5FF252D04C60958
:10041000C209FF2704462E400137CB093E4348401E
:100420002A402B400746002A6BD0002B69D0AA42F5
:1004300067D0AB4265D0002800DA32460125ED05D1
:1004400029432C4309022002090AD21A4B0C7F24AB
:10045000E31A434C000A7C44E35C7D242404121913
:1004600014145B00A218884201D3521C00E0400023
:1004700049420C465C4324115C43DB016415E318DC
:10048000040A5C43C502200D0C4644436419250A46
:100490005D432303EC0C0D46654300030019EB1884
:1004A0004C42A34201D35B18401CD4052018002BFA
:1004B00007D05B00C91804D3401C002901D14008B3
:1004C00040003F2189048A4209D3002A08DC110632
:1004D000090F04D0032149074018C00FC007F0BD21
:1004E00001224100120689187F2252069142F6D25B
:1004F00005214907C84201D59010F0BDFF20C00575
:10050000F0BD002F00DA32461648AA4207D2AB42AD
:1005100005D21902090E17D0F80FC007F0BDFF254C
:1005200063002D06AB42F9D84900A942F6D8AB4288
:1005300001D1A942F2D0A94201D1002101E061001C
:100540004908D0050843F0BD1102090EFBD0FF2079
:100550000243D005F0BD0A460146104654E70000AC
:10056000FF4200000000C07F1F22030C02D10F22B7
:1005700000041CD0030E01D10002083A030F01D180
:100580000001121F830F01D18000921E002801DBA1
:100590004000521ED20551180212511819229040E3
:1005A00004D3491C002801D1490849000846704776
:1005B000C10FC90700D04042012292071143D3E77F
:1005C00001218907D0E7754600F024F8AE46050002
:1005D00069465346C008C000854618B020B5FFF7ED
:1005E0002DFE60BC00274908B6460026C0C5C0C520
:1005F000C0C5C0C5C0C5C0C5C0C5C0C5403D490017
:100600008D46704710B50446C046C0462046FFF7E9
:10061000B4FD10BD004870471801002010B503F06C
:1006200041F803F095FF002010BD000010B5102028
:1006300000F068F90A48007B002804D100F076F940
:100640000849088004E0012000F070F9054908809D
:100650000421062002F0DEFB00F0ACF910BD000022
:10066000640000201200002070B505461248007B8F
:1006700000280CD111490988114A514308461149F3
:10068000FFF71EFE0646FFF793FF04460FE00B49F7
:1006900009882F221201891AFF22F5325143084698
:1006A0000949FFF70DFE0646FFF782FF0446204684
:1006B000FFF78AFD288070BD640000201200002032
:1006C0002B020000FF0F0000E60900001FB50C21FF
:1006D00001A803F0D3FE0021402001F0B7FD012165
:1006E000402001F0B3FD0121102002F02FFF00F0A7
:1006F000A1F901216846017100214171032109031B
:10070000C180012149020181002141810121890328
:1007100081810021817301A800F010F90021684651
:10072000817041700221017000F04AF90821002017
:1007300000F00CF80921012000F008F800F0EAF8B8
:1007400001220321182001F035F91FBD10B5024622
:10075000130003F047FE100913202D3A47545E6B37
:100760007885929FA9B6C3D06548006840094001CA
:10077000CB06DB0E1843624B1860BEE06048006891
:100780001F235B0198434B011F246401234018433E
:100790005B4B1860B1E05A4800681F239B029843E6
:1007A0008B021F24A40223401843554B1860A4E079
:1007B000534800681F23DB039843CB031F24E40343
:1007C000234018434E4B186097E04D4800681F23A4
:1007D0001B0598430B051F24240523401843484B51
:1007E00018608AE0464800681F235B0698434B0662
:1007F0001F24640623401843414B18607DE04048A5
:10080000406840094001CB06DB0E18433C4B586062
:1008100073E03B4840681F235B0198434B011F2452
:10082000640123401843364B586066E03448406802
:100830001F239B0298438B021F24A40223401843CA
:100840002F4B586059E02E4840681F23DB03984324
:10085000CB031F24E40323401843294B58604CE08A
:10086000274840681F231B0598430B051F242405B8
:1008700023401843224B58603FE0214840681F2323
:100880005B0698434B061F246406234018431C4B09
:10089000586032E01A48806840094001CB06DB0E00
:1008A0001843174B986028E0154880681F235B01A8
:1008B00098434B011F24640123401843104B986058
:1008C0001BE00F4880681F239B0298438B021F2464
:1008D000A402234018430A4B98600EE00848806841
:1008E0001F23DB039843CB031F24E4032340184357
:1008F000034B986001E0042010BD00BF0020FBE71F
:10090000402400400249496B8143014A51637047CA
:1009100080240040044840680121C90388434018EE
:100920000149486070470000002400400146024A27
:1009300088001058704700005024004010B504464D
:10094000002C01D1042010BD01201649486002206E
:1009500003F0A4FD6078A1880843E188084361881A
:100960000843218908430F49496808430D494860F5
:10097000084680680915884321788902012292027D
:10098000114008430749886008468068042188436D
:10099000A17A89000422114008430249886000209E
:1009A000D1E7000000240040012001494860704761
:1009B000C02400400020014948607047C024004026
:1009C0000146002902D00878102801DD0420704774
:1009D000174880680122D2039043154A9060104660
:1009E0008068D21490434A78D2020123DB021A4075
:1009F00010430F4A906010468068921590438A78A1
:100A00001202DB101A401043094A90600848403037
:100A100080680F22120590430A78521E12050F2398
:100A20001B051A401043024A403290600020CEE776
:100A30000024004010B5054800680121084303491F
:100A40000860022003F02AFD10BD000000240040D1
:100A5000002000BF04E00021064A1154411CC8B226
:100A60000449603109798142F5DC00220149603195
:100A70000A717047AF00002010B5002002F07CFA28
:100A8000002002F079FA0821402001F073FB0921CF
:100A9000402001F06FFB0A21402001F06BFB0B218D
:100AA000402001F067FB10BD10B5044620880628E1
:100AB00001DA002010BD2088062809DB2088F628EE
:100AC00006DA2188881D0C21FFF7FAFBC0B2F1E796
:100AD0002088F6280DDB2088FF21F531884208DACE
:100AE00021880846F6380D21FFF7EAFB1530C0B221
:100AF000E0E72820DEE7000010B5C64800780028AF
:100B000006D0012868D002287ED003287DD126E1B6
:100B10000C21402001F0A8FB0D21402001F02AFB10
:100B20000E21402001F026FB0F21402001F022FB86
:100B3000B948C088B9490988884204DC0A214020A4
:100B400001F092FB03E00A21402001F013FBB248C0
:100B50004089B2490988884204DB0B21402001F01A
:100B600083FB03E00B21402001F004FBAC4800783C
:100B7000142804DAAB49087802F0FEF928E0A84806
:100B8000007814280BDBA64800781C2807DCA44951
:100B900009781439A34A505C02F0EEF918E0A04835
:100BA00000781D2808D19F49087A02F0E5F908214C
:100BB000402001F059FB0BE09A49087A02F0DCF979
:100BC0000821402001F050FB0921402001F04CFB9E
:100BD000002002F0D1F90CE10C21402001F0CAFA0A
:100BE0000D21402001F040FB0E21402001F0C2FA0F
:100BF0000F21402001F0BEFA874880888749098884
:100C000088420DDC844801E059E0F1E0C088834966
:100C10000988884204DD0A21402001F025FB03E019
:100C20000A21402001F0A6FA7B4840897B490988C7
:100C300088420ADA7848008978490988884204DBC2
:100C40000B21402001F010FB03E00B21402001F0BC
:100C500091FA734800780A2804DA7249087802F099
:100C60008BF928E06E4800780A280BDB6C48007886
:100C7000122807DC6A4909780A396A4A505C02F08E
:100C80007BF918E066480078132808D16549087A8E
:100C900002F072F90821402001F0E6FA0BE0614908
:100CA000087A02F069F90821402001F0DDFA0921F3
:100CB000402001F0D9FA002002F05EF999E00C2101
:100CC000402001F057FA0D21402001F053FA0E2187
:100CD000402001F0C9FA0F21402001F04BFA5248A0
:100CE0000088401C5049088008460088642801DBC1
:100CF000002008804C480088322804DA0B2140206C
:100D000001F0B2FA03E00B21402001F033FA44482D
:100D10000078082806DA4349414A1278885C02F0D4
:100D20002BF918E03E480078092808D13D49087A97
:100D300002F022F90821402001F096FA0BE039492F
:100D4000087A02F019F90821402001F08DFA0921F2
:100D5000402001F089FA762002F00EF949E00C21DA
:100D6000402001F007FA0D21402001F003FA0E2186
:100D7000402001F0FFF90F21402001F075FA2848CA
:100D800000781E2804DA2749087802F0F5F828E0F0
:100D9000234800781E280BDB21480078262807DC32
:100DA0001F4909781E391F4A505C02F0E5F818E027
:100DB0001B480078272808D11A49087A02F0DCF885
:100DC0000821402001F050FA0BE01649087A02F0A1
:100DD000D3F80821402001F047FA0921402001F012
:100DE00043FA1249124A1278885C02F0C5F800E012
:100DF00000BF00BF07480078401C0649087008780B
:100E0000C117890F091889108900411A014A117008
:100E100010BD000029000020640000200000002018
:100E20002B00002036000020420000202C00002073
:100E30002700002070B5E6480078002806D0012879
:100E40007BD0022873D0032872D163E10C214020AB
:100E500001F00AFA0D21402001F08CF90E2140200A
:100E600001F088F90F21402001F084F9D948C088A9
:100E7000D9490988884204DC0A21402001F0F4F9AC
:100E800003E00A21402001F075F9D2484089D24997
:100E90000988884204DB0B21402001F0E5F903E0DA
:100EA0000B21402001F066F9CC480078142804DAC0
:100EB000CB49087802F060F828E0C8480078142888
:100EC0000BDBC64800781C2807DCC44909781439B4
:100ED000C34A505C02F050F818E0C04800781D2862
:100EE00008D1BF49087A02F047F80821402001F0F4
:100EF000BBF90BE0BA49087A02F03EF8082140201D
:100F000001F0B2F90921402001F0AEF9B2480088A1
:100F1000B44988420DDD491CAF480088FFF7D0F97D
:100F2000B1490C5C204602F027F805E005E08DE0B1
:100F30003DE1002002F020F83AE10C21402001F0D0
:100F400019F90D21402001F08FF90E21402001F008
:100F500011F90F21402001F00DF99E4880889E492B
:100F6000098888420ADC9B48C0889B4909888842D6
:100F700004DD0A21402001F077F903E00A21402036
:100F800001F0F8F8934840899349098888420ADAC1
:100F90009048008990490988884204DB0B21402051
:100FA00001F062F903E00B21402001F0E3F88B48E7
:100FB00000780A2804DA8A49087801F0DDFF28E081
:100FC000864800780A280BDB84480078122807DC62
:100FD000824909780A39824A505C01F0CDFF18E055
:100FE0007E480078132808D17D49087A01F0C4FFB3
:100FF0000821402001F038F90BE07949087A01F026
:10100000BBFF0821402001F02FF90921402001F009
:101010002BF971480088632810DD64216E48008830
:10102000FFF74EF905460A21FFF74AF96E48405C82
:1010300080210843044601F09FFF06E06A490978D1
:1010400080221143084601F097FFB1E00C214020B7
:1010500001F090F80D21402001F08CF80E21402085
:1010600001F002F90F21402001F084F85F48008868
:10107000401C5E49088008460088642801DB002087
:1010800008805A480088322804DA0B21402001F0F9
:10109000EBF803E00B21402001F06CF84F4800789A
:1010A000082806DA4E494D4A1278885C01F064FF40
:1010B00018E04A480078092808D14949087A01F01F
:1010C0005BFF0821402001F0CFF80BE04449087A8B
:1010D00001F052FF0821402001F0C6F8092140200C
:1010E00001F0C2F83C48008809280EDD0A213A4880
:1010F0000088FFF7E5F805460A21FFF7E1F83A48CE
:10110000445C204601F038FF03E03749087801F0DD
:1011100033FF4DE00C21402001F02CF80D21402040
:1011200001F028F80E21402001F024F80F21402082
:1011300001F09AF8294800781E2804DA284908782E
:1011400001F01AFF28E0254800781E280BDB234811
:101150000078262807DC214909781E39204A505C8E
:1011600001F00AFF18E01D480078272808D11C4923
:10117000087A01F001FF0821402001F075F80BE02A
:101180001749087A01F0F8FE0821402001F06CF8B8
:101190000921402001F068F80A210F480088FFF774
:1011A0008FF81148445C204601F0E6FE00E000BFE5
:1011B00000BF07480078401C054908700878C1172F
:1011C000890F091889108900411A014A117070BDF0
:1011D0002900002064000020000000202B000020D7
:1011E00036000020E70300002C0000204000002013
:1011F00010B5D2480078002806D0012868D002280F
:101200007ED003287DD141E10C21402001F02CF853
:101210000D21402000F0AEFF0E21402000F0AAFF7B
:101220000F21402000F0A6FFC548C088C5490988A5
:10123000884204DC0A21402001F016F803E00A216C
:10124000402000F097FFBE484089BE490988884287
:1012500004DB0B21402001F007F803E00B214020C4
:1012600000F088FFB8480078142804DAB7490878F5
:1012700001F082FE28E0B448007814280BDBB24865
:1012800000781C2807DCB04909781439AF4A505C53
:1012900001F072FE18E0AC4800781D2808D1AB4977
:1012A000087A01F069FE0821402000F0DDFF0BE024
:1012B000A649087A01F060FE0821402000F0D4FF22
:1012C0000921402000F0D0FF002001F055FE24E16C
:1012D0000C21402000F04EFF0D21402000F0C4FF03
:1012E0000E21402000F046FF0F21402000F042FF79
:1012F000934880889349098888420DDC904801E032
:1013000059E009E1C0888F490988884204DD0A2133
:10131000402000F0A9FF03E00A21402000F02AFF4E
:10132000874840898749098888420ADA84480089C1
:1013300084490988884204DB0B21402000F094FF97
:1013400003E00B21402000F015FF7F4800780A28B9
:1013500004DA7E49087801F00FFE28E07A48007828
:101360000A280BDB78480078122807DC76490978D0
:101370000A39764A505C01F0FFFD18E072480078A7
:10138000132808D17149087A01F0F6FD08214020A0
:1013900000F06AFF0BE06D49087A01F0EDFD0821CD
:1013A000402000F061FF0921402000F05DFF002097
:1013B00001F0E2FDB1E00C21402000F0DBFE0D2148
:1013C000402000F0D7FE0E21402000F04DFF0F21FD
:1013D000402000F0CFFE5E480088401C5C49088039
:1013E00008460088642801DB0020088058480088EF
:1013F000322804DA0B21402000F036FF03E00B21F5
:10140000402000F0B7FE50480078082806DA4F491F
:101410004D4A1278885C01F0AFFD18E04A48007828
:10142000092808D14949087A01F0A6FD0821402081
:1014300000F01AFF0BE04549087A01F09DFD0821F4
:10144000402000F011FF0921402000F00DFF41482D
:101450000078401C3F49087008460078502801DB9E
:10146000002008703B48007828280BDA3448007BBD
:10147000002803D13E2001F07FFD06E0772001F037
:101480007BFD02E0002001F077FD46E00C214020CA
:1014900000F070FE0D21402000F06CFE0E21402077
:1014A00000F068FE0F21402000F0DEFE26480078A4
:1014B0001E2804DA2549087801F05EFD28E022485C
:1014C00000781E280BDB20480078262807DC1E4900
:1014D00009781E391D4A505C01F04EFD18E01A488B
:1014E0000078272808D11949087A01F045FD08211C
:1014F000402000F0B9FE0BE01449087A01F03CFDF1
:101500000821402000F0B0FE0921402000F0ACFE90
:10151000002001F031FD00E000BF00BF0748007867
:10152000401C064908700878C117890F09188910EE
:101530008900411A014A117010BD000029000020E5
:1015400064000020000000202B0000203600002056
:101550004A0000204800002010B5FB480078002811
:1015600006D001287ED002287DD003287CD18FE1CF
:101570000C21402000F078FE0D21402000F0FAFD03
:101580000E21402000F0F6FD0F21402000F0F2FD7A
:10159000EE48C088EE490988884204DC0A214020D0
:1015A00000F062FE03E00A21402000F0E3FDE7487E
:1015B0004089E7490988884204DB0B21402000F07C
:1015C00053FE03E00B21402000F0D4FDE1480078F9
:1015D000142804DAE049087801F0CEFC28E0DD4860
:1015E000007814280BDBDB4800781C2807DCD9497D
:1015F00009781439D84A505C01F0BEFC18E0D5488F
:1016000000781D2808D1D449087A01F0B5FC0821DA
:10161000402000F029FE0BE0CF49087A01F0ACFC35
:101620000821402000F020FE0921402000F01CFE8F
:10163000CA48007803281CD1C9480078401CC84912
:10164000087008460078502801DB00200870C44864
:101650000078282809DAC349C978C34A505C01F0E8
:101660008BFC0CE00CE0A2E08DE1002001F084FC9A
:1016700005E0BC49C978BC4A505C01F07DFC83E1BF
:101680000C21402000F076FD0D21402000F0ECFD03
:101690000E21402000F06EFD0F21402000F06AFD79
:1016A000AA488088AA49098888420ADCA748C088D5
:1016B000A7490988884204DD0A21402000F0D4FDB2
:1016C00003E00A21402000F055FDA0484089A049D0
:1016D000098888420ADA9D4800899D49098888421C
:1016E00004DB0B21402000F0BFFD03E00B21402074
:1016F00000F040FD974800780A2804DA96490878F7
:1017000001F03AFC28E0934800780A280BDB914866
:101710000078122807DC8F4909780A398E4A505C14
:1017200001F02AFC18E08B480078132808D18A4978
:10173000087A01F021FC0821402000F095FD0BE023
:101740008549087A01F018FC0821402000F08CFD42
:101750000921402000F088FD8048007802281CD133
:101760007F480078401C7E49087008460078502861
:1017700001DB002008707A480078282809DA7949C6
:101780008978794A515C80221143084601F0F4FBC4
:101790000CE0802001F0F0FB08E072498978724A81
:1017A000515C80221143084601F0E6FBECE00C217D
:1017B000402000F0DFFC0D21402000F0DBFC0E217A
:1017C000402000F051FD0F21402000F0D3FC67487D
:1017D0000088401C6549088008460088642801DBB1
:1017E0000020088061480088322804DA0B2140205C
:1017F00000F03AFD03E00B21402000F0BBFC55480F
:101800000078082806DA5449524A1278885C01F0B8
:10181000B3FB18E04F480078092808D14E49087AF0
:1018200001F0AAFB0821402000F01EFD0BE04A4910
:10183000087A01F0A1FB0821402000F015FD0921E4
:10184000402000F011FD45480078012819D1444896
:101850000078401C4249087008460078502801DB97
:10186000002008703E480078282806DA3D4949786B
:101870003D4A505C01F080FB09E0002001F07CFB58
:1018800005E038494978384A505C01F075FB7BE047
:101890000C21402000F06EFC0D21402000F06AFC7D
:1018A0000E21402000F066FC0F21402000F0DCFCFF
:1018B000284800781E2804DA2749087801F05CFBE4
:1018C00028E0244800781E280BDB224800782628D0
:1018D00007DC204909781E391F4A505C01F04CFB97
:1018E00018E01C480078272808D11B49087A01F025
:1018F00043FB0821402000F0B7FC0BE01649087AB2
:1019000001F03AFB0821402000F0AEFC0921402004
:1019100000F0AAFC1148007800282DD1104800786A
:10192000401C0F49087008460078502801DB002051
:1019300008700B48007828281ADA0A4909780A4AF8
:10194000505C01F019FB1DE029000020640000201C
:10195000000000202B000020360000202A0000207C
:1019600044000020140000202C000020460000202D
:10197000002001F001FB05E00B4909780B4A505C9F
:1019800001F0FAFA00E000BF00BF09480078401CEF
:10199000074908700878C117890F0918891089004C
:1019A000411A034A117010BD140000202C000020C1
:1019B0002900002070B504460E4615462046002832
:1019C00005DBC206D20E01219140144A116000BF0E
:1019D0003146204602F014FD012D0ED1204600288C
:1019E00009DB00BF00BFC206D20E012191400C4AA4
:1019F000116000BF00BF00BF0FE0204600280ADBD7
:101A0000C206D20E01219140054A80321160BFF317
:101A10004F8FBFF36F8F00BF00BF70BD80E200E04B
:101A200000E100E0F8B505460E4600243021684686
:101A3000017041700D2181700A21C17000BF06E064
:101A40006846015D084802F085FC601CC4B2042CA5
:101A5000F6DB002405E0295D034802F07BFC601CF6
:101A6000C4B2B442F7DBF8BD00010040F0B58BB062
:101A700005460E460024FF200A90002009902021F0
:101A800001A8FEF711FC284F012D0ED0022D0CD01D
:101A9000042D0AD0062D08D0082D06D00C2D04D018
:101AA0000420099009980BB0F0BD1F48006A01217D
:101AB00049028843710201225202114008431A4927
:101AC0000862002407E0A000184908586843A100F4
:101AD00001AA5050641C082CF5D30C2D01D1FF2015
:101AE000029000241CE0FF200A9011E00A98411E99
:101AF0000A9100280AD00E480B49C8620D48C862F6
:101B0000A00001A90858A100785001E00720CAE709
:101B1000A0003858A10001AA51588842E6D1641C9F
:101B2000082CE0D30998BEE70000024000470000FF
:101B30005A5A0000A5A5000003480449C862044899
:101B4000C8620020086370475A5A00000000024033
:101B5000A5A5000008B502460023FF2000902548F7
:101B6000824202D90423184608BDFF20009006E0F7
:101B70000098411E0091002801D10920F4E71E4879
:101B8000006AC006C00F0028F2D100F03BF8FF2029
:101B9000009012E00098411E009100280BD01748D9
:101BA0001549C8621648C8620846006A8008800065
:101BB000801C086201E00920D6E70F48006A800710
:101BC000800F0228E6D100201070FF20009006E070
:101BD0000098411E0091002801D10920C4E7064861
:101BE000006AC006C00F0028F2D1FFF7A5FF184613
:101BF000BAE70000FFFF0000000002405A5A000050
:101C0000A5A5000004480549C8620548C86200202F
:101C1000C0430863704700005A5A000000000240A9
:101C2000A5A5000010B501460020084A084BDA625D
:101C3000084ADA621A46126A0C239A438B000C2473
:101C400023401A43024B1A6210BD00005A5A00008A
:101C500000000240A5A5000018B502460B4600246E
:101C6000FF2000902448824202D90424204618BD57
:101C7000FF20009006E00098411E0091002801D14D
:101C80000920F4E71D48006AC006C00F0028F2D101
:101C9000FF20009012E00098411E009100280BD018
:101CA00017481649C8621748C8620846006A800883
:101CB0008000401C086201E00920D8E70F48006A54
:101CC0008007800F0128E6D1FFF79CFF1370FF20EB
:101CD000009006E00098411E0091002801D10920E3
:101CE000C5E70648006AC006C00F0028F2D1FFF71A
:101CF00023FF2046BBE70000FFFF0000000002407A
:101D00005A5A0000A5A500001CB501211C2001F0B5
:101D10001DFC012168460170417000218170C17075
:101D20000171012141716A460021084600F03CFA28
:101D30006A460121002000F037FA6A46022100209D
:101D400000F032FA6A460321002000F02DFA6A46BC
:101D50000421002000F028FA6A460521002000F046
:101D600023FA6A460621002000F01EFA6A4607217F
:101D7000002000F019FA6A460821002000F014FA49
:101D80006A460921002000F00FFA6A460A21002065
:101D900000F00AFA6A460B21002000F005FA6A46B4
:101DA0000C21002000F000FA6A460D21002000F00E
:101DB000FBF96A460E21002000F0F6F96A460F2171
:101DC000002000F0F1F90021084600F0D3F90121CC
:101DD000002000F0CFF90221002000F0CBF9032110
:101DE000002000F0C7F90421002000F0C3F905210C
:101DF000002000F0BFF90621002000F0BBF9072108
:101E0000002000F0B7F90821002000F0B3F9092103
:101E1000002000F0AFF90A21002000F0ABF90B21FF
:101E2000002000F0A7F90C21002000F0A3F90D21FB
:101E3000002000F09FF90E21002000F09BF90F21F7
:101E4000002000F097F96A460021402000F0ACF92C
:101E50006A460121402000F0A7F96A46022140208D
:101E600000F0A2F96A460321402000F09DF96A467D
:101E70000421402000F098F96A460621402000F035
:101E800093F96A460721402000F08EF96A4608213E
:101E9000402000F089F96A460921402000F084F9C9
:101EA0006A460A21402000F07FF96A460B21402053
:101EB00000F07AF96A460C21402000F075F96A4674
:101EC0000D21402000F070F96A460E21402000F0FC
:101ED0006BF96A460F21402000F066F9002140208E
:101EE00000F048F90121402000F044F9022140208F
:101EF00000F040F90321402000F03CF9042140208B
:101F000000F038F90521402000F034F90621402086
:101F100000F030F90721402000F02CF90821402082
:101F200000F028F90921402000F024F90A2140207E
:101F300000F020F90B21402000F01CF90C2140207A
:101F400000F018F90D21402000F014F90E21402076
:101F500000F010F90F21402000F00CF96A46002132
:101F6000802000F021F96A460121802000F01CF950
:101F70006A460221802000F017F96A46032180207A
:101F800000F012F96A460421802000F00DF96A463B
:101F90000521802000F008F96A460621802000F023
:101FA00003F96A460721802000F0FEF86A460821FE
:101FB000802000F0F9F86A460921802000F0F4F84A
:101FC0006A460A21802000F0EFF86A460B21802043
:101FD00000F0EAF86A460C21802000F0E5F86A4635
:101FE0000D21802000F0E0F80021802000F0C2F8F0
:101FF0000121802000F0BEF80221802000F0BAF814
:102000000321802000F0B6F80421802000F0B2F80F
:102010000521802000F0AEF80621802000F0AAF80B
:102020000721802000F0A6F80821802000F0A2F807
:102030000921802000F09EF80A21802000F09AF803
:102040000B21802000F096F80C21802000F092F8FF
:102050000D21802000F08EF86A460021C02000F09B
:10206000A3F86A460121C02000F09EF86A460221CA
:10207000C02000F099F86A460321C02000F094F8CF
:102080006A460621C02000F08FF86A460721C0206A
:1020900000F08AF86A460821C02000F085F86A46F8
:1020A0000921C02000F080F86A460A21C02000F013
:1020B0007BF86A460B21C02000F076F86A460C21B6
:1020C000C02000F071F86A460D21C02000F06CF8C5
:1020D0006A460E21C02000F067F86A460F21C02032
:1020E00000F062F80021C02000F044F80121C02077
:1020F00000F040F80221C02000F03CF80321C0208D
:1021000000F038F80421C02000F034F80521C02088
:1021100000F030F80621C02000F02CF80721C02084
:1021200000F028F80821C02000F024F80921C02080
:1021300000F020F80A21C02000F01CF80B21C0207C
:1021400000F018F80C21C02000F014F80D21C02078
:1021500000F010F80E21C02000F00CF80F21C02074
:1021600000F008F81CBD02461068C840C007C00F48
:102170007047000070B504460D46044960180122FE
:10218000294600F06DFF002070BD0000140D0240D4
:1021900070B504460D46034960182946FFF7E3FF72
:1021A00070BD0000040D024070B504460E46154691
:1021B0001E4960180022314600F052FF00201C49E1
:1021C0006118B20088502A7818490C3960183146D5
:1021D00000F046FF6A78154910316018314600F06A
:1021E0003FFFAA78114914316018314600F038FFDA
:1021F000EA780E4918316018314600F031FF2A792B
:102200000A4920316018314600F02AFF09488068E9
:102210000121C90388436979C9030122D20311400E
:10222000084304498860002070BD00000C0D024086
:10223000000C0240000F024010B503460248181877
:102240008C000251002010BD000C024070B5044605
:102250000D46044960180122294600F001FF0020C4
:1022600070BD00000C0D024070B504460D460449D7
:1022700060180122294600F0F3FE002070BD000026
:10228000100D024008B50020009000BF0098002803
:10229000FCD008BDF7B503460E4600210022029887
:1022A000002800D1FEBD00221EE0B05C0411B05C2D
:1022B00005072D0F5004010C092C03DC204630309B
:1022C000585402E0204637305854092D05DC284682
:1022D0003030C7B2481C1F5404E028463730C7B21C
:1022E000481C1F54501C82B202988242DDDB881CBD
:1022F00080B2D7E7704770471CB501211C2001F060
:1023000025F90021684601708170C17008214020C4
:10231000FFF730FF09214020FFF72CFF0A21402062
:10232000FFF728FF0B214020FFF724FF0C2140205E
:10233000FFF720FF0D214020FFF71CFF0E2140205A
:10234000FFF718FF0F214020FFF714FF6A4608210E
:102350004020FFF729FF6A4609214020FFF724FFAC
:102360006A460A214020FFF71FFF6A460B214020E2
:10237000FFF71AFF6A460C214020FFF715FF6A4657
:102380000D214020FFF710FF6A460E214020FFF785
:102390000BFF6A460F214020FFF706FF1CBD1CB54E
:1023A00001211C2001F0D2F8012168460170417022
:1023B00000218170C1700171012141716A460421BF
:1023C0004020FFF7F1FE6A4605214020FFF7ECFEB2
:1023D0006A4606214020FFF7E7FE6A4607214020B3
:1023E000FFF7E2FE1CBD704710B5074800F0B5FCD2
:1023F000012808D1044800F093FC044800784021EB
:1024000008430249087010BD000F0040080000207A
:102410001CB50821684602F031F80121092001F0BD
:1024200095F80021684681704170022101700021F9
:10243000C1700171012141710B49C18069460B488E
:1024400000F093FC094800F06BFC0121074800F004
:102450007AFC012203211120FFF7ACFA0121034885
:1024600000F067FC1CBD0000FFBF0000000F004033
:10247000704770477047000010B504460348047069
:102480008021052000F0C6FC10BD00005C0000208B
:1024900070B5FA48407980210840002807D0F748F5
:1024A00040794006400EF5494871802466E0F348C3
:1024B000407940210840002807D0F0484079BF21EA
:1024C0000840EE494871402458E0EC48407920210A
:1024D0000840002807D0E9484079DF210840E74953
:1024E000487120244AE0E54840791021084000283E
:1024F00007D0E2484079EF210840E04948711024B4
:102500003CE0DE48407908210840002807D0DB483D
:102510004079F7210840D949487108242EE0D7486E
:10252000407904210840002807D0D4484079FB2195
:102530000840D2494871042420E0D0484079022163
:102540000840002807D0CD484079FD210840CB49FC
:102550004871022412E0C9484079C007C00F002822
:1025600007D0C6484079FE210840C449487101247B
:1025700004E0C24844790020C0494871C04800784E
:1025800001287CD1102C7BD008DC012C79D0022CC6
:1025900078D0042C77D0082C76D1E5E1202C74D0AB
:1025A000402C73D0802CF7D1B6480078012804D095
:1025B000022803D004286AD10BE11DE1F020B249C2
:1025C0008870B2480078401CB0490870084600780E
:1025D000062801DD01200870AC480078030001F0F6
:1025E00001FF06F504326A98C6F5A94948880A2110
:1025F000FDF766FEC8B2A7490870A54948880A21B8
:10260000FDF75EFE05460A21FDF75AFEC8B2A14954
:1026100048709F4948886421FDF752FE05460A210B
:10262000FDF74EFEC8B29B498870994948887D21C4
:10263000C900FDF745FE05460A21FDF741FEC8B277
:102640009449C870C3E0924988880A21FDF738FE92
:10265000C8B2904908708E4988880A21FDF730FE7B
:1026600005460A21FDF72CFEC8B28A494870884900
:1026700088886421FDF724FE05460A2108E038E336
:102680008EE278E2D9E125E32DE310E1B6E0AFE098
:10269000FDF716FEC8B27F4988707D4988887D2184
:1026A000C900FDF70DFE05460A21FDF709FEC8B277
:1026B0007849C8708BE07649C8880A21FDF700FE8A
:1026C000C8B2744908707249C8880A21FDF7F8FD3C
:1026D00005460A21FDF7F4FDC8B26E4948706C4901
:1026E000C8886421FDF7ECFD05460A21FDF7E8FDE9
:1026F000C8B2684988706649C8887D21C900FDF75D
:10270000DFFD05460A21FDF7DBFDC8B26149C8704F
:102710005DE05F4908890A21FDF7D2FDC8B25D4935
:1027200008705B4908890A21FDF7CAFD05460A21A0
:10273000FDF7C6FDC8B2574948705549088964215C
:10274000FDF7BEFD05460A21FDF7BAFDC8B25149A5
:1027500088704F4908897D21C900FDF7B1FD054604
:102760000A21FDF7ADFDC8B24A49C8702FE04849BB
:1027700048890A21FDF7A4FDC8B2464908704449BA
:1027800048890A21FDF79CFD05460A21FDF798FDC1
:10279000C8B2404948703E4948896421FDF790FD20
:1027A00005460A21FDF78CFDC8B23A4988703849C0
:1027B00048897D21C900FDF783FD05460A21FDF703
:1027C0007FFDC8B23349C87001E0FFE700BF00BF1A
:1027D00000BFF0202C4988702F480078401C2E49FB
:1027E000087008460078032801DD0020087003E027
:1027F00001202449087000BF00BF78E2214800781A
:10280000012804D002284AD0042847D148E0F0200B
:102810001D49887002201B49087001201B4908705F
:102820001B4948880A21FDF74BFDC8B219490870B9
:10283000174948880A21FDF743FD05460A21FDF79F
:102840003FFDC8B213494870114948886421FDF71B
:1028500037FD05460A21FDF733FDC8B20D498870E2
:102860000B4948887D21C900FDF72AFD05460A214C
:10287000FDF726FDC8B20749C87016E00900002020
:1028800018000020260000207200002027000020F1
:1028900064000020140000202A00002000BF00BFB8
:1028A0001021062000F0B6FA00BF00BF1FE2F94871
:1028B0000078012804D0022803D004284ED101E07A
:1028C00050E04FE0F020F4498870F4480078062882
:1028D0000BD1F348007B002803D10120F049087395
:1028E0003BE00020EE49087337E0EE48007800280E
:1028F00006D001280FD0022818D003282CD120E0C0
:10290000E9480078401CC0B2E7490870092801DD99
:102910000020087020E0E4484078401CC0B2E24942
:102920004870092801DD0020487015E0DE488078F5
:10293000401CC0B2DC498870092801DD0020887085
:102940000AE0D948C078401CC0B2D749C8700928ED
:1029500001DD0020C87000BF00BF03E00120CD49A9
:10296000087000BF00BFC2E1CA480078012804D047
:10297000022803D004285AD101E05CE05BE0F0209B
:10298000C5498870C548007806280BD1C448007B2B
:10299000002803D10120C249087347E00020C04944
:1029A000087343E0BF480078002806D0012812D001
:1029B00002281ED0032838D129E0BB48007800281F
:1029C00005D0B9480078401EB749087002E00920D8
:1029D000B549087029E0B4484078002805D0B248CD
:1029E0004078401EB049487002E00920AE49487066
:1029F0001BE0AD488078002805D0AB488078401EA9
:102A0000A949887002E00920A74988700DE0A6480E
:102A1000C078002805D0A448C078401EA249C870DC
:102A200002E00920A049C87000BF00BF03E00120F8
:102A30009849087000BF00BF59E196480078012806
:102A400004D002280BD0042876D112E097480078F1
:102A5000401C9649087004208F49C87189E0F02015
:102A60008D49887004208B49087000208D490870BA
:102A70007FE0F020884988700220864908708748E6
:102A80000078030001F0AEFC066E04192E43596E67
:102A90008548C0787D21C9004843834989786422EC
:102AA00051434118804840780A22504308187E4913
:102AB000097840187A49488055E07B48C0787D21E4
:102AC000C9004843784989786422514341187648BF
:102AD00040780A2250430818734909784018704911
:102AE000888040E07048C0787D21C90048436E4925
:102AF00089786422514341186B4840780A22504338
:102B000008186949097840186549C8802BE066486B
:102B1000C0787D21C90048436349897864225143C4
:102B20004118614840780A22504308185E490978E4
:102B300040185B49088116E017E05B48C0787D21AA
:102B4000C90048435849897864225143411856487E
:102B500040780A22504308185349097840185049D0
:102B6000488100E000BF00BF03E001204949087030
:102B700000BF00BFBBE047480078012804D002280E
:102B800006D0042806D104E00420FFF775FC05E018
:102B900004E003E001203F49087000BF00BFA6E049
:102BA00000203D4988703B480078012871D03B489F
:102BB0000078030001F016FC067C04192E43587CB3
:102BC0003948C0787D21C900484337498978642253
:102BD00051434118344840780A225043081832497A
:102BE000097840182E49488063E02F48C0787D213D
:102BF000C90048432C4989786422514341182A4826
:102C000040780A2250430818274909784018244977
:102C100088804EE02448C0787D21C900484322497D
:102C200089786422514341181F4840780A22504352
:102C300008181D49097840181949C88039E01A4810
:102C4000C0787D21C90048431749897864225143DF
:102C50004118154840780A2250430818124909784B
:102C600040180F49088124E00F48C0787D21C90031
:102C700048430D4989786422514341180A484078F5
:102C80000A22504308180849097840180449488125
:102C90000FE01EE026000020720000202700002028
:102CA000640000202A000020140000205D000020A5
:102CB00000BF00BF012013490870002012490870AE
:102CC0000120124908700E22114912480068FDF7D0
:102CD00017FA0CE01048FDF7C7FC0F48FDF7E4FEBB
:102CE0000E49087003E0012001F05CFB00BF00BF4B
:102CF00003E0012001F056FB00BF00BF00F0D2F955
:102D000070BD0000260000202A00002027000020BF
:102D10006400002054000020000000202B00002050
:102D200010B50446002211462046143000F098F9F0
:102D300010BD70B505460C462246002128460C30D1
:102D400000F08EF970BD70B505460C4622460A218A
:102D500028460C3000F084F970BD10B504460021FF
:102D600020461030FFF7FFF910BD30B502467D2335
:102D7000DB00D0683024A0430C78240130252C409F
:102D80002043D060D06801246402A0434C786402E0
:102D900001256D022C402043D060D0686C10A04308
:102DA0008C7824026D102C402043D060D068082419
:102DB000A043CC78E40008252C402043D060D068A4
:102DC0000424A0430C79A40004252C402043D060A7
:102DD000D0680224A0434C79640002252C40204393
:102DE000D06005E0D0680006C00F002800D004E0E5
:102DF00018465C1EA3B20028F4D100BF002B01D1FD
:102E0000092030BD5068000C0004CC88204350607D
:102E10000020F6E710B572B6421E074B9A5C0A43D3
:102E2000431E054CE25401229A40044B1B781A437E
:102E3000024B1A7062B610BD090000200800002085
:102E400070477047704770477047704710B500BFB4
:102E500001210620FEF70AFE0028F9D10E220B49B7
:102E60000B480068FDF7CCF908480078AB2803D17F
:102E70000648407BBA2807D000F05CF90E220349CF
:102E800003480068FDF73CF910BD00006400002015
:102E90005400002010B5002426E01548005D0028ED
:102EA00020D01348005D401EC0B2114908550028CB
:102EB00018D1230001F096FA05040C111213140026
:102EC0003C200B49087001210520FFF7A3FF08E013
:102ED00002210520FFF79EFF03E002E001E000E091
:102EE00000BF00BF601CC4B2052CD6DB10BD0000C3
:102EF0004C00002070477047704700000EB5062157
:102F000001A801F0BBFA01211C2000F01FFB0121E8
:102F1000062000F01BFB002168464171017101AAE7
:102F200007210020FFF740F9012207210020FFF7C9
:102F300083F901AA04210020FFF736F901220421B8
:102F40000020FFF779F901AA05210020FFF72CF9ED
:102F5000012205210020FFF76FF91021684601705A
:102F600000214170C17081706946024800F0B5F8D7
:102F70000EBD00000008004010B5044600210948BD
:102F800000F0BFF82146074800F0B7F800BF042161
:102F9000044800F099F80028F9D00121014800F018
:102FA000B0F810BD0008004010B5FDF765FD0E48F3
:102FB0000078012804D0022805D0042810D105E0AB
:102FC000FDF738FF0DE0FDF797FD0AE007480078B0
:102FD000062802D1FEF70CF901E0FEF7BDFA00E089
:102FE00000BF00BF10BD0000260000202700002009
:102FF00010B5412019490870542048702B20887062
:103000004E20C870532008714320487153208871A6
:103010005420C8713D200872302048722C208872DC
:103020003620C872302008732C20487330208873F3
:103030002C20C873302008742C20487430208874E9
:103040002C20C874312008750D2048750A20887519
:1030500017210248FEF7E6FC10BD00007D000020AD
:1030600010B5012A05D1036801248C402343036075
:1030700004E0036801248C40A343036010BD0000FA
:1030800006480079002807D072B60548007810215C
:1030900008430349087062B6704700000900002029
:1030A0000800002006484079002807D072B605487D
:1030B0000078202108430349087062B67047000079
:1030C00009000020080000200246906808400028FF
:1030D00001D0012070470020FCE70246002010606C
:1030E00008784B7818438B781843CB7818434023E3
:1030F000184310600020906070470246D1600020A5
:1031000070474160704708B50020FEF78BFD002036
:1031100000F028FA062000F04BFA00216846017002
:103120004170817000F022F80121032000F054F872
:1031300008BD0000AB200A490870FF20F530488028
:10314000FF202D308880FF20A530C880FA2008811C
:10315000C820488100200873BA20487370470000D7
:103160006400002010B5C046C04610BD70B50446CE
:1031700000252078030001F035F90504050C10182E
:103180001C0018E0032000F05DFA032000F024FA90
:1031900011E0032000F0FAF90DE00321084600F0E9
:1031A0005FFA032000F028FA05E0072000F0BCF9E0
:1031B00001E0042500BF00BF2078012100F00CF8D9
:1031C000207800F029FA607800F086F9A07800F005
:1031D00097F9284670BD0000F8B505460C46002753
:1031E00001F0F4F8002C01D0012000E0002004469A
:1031F0005148066A2B0001F0F5F8050417394D72A5
:1032000098004D48006840084000E107C90F084396
:103210004949086000BF002C05D04748C068000538
:10322000C00F0028F7D082E04348006A0121090757
:1032300088434018404908624048C0680321084359
:103240003E49C8603C480068022188436100022270
:10325000114008433849086000BF002C05D03648AB
:1032600000694006C00F0028F7D060E032480068CF
:1032700004218843A1000422114008432E4908601C
:1032800000BF002C05D02C484069C004C00F0028A6
:10329000F7D04CE02848006A01210907884340180C
:1032A0002549086225484038C0680321890308433E
:1032B00022494039C8602048006808218843E1005D
:1032C0000822114008431C49086000BF002C05D0AB
:1032D000194880694006C00F0028F7D027E016483B
:1032E000006A012109048843401813490862144800
:1032F000006840084000401C11490860142001F09B
:10330000CDF80D480068102188432101102211409A
:1033100008430949086000BF002C05D00648C06B6F
:103320004003C00F0028F7D001E0042700BF00BF12
:10333000014806623846F8BD00200040C00D02403A
:103340000024004030B589B000241422564904A856
:10335000FCF71AFF544814300068039000200090D6
:103360000190029051480188684601814F48418888
:103370006846C1804D488188684681804B48C18835
:1033800068464180494820300188684601804848A5
:1033900000680006450F2B0001F024F805042E30CC
:1033A0003E4178004248C0684005400D69460989A1
:1033B000884201D1089C1EE03D48C0684005400D90
:1033C0006946C988884201D1079C14E03848C06822
:1033D0004005400D69468988884201D1069C0AE073
:1033E0003348C0684005400D69464988884201D18C
:1033F000059C00E0049C4BE02E4C49E068460088A8
:103400002B4949698905890D884202D16846C489DA
:1034100001E0684684893BE00124E40338E0244865
:10342000C06B8007800F032829D168460089204996
:10343000C9684905490D884201D1089C20E06846C9
:10344000C0881B49C9684905490D884201D1079CBC
:1034500016E0684680881649C9684905490D8842C2
:1034600001D1069C0CE0684640881149C9684905AD
:10347000490D884201D1059C02E0049C00E00D4CFE
:103480000B48C06BC005000F444301E0002400BF9F
:1034900000BF074800684005410F2046C840044669
:1034A000204609B030BD000020470000000C10008D
:1034B000002000400048E80110B50024FFF742FF5B
:1034C000044604480068C004810F2046C8400446F2
:1034D000204610BD0020004010B5044600F076FFE5
:1034E00006480068072109028843210207221202C8
:1034F0001140084301490860002010BD0020004031
:1035000010B5044600F062FF064800680321C902B6
:103510008843E1020322D2021140084301490860B6
:10352000002010BD0020004010B501460020064AD2
:10353000D26B0723DB039A43CB030724E403234026
:103540001A43014BDA6310BD0020004070B50446F9
:103550000D462A4621460248FFF782FD002070BD35
:103560002020004001464A00064BD2181288500520
:10357000400D054AD268D20AD2020243024BDA60F9
:1035800000207047000C10000020004010B50146DC
:103590000020064A526903239B029A438B020324AC
:1035A000A40223401A43014B5A6110BD0020004081
:1035B00010B5044600F00AFF06484068072149029A
:1035C00088436102072252021140084301494860C2
:1035D000002010BD0020004010B501460020054A23
:1035E000126930239A430B01302423401A43014BC4
:1035F0001A6110BD0020004010B501460020054AA8
:10360000926930239A430B01302423401A43014B23
:103610009A6110BD0020004070B504460025264682
:1036200000F0D4FE06480068E02188437101E022E2
:10363000114008430249086000F02CF8284670BD8C
:103640000020004001460020044A126992089200BE
:103650008B079B0F1A43014B1A61704700200040F3
:1036600030B5024600200A4B9B690C24A34394000A
:103670000C252C402343064CA36123469B699B08E1
:103680009B008C07A40F2343014CA36130BD0000B5
:103690000020004010B5FFF755FE0149086010BD3D
:1036A0000400002010B50D4949888805800D0C499B
:1036B0004969890A89020143094A51610749203948
:1036C00009894805400D1146C968C90AC902014364
:1036D000D160FFF7DFFF00F06BFE10BD200C100083
:1036E00000200040704770477047000010B5002070
:1036F00000F01AFC012808D1002000F00BFC034860
:103700000078802108430149087010BD080000209E
:10371000704770477047000010B504214020FEF745
:1037200037FD002817D158480088401C80B2564900
:1037300008807D210901884202DD481C5249088029
:10374000514800887D210901884215D14021062079
:10375000FFF760FB10E04C480088142809DD4A4858
:1037600000887D210901884203DA80210620FFF7C5
:1037700051FB00204449088005214020FEF708FD48
:10378000002814D141480088401C80B23F4908807D
:103790007D210901884202DD481C3C4908803B48E4
:1037A00000887D210901884212D100BF10E037480E
:1037B0000088142809DD354800887D2109018842E8
:1037C00003DA20210620FFF725FB00202F4908807F
:1037D00006214020FEF7DCFC002814D12C4800888C
:1037E000401C80B22A4908807D210901884202DDFF
:1037F000481C27490880264800887D210901884205
:1038000012D100BF10E022480088142809DD2048AA
:1038100000887D210901884203DA08210620FFF78C
:10382000F9FA00201A49088007214020FEF7B0FC71
:10383000002817D117480088401C80B2154908801D
:103840007D210901884202DD481C12490880114887
:1038500000887D210901884215D101210620FFF74A
:10386000D9FA10E00B480088142809DD09480088BF
:103870007D210901884203DA02210620FFF7CAFAF6
:1038800000200449088010BD1C0000201E000020FC
:10389000200000202200002010B5FD480079802182
:1038A0000840002807D0FA4800794006400EF84941
:1038B0000871802466E0F64800794021084000281D
:1038C00007D0F3480079BF210840F149087140242E
:1038D00058E0EF48007920210840002807D0EC4844
:1038E0000079DF210840EA49087120244AE0E848CD
:1038F000007910210840002807D0E5480079EF2121
:103900000840E349087110243CE0E14800790821AF
:103910000840002807D0DE480079F7210840DC493C
:10392000087108242EE0DA480079042108400028B4
:1039300007D0D7480079FB210840D54908710424F5
:1039400020E0D348007902210840002807D0D04861
:103950000079FD210840CE490871022412E0CC48CC
:103960000079C007C00F002807D0C9480079FE21A0
:103970000840C7490871012404E0C54804790020C3
:10398000C3490871C3480078030000F02BFD05FE11
:1039900004A5BA54FD00202C1AD0402C2FD0802C26
:1039A00046D1BD480078002802D001280DD105E09D
:1039B000FFF71EFB0620B949087107E0B8A000F028
:1039C00041FC0620B549087100E000BF00BF30E0AF
:1039D000B7480078401CB6490870084600780A28A5
:1039E00008DB0020AC490870B14908700220FEF7DE
:1039F00043FD03E080210520FFF70CFA19E00020C9
:103A0000AB490870A5490871A3480078401CA24939
:103A1000087008460078022805D1FEF72DFD002029
:103A20009D49087003E080210520FFF7F3F900E0CD
:103A300000BF00BFA8E1202C1BD0402C30D0802C30
:103A400047D195480078002802D001280ED106E021
:103A500098A000F0F7FB06209049087107E09CA0B1
:103A600000F0F0FB06208D49087100E000BF00BFA8
:103A700030E08F480078401C8D4908700846007877
:103A80000A2808DB00208449087089490870022050
:103A9000FEF7F2FC03E080210520FFF7BBF919E0F7
:103AA0000020834908707D4908717B480078401CDC
:103AB0007949087008460078022805D1FEF7DCFC39
:103AC00000207549087003E080210520FFF7A2F966
:103AD00000E000BF00BF57E1012C0BD0042C05D043
:103AE000802C0BD100206C49087008E07DA000F00C
:103AF000A9FB04E00320FEF7BFFC00E000BF00BF0D
:103B000042E1202C71D0402C53D0802C7FD16248D0
:103B10000078002802D0012848D105E0FFF768FAB4
:103B200006205E49087142E0412072490870542025
:103B300048702B2088704E20C8705320087148713F
:103B4000542088714120C871542008725520487251
:103B5000532088723D20C872302008737820487343
:103B60000122654963480E30FEF794FB2C20614921
:103B7000087401226049491E5E481130FEF78AFB35
:103B800002225E495B4801E0FDE043E01330FEF7AE
:103B900081FB0D205749C8750A2008761921554820
:103BA000FDF740FF06203D49087100E000BF00BF5F
:103BB0002EE000203E4908703849087136480078E8
:103BC000401C3549087008460078022806D10020BC
:103BD000FEF752FC00203049087003E080210520E8
:103BE000FFF718F914E000E011E031480078401CBC
:103BF0002F490870084600780A2803DB0220FEF7E8
:103C00003BFC03E080210520FFF704F900E000BF42
:103C100000BFB9E0102C1DD006DC022C76D0042C9D
:103C20007CD0082C74D17DE0202C22D0402C08D0F0
:103C3000802C6DD126A000F005FB062017490871E5
:103C40009FE000201A4908701449087107202C4988
:103C5000487096E000202849491E4870294908709C
:103C6000294908700220FEF707FC0020244948700B
:103C700087E00F480078401C0D490870084600781E
:103C80000A2846DB002008700220FEF7F5FB44E01E
:103C9000090000205C00002063000020720000206A
:103CA00030300D0A41542B43434C4B0D0A000000A9
:103CB0006000002030300D0A41542B4E53535441C4
:103CC0005455533D307837422C30300D0A000000F7
:103CD00030300D0A41542B4E534556454E540D0A73
:103CE0000000000030300D0A41542B4E534A4F491A
:103CF0004E0D0A007D0000205F0000200000002023
:103D00004C000020610000206200002021E005E05E
:103D100036E080210520FFF77DF832E01C4800F0F6
:103D200091FA2EE01B480078401C1A4908700020C8
:103D300019494870174800780A2806DB0020154901
:103D400008700220FEF798FB02E00320FEF794FBC8
:103D500017E012480078401C1049087000200E49F6
:103D600048700E4800780A2806DB00200B490870CE
:103D70000220FEF781FB02E00320FEF77DFB00E05E
:103D800000BF00BF00E000BF00BFFFF779F910BD22
:103D9000E43C0000620000204C0000206100002094
:103DA00070B5002400BF0EE02C48005D4F2808D1FC
:103DB0002A49601C085C4B2803D140210520FFF7ED
:103DC00029F8601CC4B2254860300079A042EBDCC1
:103DD00000243BE02148005D2B2835D11F49601CA1
:103DE000085C4E2830D1A01C085C53282CD1E01C64
:103DF000085C532828D1201D085C542824D1601D5C
:103E0000085C412820D1A01D085C54281CD1E01D6D
:103E1000085C452818D120460930085C3038C5B206
:103E200020460B30085C3038C6B2052E0CD1022D6E
:103E300004D110210520FEF7EDFF05E0032D03D18D
:103E400008210520FEF7E6FF601CC4B2034860307D
:103E50000079A042BEDCFCF7FBFD70BDAF00002086
:103E600070B5002527480478002C4AD0F020204067
:103E7000002805D020112449085C001DC5B201E0CE
:103E80002148055D2148445D72B61E4800782040F7
:103E90001C49087062B6002D01D000F07BFA2B009F
:103EA00000F0A0FA092D2C2B2A2724211E062D0014
:103EB000FFF77AF8FFF730FC1548807900280ED01C
:103EC00013484079401CC1B211484171142906DDE4
:103ED00000214171817180210420FEF79BFF0FE0DA
:103EE00000F0E6F80CE0FEF7D3FA09E0FFF7D4FCA7
:103EF00006E0FFF755FF03E002E001E000E000BF4D
:103F000000BF70BD0800002040470000504700007F
:103F10000F0100200146002001228A40D243014BBC
:103F20005A6170470058004001460020034B1A694F
:103F30001346CB40D807C00F704700000058004020
:103F400001460020044A1268120C12048BB21A4374
:103F5000014B1A60704700000058004001460020E5
:103F6000044A5268120C12048BB21A43014B5A6075
:103F7000704700000058004000200449C968490803
:103F80004900491C014AD1607047000000580040B8
:103F900000200449C9680122920291438918014A0C
:103FA000D16070470058004010B501460020284AF3
:103FB000D26803231B039A430B781B0303242403B7
:103FC00023401A43224BDA601A46D2685B159A43A3
:103FD0004B785B020124640223401A431C4BDA60D5
:103FE0001A46D2689B159A438B781B0264102340B3
:103FF0001A43174BDA601A46D26870239A43CB787B
:104000001B01702423401A43114BDA601A46D26810
:1040100008239A430B79DB00082423401A430C4BF6
:10402000DA601A46D26804239A434B799B00042431
:1040300023401A43064BDA601A46D26802239A4399
:104040008B795B00022423401A43014BDA6010BDD8
:10405000005800407CB50721684600F00FFA0121A6
:104060000B20FFF773FA00216846017041710621A9
:10407000C170012181710021017181704170FFF7D0
:1040800093FF0A4C2046FFF75BFF25462846FFF7C3
:1040900065FF0020FFF73EFFFFF77AFF01220321B3
:1040A0000520FDF787FCFFF767FF7CBD88FE000059
:1040B00010B5002444E02448005D00283ED022488A
:1040C000005D401EC0B220490855002836D12300AB
:1040D00000F088F90B07080E1314191A1E2A2B2C4E
:1040E00032002AE0022018494870FCF75DFC24E009
:1040F00010210620FEF78EFE1FE01EE02021052085
:10410000FEF788FE19E018E00120FEF7B5F914E08B
:104110000E480078032803DB04210520FEF77AFE11
:1041200000200A49087008E007E006E07820064908
:104130008872FEF7AFFE00E000BF00BF601CC4B293
:104140000B2CB8DB10BD0000720000205D000020C9
:104150007047000010B500210D4800F0A0F80028BD
:1041600014D000210A4800F07BF801210948817130
:1041700000214171064800F0E9F806490A790979F9
:10418000491CCBB203490B716039885410BD000043
:10419000000100400F01002000B587B0062105A8EE
:1041A00000F06CF9102101A800F068F901211C2031
:1041B000FFF7CCF900216846017505AA022100200D
:1041C000FDF7F2FF012202210020FEF735F8012160
:1041D0006846017505AA03210020FDF7E5FF0122CD
:1041E00003210020FEF728F801210846FFF7AEF969
:1041F0004021684601710021C180042141714B2199
:10420000C9010491012149020181FFF755F9039089
:1042100001A90B4800F050F80021094800F020F8EF
:104220000121074800F01CF80021054800F02DF896
:10423000012203210720FDF7BDFB07B000BD0000F0
:104240000001004010B5044604E02178034800F066
:1042500081F8641C20780028F7D110BD00010040CF
:1042600070B504460D460022294620461430FEF75C
:10427000F7FE002070BD70B504460D4601222946A8
:10428000201DFEF7EDFE002070BD70B504460D4602
:1042900001222946201DFEF7E3FE002070BD70B507
:1042A00004460D460026294620461030FDF75BFFE8
:1042B0000646304670BD0000F0B585B005460C4698
:1042C0000127214903C90491039000200290002C8A
:1042D00002D1042005B0F0BD0020686060886178DC
:1042E0000843A18808432178084368602078402863
:1042F00002D02078C02824D1A088C117C90D091880
:104300004912890003AA515A8EB2E168B1400846A9
:10431000FCF756F90190A068FCF752F9009001995A
:10432000FCF772F802903F210906029800F03AF972
:104330000190FBF749FF80B2A86104212846FFF7EE
:104340009AFF00273846C5E738470000014608684D
:10435000C0B2704770B504460D4600BF0321204629
:10436000FFF79DFF0028F9D02068000A0002E9B29B
:104370000843206000BF01212046FFF790FF00287E
:10438000F9D001212046FFF76BFF002070BD704778
:10439000704770471E2002490860E120086070479E
:1043A000800F00400149087070470000180000208D
:1043B0000549086A096A0122120791438918024ACD
:1043C000116211460862704700200040024803490C
:1043D00088600348886070475A5A000000200040F7
:1043E000A5A5000030B47446641E2578641CAB4259
:1043F00004D3635D5B00E31830BC18471D46F8E743
:1044000010B5002819DB1A4A03231B02D2188308AF
:104410009B00D2588307DC0EFF23A3409A438B07EF
:104420001B0E8407E40EA3401A43114B03242402FD
:104430001B198408A4001A5118E00E4A03071B0F29
:10444000083B9B089B00D2588307DC0EFF23A34048
:104450009A438B071B0E8407E40EA3401A43054BB7
:104460000407240F083CA408A4001A5110BD000042
:1044700000E100E01CED00E000BF704710B50A4607
:104480000146002900D110BD02E000230B70491C39
:104490001346521E002BF8D100BFF4E770B5054655
:1044A00011481249486100208861052008610FE029
:1044B00000200E4988610E490E480068FBF7F6FEA1
:1044C000012109060C1A00BF08488069A042FBD8E8
:1044D00028466D1E0028EBD10448006940084000C2
:1044E0000249086170BD0000FFFFFF0000E000E02E
:1044F000A08601000400002070B50546114812494D
:104500004861002088610520086110E000200E4904
:1045100088617D21C9000D480068FBF7C7FE0121B5
:1045200009060C1A00BF08488069A042FBD828463B
:104530006D1E0028EAD10448006940084000024985
:10454000086170BDFFFFFF0000E000E004000020F4
:10455000FEF7D9FDFDF7D8FBFDF721FFFEF7CEFCF6
:10456000FDF756FFFFF776FDFFF716FEFDF7C4FED9
:10457000FEF76CFCFCF7AAF8FF20F530FFF7BCFF54
:104580000220064948708871782088723C200449CE
:10459000087001E0FFF764FCFCE7000072000020F7
:1045A0004C00002070B501250400ED074C4020D4DC
:1045B000441A01D2001B0919C60D4B00F2B2FF2AA2
:1045C00029D01B0E2CD000020C02D31A2C43DC4045
:1045D0002843051910D2280A02D3401C6D0611D0B9
:1045E000761EF6058019FF2A00DA70BDC00DC005E1
:1045F00070BD694000F022F801200543C541521CFE
:10460000761CE8E764089C40C90161408900E7D155
:104610000124A043E4E71B0E440200D0034870BD10
:10462000002AFCD1C00FC00770BD00BF0000C07FD2
:1046300070B501250400ED074C4022D4441A02D283
:104640006C40001B0919C60D4B00F2B2FF2A4BD07B
:104650001B0E50D000020C02D31A2C43DC40A8439E
:10466000051B05D5AD0019D36D08761E521E37D037
:10467000F605280A01D2801970BD70416D0603D07D
:1046800070BD6940FFF794FF9C40090261404900FA
:1046900001D0401E70BD0124A04370BD6D081DD027
:1046A00001202B0C01D12D0410302B0E01D12D0235
:1046B00008302B0F01D12D01001DAB0F01D1AD0032
:1046C000801CEB0F01D16D00401C6D00361A121AD0
:1046D000680AF5054019012A02DB70BD002070BD93
:1046E000C036300AC00770BD1B0E440201D1FF2B3B
:1046F00000D1024870BD002AF0D070BD0000C07F1C
:1047000020000000170000001B00000050460000C1
:10471000E022020018000000F0000000E8030000A2
:1047200000093D0000127A000024F4004086510187
:1047300000366E01008000960400000003000000B7
:104740000001020203030303040404040404040438
:10475000FFFEFDFBF7EFDFBF7F81828384858687C5
:1047600088898B8C8D8E8F919293959697999A9C30
:104770009D9FA0A2A3A5A7A8AAACAEB0B2B3B5B79F
:10478000B9BCBEC0C2C5C7C9CCCED1D4D7D9DCDF75
:10479000E2E6E9ECF0F3F7FAFE000000BC470000A7
:1047A0000000002064000000C80000002048000055
:1047B0006400002014050000E40000000000000078
:1047C00000366E0100000000000000000000000044
:1047D00000000000000000000000000000000000D9
:1047E00000000101010000003F065B4F666D7D0780
:1047F0007F6F000103070F1F3F7FFF0000000000D5
:1048000000000000000000000000000000000000A8
:1048100000FE000000000000010000000000000099
:04000005000000C136
:00000001FF
