:020000040000FA
:10000000B0050020150200002F020000A922000008
:1000100000000000000000000000000000000000E0
:10002000000000000000000000000000330200009B
:1000300000000000000000003502000071320000E6
:10004000152F0000172F0000192F00001B2F000094
:10005000FD010000F93700003D440000414400006C
:100060009524000097240000DF2F0000E12F0000FE
:10007000192300001B230000F1370000F3370000B4
:10008000F53700000D2400001D3800001F38000067
:1000900021380000112F0000A3460000DD2F0000D2
:1000A00079060000132F00009F460000A1460000C3
:1000B000992400000B240000FF010000FB01000058
:1000C00000F030F800F050F8103A02D378C878C148
:1000D000FAD8520701D330C830C101D504680C608A
:1000E000704700000023002400250026103A01D3A9
:1000F00078C1FBD8520700D330C100D50B607047E0
:10010000F8B505460E461746284601F011FD0024B5
:1001100004E0315D281901F08DFD641CBC42F8DB60
:10012000F8BD00000CA030C8083824182D18A246CD
:10013000671EAB4654465D46AC4201D100F014F850
:100140007E460F3E0FCCB6460126334200D0FB1A46
:10015000A246AB4633431847544900007449000097
:100160001FB51FBD10B510BD00F053FA1146FFF7C3
:10017000F7FF00F079FA00F06BFA03B4FFF7F2FF33
:1001800003BC04F001FB000070B505460C461646A2
:1001900002E00FCC0FC5103E102EFAD2082E02D36B
:1001A00003CC03C5083E042E07D301CC01C5361F7E
:1001B00003E021782970641C6D1C761EF9D270BD95
:1001C00070477047704770470102C21504D0012381
:1001D000DB071943002A0ADB9E239A1A02D4084639
:1001E000D0407047FF2241001206914201D9002001
:1001F0007047C017C04370477047704770477047DB
:1002000010B50346002002E01C5C0C54401C9042D8
:10021000FADB10BD0C480D4A002100A1814200D933
:1002200002440B4802600B4880470B480047FEE73A
:10023000FEE7FEE7FEE7FEE7FEE7000007480849A5
:10024000084A094B70470000000000200000000031
:1002500008ED00E0B1370000C1000000B00100204F
:10026000B0050020B0030020B0030020034670B5A5
:1002700002460B439B070FD10E4CE60100E008C27B
:1002800008C91D1B9D433542F9D0D9B21170521CCB
:1002900000290DD01B0AF8E70B78491C1370521C7B
:1002A000002B05D00B78491C1370521C002BF3D186
:1002B00070BD00000101010101E004C0091F042913
:1002C000FBD28B0701D50280801CC90700D00270C9
:1002D000704700290BD0C30702D00270401C491E92
:1002E000022904D3830702D50280801C891EE3E71C
:1002F0000022EEE70022DFE7002203098B422CD325
:10030000030A8B4211D300239C464EE003460B4365
:100310003CD4002243088B4231D303098B421CD3C7
:10032000030A8B4201D394463FE0C3098B4201D3B9
:10033000CB01C01A524183098B4201D38B01C01AF1
:10034000524143098B4201D34B01C01A5241030968
:100350008B4201D30B01C01A5241C3088B4201D317
:10036000CB00C01A524183088B4201D38B00C01AC4
:10037000524143088B4201D34B00C01A5241411AEB
:1003800000D201465241104670475DE0CA0F00D0CE
:100390004942031000D34042534000229C460309C7
:1003A0008B422DD3030A8B4212D3FC22890112BA4D
:1003B000030A8B420CD3890192118B4208D3890125
:1003C00092118B4204D389013AD0921100E089093D
:1003D000C3098B4201D3CB01C01A524183098B421E
:1003E00001D38B01C01A524143098B4201D34B0107
:1003F000C01A524103098B4201D30B01C01A52416A
:10040000C3088B4201D3CB00C01A524183088B42F0
:1004100001D38B00C01A5241D9D243088B4201D379
:100420004B00C01A5241411A00D201466346524164
:100430005B10104601D34042002B00D54942704763
:1004400063465B1000D3404201B50020C046C04661
:1004500002BD0000F0B5FF252D04C609C209FF2723
:1004600004462E400137CB093E4348402A402B40EA
:100470000746002A6BD0002B69D0AA4267D0AB4256
:1004800065D0002800DA32460125ED0529432C43CA
:1004900009022002090AD21A4B0C7F24E31A434CAA
:1004A000000A7C44E35C7D242404121914145B00CC
:1004B000A218884201D3521C00E0400049420C4679
:1004C0005C4324115C43DB016415E318040A5C43BC
:1004D000C502200D0C4644436419250A5D432303DD
:1004E000EC0C0D46654300030019EB184C42A34287
:1004F00001D35B18401CD4052018002B07D05B00EB
:10050000C91804D3401C002901D1400840003F21F4
:1005100089048A4209D3002A08DC1106090F04D095
:10052000032149074018C00FC007F0BD0122410058
:10053000120689187F2252069142F6D205214907F8
:10054000C84201D59010F0BDFF20C005F0BD002FBE
:1005500000DA32461648AA4207D2AB4205D2190247
:10056000090E17D0F80FC007F0BDFF2563002D0658
:10057000AB42F9D84900A942F6D8AB4201D1A94211
:10058000F2D0A94201D1002101E061004908D00563
:100590000843F0BD1102090EFBD0FF200243D00535
:1005A000F0BD0A460146104654E70000C34500006E
:1005B0000000C07F1F22030C02D10F2200041CD0B8
:1005C000030E01D10002083A030F01D10001121FEE
:1005D000830F01D18000921E002801DB4000521ED3
:1005E000D2055118021251181922904004D3491C07
:1005F000002801D14908490008467047C10FC907C2
:1006000000D04042012292071143D3E7012189071C
:10061000D0E7754600F024F8AE460500694653461B
:10062000C008C000854618B020B5FFF707FE60BCC3
:1006300000274908B6460026C0C5C0C5C0C5C0C50C
:10064000C0C5C0C5C0C5C0C5403D49008D46704746
:1006500010B50446C046C0462046FFF78EFD10BDCB
:10066000004870474C01002010B503F0A1F804F0D9
:10067000F7F8002010BD000010B5102000F054F96C
:10068000012000F065F9044908800421062002F0E9
:1006900029FC00F0A1F910BD1600002070B5054638
:1006A0001248007B00280CD111490988114A514396
:1006B00008461149FFF72AFE0646FFF79FFF04464A
:1006C0000FE00B4909882F221201891AFF22F53207
:1006D000514308460949FFF719FE0646FFF78EFF0A
:1006E00004462046FFF770FD288070BD680000209A
:1006F000160000202B020000FF0F0000E60900009A
:100700001FB50C2101A804F041F80121402001F09F
:10071000AFFD0121102002F09FFF00F09DF90121A3
:10072000684601710021417103210903C180012143
:100730004902018100214181012189038181002138
:10074000817301A800F00CF90021684681704170A6
:100750000221017000F046F90921012000F008F89B
:1007600000F0EAF801220321182001F035F91FBD3D
:1007700010B50246130003F0BDFF100913202D3AF7
:1007800047545E6B7885929FA9B6C3D065480068D0
:1007900040094001CB06DB0E1843624B1860BEE0F7
:1007A000604800681F235B0198434B011F246401CC
:1007B000234018435B4B1860B1E05A4800681F2380
:1007C0009B0298438B021F24A40223401843554BDD
:1007D0001860A4E0534800681F23DB039843CB0351
:1007E0001F24E403234018434E4B186097E04D4804
:1007F00000681F231B0598430B051F242405234075
:100800001843484B18608AE0464800681F235B067F
:1008100098434B061F24640623401843414B18603D
:100820007DE04048406840094001CB06DB0E18439C
:100830003C4B586073E03B4840681F235B01984382
:100840004B011F24640123401843364B586066E077
:10085000344840681F239B0298438B021F24A40244
:10086000234018432F4B586059E02E4840681F23FF
:10087000DB039843CB031F24E40323401843294B95
:1008800058604CE0274840681F231B0598430B0520
:100890001F24240523401843224B58603FE0214881
:1008A00040681F235B0698434B061F2464062340C1
:1008B00018431C4B586032E01A48806840094001D8
:1008C000CB06DB0E1843174B986028E0154880686C
:1008D0001F235B0198434B011F24640123401843ED
:1008E000104B98601BE00F4880681F239B029843C1
:1008F0008B021F24A402234018430A4B98600EE089
:10090000084880681F23DB039843CB031F24E403BC
:1009100023401843034B986001E0042010BD00BF42
:100920000020FBE7402400400249496B8143014A13
:100930005163704780240040044840680121C90386
:100940008843401801494860704700000024004077
:100950000146024A880010587047000050240040A9
:1009600010B50446002C01D1042010BD0120164909
:100970004860022003F01AFF6078A1880843E188EC
:10098000084361880843218908430F49496808439F
:100990000D49486008468068091588432178890216
:1009A0000122920211400843074988600846806886
:1009B00004218843A17A8900042211400843024996
:1009C00088600020D1E70000002400400120014998
:1009D00048607047C02400400020014948607047CB
:1009E000C02400400146002902D00878102801DD0B
:1009F00004207047174880680122D2039043154AAB
:100A0000906010468068D21490434A78D202012345
:100A1000DB021A4010430F4A90601046806892151E
:100A200090438A781202DB101A401043094A906002
:100A30000848403080680F22120590430A78521E01
:100A400012050F231B051A401043024A40329060E2
:100A50000020CEE70024004010B5054800680121C1
:100A6000084303490860022003F0A0FE10BD000007
:100A700000240040002000BF04E00021064A115479
:100A8000411CC8B20449603109798142F5DC002279
:100A9000014960310A717047E500002010B500205F
:100AA00002F0DEFA002002F0DBFA0821402001F01B
:100AB00073FB0921402001F06FFB0A21402001F067
:100AC0006BFB0B21402001F067FB10BD10B5044605
:100AD0002088062801DA002010BD2088062809DBBE
:100AE0002088F62806DA2188881D0C21FFF70EFCE5
:100AF000C0B2F1E72088F6280DDB2088FF21F53110
:100B0000884208DA21880846F6380D21FFF7FEFBF7
:100B10001530C0B2E0E72820DEE7000010B5C64877
:100B20000078002806D0012868D002287ED003284B
:100B30007DD126E10C21402001F0A8FB0D214020B1
:100B400001F02AFB0E21402001F026FB0F2140205E
:100B500001F022FBB948C088B9490988884204DC01
:100B60000A21402001F092FB03E00A21402001F01D
:100B700013FBB2484089B2490988884204DB0B2143
:100B8000402001F083FB03E00B21402001F004FB37
:100B9000AC480078142804DAAB49087802F060FA0F
:100BA00028E0A848007814280BDBA64800781C2809
:100BB00007DCA44909781439A34A505C02F050FAC2
:100BC00018E0A04800781D2808D19F49087A02F053
:100BD00047FA0821402001F059FB0BE09A49087AB6
:100BE00002F03EFA0821402001F050FB092140208C
:100BF00001F04CFB002002F033FA0CE10C21402004
:100C000001F0CAFA0D21402001F040FB0E214020E6
:100C100001F0C2FA0F21402001F0BEFA8748808817
:100C20008749098888420DDC844801E059E0F1E0F9
:100C3000C08883490988884204DD0A21402001F0E8
:100C400025FB03E00A21402001F0A6FA7B484089F9
:100C50007B49098888420ADA7848008978490988F6
:100C6000884204DB0B21402001F010FB03E00B2144
:100C7000402001F091FA734800780A2804DA72499A
:100C8000087802F0EDF928E06E4800780A280BDBBE
:100C90006C480078122807DC6A4909780A396A4AE0
:100CA000505C02F0DDF918E066480078132808D19E
:100CB0006549087A02F0D4F90821402001F0E6FAEB
:100CC0000BE06149087A02F0CBF90821402001F0DD
:100CD000DDFA0921402001F0D9FA002002F0C0F924
:100CE00099E00C21402001F057FA0D21402001F03D
:100CF00053FA0E21402001F0C9FA0F21402001F0E3
:100D00004BFA52480088401C504908800846008829
:100D1000642801DB002008804C480088322804DA6F
:100D20000B21402001F0B2FA03E00B21402001F03A
:100D300033FA44480078082806DA4349414A1278D1
:100D4000885C02F08DF918E03E480078092808D147
:100D50003D49087A02F084F90821402001F096FA12
:100D60000BE03949087A02F07BF90821402001F0B4
:100D70008DFA0921402001F089FA762002F070F9FD
:100D800049E00C21402001F007FA0D21402001F03C
:100D900003FA0E21402001F0FFF90F21402001F05D
:100DA00075FA284800781E2804DA2749087802F0E6
:100DB00057F928E0234800781E280BDB21480078EB
:100DC000262807DC1F4909781E391F4A505C02F0AB
:100DD00047F918E01B480078272808D11A49087AF3
:100DE00002F03EF90821402001F050FA0BE01649CC
:100DF000087A02F035F90821402001F047FA09216C
:100E0000402001F043FA1249124A1278885C02F03D
:100E100027F900E000BF00BF07480078401C0649E2
:100E200008700878C117890F091889108900411ABC
:100E3000014A117010BD00002D0000206800002044
:100E4000020000202F0000203A0000204600002071
:100E5000300000202B00002070B5E6480078002804
:100E600006D001287BD0022873D0032872D163E119
:100E70000C21402001F00AFA0D21402001F08CF9EC
:100E80000E21402001F088F90F21402001F084F963
:100E9000D948C088D9490988884204DC0A21402001
:100EA00001F0F4F903E00A21402001F075F9D2487D
:100EB0004089D2490988884204DB0B21402001F097
:100EC000E5F903E00B21402001F066F9CC480078F9
:100ED000142804DACB49087802F0C2F828E0C848A0
:100EE000007814280BDBC64800781C2807DCC449AE
:100EF00009781439C34A505C02F0B2F818E0C048CF
:100F000000781D2808D1BF49087A02F0A9F8082105
:100F1000402001F0BBF90BE0BA49087A02F0A0F8D2
:100F20000821402001F0B2F90921402001F0AEF97A
:100F3000B2480088B44988420DDD491CAF4800889A
:100F4000FFF7E4F9B1490C5C204602F089F805E0AE
:100F500005E08DE03DE1002002F082F83AE10C214D
:100F6000402001F019F90D21402001F08FF90E21E8
:100F7000402001F011F90F21402001F00DF99E48A9
:100F800080889E49098888420ADC9B48C0889B4922
:100F90000988884204DD0A21402001F077F903E046
:100FA0000A21402001F0F8F89348408993490988C4
:100FB00088420ADA9048008990490988884204DB0F
:100FC0000B21402001F062F903E00B21402001F0E9
:100FD000E3F88B4800780A2804DA8A49087802F096
:100FE0003FF828E0864800780A280BDB8448007820
:100FF000122807DC824909780A39824A505C02F0DB
:101000002FF818E07E480078132808D17D49087A27
:1010100002F026F80821402001F038F90BE0794968
:10102000087A02F01DF80821402001F02FF909216B
:10103000402001F02BF971480088632810DD6421FD
:101040006E480088FFF762F905460A21FFF75EF94E
:101050006E48405C80210843044602F001F806E037
:101060006A49097880221143084601F0F9FFB1E08E
:101070000C21402001F090F80D21402001F08CF867
:101080000E21402001F002F90F21402001F084F8E8
:101090005F480088401C5E49088008460088642834
:1010A00001DB002008805A480088322804DA0B212E
:1010B000402001F0EBF803E00B21402001F06CF838
:1010C0004F480078082806DA4E494D4A1278885C65
:1010D00001F0C6FF18E04A480078092808D14949BC
:1010E000087A01F0BDFF0821402001F0CFF80BE0A5
:1010F0004449087A01F0B4FF0821402001F0C6F805
:101100000921402001F0C2F83C48008809280EDD82
:101110000A213A480088FFF7F9F805460A21FFF747
:10112000F5F83A48445C204601F09AFF03E037495D
:10113000087801F095FF4DE00C21402001F02CF8DB
:101140000D21402001F028F80E21402001F024F864
:101150000F21402001F09AF8294800781E2804DA6F
:101160002849087801F07CFF28E0254800781E28EF
:101170000BDB23480078262807DC214909781E3933
:10118000204A505C01F06CFF18E01D4800782728C9
:1011900008D11C49087A01F063FF0821402001F0C2
:1011A00075F80BE01749087A01F05AFF0821402032
:1011B00001F06CF80921402001F068F80A210F487D
:1011C0000088FFF7A3F81148445C204601F048FF6F
:1011D00000E000BF00BF07480078401C05490870C8
:1011E0000878C117890F091889108900411A014A26
:1011F000117070BD2D00002068000020020000204A
:101200002F0000203A000020E703000030000020FB
:101210004400002010B5D2480078002806D00128EC
:1012200068D002287ED003287DD141E10C214020E6
:1012300001F02CF80D21402000F0AEFF0E214020DF
:1012400000F0AAFF0F21402000F0A6FFC548C0888B
:10125000C5490988884204DC0A21402001F016F8BB
:1012600003E00A21402000F097FFBE484089BE49B4
:101270000988884204DB0B21402001F007F803E0D5
:101280000B21402000F088FFB8480078142804DAC9
:10129000B749087801F0E4FE28E0B4480078142843
:1012A0000BDBB24800781C2807DCB04909781439F8
:1012B000AF4A505C01F0D4FE18E0AC4800781D281D
:1012C00008D1AB49087A01F0CBFE0821402000F09C
:1012D000DDFF0BE0A649087A01F0C2FE082140209C
:1012E00000F0D4FF0921402000F0D0FF002001F0E1
:1012F000B7FE24E10C21402000F04EFF0D214020DC
:1013000000F0C4FF0E21402000F046FF0F214020D6
:1013100000F042FF934880889349098888420DDC99
:10132000904801E059E009E1C0888F490988884266
:1013300004DD0A21402000F0A9FF03E00A2140203B
:1013400000F02AFF874840898749098888420ADADD
:101350008448008984490988884204DB0B214020A5
:1013600000F094FF03E00B21402000F015FF7F48C0
:1013700000780A2804DA7E49087801F071FE28E036
:101380007A4800780A280BDB78480078122807DCB6
:10139000764909780A39764A505C01F061FE18E016
:1013A00072480078132808D17149087A01F058FE74
:1013B0000821402000F06AFF0BE06D49087A01F037
:1013C0004FFE0821402000F061FF0921402000F07D
:1013D0005DFF002001F044FEB1E00C21402000F050
:1013E000DBFE0D21402000F0D7FE0E21402000F052
:1013F0004DFF0F21402000F0CFFE5E480088401CCA
:101400005C49088008460088642801DB00200880C9
:1014100058480088322804DA0B21402000F036FFBB
:1014200003E00B21402000F0B7FE50480078082868
:1014300006DA4F494D4A1278885C01F011FE18E037
:101440004A480078092808D14949087A01F008FE7D
:101450000821402000F01AFF0BE04549087A01F00E
:10146000FFFD0821402000F011FF0921402000F07D
:101470000DFF41480078401C3F490870084600783D
:10148000502801DB002008703B48007828280BDA40
:101490003448007B002803D13E2001F0E1FD06E046
:1014A000772001F0DDFD02E0002001F0D9FD46E0EB
:1014B0000C21402000F070FE0D21402000F06CFE59
:1014C0000E21402000F068FE0F21402000F0DEFEDB
:1014D000264800781E2804DA2549087801F0C0FD66
:1014E00028E0224800781E280BDB204800782628B8
:1014F00007DC1E4909781E391D4A505C01F0B0FD19
:1015000018E01A480078272808D11949087A01F00C
:10151000A7FD0821402000F0B9FE0BE01449087A2D
:1015200001F09EFD0821402000F0B0FE092140207E
:1015300000F0ACFE002001F093FD00E000BF00BF12
:1015400007480078401C064908700878C117890FC1
:10155000091889108900411A014A117010BD000054
:101560002D00002068000020020000202F00002035
:101570003A0000204E0000204C00002010B5FB482F
:101580000078002806D001287ED002287DD00328CC
:101590007CD18FE10C21402000F078FE0D2140200D
:1015A00000F0FAFD0E21402000F0F6FD0F21402052
:1015B00000F0F2FDEE48C088EE490988884204DC5C
:1015C0000A21402000F062FE03E00A21402000F0E2
:1015D000E3FDE7484089E7490988884204DB0B219D
:1015E000402000F053FE03E00B21402000F0D4FD2A
:1015F000E1480078142804DAE049087801F030FD69
:1016000028E0DD48007814280BDBDB4800781C2834
:1016100007DCD94909781439D84A505C01F020FD1B
:1016200018E0D54800781D2808D1D449087A01F07F
:1016300017FD0821402000F029FE0BE0CF49087A71
:1016400001F00EFD0821402000F020FE092140207D
:1016500000F01CFECA48007803281CD1C948007855
:10166000401CC849087008460078502801DB00205B
:101670000870C4480078282809DAC349C978C34AE1
:10168000505C01F0EDFC0CE00CE0A2E08DE10020EC
:1016900001F0E6FC05E0BC49C978BC4A505C01F0A9
:1016A000DFFC83E10C21402000F076FD0D2140207D
:1016B00000F0ECFD0E21402000F06EFD0F214020D7
:1016C00000F06AFDAA488088AA49098888420ADC95
:1016D000A748C088A7490988884204DD0A2140201C
:1016E00000F0D4FD03E00A21402000F055FDA048A1
:1016F0004089A049098888420ADA9D4800899D49A5
:101700000988884204DB0B21402000F0BFFD03E084
:101710000B21402000F040FD974800780A2804DAA9
:101720009649087801F09CFC28E0934800780A2844
:101730000BDB91480078122807DC8F4909780A39B9
:101740008E4A505C01F08CFC18E08B48007813281E
:1017500008D18A49087A01F083FC0821402000F072
:1017600095FD0BE08549087A01F07AFC08214020BC
:1017700000F08CFD0921402000F088FD80480078B1
:1017800002281CD17F480078401C7E49087008461A
:101790000078502801DB002008707A48007828285B
:1017A00009DA79498978794A515C802211430846DF
:1017B00001F056FC0CE0802001F052FC08E0724978
:1017C0008978724A515C80221143084601F048FC36
:1017D000ECE00C21402000F0DFFC0D21402000F067
:1017E000DBFC0E21402000F051FD0F21402000F0D5
:1017F000D3FC67480088401C65490880084600887B
:10180000642801DB0020088061480088322804DA5F
:101810000B21402000F03AFD03E00B21402000F0B6
:10182000BBFC55480078082806DA5449524A127819
:10183000885C01F015FC18E04F480078092808D1B1
:101840004E49087A01F00CFC0821402000F01EFDF2
:101850000BE04A49087A01F003FC0821402000F01F
:1018600015FD0921402000F011FD454800780128B0
:1018700019D144480078401C424908700846007855
:10188000502801DB002008703E480078282806DA3E
:101890003D4949783D4A505C01F0E2FB09E00020F7
:1018A00001F0DEFB05E038494978384A505C01F028
:1018B000D7FB7BE00C21402000F06EFC0D21402086
:1018C00000F06AFC0E21402000F066FC0F21402051
:1018D00000F0DCFC284800781E2804DA2749087844
:1018E00001F0BEFB28E0244800781E280BDB2248CC
:1018F0000078262807DC204909781E391F4A505CE9
:1019000001F0AEFB18E01C480078272808D11B49DD
:10191000087A01F0A5FB0821402000F0B7FC0BE09D
:101920001649087A01F09CFB0821402000F0AEFC2B
:101930000921402000F0AAFC1148007800282DD190
:1019400010480078401C0F4908700846007850285D
:1019500001DB002008700B48007828281ADA0A49B1
:1019600009780A4A505C01F07BFB1DE02D00002045
:1019700068000020020000202F0000203A00002014
:101980002E00002048000020180000203000002019
:101990004A000020002001F063FB05E00B490978B4
:1019A0000B4A505C01F05CFB00E000BF00BF09483F
:1019B0000078401C074908700878C117890F09187A
:1019C00089108900411A034A117010BD18000020C7
:1019D000300000202D00002070B504460E4615464C
:1019E0002046002805DBC206D20E01219140144A90
:1019F000116000BF3146204602F08AFE012D0ED153
:101A00002046002809DB00BF00BFC206D20E01211C
:101A100091400C4A116000BF00BF00BF0FE020469C
:101A200000280ADBC206D20E01219140054A80320D
:101A30001160BFF34F8FBFF36F8F00BF00BF70BD4A
:101A400080E200E000E100E0F0B58BB005460E4614
:101A50000024FF200A9000200990202101A8FEF711
:101A600049FC284F012D0ED0022D0CD0042D0AD098
:101A7000062D08D0082D06D00C2D04D00420099086
:101A800009980BB0F0BD1F48006A01214902884344
:101A9000710201225202114008431A4908620024CF
:101AA00007E0A000184908586843A10001AA505057
:101AB000641C082CF5D30C2D01D1FF2002900024CA
:101AC0001CE0FF200A9011E00A98411E0A910028AC
:101AD0000AD00E480B49C8620D48C862A00001A98F
:101AE0000858A100785001E00720CAE7A000385844
:101AF000A10001AA51588842E6D1641C082CE0D309
:101B00000998BEE700000240104A00005A5A00003F
:101B1000A5A5000003480449C8620448C862002023
:101B2000086370475A5A000000000240A5A5000053
:101B300008B502460023FF2000902548824202D9C2
:101B40000423184608BDFF20009006E00098411EBF
:101B50000091002801D10920F4E71E48006AC00660
:101B6000C00F0028F2D100F03BF8FF20009012E0F7
:101B70000098411E009100280BD017481549C862F3
:101B80001648C8620846006A80088000801C086207
:101B900001E00920D6E70F48006A8007800F02287D
:101BA000E6D100201070FF20009006E00098411E52
:101BB0000091002801D10920C4E70648006AC00648
:101BC000C00F0028F2D1FFF7A5FF1846BAE70000C2
:101BD000FFFF0000000002405A5A0000A5A50000C7
:101BE00004480549C8620548C8620020C04308632C
:101BF000704700005A5A000000000240A5A50000EE
:101C000010B501460020084A084BDA62084ADA6239
:101C10001A46126A0C239A438B000C2423401A4361
:101C2000024B1A6210BD00005A5A00000000024028
:101C3000A5A5000018B502460B460024FF20009021
:101C40002448824202D90424204618BDFF20009077
:101C500006E00098411E0091002801D10920F4E718
:101C60001D48006AC006C00F0028F2D1FF20009076
:101C700012E00098411E009100280BD01748164929
:101C8000C8621748C8620846006A80088000401C85
:101C9000086201E00920D8E70F48006A8007800F3A
:101CA0000128E6D1FFF79CFF1370FF20009006E0AB
:101CB0000098411E0091002801D10920C5E706487F
:101CC000006AC006C00F0028F2D1FFF723FF2046AC
:101CD000BBE70000FFFF0000000002405A5A00006E
:101CE000A5A500001CB501211C2001F0B5FC0121B7
:101CF00068460170417000218170C170017101213D
:101D000041716A460021084600F060FA6A460121E6
:101D1000002000F05BFA6A460221002000F056FA2B
:101D20006A460321002000F051FA6A46042100208F
:101D300000F04CFA6A460521002000F047FA6A4696
:101D40000621002000F042FA6A460721002000F038
:101D50003DFA6A460821002000F038FA6A46092157
:101D6000002000F033FA6A460A21002000F02EFA23
:101D70006A460B21002000F029FA6A460C21002057
:101D800000F024FA6A460D21002000F01FFA6A468E
:101D90000E21002000F01AFA6A460F21002000F000
:101DA00015FA0021084600F0F7F90121002000F0A3
:101DB000F3F90221002000F0EFF90321002000F0E8
:101DC000EBF90421002000F0E7F90521002000F0E4
:101DD000E3F90621002000F0DFF90721002000F0E0
:101DE000DBF90821002000F0D7F90921002000F0DC
:101DF000D3F90A21002000F0CFF90B21002000F0D8
:101E0000CBF90C21002000F0C7F90D21002000F0D3
:101E1000C3F90E21002000F0BFF90F21002000F0CF
:101E2000BBF96A460021402000F0D0F96A46012142
:101E3000402000F0CBF96A460221402000F0C6F9AC
:101E40006A460321402000F0C1F96A46042140207F
:101E500000F0BCF96A460621402000F0B7F96A4656
:101E60000721402000F0B2F96A460821402000F026
:101E7000ADF96A460921402000F0A8F96A460A2116
:101E8000402000F0A3F96A460B21402000F09EF9A3
:101E90006A460C21402000F099F96A460D21402045
:101EA00000F094F96A460E21402000F08FF96A464E
:101EB0000F21402000F08AF90021402000F06CF949
:101EC0000121402000F068F90221402000F064F96F
:101ED0000321402000F060F90421402000F05CF96B
:101EE0000521402000F058F90621402000F054F967
:101EF0000721402000F050F90821402000F04CF963
:101F00000921402000F048F90A21402000F044F95E
:101F10000B21402000F040F90C21402000F03CF95A
:101F20000D21402000F038F90E21402000F034F956
:101F30000F21402000F030F96A460021802000F097
:101F400045F96A460121802000F040F96A460221E5
:101F5000802000F03BF96A460321802000F036F92A
:101F60006A460421802000F031F96A46052180206C
:101F700000F02CF96A460621802000F027F96A4615
:101F80000721802000F022F96A460821802000F015
:101F90001DF96A460921802000F018F96A460A21D5
:101FA000802000F013F96A460B21802000F00EF922
:101FB0006A460C21802000F009F96A460D21802034
:101FC00000F004F90021802000F0E6F801218020D3
:101FD00000F0E2F80221802000F0DEF803218020EA
:101FE00000F0DAF80421802000F0D6F805218020E6
:101FF00000F0D2F80621802000F0CEF807218020E2
:1020000000F0CAF80821802000F0C6F809218020DD
:1020100000F0C2F80A21802000F0BEF80B218020D9
:1020200000F0BAF80C21802000F0B6F80D218020D5
:1020300000F0B2F86A460021C02000F0C7F86A46F6
:102040000121C02000F0C2F86A460221C02000F041
:10205000BDF86A460321C02000F0B8F86A460621A0
:10206000C02000F0B3F86A460721C02000F0AEF8A7
:102070006A460821C02000F0A9F86A460921C0205C
:1020800000F0A4F86A460A21C02000F09FF86A46D2
:102090000B21C02000F09AF86A460C21C02000F005
:1020A00095F86A460D21C02000F090F86A460E218E
:1020B000C02000F08BF86A460F21C02000F086F89F
:1020C0000021C02000F068F80121C02000F064F871
:1020D0000221C02000F060F80321C02000F05CF86D
:1020E0000421C02000F058F80521C02000F054F869
:1020F0000621C02000F050F80721C02000F04CF865
:102100000821C02000F048F80921C02000F044F860
:102110000A21C02000F040F80B21C02000F03CF85C
:102120000C21C02000F038F80D21C02000F034F858
:102130000E21C02000F030F80F21C02000F02CF854
:102140000021684601708170C1706A460F2100202D
:1021500000F03CF86A460621C02000F037F86A46D5
:102160000721C02000F032F86A460221402000F02A
:102170002DF80F21002000F089F80721C02000F081
:1021800085F80221402000F007F81CBD02461068C7
:10219000C840C007C00F704770B504460D460449DB
:1021A00060180122294600F0D5FF002070BD000014
:1021B000140D024070B504460D46034960182946C7
:1021C000FFF7E4FF70BD0000040D024070B5044647
:1021D0000E4615461E4960180022314600F0BAFF2F
:1021E00000201C496118B20088502A7818490C391F
:1021F0006018314600F0AEFF6A781549103160185A
:10220000314600F0A7FFAA78114914316018314611
:1022100000F0A0FFEA780E4918316018314600F04E
:1022200099FF2A790A4920316018314600F092FF5F
:10223000094880680121C90388436979C9030122DB
:10224000D2031140084304498860002070BD00009B
:102250000C0D0240000C0240000F024010B5034676
:10226000024818188C000251002010BD000C0240DA
:1022700070B504460D46044960180122294600F055
:1022800069FF002070BD00000C0D024070B50446CF
:102290000D46044960180122294600F05BFF00202A
:1022A00070BD0000100D024008B50020009000BF76
:1022B00000980028FCD008BDF7B503460E46002163
:1022C00000220298002800D1FEBD00221EE0B05C72
:1022D0000411B05C05072D0F5004010C092C03DC20
:1022E00020463030585402E0204637305854092DEB
:1022F00005DC28463030C7B2481C1F5404E028468D
:102300003730C7B2481C1F54501C82B20298824218
:10231000DDDB881C80B2D7E7704770471CB5012110
:102320001C2001F099F90021684601708170C1708C
:1023300008214020FFF730FF09214020FFF72CFF44
:102340000A214020FFF728FF0B214020FFF724FF40
:102350000C214020FFF720FF0D214020FFF71CFF3C
:102360000E214020FFF718FF0F214020FFF714FF38
:102370006A4608214020FFF729FF6A4609214020CC
:10238000FFF724FF6A460A214020FFF71FFF6A4635
:102390000B214020FFF71AFF6A460C214020FFF76F
:1023A00015FF6A460D214020FFF710FF6A460E21F7
:1023B0004020FFF70BFF6A460F214020FFF706FF82
:1023C0001CBD1CB501211C2001F046F90121684605
:1023D0000170417000218170C17001710121417152
:1023E0006A4604214020FFF7F1FE6A46052140209D
:1023F000FFF7ECFE6A4606214020FFF7E7FE6A463B
:1024000007214020FFF7E2FE1CBD704710B50748CA
:1024100000F00BFD012808D1044800F0E9FC044855
:102420000078402108430249087010BD000F0040A9
:102430000C0000201CB50821684602F0A7F9012114
:10244000092001F009F900216846817041700221DC
:1024500001700021C1700171012141710B49C180DE
:1024600069460B4800F0E9FC094800F0C1FC012175
:10247000074800F0D0FC012203211120FFF7ACFA3D
:102480000121034800F0BDFC1CBD0000FFBF00009F
:10249000000F0040704770477047000010B50446B9
:1024A000034804708021052000F01CFD10BD0000D1
:1024B0006000002070B5FA4840798021084000286B
:1024C00007D0F74840794006400EF549487180240E
:1024D00066E0F348407940210840002807D0F048E2
:1024E0004079BF210840EE494871402458E0EC484B
:1024F000407920210840002807D0E9484079DF21B1
:102500000840E749487120244AE0E5484079102115
:102510000840002807D0E2484079EF210840E04910
:10252000487110243CE0DE4840790821084000282A
:1025300007D0DB484079F7210840D9494871082481
:102540002EE0D748407904210840002807D0D4481D
:102550004079FB210840D2494871042420E0D0484A
:10256000407902210840002807D0CD484079FD215C
:102570000840CB494871022412E0C9484079C0079D
:10258000C00F002807D0C6484079FE210840C44942
:102590004871012404E0C24844790020C0494871D0
:1025A000C048007801287CD1102C7BD008DC012C9D
:1025B00079D0022C78D0042C77D0082C76D1E5E1A4
:1025C000202C74D0402C73D0802CF7D1B6480078E2
:1025D000012804D0022803D004286AD10BE11DE1B0
:1025E000F020B2498870B2480078401CB0490870A9
:1025F00008460078062801DD01200870AC48007804
:10260000030002F077F806F504326A98C6F5A94986
:1026100048880A21FDF77AFEC8B2A7490870A54983
:1026200048880A21FDF772FE05460A21FDF76EFE75
:10263000C8B2A14948709F4948886421FDF766FEE9
:1026400005460A21FDF762FEC8B29B498870994988
:1026500048887D21C900FDF759FE05460A21FDF78E
:1026600055FEC8B29449C870C3E0924988880A21CF
:10267000FDF74CFEC8B2904908708E4988880A213F
:10268000FDF744FE05460A21FDF740FEC8B28A491F
:102690004870884988886421FDF738FE05460A217C
:1026A00008E08CE38EE278E2D9E140E381E310E1D7
:1026B000B6E0AFE0FDF72AFEC8B27F4988707D49D9
:1026C00088887D21C900FDF721FE05460A21FDF716
:1026D0001DFEC8B27849C8708BE07649C8880A21C7
:1026E000FDF714FEC8B2744908707249C8880A21FF
:1026F000FDF70CFE05460A21FDF708FEC8B26E493B
:1027000048706C49C8886421FDF700FE05460A211F
:10271000FDF7FCFDC8B2684988706649C8887D210C
:10272000C900FDF7F3FD05460A21FDF7EFFDC8B22C
:102730006149C8705DE05F4908890A21FDF7E6FD3F
:10274000C8B25D4908705B4908890A21FDF7DEFDC2
:1027500005460A21FDF7DAFDC8B2574948705549C8
:1027600008896421FDF7D2FD05460A21FDF7CEFD5B
:10277000C8B2514988704F4908897D21C900FDF7C9
:10278000C5FD05460A21FDF7C1FDC8B24A49C8701A
:102790002FE0484948890A21FDF7B8FDC8B24649EB
:1027A0000870444948890A21FDF7B0FD05460A2111
:1027B000FDF7ACFDC8B2404948703E4948896421E4
:1027C000FDF7A4FD05460A21FDF7A0FDC8B23A4970
:1027D0008870384948897D21C900FDF797FD054675
:1027E0000A21FDF793FDC8B23349C87001E0FFE745
:1027F00000BF00BF00BFF0202C4988702F48007830
:10280000401C2E49087008460078032801DD00208E
:10281000087003E001202449087000BF00BFCCE22B
:1028200021480078012804D002284AD0042847D142
:1028300048E0F0201D49887002201B4908700120E3
:102840001B4908701B4948880A21FDF75FFDC8B283
:1028500019490870174948880A21FDF757FD0546B0
:102860000A21FDF753FDC8B2134948701149488841
:102870006421FDF74BFD05460A21FDF747FDC8B26F
:102880000D4988700B4948887D21C900FDF73EFD40
:1028900005460A21FDF73AFDC8B20749C87016E09F
:1028A0000D0000201C0000202A00002076000020DF
:1028B0002B00002068000020180000202E000020BF
:1028C00000BF00BF1021062000F00CFB00BF00BFBE
:1028D00073E2F9480078012804D0022803D00428C4
:1028E0004ED101E050E04FE0F020F4498870F44808
:1028F000007806280BD1F348007B002803D1012083
:10290000F04908733BE00020EE49087337E0EE48D9
:102910000078002806D001280FD0022818D00328FC
:102920002CD120E0E9480078401CC0B2E74908708B
:10293000092801DD0020087020E0E4484078401CB0
:10294000C0B2E2494870092801DD0020487015E056
:10295000DE488078401CC0B2DC498870092801DD5F
:10296000002088700AE0D948C078401CC0B2D7491E
:10297000C870092801DD0020C87000BF00BF03E057
:102980000120CD49087000BF00BF16E2CA48007898
:10299000012804D0022803D004285AD101E05CE0C9
:1029A0005BE0F020C5498870C548007806280BD147
:1029B000C448007B002803D10120C249087347E0C6
:1029C0000020C049087343E0BF480078002806D0C3
:1029D000012812D002281ED0032838D129E0BB4894
:1029E0000078002805D0B9480078401EB749087023
:1029F00002E00920B549087029E0B4484078002871
:102A000005D0B2484078401EB049487002E0092025
:102A1000AE4948701BE0AD488078002805D0AB482F
:102A20008078401EA949887002E00920A749887073
:102A30000DE0A648C078002805D0A448C078401E04
:102A4000A249C87002E00920A049C87000BF00BFB9
:102A500003E001209849087000BF00BFADE196482F
:102A60000078012804D002280BD0042876D112E087
:102A700097480078401C9649087004208F49C87117
:102A800089E0F0208D49887004208B49087000206F
:102A90008D4908707FE0F0208849887002208649BF
:102AA000087087480078030001F024FE066E0419C0
:102AB0002E43596E8548C0787D21C900484383491B
:102AC0008978642251434118804840780A22504353
:102AD00008187E49097840187A49488055E07B48B3
:102AE000C0787D21C90048437849897864225143E0
:102AF0004118764840780A225043081873490978EB
:102B000040187049888040E07048C0787D21C90035
:102B100048436E4989786422514341186B48407894
:102B20000A22504308186949097840186549C88045
:102B30002BE06648C0787D21C90048436349897805
:102B4000642251434118614840780A2250430818D2
:102B50005E49097840185B49088116E017E05B4838
:102B6000C0787D21C900484358498978642251437F
:102B70004118564840780A225043081853490978AA
:102B800040185049488100E000BF00BF03E0012029
:102B90004949087000BF00BF0FE14748007801288D
:102BA00004D0022806D0042806D104E00420FFF750
:102BB00075FC05E004E003E001203F49087000BF18
:102BC00000BFFAE000203D4988703B4800780128AA
:102BD00071D03B480078030001F08CFD067C04199D
:102BE0002E43587C3948C0787D21C9004843374975
:102BF0008978642251434118344840780A2250436E
:102C000008183249097840182E49488063E02F4857
:102C1000C0787D21C90048432C49897864225143FA
:102C200041182A4840780A22504308182749097851
:102C30004018244988804EE02448C0787D21C9008E
:102C40004843224989786422514341181F484078FB
:102C50000A22504308181D49097840181949C880AC
:102C600039E01A48C0787D21C9004843174989785E
:102C7000642251434118154840780A2250430818ED
:102C80001249097840180F49088124E00F48C0789C
:102C90007D21C90048430D49897864225143411878
:102CA0000A4840780A225043081808490978401811
:102CB000044948810FE039E02A0000207600002016
:102CC0002B000020680000202E00002018000020AB
:102CD0006100002000BF00BF01203D4908700020B6
:102CE0003C49087001203C4908703C48007B0028A2
:102CF0000BD13B48008801214902884338490880AC
:102D00000621C020FFF748FA0AE035480088012173
:102D100049020843324908800621C020FFF7B6FA6D
:102D20000E222E492F480068FDF7EAF945E02E48AB
:102D3000FDF7B4FC2C48FDF7C9FE2C490870274864
:102D4000C08829490988884206DC25480088402136
:102D500008432349088005E0214800884021884332
:102D60001F4908801D4840891F490988884206DBA1
:102D70001B480088102108431949088005E01848BD
:102D80000088102188431649088014484088164955
:102D90000988884206DA124800880421084310494D
:102DA000088005E00E480088042188430C4908800B
:102DB00003E0012001F07EFC00BF00BF03E0012022
:102DC00001F078FC00BF00BF00F0E6F970BD000024
:102DD0002A0000202E0000202B0000206800002088
:102DE0000400002058000020020000202F000020D6
:102DF00010B50446002211462046143000F0AAF90E
:102E000010BD70B505460C462246002128460C3000
:102E100000F0A0F970BD70B505460C4622460A21A7
:102E200028460C3000F096F970BD10B5044600211C
:102E300020461030FFF7AAF910BD30B502467D23B9
:102E4000DB00D0683024A0430C78240130252C40CE
:102E50002043D060D06801246402A0434C7864020F
:102E600001256D022C402043D060D0686C10A04337
:102E70008C7824026D102C402043D060D068082448
:102E8000A043CC78E40008252C402043D060D068D3
:102E90000424A0430C79A40004252C402043D060D6
:102EA000D0680224A0434C79640002252C402043C2
:102EB000D06005E0D0680006C00F002800D004E014
:102EC00018465C1EA3B20028F4D100BF002B01D12C
:102ED000092030BD5068000C0004CC8820435060AD
:102EE0000020F6E710B572B6421E074B9A5C0A4303
:102EF000431E054CE25401229A40044B1B781A43AE
:102F0000024B1A7062B610BD0D0000200C000020AC
:102F100070477047704770477047704710B500BFE3
:102F200001210620FEF790FD0028F9D10E2211495B
:102F300011480068FDF764F90E480078AB2803D10A
:102F40000C48407BBA2807D000F07AF90E220949D4
:102F500009480068FDF7D4F80648007B002804D132
:102F60000621C020FFF718F903E00621C020FFF773
:102F70008DF910BD680000205800002010B5002415
:102F800026E01548005D002820D01348005D401E53
:102F9000C0B211490855002818D1230001F0AAFB3E
:102FA00005040C111213140001200B4908700121B3
:102FB0000520FFF797FF08E002210520FFF792FFA9
:102FC00003E002E001E000E000BF00BF601CC4B20B
:102FD000052CD6DB10BD0000500000207047704764
:102FE000704700000EB5062101A801F0CFFB0121BA
:102FF0001C2000F031FB0121062000F02DFB0021F8
:1030000068464171017101AA07210020FFF7DEF82F
:10301000012207210020FFF721F901AA0421002045
:10302000FFF7D4F8012204210020FFF717F901AAC5
:1030300005210020FFF7CAF8012205210020FFF733
:103040000DF910216846017000214170C170817036
:103050006946024800F0BBF80EBD000000080040C1
:1030600010B504460021094800F0C5F8214607487C
:1030700000F0BDF800BF0421044800F09FF80028CC
:10308000F9D00121014800F0B6F810BD0008004059
:1030900010B5FDF703FD0E480078012804D0022882
:1030A00005D0042810D105E0FDF7D6FE0DE0FDF7B0
:1030B00035FD0AE007480078062802D1FEF7AAF895
:1030C00001E0FEF75BFA00E000BF00BF10BD0000AA
:1030D0002A0000202B00002010B530201C49087069
:1030E00048700D2088700A20C87041200871542053
:1030F00048712B2088714E20C871532008724320DC
:103100004872532088725420C8723D2008733020C2
:1031100048732C2088733620C873302008742C2004
:103120004874302088742C20C874302008752C20F6
:103130004875302088752C20C875312008760D2000
:1031400048760A2088760020C87600F057F810BD2F
:103150008100002010B5012A05D1036801248C40AC
:103160002343036004E0036801248C40A34303600D
:1031700010BD000006480079002807D072B6054847
:103180000078102108430349087062B670470000B8
:103190000D0000200C00002006484079002807D0D0
:1031A00072B605480078202108430349087062B6CA
:1031B000704700000D0000200C00002002469068BF
:1031C0000840002801D0012070470020FCE702469B
:1031D0000020106008784B7818438B781843CB7820
:1031E0001843402318431060002090607047024647
:1031F000D1600020704741607047000010B5FF208B
:103200003130034908600121014801F0DAF910BDAD
:103210000001004008B50020FEF7F2FC002000F09D
:1032200027FA062000F04AFA002168460170417032
:10323000817000F021F80121032000F053F808BD4F
:10324000AB200A490870FF20F5304880FF202D3060
:103250008880FF20A530C880FA200881C8204881D6
:1032600000200873BA2048737047000068000020EF
:1032700010B5C046C04610BD70B504460025207884
:10328000030001F037FA0504050C10181C0018E0C3
:10329000032000F05DFA032000F024FA11E003207F
:1032A00000F0FAF90DE00321084600F05FFA032070
:1032B00000F028FA05E0072000F0BCF901E0042541
:1032C00000BF00BF2078012100F00CF8207800F04A
:1032D00029FA607800F086F9A07800F097F928467E
:1032E00070BD0000F8B505460C46002701F0F6F960
:1032F000002C01D0012000E0002004465148066A5D
:103300002B0001F0F7F9050417394D7298004D486C
:10331000006840084000E107C90F084349490860B8
:1033200000BF002C05D04748C0680005C00F00282A
:10333000F7D082E04348006A01210907884340181A
:10334000404908624048C068032108433E49C860BC
:103350003C48006802218843610002221140084372
:103360003849086000BF002C05D036480069400687
:10337000C00F0028F7D060E032480068042188437D
:10338000A1000422114008432E49086000BF002C10
:1033900005D02C484069C004C00F0028F7D04CE08D
:1033A0002848006A01210907884340182549086216
:1033B00025484038C0680321890308432249403921
:1033C000C8602048006808218843E10008221140B5
:1033D00008431C49086000BF002C05D019488069CB
:1033E0004006C00F0028F7D027E01648006A0121E8
:1033F00009048843401813490862144800684008CB
:103400004000401C11490860142001F0CFF90D481C
:103410000068102188432101102211400843094906
:10342000086000BF002C05D00648C06B4003C00FE9
:103430000028F7D001E0042700BF00BF0148066262
:103440003846F8BD00200040C00D02400024004076
:1034500030B589B000241422564904A8FCF794FE24
:1034600054481430006803900020009001900290AE
:1034700051480188684601814F4841886846C180AB
:103480004D488188684681804B48C18868464180A4
:103490004948203001886846018048480068000695
:1034A000450F2B0001F026F905042E303E4178002F
:1034B0004248C0684005400D69460989884201D1EB
:1034C000089C1EE03D48C0684005400D6946C9881B
:1034D000884201D1079C14E03848C0684005400D7F
:1034E00069468988884201D1069C0AE03348C06851
:1034F0004005400D69464988884201D1059C00E09D
:10350000049C4BE02E4C49E0684600882B494969F1
:103510008905890D884202D16846C48901E0684660
:1035200084893BE00124E40338E02448C06B800731
:10353000800F032829D1684600892049C9684905B8
:10354000490D884201D1089C20E06846C0881B498B
:10355000C9684905490D884201D1079C16E06846B3
:1035600080881649C9684905490D884201D1069CE1
:103570000CE0684640881149C9684905490D8842F0
:1035800001D1059C02E0049C00E00D4C0B48C06B8F
:10359000C005000F444301E0002400BF00BF0748FE
:1035A00000684005410F2046C8400446204609B047
:1035B00030BD0000304A0000000C10000020004028
:1035C0000048E80110B50024FFF742FF0446044814
:1035D0000068C004810F2046C8400446204610BD44
:1035E0000020004010B5044601F078F80648006855
:1035F00007210902884321020722120211400843D1
:1036000001490860002010BD0020004010B50446AC
:1036100001F064F8064800680321C9028843E1020A
:103620000322D2021140084301490860002010BD66
:103630000020004010B501460020064AD26B072347
:10364000DB039A43CB030724E40323401A43014BD3
:10365000DA6310BD0020004070B504460D462A46CE
:1036600021460248FFF776FD002070BD2020004073
:1036700001464A00064BD21812885005400D054AF3
:10368000D268D20AD2020243024BDA6000207047AD
:10369000000C10000020004010B501460020064A32
:1036A000526903239B029A438B020324A402234002
:1036B0001A43014B5A6110BD0020004010B504466A
:1036C00001F00CF80648406807214902884361026E
:1036D000072252021140084301494860002010BDF2
:1036E0000020004010B501460020054A1269302331
:1036F0009A430B01302423401A43014B1A6110BD39
:103700000020004010B501460020054A9269302390
:103710009A430B01302423401A43014B9A6110BD98
:103720000020004070B504460025264600F0D6FF74
:1037300006480068E02188437101E02211400843F7
:103740000249086000F02CF8284670BD00200040B7
:1037500001460020044A1269920892008B079B0FD1
:103760001A43014B1A6170470020004030B50246F1
:1037700000200A4B9B690C24A34394000C252C4089
:103780002343064CA36123469B699B089B008C073F
:10379000A40F2343014CA36130BD00000020004072
:1037A00010B5FFF755FE0149086010BD0800002064
:1037B00010B50D4949888805800D0C494969890A69
:1037C00089020143094A516107492039098948059D
:1037D000400D1146C968C90AC9020143D160FFF70B
:1037E000DFFF00F06DFF10BD200C10000020004036
:1037F000704770477047000010B5002000F00AFDC8
:10380000012808D1002000F0FBFC0348007880214B
:1038100008430149087010BD0C0000207047704734
:103820007047000010B504214020FEF7C3FC0028BB
:1038300017D158480088401C80B2564908807D2125
:103840000901884202DD481C52490880514800881D
:103850007D210901884215D140210620FFF742FB56
:1038600010E04C480088142809DD4A4800887D2172
:103870000901884203DA80210620FFF733FB00208C
:103880004449088005214020FEF794FC002814D10B
:1038900041480088401C80B23F4908807D210901D1
:1038A000884202DD481C3C4908803B4800887D2155
:1038B0000901884212D100BF10E03748008814285F
:1038C00009DD354800887D210901884203DA20217D
:1038D0000620FFF707FB00202F4908800621402023
:1038E000FEF768FC002814D12C480088401C80B2E8
:1038F0002A4908807D210901884202DD481C2749A8
:103900000880264800887D210901884212D100BF25
:1039100010E022480088142809DD204800887D2115
:103920000901884203DA08210620FFF7DBFA0020AC
:103930001A49088007214020FEF73CFC002817D1D7
:1039400017480088401C80B2154908807D21090174
:10395000884202DD481C12490880114800887D21F8
:103960000901884215D101210620FFF7BBFA10E0BA
:103970000B480088142809DD094800887D210901C9
:10398000884203DA02210620FFF7ACFA002004493E
:10399000088010BD2000002022000020240000200C
:1039A00026000020F8B50024FE4800798021084058
:1039B000002807D0FB4800794006400EF9490871FD
:1039C000802566E0F748007940210840002807D0AC
:1039D000F4480079BF210840F2490871402558E0B9
:1039E000F048007920210840002807D0ED480079F0
:1039F000DF210840EB49087120254AE0E9480079B9
:103A000010210840002807D0E6480079EF2108403F
:103A1000E449087110253CE0E2480079082108409B
:103A2000002807D0DF480079F7210840DD490871F8
:103A300008252EE0DB48007904210840002807D043
:103A4000D8480079FB210840D6490871042520E0B8
:103A5000D448007902210840002807D0D1480079D5
:103A6000FD210840CF490871022512E0CD480079B8
:103A7000C007C00F002807D0CA480079FE210840BF
:103A8000C8490871012504E0C64805790020C549E8
:103A90000871C5480078030000F02CFE05FD04AE57
:103AA000C657FC00202D1DD0402D32D0802D49D18D
:103AB000BE480078002802D0012810D105E0FFF7A9
:103AC0000BFB0620BA4908710AE0BAA1BD48FCF711
:103AD000CDFBFFF793FB0620B549087100E000BF5E
:103AE00000BF30E0B8480078401CB749087008466D
:103AF00000780A2808DB0020AC490870B249087039
:103B00000220FEF7CBFC03E080210520FFF7EAF955
:103B100019E00020AC490870A5490871A348007855
:103B2000401CA249087008460078022805D1FEF71B
:103B3000B5FC00209D49087003E080210520FFF7B7
:103B4000D1F900E000BF00BF85E2202D21D0402D3B
:103B500036D0802D4DD195480078002802D001281C
:103B600014D109E099A19748FCF780FBFFF746FBC9
:103B700006208F4908710AE09BA19248FCF776FB6A
:103B8000FFF73CFB06208A49087100E000BF00BF38
:103B900030E08D480078401C8B490870084600785A
:103BA0000A2808DB00208149087087490870022034
:103BB000FEF774FC03E080210520FFF793F919E07C
:103BC0000020814908707A49087178480078401CC3
:103BD0007649087008460078022805D1FEF75EFC99
:103BE00000207249087003E080210520FFF77AF970
:103BF00000E000BF00BF2EE2012D0ED0042D05D045
:103C0000802D0ED10020694908700BE07BA16D4822
:103C1000FCF72CFBFFF7F2FA04E00320FEF73EFC72
:103C200000E000BF00BF16E2202D7DD0402D7CD0EB
:103C3000802D7BD15D480078002802D0012876D104
:103C400005E0FFF749FA06205949087152E1302290
:103C50002046611CCCB25B490A542046611CCCB2A0
:103C600058490A540D222046611CCCB255490A54C9
:103C70000A222046611CCCB252490A5441222046F5
:103C8000611CCCB24F490A5454222046611CCCB26C
:103C90004C4901E0DEE15EE10A542B222046611C22
:103CA000CCB248490A544E222046611CCCB2454948
:103CB0000A5453222046611CCCB242490A54204681
:103CC000611CCCB23F490A5454222046611CCCB23C
:103CD0003C490A5441222046611CCCB239490A545D
:103CE00054222046611CCCB236490A545522204643
:103CF000611CCCB233490A5453222046611CCCB219
:103D000030490A543D222046611CCCB22D490A5448
:103D100030222046611CCCB22A490A54782220461F
:103D2000611CCCB2274903E000E1E5E010E1E0E0EE
:103D30000A54081901223549FEF7BEFAA01CC4B284
:103D40002C222046611CCCB21E490A5408190122BB
:103D50002F49FEF7B1FAA01CC4B21A490819012272
:103D60002B49491CFEF7A8FAA01CC4B229480088B8
:103D7000FCF74CFC06462849FCF76CFB0090114907
:103D8000081904226946FEF797FA20460830C4B2A3
:103D900022490889FCF73AFC06461F49FCF75AFB02
:103DA00000903DE00D000020600000206500002034
:103DB0007600002030300D0A41542B43434C4B0D0C
:103DC0000A000000810000206200002030300D0A4F
:103DD00041542B4E535354415455533D3078374240
:103DE0002C30300D0A00000030300D0A41542B4EAB
:103DF000534556454E540D0A0000000030300D0A60
:103E000041542B4E534A4F494E0D0A0006000020E4
:103E100004000020020000200000C84268000020CA
:103E20008F49081904226946FEF746FA20460830F1
:103E3000C4B28C494889FCF7E9FB06468A49FCF77D
:103E400009FB00908649081904226946FEF734FAF6
:103E500020460830C4B283498888FCF7D7FB064661
:103E60008149FCF7F7FA00907D4908190422694658
:103E7000FEF722FA20460830C4B27A49C888FCF717
:103E8000C5FB06467849FCF7E5FA00907449081925
:103E900004226946FEF710FA20460830C4B2714980
:103EA0004888FCF7B3FB06466F49FCF7D3FA00904D
:103EB0006B49081904226946FEF7FEF920460830CE
:103EC000C4B20D222146601CC4B2654842540A2285
:103ED0002046611CCCB262490A5400222046611C73
:103EE000CCB25F490A54FFF789F906205F4908718F
:103EF00000E000BF00BF2CE000205D4908705B4976
:103F000008715C480078401C5A49087008460078DF
:103F1000022806D10020FEF7C1FA0020554908709A
:103F200003E080210520FEF7DDFF12E05048007815
:103F3000401C4F490870084600780A2803DB02201D
:103F4000FEF7ACFA03E080210520FEF7CBFF00E08E
:103F500000BF00BF7FE0102D20D006DC022D5ED018
:103F6000042D3DD0082D72D142E0202D24D0402DCB
:103F70000BD0802D6BD140493948FCF777F9FFF71A
:103F80003DF906203949087162E00020384908707F
:103F90003649087107203949487059E000203849EE
:103FA000087038490870384908700220FEF776FA20
:103FB0000020324948704BE02D480078401C2C49C5
:103FC0000870084600780A2805DB002008700220E7
:103FD000FEF764FA03E080210520FEF783FF37E057
:103FE000254914311E48FCF741F9FFF707F92FE086
:103FF00025480078401C2449087000201F4948705B
:10400000214800780A2806DB00201F49087002209A
:10401000FEF744FA02E00320FEF740FA18E01948E0
:104020000078401C17490870002014494870154852
:1040300000780A2806DB0020124908700220FEF7EB
:104040002DFA02E00320FEF729FA01E0FFE700BFA6
:1040500000BF00E000BF00BFFFF78CF8F8BD000014
:1040600081000020680000200000C8427600002087
:104070006200002065000020E83D000050000020A4
:1040800006000020630000206400002070B50024BA
:1040900000BF0EE02C48005D4F2808D12A49601C63
:1040A000085C4B2803D140210520FEF71BFF601C54
:1040B000C4B2254860300079A042EBDC00243BE02C
:1040C0002148005D2B2835D11F49601C085C4E2813
:1040D00030D1A01C085C53282CD1E01C085C53286C
:1040E00028D1201D085C542824D1601D085C41287B
:1040F00020D1A01D085C54281CD1E01D085C452877
:1041000018D120460930085C3038C5B220460B3043
:10411000085C3038C6B2052E0CD1022D04D1102116
:104120000520FEF7DFFE05E0032D03D10821052061
:10413000FEF7D8FE601CC4B2034860300079A0428C
:10414000BEDCFCF797FC70BDE500002070B50025D3
:1041500027480478002C4AD0F0202040002805D0C1
:1041600020112449085C001DC5B201E02148055D0D
:104170002148445D72B61E48007820401C490870F2
:1041800062B6002D01D000F08DFA2B0000F0B2FADB
:10419000092D2C2B2A2724211E062D00FEF778FF3F
:1041A000FFF740FB1548807900280ED0134840796E
:1041B000401CC1B211484171142906DD0021417132
:1041C000817180210420FEF78DFE0FE000F0E6F8FB
:1041D0000CE0FEF76FF909E0FFF7E4FB06E0FFF7FC
:1041E00055FF03E002E001E000E000BF00BF70BD4A
:1041F0000C000020504A0000604A000045010020E9
:104200000146002001228A40D243014B5A61704787
:104210000058004001460020034B1A691346CB406A
:10422000D807C00F7047000000580040014600202A
:10423000044A1268120C12048BB21A43014B1A6022
:10424000704700000058004001460020044A5268B0
:10425000120C12048BB21A43014B5A6070470000D3
:104260000058004000200449C96849084900491C19
:10427000014AD16070470000005800400020044906
:10428000C9680122920291438918014AD16070479E
:104290000058004010B501460020284AD268032388
:1042A0001B039A430B781B030324240323401A4364
:1042B000224BDA601A46D2685B159A434B785B0250
:1042C0000124640223401A431C4BDA601A46D26868
:1042D0009B159A438B781B02641023401A43174B9B
:1042E000DA601A46D26870239A43CB781B01702497
:1042F00023401A43114BDA601A46D26808239A43C6
:104300000B79DB00082423401A430C4BDA601A4671
:10431000D26804239A434B799B00042423401A4318
:10432000064BDA601A46D26802239A438B795B0007
:10433000022423401A43014BDA6010BD00580040AC
:104340007CB50721684600F021FA01210B20FFF718
:1043500083F900216846017041710621C170012175
:1043600081710021017181704170FFF793FF0A4C48
:104370002046FFF75BFF25462846FFF765FF002034
:10438000FFF73EFFFFF77AFF012203210520FDF72B
:1043900023FBFFF767FF7CBD88FE000010B50024FB
:1043A00044E02448005D00283ED02248005D401EC5
:1043B000C0B220490855002836D1230000F09AF9F0
:1043C0000B07080E1314191A1E2A2B2C32002AE090
:1043D000022018494870FCF7F9FA24E01021062061
:1043E000FEF780FD1FE01EE020210520FEF77AFD8C
:1043F00019E018E00120FEF751F814E00E480078AB
:10440000032803DB04210520FEF76CFD00200A4988
:10441000087008E007E006E0782006498872FEF799
:10442000ADFD00E000BF00BF601CC4B20B2CB8DBC8
:1044300010BD0000760000206100002070470000E1
:1044400010B50021204800F0C6F8002814D0002143
:104450001D4800F097F801211C488171002141712D
:10446000194800F00FF919490A790979491CCBB2AA
:1044700016490B71603988540121134800F0ABF8DC
:10448000002820D00121104800F07CF81048007866
:10449000642805DC0F480E490978405C002807D1E4
:1044A00000200B4908700121074800F076F80AE067
:1044B000074802780078401C054B18700548815C5D
:1044C000014800F0E3F810BD000100404501002064
:1044D000000000208100002000B587B0062105A85B
:1044E00000F054F9102101A800F050F901211C201E
:1044F000FFF7B2F800216846017505AA02210020E5
:10450000FDF764FE012202210020FDF7A7FE012134
:104510006846017505AA03210020FDF757FE012218
:1045200003210020FDF79AFE01210846FFF794F8C9
:104530004021684601710021C180042141714B2155
:10454000C9010491012149020181FFF73BF8039061
:1045500001A90B4800F04CF80021094800F012F8BE
:104560000121074800F00EF80021054800F029F865
:10457000012203210720FDF72FFA07B000BD00003C
:104580000001004070B504460D4600222946204631
:104590001430FEF7DFFD002070BD70B504460D46F7
:1045A00000222946201DFEF7D5FD002070BD70B504
:1045B00004460D4601222946201DFEF7CBFD0020B2
:1045C00070BD70B504460D4601222946201DFEF738
:1045D000C1FD002070BD70B504460D460026294679
:1045E00020461030FDF7D2FD0646304670BD000073
:1045F000F0B585B005460C460127214903C9049151
:10460000039000200290002C02D1042005B0F0BDE0
:1046100000206860608861780843A1880843217899
:10462000084368602078402802D02078C02824D130
:10463000A088C117C90D09184912890003AA515A47
:104640008EB2E168B1400846FBF7E0FF0190A06838
:10465000FBF7DCFF00900199FBF7FCFE02903F2185
:104660000906029800F026F90190FBF7ADFD80B233
:10467000A86104212846FFF79AFF00273846C5E7BE
:10468000484A000001460868C0B2704702461068F8
:10469000000A0002CBB21843106000207047704738
:1046A000704770471E2002490860E120086070478B
:1046B000800F004001490870704700001C00002076
:1046C0000549086A096A0122120791438918024ABA
:1046D00011621146086270470020004002480349F9
:1046E00088600348886070475A5A000000200040E4
:1046F000A5A5000030B47446641E2578641CAB4246
:1047000004D3635D5B00E31830BC18471D46F8E72F
:1047100010B5002819DB1A4A03231B02D21883089C
:104720009B00D2588307DC0EFF23A3409A438B07DC
:104730001B0E8407E40EA3401A43114B03242402EA
:104740001B198408A4001A5118E00E4A03071B0F16
:10475000083B9B089B00D2588307DC0EFF23A34035
:104760009A438B071B0E8407E40EA3401A43054BA4
:104770000407240F083CA408A4001A5110BD00002F
:1047800000E100E01CED00E000BF704710B50A46F4
:104790000146002900D110BD02E000230B70491C26
:1047A0001346521E002BF8D100BFF4E770B5054642
:1047B00011481249486100208861052008610FE016
:1047C00000200E4988610E490E480068FBF794FDF1
:1047D000012109060C1A00BF08488069A042FBD8D5
:1047E00028466D1E0028EBD10448006940084000AF
:1047F0000249086170BD0000FFFFFF0000E000E01B
:10480000A08601000800002070B505461148124935
:104810004861002088610520086110E000200E49F1
:1048200088617D21C9000D480068FBF765FD012105
:1048300009060C1A00BF08488069A042FBD8284628
:104840006D1E0028EAD10448006940084000024972
:10485000086170BDFFFFFF0000E000E008000020DD
:10486000FEF7D8FCFDF73EFAFDF7ABFDFEF7BAFB0D
:10487000FDF7E0FDFFF764FDFFF72EFEFDF74EFDAF
:10488000FEF74CFBFBF73CFFFF20F530FFF7BCFFCA
:1048900002200649487088717820887201200449F6
:1048A000087001E0FFF752FCFCE7000076000020F2
:1048B0005000002070B501250400ED074C4020D4C5
:1048C000441A01D2001B0919C60D4B00F2B2FF2A8F
:1048D00029D01B0E2CD000020C02D31A2C43DC4032
:1048E0002843051910D2280A02D3401C6D0611D0A6
:1048F000761EF6058019FF2A00DA70BDC00DC005CE
:1049000070BD694000F022F801200543C541521CEA
:10491000761CE8E764089C40C90161408900E7D142
:104920000124A043E4E71B0E440200D0034870BDFD
:10493000002AFCD1C00FC00770BD00BF0000C07FBF
:1049400070B501250400ED074C4022D4441A02D270
:104950006C40001B0919C60D4B00F2B2FF2A4BD068
:104960001B0E50D000020C02D31A2C43DC40A8438B
:10497000051B05D5AD0019D36D08761E521E37D024
:10498000F605280A01D2801970BD70416D0603D06A
:1049900070BD6940FFF794FF9C40090261404900E7
:1049A00001D0401E70BD0124A04370BD6D081DD014
:1049B00001202B0C01D12D0410302B0E01D12D0222
:1049C00008302B0F01D12D01001DAB0F01D1AD001F
:1049D000801CEB0F01D16D00401C6D00361A121ABD
:1049E000680AF5054019012A02DB70BD002070BD80
:1049F000C036300AC00770BD1B0E440201D1FF2B28
:104A000000D1024870BD002AF0D070BD0000C07F08
:104A100020000000170000001B00000050460000AE
:104A2000E022020018000000F0000000E80300008F
:104A300000093D0000127A000024F4004086510174
:104A400000366E01008000960400000003000000A4
:104A50000001020203030303040404040404040425
:104A6000FFFEFDFBF7EFDFBF7F81828384858687B2
:104A700088898B8C8D8E8F919293959697999A9C1D
:104A80009D9FA0A2A3A5A7A8AAACAEB0B2B3B5B78C
:104A9000B9BCBEC0C2C5C7C9CCCED1D4D7D9DCDF62
:104AA000E2E6E9ECF0F3F7FAFE000000CC4A000081
:104AB0000000002068000000C8000000344B000027
:104AC0006800002048050000E4000000000000002D
:104AD0000000000000366E01000000000000000031
:104AE00000000000000000000000000000000000C6
:104AF0000000000000000101010000003F065B4FC4
:104B0000666D7D077F6F000103070F1F3F7FFF006A
:104B10000000000000000000000000000000000095
:104B20000000000000FE0000000000000100000086
:044B30000000000081
:04000005000000C136
:00000001FF
