:020000040000FA
:10000000C8040020150200002F020000751C00002B
:1000100000000000000000000000000000000000E0
:10002000000000000000000000000000330200009B
:10003000000000000000000035020000F92400006C
:10004000A5220000A7220000A9220000AB22000088
:10005000FF060000812A0000D52E0000D72E0000E8
:10006000011E0000031E0000F7220000F92200001C
:10007000851C0000871C0000792A00007B2A0000F4
:100080007D2A0000791D0000A52A0000A72A000093
:10009000A92A0000A1220000DD2E0000F5220000A8
:1000A000CB060000A3220000D92E0000DB2E0000AA
:1000B000A91F0000771D000075140000CD06000088
:1000C00000F030F800F050F8103A02D378C878C148
:1000D000FAD8520701D330C830C101D504680C608A
:1000E000704700000023002400250026103A01D3A9
:1000F00078C1FBD8520700D330C100D50B607047E0
:10010000F8B505460E461746284601F029FA0024A0
:1001100004E0315D281901F0A5FA641CBC42F8DB4B
:10012000F8BD00000CA030C8083824182D18A246CD
:10013000671EAB4654465D46AC4201D100F014F850
:100140007E460F3E0FCCB6460126334200D0FB1A46
:10015000A246AB4633431847C4310000E4310000E7
:100160001FB51FBD10B510BD00F072FA1146FFF7A4
:10017000F7FF00F0A3FA00F03BF803B4FFF7F2FF3B
:1001800003BC02F01FFF000070B505460C46164682
:1001900002E00FCC0FC5103E102EFAD2082E02D36B
:1001A00003CC03C5083E042E07D301CC01C5361F7E
:1001B00003E021782970641C6D1C761EF9D270BD95
:1001C000704700000FB4054910B503AA029800F06B
:1001D00013FA10BC08BC04B018470000040000204B
:1001E0007047704770477047C0688021084070476B
:1001F00010B50446C046C0462046FFF7BEFF10BDFE
:1002000010B50346002002E01C5C0C54401C9042D8
:10021000FADB10BD0C480D4A002100A1814200D933
:1002200002440B4802600B4880470B480047FEE73A
:10023000FEE7FEE7FEE7FEE7FEE7000007480849A5
:10024000084A094B70470000000000200000000031
:1002500008ED00E0392A0000C1000000C8000020BD
:10026000C8040020C8020020C802002001E004C029
:10027000091F0429FBD28B0701D50280801CC90706
:1002800000D00270704700290BD0C30702D0027063
:10029000401C491E022904D3830702D50280801C1A
:1002A000891EE3E70022EEE70022DFE700220309D0
:1002B0008B422CD3030A8B4211D300239C464EE081
:1002C00003460B433CD4002243088B4231D303093D
:1002D0008B421CD3030A8B4201D394463FE0C309EF
:1002E0008B4201D3CB01C01A524183098B4201D307
:1002F0008B01C01A524143098B4201D34B01C01AF2
:10030000524103098B4201D30B01C01A5241C30869
:100310008B4201D3CB00C01A524183088B4201D3D8
:100320008B00C01A524143088B4201D34B00C01AC4
:100330005241411A00D201465241104670475DE0D9
:10034000CA0F00D04942031000D34042534000225C
:100350009C4603098B422DD3030A8B4212D3FC2205
:10036000890112BA030A8B420CD3890192118B4284
:1003700008D3890192118B4204D389013AD092119A
:1003800000E08909C3098B4201D3CB01C01A524155
:1003900083098B4201D38B01C01A524143098B421E
:1003A00001D34B01C01A524103098B4201D30B0107
:1003B000C01A5241C3088B4201D3CB00C01A52412C
:1003C00083088B4201D38B00C01A5241D9D2430813
:1003D0008B4201D34B00C01A5241411A00D2014650
:1003E000634652415B10104601D34042002B00D5BA
:1003F0004942704763465B1000D3404201B500207C
:10040000C046C04602BD0000F0B5FF252D04C60958
:10041000C209FF2704462E400137CB093E4348401E
:100420002A402B400746002A6BD0002B69D0AA42F5
:1004300067D0AB4265D0002800DA32460125ED05D1
:1004400029432C4309022002090AD21A4B0C7F24AB
:10045000E31A434C000A7C44E35C7D242404121913
:1004600014145B00A218884201D3521C00E0400023
:1004700049420C465C4324115C43DB016415E318DC
:10048000040A5C43C502200D0C4644436419250A46
:100490005D432303EC0C0D46654300030019EB1884
:1004A0004C42A34201D35B18401CD4052018002BFA
:1004B00007D05B00C91804D3401C002901D14008B3
:1004C00040003F2189048A4209D3002A08DC110632
:1004D000090F04D0032149074018C00FC007F0BD21
:1004E00001224100120689187F2252069142F6D25B
:1004F00005214907C84201D59010F0BDFF20C00575
:10050000F0BD002F00DA32461648AA4207D2AB42AD
:1005100005D21902090E17D0F80FC007F0BDFF254C
:1005200063002D06AB42F9D84900A942F6D8AB4288
:1005300001D1A942F2D0A94201D1002101E061001C
:100540004908D0050843F0BD1102090EFBD0FF2079
:100550000243D005F0BD0A460146104654E70000AC
:100560007F2E00000000C07F0102C21504D00123CD
:10057000DB071943002A0ADB9E239A1A02D4084695
:10058000D0407047FF2241001206914201D900205D
:100590007047C017C04370471F22030C02D10F22BF
:1005A00000041CD0030E01D10002083A030F01D150
:1005B0000001121F830F01D18000921E002801DB71
:1005C0004000521ED20551180212511819229040B3
:1005D00004D3491C002801D1490849000846704746
:1005E000C10FC90700D04042012292071143D3E74F
:1005F00001218907D0E70000084B70B50D467B4408
:1006000000F013F804462846FFF7EEFD002802D05C
:100610000020C04370BD204670BD00009B2A000032
:1006200001694A1C02610878704700B58FB00291D9
:1006300000210591054901937944039111460490E5
:10064000684600F024F80FB000BD0000E5FFFFFF92
:10065000754600F02FF8AE46050069465346C008BF
:10066000C000854618B020B5FFF7E8FD60BC002744
:100670004908B6460026C0C5C0C5C0C5C0C5C0C56E
:10068000C0C5C0C5C0C5403D49008D467047F8B5DE
:10069000064600244768806800903046F56803E00D
:1006A0000099B847641C3046A8470028F8D1204676
:1006B000F8BD0000004870476400002010B502F04B
:1006C000BBF902F0FDFC002010BD7047704710B56B
:1006D000002001F051FE002001F04EFE08214020D4
:1006E00001F04EFA0921402001F04AFA0A21402087
:1006F00001F046FA0B21402001F042FA10BD70478C
:1007000010B53D480078002806D001281BD00228EB
:1007100030D003285FD144E00C21402001F09CFA46
:100720000D21402001F02CFA0E21402001F028FA82
:100730000F21402001F024FA002001F01DFE0020CE
:1007400001F01AFE48E00C21402001F019FA0D21B9
:10075000402001F081FA0E21402001F011FA0F2112
:10076000402001F00DFA002001F006FE002001F00B
:1007700003FE31E00C21402001F002FA0D2140205F
:1007800001F0FEF90E21402001F066FA0F21402011
:1007900001F0F6F9002001F0EFFD762001F0ECFD0C
:1007A0001AE00C21402001F0EBF90D21402001F06E
:1007B000E7F90E21402001F0E3F90F21402001F07C
:1007C0004BFA002001F0D8FD0C490D4A1278885CE4
:1007D00001F0D2FD00E000BF00BF07480078401CD8
:1007E000054908700878C117890F09188910890010
:1007F000411A014A117010BD270000202900002075
:100800002500002070B5A8480088A849884202DD6C
:100810000846A5490880A6480078002806D0012887
:1008200049D002287DD003287CD10DE10C21402045
:1008300001F012FA0D21402001F0A2F90E21402012
:1008400001F09EF90F21402001F09AF99948C088E3
:1008500095490988884204DC0A21402001F0FCF90E
:1008600003E00A21402001F08BF9924840898E492B
:100870000988884204DB0B21402001F0EDF903E0F8
:100880000B21402001F07CF9002001F075FD864825
:100890000088894988420ADD491C83480088FFF79F
:1008A0000FFD86490C5C204601F066FD02E0002049
:1008B00001F062FDE7E00C21402001F061F90D211B
:1008C000402001F0C9F90E21402001F059F90F2113
:1008D000402001F055F9774880887349098888429B
:1008E0000ADC7448C08870490988884204DD0A21FE
:1008F000402001F0B1F903E00A21402001F040F965
:100900006C4840896849098888420CDA694800893E
:1009100065490988884206DB0B21402001F09CF9DB
:1009200005E025E0AEE00B21402001F029F9644903
:10093000087801F021FD5C480088632810DD6421FF
:1009400059480088FFF7BCFC05460A21FFF7B8FCB0
:100950005A48405C80210843044601F00DFD06E042
:100960005649097880221143084601F005FD8AE0C6
:100970000C21402001F004F90D21402001F000F984
:100980000E21402001F068F90F21402001F0F8F815
:100990004C480088401C4B49088008460088502875
:1009A00001DB0020088047480088282804DA0B2152
:1009B000402001F051F903E00B21402001F0E0F864
:1009C0003948008890280ADA37490C88E117090F5E
:1009D000091909113A4A505C01F0CEFC1CE032487A
:1009E000008890280CDB30480088A02808DA3449B9
:1009F000087A01F0C1FC0821402001F02DF90BE03C
:100A00002F49087A01F0B8FC0821402001F024F9B0
:100A10000921402001F020F92348008809280EDD33
:100A20000A2121480088FFF74BFC05460A21FFF701
:100A300047FC2248445C204601F09EFC03E01F492D
:100A4000087801F099FC1EE00C21402001F098F894
:100A50000D21402001F094F80E21402001F090F883
:100A60000F21402001F0F8F8002001F085FC0A2158
:100A70000D480088FFF724FC1048445C204601F034
:100A80007BFC00E000BF00BF09480078401C08491B
:100A900008700878C117890F091889108900411A50
:100AA000034A117070BD0000000000200F270000F5
:100AB0002700002048000020E70300002900002054
:100AC000330000203C00002070B5714800780028F9
:100AD00006D001282DD002285BD003287DD185E0E7
:100AE0000C21402001F0B8F80D21402001F048F819
:100AF0000E21402001F044F80F21402001F040F881
:100B0000002001F039FC63484088634988420BDDCE
:100B1000604948887D21C900FFF7D2FB5F490C5C22
:100B2000204601F029FC03E05C49087801F024FC30
:100B30009EE00C21402001F023F80D21402001F01F
:100B40008BF80E21402001F01BF80F21402001F00E
:100B500017F8002001F010FC4E484088632810DD93
:100B60004C4948886421FFF7ABFB05460A21FFF793
:100B7000A7FB4A48405C80210843044601F0FCFB87
:100B800006E04649097880221143084601F0F4FB4B
:100B90006EE00C21402000F0F3FF0D21402000F01A
:100BA000EFFF0E21402001F057F80F21402000F008
:100BB000E7FF002001F0E0FB36484088092810DDFF
:100BC000344948880A21FFF77BFB05460A21FFF7D5
:100BD00077FB3248445C204600E048E001F0CCFB63
:100BE00003E02E49087801F0C7FB41E00C214020CA
:100BF00000F0C6FF0D21402000F0C2FF0E21402072
:100C000000F0BEFF0F21402001F026F8002001F087
:100C1000B3FB2348007803281ED122480078401CEB
:100C20002049087008460078502801DB0020087031
:100C30001C48007828280ADA164948880A21FFF754
:100C40003FFB1648445C204601F096FB0EE013493A
:100C5000087801F091FB09E00E4948880A21FFF766
:100C60002FFB0E48445C204601F086FB00E000BFED
:100C700000BF07480078401C054908700878C11774
:100C8000890F091889108900411A014A117070BD35
:100C90002700002048000020E70300002900002072
:100CA000280000203E00002070B560480078002831
:100CB00006D001282DD002285BD003287DD185E005
:100CC0000C21402000F0C8FF0D21402000F058FF0B
:100CD0000E21402000F054FF0F21402000F050FF73
:100CE000002001F049FB52488088524988420BDDC0
:100CF0004F4988887D21C900FFF7E2FA4E490C5C14
:100D0000204601F039FB03E04B49087801F034FB41
:100D10007BE00C21402000F033FF0D21402000F04B
:100D20009BFF0E21402000F02BFF0F21402000F000
:100D300027FF002001F020FB3D488088632810DD5C
:100D40003B4988886421FFF7BBFA05460A21FFF773
:100D5000B7FA3948405C80210843044601F00CFB97
:100D600006E03549097880221143084601F004FB6A
:100D70004BE00C21402000F003FF0D21402000F04B
:100D8000FFFE0E21402000F067FF0F21402000F001
:100D9000F7FE002001F0F0FA25488088092810DDD0
:100DA000234988880A21FFF78BFA05460A21FFF7B5
:100DB00087FA2148445C204600E025E001F0DCFA97
:100DC00003E01D49087801F0D7FA1EE00C2140200D
:100DD00000F0D6FE0D21402000F0D2FE0E21402072
:100DE00000F0CEFE0F21402000F036FF002001F081
:100DF000C3FA0F4988880A21FFF762FA0E48445C5B
:100E0000204601F0B9FA00E000BF00BF07480078B3
:100E1000401C064908700878C117890F0918891005
:100E20008900411A014A117070BD0000270000209E
:100E300048000020E70300002900002070B560484A
:100E40000078002806D001282DD002285BD0032886
:100E50007DD185E00C21402000F0FEFE0D214020D8
:100E600000F08EFE0E21402000F08AFE0F2140206F
:100E700000F086FE002001F07FFA5248C0885249F7
:100E800088420BDD4F49C8887D21C900FFF718FA59
:100E90004E490C5C204601F06FFA03E04B4908789C
:100EA00001F06AFA7BE00C21402000F069FE0D2180
:100EB000402000F0D1FE0E21402000F061FE0F2105
:100EC000402000F05DFE002001F056FA3D48C08849
:100ED000632810DD3B49C8886421FFF7F1F9054616
:100EE0000A21FFF7EDF93948405C802108430446A8
:100EF00001F042FA06E0354909788022114308469C
:100F000001F03AFA4BE00C21402000F039FE0D21AF
:100F1000402000F035FE0E21402000F09DFE0F2104
:100F2000402000F02DFE002001F026FA2548C08860
:100F3000092810DD2349C8880A21FFF7C1F90546B1
:100F40000A21FFF7BDF92148445C204600E025E076
:100F500001F012FA03E01D49087801F00DFA1EE0D5
:100F60000C21402000F00CFE0D21402000F008FE76
:100F70000E21402000F004FE0F21402000F06CFE06
:100F8000002001F0F9F90F49C8880A21FFF798F904
:100F90000E48445C204601F0EFF900E000BF00BFBE
:100FA00007480078401C064908700878C117890F67
:100FB000091889108900411A014A117070BD00009A
:100FC0002700002048000020E7030000290000203F
:100FD00070B560480078002806D001282DD002287E
:100FE0005BD003287DD185E00C21402000F034FE49
:100FF0000D21402000F0C4FD0E21402000F0C0FD76
:101000000F21402000F0BCFD002001F0B5F952484E
:101010004089524988420BDD4F4948897D21C900EA
:10102000FFF74EF94E490C5C204601F0A5F903E0AC
:101030004B49087801F0A0F97BE00C21402000F03A
:101040009FFD0D21402000F007FE0E21402000F002
:1010500097FD0F21402000F093FD002001F08CF956
:101060003D480089632810DD3B4908896421FFF76A
:1010700027F905460A21FFF723F93948405C80210A
:101080000843044601F078F906E0354909788022E2
:101090001143084601F070F94BE00C21402000F0AC
:1010A0006FFD0D21402000F06BFD0E21402000F06F
:1010B000D3FD0F21402000F063FD002001F05CF91A
:1010C00025480089092810DD234908890A21FFF7EE
:1010D000F7F805460A21FFF7F3F82148445C20465B
:1010E00000E025E001F048F903E01D49087801F02F
:1010F00043F91EE00C21402000F042FD0D2140206C
:1011000000F03EFD0E21402000F03AFD0F2140206E
:1011100000F0A2FD002001F02FF90F4908890A21F3
:10112000FFF7CEF80E48445C204601F025F900E0B8
:1011300000BF00BF07480078401C064908700878C7
:10114000C117890F091889108900411A014A1170C5
:1011500070BD00002700002048000020E7030000C9
:101160002900002070B560480078002806D00128CA
:101170002DD002285BD003287DD185E00C214020B2
:1011800000F06AFD0D21402000F0FAFC0E21402005
:1011900000F0F6FC0F21402000F0F2FC002001F0EE
:1011A000EBF852484089524988420BDD4F49488943
:1011B0007D21C900FFF784F84E490C5C204601F000
:1011C000DBF803E04B49087801F0D6F87BE00C210E
:1011D000402000F0D5FC0D21402000F03DFD0E2107
:1011E000402000F0CDFC0F21402000F0C9FC002081
:1011F00001F0C2F83D484089632810DD3B49488929
:101200006421FFF75DF805460A21FFF759F83948D0
:10121000405C80210843044601F0AEF806E0354901
:10122000097880221143084601F0A6F84BE00C2112
:10123000402000F0A5FC0D21402000F0A1FC0E2173
:10124000402000F009FD0F21402000F099FC002013
:1012500001F092F825484089092810DD2349488982
:101260000A21FFF72DF805460A21FFF729F8214842
:10127000445C204600E025E001F07EF803E01D49D3
:10128000087801F079F81EE00C21402000F078FC8D
:101290000D21402000F074FC0E21402000F070FC75
:1012A0000F21402000F0D8FC002001F065F80F4924
:1012B00048890A21FFF704F80E48445C204601F0F3
:1012C0005BF800E000BF00BF07480078401C0649FB
:1012D00008700878C117890F091889108900411A08
:1012E000014A117070BD0000270000204800002056
:1012F000E70300002900002010B5404800780028CE
:1013000006D001281BD0022830D0032864D14CE03D
:101310000C21402000F0A0FC0D21402000F030FC0A
:101320000E21402000F02CFC0F21402000F028FC72
:10133000002001F021F8002001F01EF84DE00C2102
:10134000402000F01DFC0D21402000F085FC0E2106
:10135000402000F015FC0F21402000F011FC00207F
:1013600001F00AF8002001F007F836E00C214020D7
:1013700000F006FC0D21402000F002FC0E21402070
:1013800000F06AFC0F21402000F0FAFB002000F082
:10139000F3FF1B48007B002803D13E2000F0ECFF48
:1013A00002E0772000F0E8FF17E00C21402000F079
:1013B000E7FB0D21402000F0E3FB0E21402000F070
:1013C000DFFB0F21402000F047FC002000F0D4FF9D
:1013D000002000F0D1FF00E000BF00BF0748007808
:1013E000401C064908700878C117890F0918891030
:1013F0008900411A014A117010BD00002700002029
:101400004800002070B504460E46154620460028C8
:1014100005DBC206D20E01219140144A116000BFC3
:101420003146204601F092FD012D0ED120460028C4
:1014300009DB00BF00BFC206D20E012191400C4A59
:10144000116000BF00BF00BF0FE0204600280ADB8C
:10145000C206D20E01219140054A80321160BFF3CD
:101460004F8FBFF36F8F00BF00BF70BD80E200E001
:1014700000E100E070470000F0B58BB005460E4675
:101480000024FF200A9000200990202101A8FEF7E7
:101490000BFF284F012D0ED0022D0CD0042D0AD0A9
:1014A000062D08D0082D06D00C2D04D0042009905C
:1014B00009980BB0F0BD1F48006A0121490288431A
:1014C000710201225202114008431A4908620024A5
:1014D00007E0A000184908586843A10001AA50502D
:1014E000641C082CF5D30C2D01D1FF2002900024A0
:1014F0001CE0FF200A9011E00A98411E0A91002882
:101500000AD00E480B49C8620D48C862A00001A964
:101510000858A100785001E00720CAE7A000385819
:10152000A10001AA51588842E6D1641C082CE0D3DE
:101530000998BEE7000002407C3200005A5A0000C1
:10154000A5A5000003480449C8620448C8620020F9
:10155000086370475A5A000000000240A5A5000029
:1015600008B502460023FF2000902548824202D998
:101570000423184608BDFF20009006E00098411E95
:101580000091002801D10920F4E71E48006AC00636
:10159000C00F0028F2D100F03BF8FF20009012E0CD
:1015A0000098411E009100280BD017481549C862C9
:1015B0001648C8620846006A80088000801C0862DD
:1015C00001E00920D6E70F48006A8007800F022853
:1015D000E6D100201070FF20009006E00098411E28
:1015E0000091002801D10920C4E70648006AC0061E
:1015F000C00F0028F2D1FFF7A5FF1846BAE7000098
:10160000FFFF0000000002405A5A0000A5A500009C
:1016100004480549C8620548C8620020C043086301
:10162000704700005A5A000000000240A5A50000C3
:1016300010B501460020084A084BDA62084ADA620F
:101640001A46126A0C239A438B000C2423401A4337
:10165000024B1A6210BD00005A5A000000000240FE
:10166000A5A5000018B502460B460024FF200090F7
:101670002448824202D90424204618BDFF2000904D
:1016800006E00098411E0091002801D10920F4E7EE
:101690001D48006AC006C00F0028F2D1FF2000904C
:1016A00012E00098411E009100280BD017481649FF
:1016B000C8621748C8620846006A80088000401C5B
:1016C000086201E00920D8E70F48006A8007800F10
:1016D0000128E6D1FFF79CFF1370FF20009006E081
:1016E0000098411E0091002801D10920C5E7064855
:1016F000006AC006C00F0028F2D1FFF723FF204682
:10170000BBE70000FFFF0000000002405A5A000043
:10171000A5A500001CB501211C2001F0E1F8012164
:1017200068460170417000218170C1700171012112
:1017300041716A460021084600F03CFA6A460121E0
:10174000002000F037FA6A460221002000F032FA49
:101750006A460321002000F02DFA6A460421002089
:1017600000F028FA6A460521002000F023FA6A46B4
:101770000621002000F01EFA6A460721002000F032
:1017800019FA6A460821002000F014FA6A46092175
:10179000002000F00FFA6A460A21002000F00AFA41
:1017A0006A460B21002000F005FA6A460C21002051
:1017B00000F000FA6A460D21002000F0FBF96A46AD
:1017C0000E21002000F0F6F96A460F21002000F0FB
:1017D000F1F90021084600F0D3F90121002000F0C2
:1017E000CFF90221002000F0CBF90321002000F006
:1017F000C7F90421002000F0C3F90521002000F002
:10180000BFF90621002000F0BBF90721002000F0FD
:10181000B7F90821002000F0B3F90921002000F0F9
:10182000AFF90A21002000F0ABF90B21002000F0F5
:10183000A7F90C21002000F0A3F90D21002000F0F1
:101840009FF90E21002000F09BF90F21002000F0ED
:1018500097F96A460021402000F0ACF96A46012160
:10186000402000F0A7F96A460221402000F0A2F9CA
:101870006A460321402000F09DF96A460421402079
:1018800000F098F96A460621402000F093F96A4674
:101890000721402000F08EF96A460821402000F020
:1018A00089F96A460921402000F084F96A460A2134
:1018B000402000F07FF96A460B21402000F07AF9C1
:1018C0006A460C21402000F075F96A460D2140203F
:1018D00000F070F96A460E21402000F06BF96A466C
:1018E0000F21402000F066F90021402000F048F967
:1018F0000121402000F044F90221402000F040F98D
:101900000321402000F03CF90421402000F038F988
:101910000521402000F034F90621402000F030F984
:101920000721402000F02CF90821402000F028F980
:101930000921402000F024F90A21402000F020F97C
:101940000B21402000F01CF90C21402000F018F978
:101950000D21402000F014F90E21402000F010F974
:101960000F21402000F00CF96A460021802000F091
:1019700021F96A460121802000F01CF96A46022103
:10198000802000F017F96A460321802000F012F948
:101990006A460421802000F00DF96A460521802066
:1019A00000F008F96A460621802000F003F96A4633
:1019B0000721802000F0FEF86A460821802000F010
:1019C000F9F86A460921802000F0F4F86A460A21F5
:1019D000802000F0EFF86A460B21802000F0EAF842
:1019E0006A460C21802000F0E5F86A460D2180202F
:1019F00000F0E0F80021802000F0C2F801218020F2
:101A000000F0BEF80221802000F0BAF80321802007
:101A100000F0B6F80421802000F0B2F80521802003
:101A200000F0AEF80621802000F0AAF807218020FF
:101A300000F0A6F80821802000F0A2F809218020FB
:101A400000F09EF80A21802000F09AF80B218020F7
:101A500000F096F80C21802000F092F80D218020F3
:101A600000F08EF86A460021C02000F0A3F86A4614
:101A70000121C02000F09EF86A460221C02000F03B
:101A800099F86A460321C02000F094F86A460621BE
:101A9000C02000F08FF86A460721C02000F08AF8C5
:101AA0006A460821C02000F085F86A460921C02056
:101AB00000F080F86A460A21C02000F07BF86A46F0
:101AC0000B21C02000F076F86A460C21C02000F0FF
:101AD00071F86A460D21C02000F06CF86A460E21AC
:101AE000C02000F067F86A460F21C02000F062F8BD
:101AF0000021C02000F044F80121C02000F040F88F
:101B00000221C02000F03CF80321C02000F038F88A
:101B10000421C02000F034F80521C02000F030F886
:101B20000621C02000F02CF80721C02000F028F882
:101B30000821C02000F024F80921C02000F020F87E
:101B40000A21C02000F01CF80B21C02000F018F87A
:101B50000C21C02000F014F80D21C02000F010F876
:101B60000E21C02000F00CF80F21C02000F008F872
:101B70001CBD02461068C840C007C00F7047000077
:101B800070B504460D46044960180122294600F04C
:101B900043FC002070BD0000140D024070B50446E7
:101BA0000D46034960182946FFF7E3FF70BD0000AA
:101BB000040D024070B504460E4615461E496018D5
:101BC0000022314600F028FC00201C496118B200B8
:101BD00088502A7818490C396018314600F01CFCEE
:101BE0006A78154910316018314600F015FCAA7862
:101BF000114914316018314600F00EFCEA780E49A4
:101C000018316018314600F007FC2A790A49203162
:101C10006018314600F000FC094880680121C903C2
:101C200088436979C9030122D2031140084304495A
:101C30008860002070BD00000C0D0240000C0240C6
:101C4000000F024010B50346024818188C000251DC
:101C5000002010BD000C024070B504460D4604493A
:101C600060180122294600F0D7FB002070BD00005B
:101C7000100D024008B50020009000BF0098002819
:101C8000FCD008BD704770471CB501211C2000F036
:101C900027FE0021684601708170C1700821402034
:101CA000FFF76EFF09214020FFF76AFF0A2140205D
:101CB000FFF766FF0B214020FFF762FF0C21402059
:101CC000FFF75EFF0D214020FFF75AFF0E21402055
:101CD000FFF756FF0F214020FFF752FF6A46082109
:101CE0004020FFF767FF6A4609214020FFF762FFA7
:101CF0006A460A214020FFF75DFF6A460B2140201B
:101D0000FFF758FF6A460C214020FFF753FF6A4651
:101D10000D214020FFF74EFF6A460E214020FFF7BD
:101D200049FF6A460F214020FFF744FF1CBD1CB548
:101D300001211C2000F0D4FD012168460170417092
:101D400000218170C1700171012141716A46042135
:101D50004020FFF72FFF6A4605214020FFF72AFFAA
:101D60006A4606214020FFF725FF6A4607214020EA
:101D7000FFF720FF1CBD704710B5074800F033FA8D
:101D8000012808D1044800F011FA044800784021E5
:101D900008430249087010BD000F00400C000020ED
:101DA0001CB50821684601F00FF90121092000F057
:101DB00097FD002168468170417002210170002169
:101DC000C1700171012141710B49C18069460B4805
:101DD00000F011FA094800F0E9F90121074800F084
:101DE000F8F9012203211120FFF70CFB0121034820
:101DF00000F0E5F91CBD0000FFBF0000000F00402F
:101E00007047704770B504460D46002229462046AB
:101E1000143000F001FB002070BD70B504460D4683
:101E200001222946201D00F0F7FA002070BD70B590
:101E300004460D460026294620461030FFF799FE3D
:101E40000646304670BD0000F0B587B005460C462A
:101E50000127224A07CA04AB07C300200390002CC5
:101E600002D1042007B0F0BD00206860608861786E
:101E70000843E1880843A188084321780843686043
:101E80002078402802D02078C02824D1E088C117CB
:101E9000C90D09184912890004AA515A8EB2E16885
:101EA000B1400846FEF7A4FB0290A068FEF7A0FB35
:101EB00001900299FEF7A8FA03903F2109060398C2
:101EC00001F02EF90290FEF74FFB80B2A8610421C9
:101ED0002846FFF7A2FF00273846C3E79C320000E0
:101EE00070B504460D4600BF03212046FFF79FFF53
:101EF0000028F9D02068000A0002E9B208432060F7
:101F000000BF01212046FFF792FF0028F9D00121F0
:101F10002046FFF777FF002070BD000000B587B0B6
:101F2000102103A801F050F8062101A801F04CF897
:101F30000121032000F0D4FC01211C2000F0D0FC82
:101F400000216846017101AA0846FFF733FE02220C
:101F500000210846FFF776FE01216846017101AABB
:101F60000020FFF727FE022201210020FFF76AFE72
:101F700000216846C181042141730021018200F0E3
:101F800065FC05900121890203A8C180E121490275
:101F9000069140216846017303A90248FFF754FFE8
:101FA00007B000BD004000407047000010B55C481D
:101FB000407980210840002807D0594840794006E0
:101FC000400E57494871802466E0554840794021C9
:101FD0000840002807D052484079BF2108405049A6
:101FE0004871402458E04E4840792021084000289C
:101FF00007D04B484079DF210840494948712024E7
:102000004AE04748407910210840002807D044485A
:102010004079EF2108404249487110243CE0404893
:10202000407908210840002807D03D484079F72131
:1020300008403B49487108242EE039484079042182
:102040000840002807D036484079FB210840344931
:102050004871042420E032484079022108400028D9
:1020600007D02F484079FD2108402D4948710224AE
:1020700012E02B484079C007C00F002807D028483D
:102080004079FE21084026494871012404E0244893
:10209000447900202249487122480078012837D12C
:1020A000102C1BD008DC012C28D0022C22D0042CB0
:1020B0001CD0082C26D115E0202C0BD0402C05D0AC
:1020C000802C1FD118A0FEF77DF81FE01AA0FEF7A4
:1020D00079F81BE01CA0FEF775F817E01EA0FEF7CC
:1020E00071F813E020A0FEF76DF80FE022A0FEF7D4
:1020F00069F80BE024A0FEF765F807E027A0FEF7DB
:1021000061F803E0012000F0F3FE00BF00BF03E030
:10211000012000F0EDFE00BF00BF00F08DF910BD02
:102120000D0000201600002073686F7274206D652A
:102130006E752E2E2E2E2E006C6F6E67206D656EC6
:10214000752E2E2E2E2E000073686F7274207570FF
:102150002E2E2E2E2E0000006C6F6E672075702EB6
:102160002E2E2E2E0000000073686F727420646F94
:10217000776E2E2E2E2E2E006C6F6E6720646F777A
:102180006E2E2E2E2E2E000073686F727420656ED8
:102190007465722E2E2E2E2E000000006C6F6E675E
:1021A00020656E7465722E2E2E2E2E0010B50446FC
:1021B000002211462046143000F02EF910BD70B5F3
:1021C00005460C462246002128460C3000F024F932
:1021D00070BD70B505460C4622460A2128460C30D3
:1021E00000F01AF970BD10B50446002120461030E9
:1021F000FFF7BFFC10BD30B502467D23DB00D06881
:102200003024A0430C78240130252C402043D0609A
:10221000D06801246402A0434C78640201256D0259
:102220002C402043D060D0686C10A0438C782402EE
:102230006D102C402043D060D0680824A043CC7897
:10224000E40008252C402043D060D0680424A0433B
:102250000C79A40004252C402043D060D0680224CF
:10226000A0434C79640002252C402043D06005E057
:10227000D0680006C00F002800D004E018465C1E9D
:10228000A3B20028F4D100BF002B01D1092030BD3A
:102290005068000C0004CC88204350600020F6E712
:1022A00070477047704770477047704710B500BF60
:1022B00001210620FFF7E0F80028F9D10E220B4992
:1022C0000B480068FDF79CFF08480078AB2803D155
:1022D0000648407BBA2807D000F0F6F80E220349E2
:1022E00003480068FDF70CFF10BD00004800002007
:1022F0004000002070477047704700000EB506216F
:1023000001A800F061FE01211C2000F0E9FA012182
:10231000062000F0E5FA002168464171017101AA2A
:1023200007210020FFF746FC012207210020FFF7CC
:1023300089FC01AA04210020FFF73CFC01220421B2
:102340000020FFF77FFC01AA05210020FFF732FCE7
:10235000012205210020FFF775FC1021684601705D
:1023600000214170C17081706946024800F07FF819
:102370000EBD00000008004010B5044600210948C9
:1023800000F089F82146074800F081F800BF0421D9
:10239000044800F063F80028F9D00121014800F05A
:1023A0007AF810BD0008004010B5FEF790F9184803
:1023B0000078012804D0022805D0042825D105E0A2
:1023C000FEF720FA22E0FEF79BF91FE011480078A3
:1023D000030000F0ADFD071705080B0E11141700E0
:1023E000FEF772FB0FE0FEF75FFC0CE0FEF726FD48
:1023F00009E0FEF7EDFD06E0FEF7B4FE03E0FEF7B0
:102400007BFF00E000BF00BF00E000BF00BF10BDC9
:10241000240000202500002010B5012A05D1036802
:1024200001248C402343036004E0036801248C40B2
:10243000A343036010BD000006484079002807D080
:1024400072B605480078202108430349087062B637
:10245000704700000D0000200C000020024690682C
:102460000840002801D0012070470020FCE7024608
:102470000020106008784B7818438B781843CB788D
:1024800018434023184310600020906070470246B4
:10249000D160002070474160704708B50020FFF709
:1024A000C7F8002000F028FA062000F04BFA0021BF
:1024B000684601704170817000F022F8012103200C
:1024C00000F054F808BD0000AB200A490870FF2056
:1024D000F5304880FF202D308880FF20A530C8804F
:1024E000FA200881C820488100200873BA20487368
:1024F000704700004800002010B5C046C04610BD1F
:1025000070B5044600252078030000F011FD050495
:10251000050C10181C0018E0032000F05DFA0320E1
:1025200000F024FA11E0032000F0FAF90DE0032195
:10253000084600F05FFA032000F028FA05E00720C3
:1025400000F0BCF901E0042500BF00BF20780121A4
:1025500000F00CF8207800F029FA607800F086F995
:10256000A07800F097F9284670BD0000F8B5054640
:102570000C46002700F0D0FC002C01D0012000E028
:10258000002004465148066A2B0000F0D1FC0504E7
:1025900017394D7298004D48006840084000E10727
:1025A000C90F08434949086000BF002C05D04748BF
:1025B000C0680005C00F0028F7D082E04348006AD9
:1025C0000121090788434018404908624048C06813
:1025D000032108433E49C8603C4800680221884303
:1025E00061000222114008433849086000BF002CF6
:1025F00005D0364800694006C00F0028F7D060E0DB
:102600003248006804218843A10004221140084395
:102610002E49086000BF002C05D02C484069C0043A
:10262000C00F0028F7D04CE02848006A01210907B4
:10263000884340182549086225484038C06803216E
:102640008903084322494039C860204800680821AE
:102650008843E1000822114008431C49086000BF7C
:10266000002C05D0194880694006C00F0028F7D01B
:1026700027E01648006A01210904884340181349DD
:1026800008621448006840084000401C1149086076
:10269000142000F0A9FC0D48006810218843210196
:1026A0001022114008430949086000BF002C05D0E2
:1026B0000648C06B4003C00F0028F7D001E0042794
:1026C00000BF00BF014806623846F8BD0020004048
:1026D000C00D02400024004030B589B0002414220F
:1026E000564904A8FDF750FD544814300068039083
:1026F00000200090019002905148018868460181B5
:102700004F4841886846C1804D488188684681802D
:102710004B48C18868464180494820300188684656
:102720000180484800680006450F2B0000F000FCBF
:1027300005042E303E4178004248C0684005400DF7
:1027400069460989884201D1089C1EE03D48C0685D
:102750004005400D6946C988884201D1079C14E0B4
:102760003848C0684005400D69468988884201D1D3
:10277000069C0AE03348C0684005400D6946498818
:10278000884201D1059C00E0049C4BE02E4C49E0BE
:10279000684600882B4949698905890D884202D11C
:1027A0006846C48901E0684684893BE00124E4036B
:1027B00038E02448C06B8007800F032829D1684681
:1027C00000892049C9684905490D884201D1089C02
:1027D00020E06846C0881B49C9684905490D884200
:1027E00001D1079C16E0684680881649C9684905EA
:1027F000490D884201D1069C0CE068464088114989
:10280000C9684905490D884201D1059C02E0049C34
:1028100000E00D4C0B48C06BC005000F444301E0C5
:10282000002400BF00BF074800684005410F204654
:10283000C8400446204609B030BD0000A832000060
:10284000000C1000002000400048E80110B50024F2
:10285000FFF742FF044604480068C004810F204689
:10286000C8400446204610BD0020004010B5044674
:1028700000F052FB06480068072109028843210244
:10288000072212021140084301490860002010BDD0
:102890000020004010B5044600F03EFB06480068EA
:1028A0000321C9028843E1020322D20211400843F6
:1028B00001490860002010BD0020004010B501460D
:1028C0000020064AD26B0723DB039A43CB0307247D
:1028D000E40323401A43014BDA6310BD002000409B
:1028E00070B504460D462A4621460248FFF794FD7E
:1028F000002070BD2020004001464A00064BD2183F
:1029000012885005400D054AD268D20AD20202430D
:10291000024BDA6000207047000C100000200040DD
:1029200010B501460020064A526903239B029A43D0
:102930008B020324A40223401A43014B5A6110BDA9
:102940000020004010B5044600F0E6FA0648406852
:1029500007214902884361020722520211400843BD
:1029600001494860002010BD0020004010B501461C
:102970000020054A126930239A430B01302423407A
:102980001A43014B1A6110BD0020004010B50146EA
:102990000020054A926930239A430B0130242340DA
:1029A0001A43014B9A6110BD0020004070B50446E7
:1029B0000025264600F0B0FA06480068E02188436A
:1029C0007101E022114008430249086000F02CF830
:1029D000284670BD0020004001460020044A1269CC
:1029E000920892008B079B0F1A43014B1A617047A4
:1029F0000020004030B5024600200A4B9B690C24A1
:102A0000A34394000C252C402343064CA36123468A
:102A10009B699B089B008C07A40F2343014CA36177
:102A200030BD00000020004010B5FFF755FE014901
:102A3000086010BD0800002010B50D4949888805C0
:102A4000800D0C494969890A89020143094A51618B
:102A50000749203909894805400D1146C968C90A46
:102A6000C9020143D160FFF7DFFF00F047FA10BD54
:102A7000200C100000200040704770477047000095
:102A800010B5002000F03AF9012808D1002000F02C
:102A90002BF903480078802108430149087010BDD4
:102AA0000C000020704770477047000010B50421EB
:102AB0004020FFF773F8002827D162480078401CB7
:102AC000C0B260490870F02801DDF02008705D4850
:102AD0000078C82840D15C480078012804D002283A
:102AE00009D004280CD107E00220574908700120C2
:102AF0005649087008E000BF01205349087003E000
:102B000001205149087000BF26E04E480078022895
:102B10001FDD4C480078C8281BDA4B480078012894
:102B200004D0022803D004280ED10CE010E047485E
:102B30000078401C4549087008460078062801DDE9
:102B40000120087000BF03E001203F49087000BF6A
:102B500000BF00203B49087005214020FFF71EF808
:102B600000280FD13A480078401CC0B2384908709C
:102B7000F02801DDF020087036480088401C3549F7
:102B8000088002E000203249087006214020FFF74B
:102B900005F8002811D130480078401CC0B22E49F9
:102BA0000870F02801DDF02008702B480078C82854
:102BB00006D100202749088002E00020264908703D
:102BC00007214020FEF7EAFF00280FD123480078B4
:102BD000401CC0B221490870F02801DDF0200870C7
:102BE0001E480078C8282BD100BF29E01B48007878
:102BF000022822DD19480078C8281EDA1248007819
:102C0000012804D0022803D0042811D108E013E0E1
:102C100004200D4908700D480078114908700BE038
:102C20000220094908700E4800780849087003E03E
:102C300001200549087000BF00BF00200749087047
:102C400010BD00001C0000202400002025000020F2
:102C50001D000020000000201E0000201F0000209A
:102C60002200002070B500251C480478002C33D0C9
:102C7000F0202040002805D020111949085C001DD3
:102C8000C5B201E01648055D1648445D72B61348AA
:102C9000007820401149087062B6002D01D000F084
:102CA0001FF92B0000F044F9091615141312110E28
:102CB0000B061600FFF778FBFFF7F8FE0BE000F0BD
:102CC000E1F808E0FFF772F905E004E003E002E054
:102CD00001E000E000BF00BF70BD00000C0000205C
:102CE000C0320000D03200000146002001228A409C
:102CF000D243014B5A617047005800400146002002
:102D0000034B1A691346CB40D807C00F7047000029
:102D10000058004001460020044A1268120C1204B8
:102D20008BB21A43014B1A607047000000580040F4
:102D300001460020044A5268120C12048BB21A4356
:102D4000014B5A60704700000058004000200449C1
:102D5000C96849084900491C014AD1607047000010
:102D60000058004000200449C968012292029143A2
:102D70008918014AD16070470058004010B50146DB
:102D80000020284AD26803231B039A430B781B03B5
:102D90000324240323401A43224BDA601A46D268E4
:102DA0005B159A434B785B020124640223401A436B
:102DB0001C4BDA601A46D2689B159A438B781B022B
:102DC000641023401A43174BDA601A46D268702306
:102DD0009A43CB781B01702423401A43114BDA60CD
:102DE0001A46D26808239A430B79DB000824234053
:102DF0001A430C4BDA601A46D26804239A434B7983
:102E00009B00042423401A43064BDA601A46D2681A
:102E100002239A438B795B00022423401A43014B1F
:102E2000DA6010BD005800407CB50721684600F00C
:102E3000CBF801210B20FFF753FD002168460170FC
:102E400041710521C17001218171002101718170E1
:102E50004170FFF793FF0A4C2046FFF75BFF2546C2
:102E60002846FFF765FF0020FFF73EFFFFF77AFFD8
:102E7000012203210520FEF7C5FAFFF767FF7CBD9D
:102E800059F1000000201FE01149095C002919D008
:102E90000F49095C491EC9B20D4A1154002911D1CC
:102EA000002806D0012805D0022807D0032807D122
:102EB00005E006E00221064A517002E001E000E070
:102EC00000BF00BF411CC8B20B28DDDB704700000B
:102ED00056000020704770477047704770470000E9
:102EE0001E2002490860E12008607047800F004002
:102EF0000149087070470000160000200549086A63
:102F0000096A0122120791438918024A1162114687
:102F10000862704700200040024803498860034867
:102F2000886070475A5A000000200040A5A50000A4
:102F300030B47446641E2578641CAB4204D3635DD0
:102F40005B00E31830BC18471D46F8E710B50028B1
:102F500019DB1A4A03231B02D21883089B00D2589C
:102F60008307DC0EFF23A3409A438B071B0E8407C5
:102F7000E40EA3401A43114B032424021B198408B6
:102F8000A4001A5118E00E4A03071B0F083B9B08C8
:102F90009B00D2588307DC0EFF23A3409A438B0784
:102FA0001B0E8407E40EA3401A43054B0407240FAD
:102FB000083CA408A4001A5110BD000000E100E084
:102FC0001CED00E000BF704710B50A46014600291D
:102FD00000D110BD02E000230B70491C1346521EA5
:102FE000002BF8D100BFF4E770B50546114812492F
:102FF000486100208861052008610FE000200E492B
:1030000088610E490E480068FDF750F90121090654
:103010000C1A00BF08488069A042FBD828466D1EE4
:103020000028EBD1044800694008400002490861CB
:1030300070BD0000FFFFFF0000E000E0A08601007F
:103040000800002070B5054611481249486100206B
:1030500088610520086110E000200E4988617D210B
:10306000C9000D480068FDF721F9012109060C1A75
:1030700000BF08488069A042FBD828466D1E002882
:10308000EAD104480069400840000249086170BD67
:10309000FFFFFF0000E000E00800002070B50446DC
:1030A0000D46E0B20A2803D10D210448FEF718FFAF
:1030B000E1B20248FEF714FF204670BD0040004018
:1030C000FFF7EBF9FEF726FBFEF731FEFFF716F9E7
:1030D000FEF766FEFFF7A8FEFEF7D6FDFFF7E6F85F
:1030E000FEF71CFF05A0FDF76DF87D20C000FFF77F
:1030F000A9FF01E0FFF7B6FDFCE700005379737408
:10310000656D2053746172742E2E2E2E2E2E2E2E4F
:103110002E2E2E2E2E2E2E2E2E2E0D0A00000000CC
:1031200070B501250400ED074C4020D4441A01D2AB
:10313000001B0919C60D4B00F2B2FF2A29D01B0E45
:103140002CD000020C02D31A2C43DC402843051972
:1031500010D2280A02D3401C6D0611D0761EF60547
:103160008019FF2A00DA70BDC00DC00570BD69402E
:1031700000F022F801200543C541521C761CE8E707
:1031800064089C40C90161408900E7D10124A04343
:10319000E4E71B0E440200D0034870BD002AFCD1B6
:1031A000C00FC00770BD00BF0000C07F70B5012513
:1031B0000400ED074C4022D4441A02D26C40001B9C
:1031C0000919C60D4B00F2B2FF2A4BD01B0E50D08E
:1031D00000020C02D31A2C43DC40A843051B05D582
:1031E000AD0019D36D08761E521E37D0F605280A99
:1031F00001D2801970BD70416D0603D070BD694069
:10320000FFF794FF9C4009026140490001D0401E35
:1032100070BD0124A04370BD6D081DD001202B0C92
:1032200001D12D0410302B0E01D12D0208302B0FAF
:1032300001D12D01001DAB0F01D1AD00801CEB0FA2
:1032400001D16D00401C6D00361A121A680AF5058E
:103250004019012A02DB70BD002070BDC036300A63
:10326000C00770BD1B0E440201D1FF2B00D10248E4
:1032700070BD002AF0D070BD0000C07F20000000AB
:10328000170000001B00000050460000E022020072
:1032900018000000F0000000E80300000400000037
:1032A000030000000200000000093D0000127A0047
:1032B0000024F4004086510100366E010080009623
:1032C00000010202030303030404040404040404CD
:1032D000FFFEFDFBF7EFDFBF7F818283848586875A
:1032E00088898B8C8D8E8F919293959697999A9CC5
:1032F0009D9FA0A2A3A5A7A8AAACAEB0B2B3B5B734
:10330000B9BCBEC0C2C5C7C9CCCED1D4D7D9DCDF09
:10331000E2E6E9ECF0F3F7FAFE0000003C330000CF
:103320000000002048000000C800000084330000B6
:103330004800002080040000E400000000000000BD
:103340000000000000366E010000000000000000D8
:10335000000000000000010000000000000000006C
:1033600001010100003F065B4F666D7D077F6F0026
:103370000103070F1F3F7FFF0000000000FE000059
:043380000000000049
:04000005000000C136
:00000001FF
