:020000040000FA
:10000000900400209D010000B7010000850D000054
:1000100000000000000000000000000000000000E0
:10002000000000000000000000000000BB01000014
:100030000000000000000000BD01000021130000CE
:10004000B3110000B5110000B7110000B911000094
:1000500083060000A9180000851D0000871D000010
:10006000110F0000130F0000BD110000BF110000B0
:10007000950D0000970D0000A1180000A3180000C6
:10008000A5180000890E0000CD180000CF18000050
:10009000D1180000AF1100008D1D0000BB11000041
:1000A0004F060000B1110000891D00008B1D0000EB
:1000B000B9100000870E0000ED0700005106000097
:1000C00000F002F800F03EF80CA030C80838241800
:1000D0002D18A246671EAB4654465D46AC4201D180
:1000E00000F030F87E460F3E0FCCB6460126334274
:1000F00000D0FB1AA246AB4633431847C420000089
:10010000E4200000103A02D378C878C1FAD8520728
:1001100001D330C830C101D504680C6070470000BD
:100120000023002400250026103A01D378C1FBD813
:10013000520700D330C100D50B6070471FB51FBDFB
:1001400010B510BD00F03EFA1146FFF7F7FF00F0C2
:1001500077FA00F068FA03B4FFF7F2FF03BC01F08E
:1001600083FE000070B505460C46164602E00FCC33
:100170000FC5103E102EFAD2082E02D303CC03C5B1
:10018000083E042E07D301CC01C5361F03E02178B9
:100190002970641C6D1C761EF9D270BD0C480D4A86
:1001A000002100A1814200D902440B4802600B48A3
:1001B00080470B480047FEE7FEE7FEE7FEE7FEE765
:1001C000FEE7000007480849084A094B704700004D
:1001D000000000200000000008ED00E061180000B1
:1001E000C100000090000020900400209002002038
:1001F00090020020704700000FB4054910B503AA13
:10020000029800F0AFF910BC08BC04B01847000019
:1002100000000020002203098B422CD3030A8B42EA
:1002200011D300239C464EE003460B433CD40022EE
:1002300043088B4231D303098B421CD3030A8B4200
:1002400001D394463FE0C3098B4201D3CB01C01ACE
:10025000524183098B4201D38B01C01A5241430999
:100260008B4201D34B01C01A524103098B4201D387
:100270000B01C01A5241C3088B4201D3CB00C01AF4
:10028000524183088B4201D38B00C01A524143086C
:100290008B4201D34B00C01A5241411A00D2014691
:1002A0005241104670475DE0CA0F00D0494203102A
:1002B00000D34042534000229C4603098B422DD379
:1002C000030A8B4212D3FC22890112BA030A8B4221
:1002D0000CD3890192118B4208D3890192118B4270
:1002E00004D389013AD0921100E08909C3098B42F5
:1002F00001D3CB01C01A524183098B4201D38B0138
:10030000C01A524143098B4201D34B01C01A5241DA
:1003100003098B4201D30B01C01A5241C3088B421F
:1003200001D3CB00C01A524183088B4201D38B000A
:10033000C01A5241D9D243088B4201D34B00C01A94
:100340005241411A00D20146634652415B101046A9
:1003500001D34042002B00D54942704763465B10F1
:1003600000D3404201B50020C046C04602BD7047E0
:1003700070477047F0B5FF252D04C609C209FF2755
:1003800004462E400137CB093E4348402A402B40CB
:100390000746002A6BD0002B69D0AA4267D0AB4237
:1003A00065D0002800DA32460125ED0529432C43AB
:1003B00009022002090AD21A4B0C7F24E31A434C8B
:1003C000000A7C44E35C7D242404121914145B00AD
:1003D000A218884201D3521C00E0400049420C465A
:1003E0005C4324115C43DB016415E318040A5C439D
:1003F000C502200D0C4644436419250A5D432303BE
:10040000EC0C0D46654300030019EB184C42A34267
:1004100001D35B18401CD4052018002B07D05B00CB
:10042000C91804D3401C002901D1400840003F21D5
:1004300089048A4209D3002A08DC1106090F04D076
:10044000032149074018C00FC007F0BD0122410039
:10045000120689187F2252069142F6D205214907D9
:10046000C84201D59010F0BDFF20C005F0BD002F9F
:1004700000DA32461648AA4207D2AB4205D2190228
:10048000090E17D0F80FC007F0BDFF2563002D0639
:10049000AB42F9D84900A942F6D8AB4201D1A942F2
:1004A000F2D0A94201D1002101E061004908D00544
:1004B0000843F0BD1102090EFBD0FF200243D00516
:1004C000F0BD0A460146104654E70000B71D000083
:1004D0000000C07F0102C21504D00123DB071943CD
:1004E000002A0ADB9E239A1A02D40846D04070479D
:1004F000FF2241001206914201D900207047C01727
:10050000C04370471F22030C02D10F2200041CD0ED
:10051000030E01D10002083A030F01D10001121F9E
:10052000830F01D18000921E002801DB4000521E83
:10053000D2055118021251181922904004D3491CB7
:10054000002801D14908490008467047C10FC90772
:1005500000D04042012292071143D3E701218907CD
:10056000D0E77047084B70B50D467B4400F013F898
:100570000446284600F022F8002802D00020C0439C
:1005800070BD204670BD0000D319000001694A1CEF
:1005900002610878704700B58FB002910021059183
:1005A000054901937944039111460490684600F08F
:1005B00028F80FB000BD0000E5FFFFFFC0688021F4
:1005C00008407047754600F037F8AE4605006946AA
:1005D0005346C008C000854618B020B5FFF7F2FDAD
:1005E00060BC00274908B6460026C0C5C0C5C0C5C6
:1005F000C0C5C0C5C0C5C0C5C0C5403D49008D46C9
:100600007047F8B506460024476880680090304679
:10061000F56803E00099B847641C3046A8470028F5
:10062000F8D12046F8BD10B50446C046C046204665
:10063000FFF791FD10BD000000487047300000201A
:1006400010B501F00DF901F08DFC002010BD7047D0
:10065000704710B5002000F0F1FD002000F0EEFD25
:100660000821402000F014FB0921402000F010FB7D
:100670000A21402000F00CFB0B21402000F008FB79
:1006800010BD704710B53C480078002806D00128FE
:100690001BD0022830D003285CD144E00C2140203C
:1006A00000F062FB0D21402000F0F2FA0E21402004
:1006B00000F0EEFA0F21402000F0EAFA3F2000F0AF
:1006C000BDFD3F2000F0BAFD45E00C21402000F0C8
:1006D000DFFA0D21402000F047FB0E21402000F002
:1006E000D7FA0F21402000F0D3FA062000F0A6FD33
:1006F000062000F0A3FD2EE00C21402000F0C8FAF7
:100700000D21402000F0C4FA0E21402000F02CFB07
:100710000F21402000F0BCFA5B2000F08FFD5B2031
:1007200000F08CFD17E00C21402000F0B1FA0D2103
:10073000402000F0ADFA0E21402000F0A9FA0F2170
:10074000402000F011FB4F2000F078FD4F2000F01A
:1007500075FD00E000BF00BF07480078401C064957
:1007600008700878C117890F091889108900411A83
:10077000014A117010BD00001800002070B5044639
:100780000E4615462046002805DBC206D20E012182
:100790009140144A116000BF3146204601F028FB09
:1007A000012D0ED12046002809DB00BF00BFC20684
:1007B000D20E012191400C4A116000BF00BF00BF62
:1007C0000FE0204600280ADBC206D20E012191402C
:1007D000054A80321160BFF34F8FBFF36F8F00BFA8
:1007E00000BF70BD80E200E000E100E07047000063
:1007F00010B501460020084A084BDA62084ADA625E
:100800001A46126A0C239A438B000C2423401A4385
:10081000024B1A6210BD00005A5A0000000002404C
:10082000A5A500001CB501211C2000F06DFF0121D1
:1008300068460170417000218170C1700171012111
:1008400041716A460021084600F03CFA6A460121DF
:10085000002000F037FA6A460221002000F032FA48
:100860006A460321002000F02DFA6A460421002088
:1008700000F028FA6A460521002000F023FA6A46B3
:100880000621002000F01EFA6A460721002000F031
:1008900019FA6A460821002000F014FA6A46092174
:1008A000002000F00FFA6A460A21002000F00AFA40
:1008B0006A460B21002000F005FA6A460C21002050
:1008C00000F000FA6A460D21002000F0FBF96A46AC
:1008D0000E21002000F0F6F96A460F21002000F0FA
:1008E000F1F90021084600F0D3F90121002000F0C1
:1008F000CFF90221002000F0CBF90321002000F005
:10090000C7F90421002000F0C3F90521002000F000
:10091000BFF90621002000F0BBF90721002000F0FC
:10092000B7F90821002000F0B3F90921002000F0F8
:10093000AFF90A21002000F0ABF90B21002000F0F4
:10094000A7F90C21002000F0A3F90D21002000F0F0
:100950009FF90E21002000F09BF90F21002000F0EC
:1009600097F96A460021402000F0ACF96A4601215F
:10097000402000F0A7F96A460221402000F0A2F9C9
:100980006A460321402000F09DF96A460421402078
:1009900000F098F96A460621402000F093F96A4673
:1009A0000721402000F08EF96A460821402000F01F
:1009B00089F96A460921402000F084F96A460A2133
:1009C000402000F07FF96A460B21402000F07AF9C0
:1009D0006A460C21402000F075F96A460D2140203E
:1009E00000F070F96A460E21402000F06BF96A466B
:1009F0000F21402000F066F90021402000F048F966
:100A00000121402000F044F90221402000F040F98B
:100A10000321402000F03CF90421402000F038F987
:100A20000521402000F034F90621402000F030F983
:100A30000721402000F02CF90821402000F028F97F
:100A40000921402000F024F90A21402000F020F97B
:100A50000B21402000F01CF90C21402000F018F977
:100A60000D21402000F014F90E21402000F010F973
:100A70000F21402000F00CF96A460021802000F090
:100A800021F96A460121802000F01CF96A46022102
:100A9000802000F017F96A460321802000F012F947
:100AA0006A460421802000F00DF96A460521802065
:100AB00000F008F96A460621802000F003F96A4632
:100AC0000721802000F0FEF86A460821802000F00F
:100AD000F9F86A460921802000F0F4F86A460A21F4
:100AE000802000F0EFF86A460B21802000F0EAF841
:100AF0006A460C21802000F0E5F86A460D2180202E
:100B000000F0E0F80021802000F0C2F801218020F0
:100B100000F0BEF80221802000F0BAF80321802006
:100B200000F0B6F80421802000F0B2F80521802002
:100B300000F0AEF80621802000F0AAF807218020FE
:100B400000F0A6F80821802000F0A2F809218020FA
:100B500000F09EF80A21802000F09AF80B218020F6
:100B600000F096F80C21802000F092F80D218020F2
:100B700000F08EF86A460021C02000F0A3F86A4613
:100B80000121C02000F09EF86A460221C02000F03A
:100B900099F86A460321C02000F094F86A460621BD
:100BA000C02000F08FF86A460721C02000F08AF8C4
:100BB0006A460821C02000F085F86A460921C02055
:100BC00000F080F86A460A21C02000F07BF86A46EF
:100BD0000B21C02000F076F86A460C21C02000F0FE
:100BE00071F86A460D21C02000F06CF86A460E21AB
:100BF000C02000F067F86A460F21C02000F062F8BC
:100C00000021C02000F044F80121C02000F040F88D
:100C10000221C02000F03CF80321C02000F038F889
:100C20000421C02000F034F80521C02000F030F885
:100C30000621C02000F02CF80721C02000F028F881
:100C40000821C02000F024F80921C02000F020F87D
:100C50000A21C02000F01CF80B21C02000F018F879
:100C60000C21C02000F014F80D21C02000F010F875
:100C70000E21C02000F00CF80F21C02000F008F871
:100C80001CBD02461068C840C007C00F7047000076
:100C900070B504460D46044960180122294600F04B
:100CA000FBFA002070BD0000140D024070B5044630
:100CB0000D46034960182946FFF7E3FF70BD0000A9
:100CC000040D024070B504460E4615461E496018D4
:100CD0000022314600F0E0FA00201C496118B20001
:100CE00088502A7818490C396018314600F0D4FA37
:100CF0006A78154910316018314600F0CDFAAA78AB
:100D0000114914316018314600F0C6FAEA780E49EC
:100D100018316018314600F0BFFA2A790A492031AB
:100D20006018314600F0B8FA094880680121C9030B
:100D300088436979C9030122D20311400843044959
:100D40008860002070BD00000C0D0240000C0240C5
:100D5000000F024010B50346024818188C000251DB
:100D6000002010BD000C024070B504460D46044939
:100D700060180122294600F08FFA002070BD0000A3
:100D8000100D024008B50020009000BF0098002818
:100D9000FCD008BD704770471CB501211C2000F035
:100DA000B3FC0021684601708170C17008214020A9
:100DB000FFF76EFF09214020FFF76AFF0A2140205C
:100DC000FFF766FF0B214020FFF762FF0C21402058
:100DD000FFF75EFF0D214020FFF75AFF0E21402054
:100DE000FFF756FF0F214020FFF752FF6A46082108
:100DF0004020FFF767FF6A4609214020FFF762FFA6
:100E00006A460A214020FFF75DFF6A460B21402019
:100E1000FFF758FF6A460C214020FFF753FF6A4650
:100E20000D214020FFF74EFF6A460E214020FFF7BC
:100E300049FF6A460F214020FFF744FF1CBD1CB547
:100E400001211C2000F060FC012168460170417006
:100E500000218170C1700171012141716A46042134
:100E60004020FFF72FFF6A4605214020FFF72AFFA9
:100E70006A4606214020FFF725FF6A4607214020E9
:100E8000FFF720FF1CBD704710B5074800F032F98E
:100E9000012808D1044800F010F9044800784021E6
:100EA00008430249087010BD000F004008000020F0
:100EB0001CB50821684600F0D9FF0121092000F087
:100EC00023FC0021684681704170022101700021DD
:100ED000C1700171012141710B49C18069460B4804
:100EE00000F010F9094800F0E8F80121074800F087
:100EF000F7F8012203211120FFF740FC01210348EC
:100F000000F0E4F81CBD0000FFBF0000000F00402F
:100F10007047704770B504460D46002229462046AA
:100F2000143000F0B9F9002070BD70B504460D46CC
:100F300001222946201D00F0AFF9002070BD70B5D8
:100F400004460D460026294620461030FFF799FE3C
:100F50000646304670BD0000F0B587B005460C4629
:100F60000127224A07CA04AB07C300200390002CC4
:100F700002D1042007B0F0BD00206860608861786D
:100F80000843E1880843A188084321780843686042
:100F90002078402802D02078C02824D1E088C117CA
:100FA000C90D09184912890004AA515A8EB2E16884
:100FB000B1400846FFF7D2FA0290A068FFF7CEFAD8
:100FC00001900299FFF7D6F903903F210906039893
:100FD00001F008F80290FFF77DFA80B2A8610421C1
:100FE0002846FFF7A2FF00273846C3E7402100004C
:100FF00070B504460D4600BF03212046FFF79FFF52
:101000000028F9D02068000A0002E9B208432060F5
:1010100000BF01212046FFF792FF0028F9D00121EF
:101020002046FFF777FF002070BD000000B587B0B5
:10103000102103A800F01AFF062101A800F016FFF6
:101040000121032000F060FB01211C2000F05CFB6B
:1010500000216846017101AA0846FFF733FE02220B
:1010600000210846FFF776FE01216846017101AABA
:101070000020FFF727FE022201210020FFF76AFE71
:1010800000216846C181042141730021018200F0E2
:10109000F1FA05900121890203A8C180E1214902EA
:1010A000069140216846017303A90248FFF754FFE7
:1010B00007B000BD00400040704710B50446002254
:1010C00011462046143000F0E7F810BD70B5054613
:1010D0000C462246002128460C3000F0DDF870BD99
:1010E00070B505460C4622460A2128460C3000F011
:1010F000D3F870BD10B50446002120461030FFF72C
:10110000C0FD10BD30B502467D23DB00D068302421
:10111000A0430C78240130252C402043D060D068B7
:1011200001246402A0434C78640201256D022C4026
:101130002043D060D0686C10A0438C7824026D10DE
:101140002C402043D060D0680824A043CC78E40031
:1011500008252C402043D060D0680424A0430C799B
:10116000A40004252C402043D060D0680224A04372
:101170004C79640002252C402043D06005E0D06803
:101180000006C00F002800D004E018465C1EA3B281
:101190000028F4D100BF002B01D1092030BD5068D8
:1011A000000C0004CC88204350600020F6E7704714
:1011B0007047704770477047704770477047704777
:1011C0000EB5062101A800F051FE01211C2000F0FF
:1011D0009BFA0121062000F097FA00216846417130
:1011E000017101AA07210020FFF76CFD01220721F0
:1011F0000020FFF7AFFD01AA04210020FFF762FDE8
:10120000012204210020FFF7A5FD01AA05210020ED
:10121000FFF758FD012205210020FFF79BFD10215B
:101220006846017000214170C170817069460248B2
:1012300000F04AF80EBD00000008004010B504465A
:101240000021094800F054F82146074800F04CF806
:1012500000BF0421044800F02EF80028F9D0012135
:10126000014800F045F810BD0008004010B5FFF738
:10127000F0F908480078012804D0022805D0042895
:1012800005D103E0FFF7FEF902E001E000E000BF56
:1012900000BF10BD1500002010B5012A05D103685C
:1012A00001248C402343036004E0036801248C4044
:1012B000A343036010BD024690680840002801D097
:1012C000012070470020FCE70246002010600878EB
:1012D0004B7818438B781843CB7818434023184336
:1012E00010600020906070470246D1600020704777
:1012F0004160704708B50020FFF77AFA002000F03F
:101300000FFA062000F032FA0021684601704170A1
:10131000817000F009F80121032000F03BF808BDBE
:1013200010B5C046C04610BD70B5044600252078F3
:10133000030000F04FFD0504050C10181C0018E018
:10134000032000F05DFA032000F024FA11E00320EE
:1013500000F0FAF90DE00321084600F05FFA0320DF
:1013600000F028FA05E0072000F0BCF901E00425B0
:1013700000BF00BF2078012100F00CF8207800F0B9
:1013800029FA607800F086F9A07800F097F92846ED
:1013900070BD0000F8B505460C46002700F00EFDB4
:1013A000002C01D0012000E0002004465148066ACC
:1013B0002B0000F00FFD050417394D7298004D48C1
:1013C000006840084000E107C90F08434949086028
:1013D00000BF002C05D04748C0680005C00F00289A
:1013E000F7D082E04348006A01210907884340188A
:1013F000404908624048C068032108433E49C8602C
:101400003C480068022188436100022211400843E1
:101410003849086000BF002C05D0364800694006F6
:10142000C00F0028F7D060E03248006804218843EC
:10143000A1000422114008432E49086000BF002C7F
:1014400005D02C484069C004C00F0028F7D04CE0FC
:101450002848006A01210907884340182549086285
:1014600025484038C0680321890308432249403990
:10147000C8602048006808218843E1000822114024
:1014800008431C49086000BF002C05D0194880693A
:101490004006C00F0028F7D027E01648006A012157
:1014A000090488434018134908621448006840083A
:1014B0004000401C11490860142000F0E7FC0D4872
:1014C0000068102188432101102211400843094976
:1014D000086000BF002C05D00648C06B4003C00F59
:1014E0000028F7D001E0042700BF00BF01480662D2
:1014F0003846F8BD00200040C00D024000240040E6
:1015000030B589B000241422564904A8FEF72AFEFB
:10151000544814300068039000200090019002901D
:1015200051480188684601814F4841886846C1801A
:101530004D488188684681804B48C1886846418013
:101540004948203001886846018048480068000604
:10155000450F2B0000F03EFC05042E303E41780084
:101560004248C0684005400D69460989884201D15A
:10157000089C1EE03D48C0684005400D6946C9888A
:10158000884201D1079C14E03848C0684005400DEE
:1015900069468988884201D1069C0AE03348C068C0
:1015A0004005400D69464988884201D1059C00E00C
:1015B000049C4BE02E4C49E0684600882B49496961
:1015C0008905890D884202D16846C48901E06846D0
:1015D00084893BE00124E40338E02448C06B8007A1
:1015E000800F032829D1684600892049C968490528
:1015F000490D884201D1089C20E06846C0881B49FB
:10160000C9684905490D884201D1079C16E0684622
:1016100080881649C9684905490D884201D1069C50
:101620000CE0684640881149C9684905490D88425F
:1016300001D1059C02E0049C00E00D4C0B48C06BFE
:10164000C005000F444301E0002400BF00BF07486D
:1016500000684005410F2046C8400446204609B0B6
:1016600030BD00004C210000000C100000200040A4
:101670000048E80110B50024FFF742FF0446044883
:101680000068C004810F2046C8400446204610BDB3
:101690000020004010B5044600F090FB06480068AA
:1016A0000721090288432102072212021140084340
:1016B00001490860002010BD0020004010B504461C
:1016C00000F07CFB064800680321C9028843E10260
:1016D0000322D2021140084301490860002010BDD6
:1016E0000020004010B501460020064AD26B0723B7
:1016F000DB039A43CB030724E40323401A43014B43
:10170000DA6310BD0020004070B504460D462A463D
:1017100021460248FFF7C0FD002070BD2020004098
:1017200001464A00064BD21812885005400D054A62
:10173000D268D20AD2020243024BDA60002070471C
:10174000000C10000020004010B501460020064AA1
:10175000526903239B029A438B020324A402234071
:101760001A43014B5A6110BD0020004010B50446D9
:1017700000F024FB064840680721490288436102C3
:10178000072252021140084301494860002010BD61
:101790000020004010B501460020054A12693023A0
:1017A0009A430B01302423401A43014B1A6110BDA8
:1017B0000020004010B501460020054A9269302300
:1017C0009A430B01302423401A43014B9A6110BD08
:1017D0000020004070B504460025264600F0EEFAD1
:1017E00006480068E02188437101E0221140084367
:1017F0000249086000F02CF8284670BD0020004027
:1018000001460020044A1269920892008B079B0F40
:101810001A43014B1A6170470020004030B5024660
:1018200000200A4B9B690C24A34394000C252C40F8
:101830002343064CA36123469B699B089B008C07AE
:10184000A40F2343014CA36130BD000000200040E1
:1018500010B5FFF755FE0149086010BD04000020D7
:1018600010B50D4949888805800D0C494969890AD8
:1018700089020143094A516107492039098948050C
:10188000400D1146C968C90AC9020143D160FFF77A
:10189000DFFF00F085FA10BD200C10000020004092
:1018A000704770477047000010B5002000F07EF9C7
:1018B000012808D1002000F06FF90348007880214A
:1018C00008430149087010BD0800002070477047A8
:1018D0007047000010B504214020FFF7E7F9002809
:1018E00011D149480078401CC0B247490870F0281F
:1018F00001DDF020087044480078C82811D143A0C9
:10190000FEF77AFC0DE040480078022806DD3E48EC
:101910000078C82802DA45A0FEF76EFC00203A499C
:10192000087005214020FFF7C1F9002811D1474870
:101930000078401CC0B245490870F02801DDF02055
:10194000087042480078C82811D141A0FEF754FC25
:101950000DE03E480078022806DD3C480078C828A3
:1019600002DA43A0FEF748FC00203849087006213F
:101970004020FFF79BF9002811D145480078401C12
:10198000C0B243490870F02801DDF02008704048DB
:101990000078C82811D13FA0FEF72EFC0DE03C488E
:1019A0000078022806DD3A480078C82802DA41A00B
:1019B000FEF722FC00203649087007214020FFF77F
:1019C00075F9002811D143480078401CC0B2414944
:1019D0000870F02801DDF02008703E480078C82823
:1019E00011D13DA0FEF708FC0DE03A48007802282E
:1019F00006DD38480078C82802DA3FA0FEF7FCFB75
:101A000000203449087010BD110000206C6F6E6713
:101A10003120616E2E2E2E2E2E2E2E2E2E2E2E2E7E
:101A20002E2E2E2E2E2E0D0A0000000073686F72CF
:101A3000743120616E2E2E2E2E2E2E2E2E2E2E2E18
:101A40002E2E2E2E2E2E2E0D0A000000120000200B
:101A50006C6F6E673220616E2E2E2E2E2E2E2E2E45
:101A60002E2E2E2E2E2E2E2E2E2E0D0A0000000093
:101A700073686F72743220616E2E2E2E2E2E2E2ED3
:101A80002E2E2E2E2E2E2E2E2E2E2E0D0A00000045
:101A9000130000206C6F6E673320616E2E2E2E2E89
:101AA0002E2E2E2E2E2E2E2E2E2E2E2E2E2E0D0A9B
:101AB0000000000073686F72743320616E2E2E2E4A
:101AC0002E2E2E2E2E2E2E2E2E2E2E2E2E2E2E0D57
:101AD0000A000000140000206C6F6E673420616EF5
:101AE0002E2E2E2E2E2E2E2E2E2E2E2E2E2E2E2E16
:101AF0002E2E0D0A0000000073686F72743420618E
:101B00006E2E2E2E2E2E2E2E2E2E2E2E2E2E2E2EB5
:101B10002E2E2E0D0A00000070B500251B480478FB
:101B2000002C31D0F0202040002805D02011184989
:101B3000085C001DC5B201E01548055D1548445D0F
:101B400072B61248007820401049087062B6002D25
:101B500001D000F01DF92B0000F03CF9091413121C
:101B600011100F0E0B061400FFF780FBFFF7B2FEFB
:101B700009E000F0DFF806E005E004E003E002E041
:101B800001E000E000BF00BF70BD000008000020C1
:101B900064210000742100000146002001228A40D7
:101BA000D243014B5A617047005800400146002063
:101BB000034B1A691346CB40D807C00F704700008B
:101BC0000058004001460020044A1268120C12041A
:101BD0008BB21A43014B1A60704700000058004056
:101BE00001460020044A5268120C12048BB21A43B8
:101BF000014B5A6070470000005800400020044923
:101C0000C96849084900491C014AD1607047000071
:101C10000058004000200449C96801229202914303
:101C20008918014AD16070470058004010B501463C
:101C30000020284AD26803231B039A430B781B0316
:101C40000324240323401A43224BDA601A46D26845
:101C50005B159A434B785B020124640223401A43CC
:101C60001C4BDA601A46D2689B159A438B781B028C
:101C7000641023401A43174BDA601A46D268702367
:101C80009A43CB781B01702423401A43114BDA602E
:101C90001A46D26808239A430B79DB0008242340B4
:101CA0001A430C4BDA601A46D26804239A434B79E4
:101CB0009B00042423401A43064BDA601A46D2687C
:101CC00002239A438B795B00022423401A43014B81
:101CD000DA6010BD005800407CB50721684600F06E
:101CE000C5F801210B20FFF70FFD002168460170A8
:101CF00041710521C1700121817100210171817043
:101D00004170FFF793FF0A4C2046FFF75BFF254623
:101D10002846FFF765FF0020FFF73EFFFFF77AFF39
:101D2000012203210520FEF729FDFFF767FF7CBD97
:101D300059F1000000201FE01149095C002919D069
:101D40000F49095C491EC9B20D4A1154002911D12D
:101D5000002806D0012805D0022807D0032807D183
:101D600005E006E00221064A517002E001E000E0D1
:101D700000BF00BF411CC8B20B28DDDB704700006C
:101D8000240000207047704770477047704700007C
:101D90001E2002490860E12008607047800F004063
:101DA0000549086A096A0122120791438918024A03
:101DB0001162114608627047002000400248034942
:101DC00088600348886070475A5A0000002000402D
:101DD000A5A5000030B47446641E2578641CAB428F
:101DE00004D3635D5B00E31830BC18471D46F8E779
:101DF00010B5002819DB1A4A03231B02D2188308E6
:101E00009B00D2588307DC0EFF23A3409A438B0725
:101E10001B0E8407E40EA3401A43114B0324240233
:101E20001B198408A4001A5118E00E4A03071B0F5F
:101E3000083B9B089B00D2588307DC0EFF23A3407E
:101E40009A438B071B0E8407E40EA3401A43054BED
:101E50000407240F083CA408A4001A5110BD000078
:101E600000E100E01CED00E000BF704710B50A463D
:101E70000146002900D110BD02E000230B70491C6F
:101E80001346521E002BF8D100BFF4E770B505468B
:101E900011481249486100208861052008610FE05F
:101EA00000200E4988610E490E480068FEF7B2F91D
:101EB000012109060C1A00BF08488069A042FBD81E
:101EC00028466D1E0028EBD10448006940084000F8
:101ED0000249086170BD0000FFFFFF0000E000E064
:101EE000A08601000400002070B505461148124983
:101EF0004861002088610520086110E000200E493B
:101F000088617D21C9000D480068FEF783F9012131
:101F100009060C1A00BF08488069A042FBD8284671
:101F20006D1E0028EAD104480069400840000249BB
:101F3000086170BDFFFFFF0000E000E0040000202A
:101F400070B504460D46E0B20A2803D10D210448BD
:101F5000FFF74EF8E1B20248FFF74AF8204670BD9D
:101F600000400040FFF7C6F9FEF75CFCFEF767FF94
:101F7000FFF726F9FEF79CFFFFF7AEFEFEF70CFF1A
:101F8000FFF754F80DA0FEF737F97D200001FFF7A9
:101F9000ABFF00211248FFF7ABF900211048FFF713
:101FA000A3F900210E48FFF79FF901210C48FFF724
:101FB0009FF901E0FFF7B0FDFCE70000537973746F
:101FC000656D2053746172742E2E2E2E2E2E2E2EA1
:101FD0002E2E2E2E2E2E2E2E2E2E0D0A000000001E
:101FE0000008004070B501250400ED074C4020D4E6
:101FF000441A01D2001B0919C60D4B00F2B2FF2A88
:1020000029D01B0E2CD000020C02D31A2C43DC402A
:102010002843051910D2280A02D3401C6D0611D09E
:10202000761EF6058019FF2A00DA70BDC00DC005C6
:1020300070BD694000F022F801200543C541521CE3
:10204000761CE8E764089C40C90161408900E7D13B
:102050000124A043E4E71B0E440200D0034870BDF6
:10206000002AFCD1C00FC00770BD00BF0000C07FB8
:1020700070B501250400ED074C4022D4441A02D269
:102080006C40001B0919C60D4B00F2B2FF2A4BD061
:102090001B0E50D000020C02D31A2C43DC40A84384
:1020A000051B05D5AD0019D36D08761E521E37D01D
:1020B000F605280A01D2801970BD70416D0603D063
:1020C00070BD6940FFF794FF9C40090261404900E0
:1020D00001D0401E70BD0124A04370BD6D081DD00D
:1020E00001202B0C01D12D0410302B0E01D12D021B
:1020F00008302B0F01D12D01001DAB0F01D1AD0018
:10210000801CEB0F01D16D00401C6D00361A121AB5
:10211000680AF5054019012A02DB70BD002070BD78
:10212000C036300AC00770BD1B0E440201D1FF2B20
:1021300000D1024870BD002AF0D070BD0000C07F01
:1021400004000000030000000200000000093D0040
:1021500000127A000024F4004086510100366E011E
:102160000080009600010202030303030404040438
:1021700004040404FFFEFDFBF7EFDFBF7F818283D1
:102180008485868788898B8C8D8E8F919293959686
:1021900097999A9C9D9FA0A2A3A5A7A8AAACAEB010
:1021A000B2B3B5B7B9BCBEC0C2C5C7C9CCCED1D415
:1021B000D7D9DCDFE2E6E9ECF0F3F7FAFE00000045
:1021C000E0210000000000202400000004010000C5
:1021D00004220000240000206C0400002001000004
:1021E0000000000000366E0100000000000000004A
:1021F0000000000000010001003F065B4F666D7D9E
:04220000077F6F00E5
:04000005000000C136
:00000001FF
