:020000040000FA
:10000000A8040020AD010000C7010000111200008B
:1000100000000000000000000000000000000000E0
:10002000000000000000000000000000CB01000004
:100030000000000000000000CD010000EB180000EF
:10004000191700001B1700001D1700001F170000E4
:100050001F080000711E0000892300008B23000090
:100060009D1300009F1300002317000025170000B8
:100070002112000023120000691E00006B1E000008
:100080006D1E000015130000951E0000971E000055
:10009000991E000015170000912300002117000091
:1000A000EB070000171700008D2300008F230000CE
:1000B0004515000013130000790C0000ED07000047
:1000C00000F002F800F046F80CA030C808382418F8
:1000D0002D18A246671EAB4654465D46AC4201D180
:1000E00000F038F87E460F3E0FCCB646012633426C
:1000F00000D0FB1AA246AB4633431847E026000067
:1001000000270000103A02D378C878C1FAD8520705
:1001100001D330C830C101D504680C6070470000BD
:100120000023002400250026103A01D378C1FBD813
:10013000520700D330C100D50B60704710B5642959
:1001400002D100F0A5F810BD002010BD1FB51FBDE5
:1001500010B510BD00F016FB1146FFF7F7FF00F0D9
:100160003DFB00F02EFB03B4FFF7F2FF03BC02F0EF
:1001700089F9000070B505460C46164602E00FCC22
:100180000FC5103E102EFAD2082E02D303CC03C5A1
:10019000083E042E07D301CC01C5361F03E02178A9
:1001A0002970641C6D1C761EF9D270BD0C480D4A76
:1001B000002100A1814200D902440B4802600B4893
:1001C00080470B480047FEE7FEE7FEE7FEE7FEE755
:1001D000FEE7000007480849084A094B704700003D
:1001E000000000200000000008ED00E0291E0000D3
:1001F000C1000000A8000020A8040020A8020020E0
:10020000A8020020704700000FB4054910B503AAEA
:10021000029800F073FA10BC08BC04B01847000044
:1002200004000020F8B50E46044600202062204657
:10023000E1688847002829D0252802D06268A16893
:1002400020E0E16820460027884705001ED02846A8
:100250004138192802D80127FF02203532462046AE
:1002600027602946FFF76AFF002808D0012804D03C
:10027000F61DF608F6000836D9E7361DD7E762689E
:100280002846A1689047206A401CCFE7206AF8BD45
:10029000F7B5002575291068009914A611D0C0463D
:1002A000C046002802DA404211A608E00099096819
:1002B0008A0701D50FA602E0490704D50EA601253D
:1002C00001E0C046C046009F0024243704E000F04F
:1002D00029FA30313955641C0028F8D12B463246B2
:1002E0002146009800F0B2F9FEBD000000000000B9
:1002F0002D0000002B000000200000000022030958
:100300008B422CD3030A8B4211D300239C464EE030
:1003100003460B433CD4002243088B4231D30309EC
:100320008B421CD3030A8B4201D394463FE0C3099E
:100330008B4201D3CB01C01A524183098B4201D3B6
:100340008B01C01A524143098B4201D34B01C01AA1
:10035000524103098B4201D30B01C01A5241C30819
:100360008B4201D3CB00C01A524183088B4201D388
:100370008B00C01A524143088B4201D34B00C01A74
:100380005241411A00D201465241104670475DE089
:10039000CA0F00D04942031000D34042534000220C
:1003A0009C4603098B422DD3030A8B4212D3FC22B5
:1003B000890112BA030A8B420CD3890192118B4234
:1003C00008D3890192118B4204D389013AD092114A
:1003D00000E08909C3098B4201D3CB01C01A524105
:1003E00083098B4201D38B01C01A524143098B42CE
:1003F00001D34B01C01A524103098B4201D30B01B7
:10040000C01A5241C3088B4201D3CB00C01A5241DB
:1004100083088B4201D38B00C01A5241D9D24308C2
:100420008B4201D34B00C01A5241411A00D20146FF
:10043000634652415B10104601D34042002B00D569
:100440004942704763465B1000D3404201B500202B
:10045000C046C04602BD704770477047F0B5FF25E3
:100460002D04C609C209FF2704462E400137CB09D7
:100470003E4348402A402B400746002A6BD0002BC1
:1004800069D0AA4267D0AB4265D0002800DA324674
:100490000125ED0529432C4309022002090AD21A3D
:1004A0004B0C7F24E31A434C000A7C44E35C7D241C
:1004B0002404121914145B00A218884201D3521CA0
:1004C00000E0400049420C465C4324115C43DB01E0
:1004D0006415E318040A5C43C502200D0C4644432E
:1004E0006419250A5D432303EC0C0D4665430003A4
:1004F0000019EB184C42A34201D35B18401CD405F1
:100500002018002B07D05B00C91804D3401C002919
:1005100001D1400840003F2189048A4209D3002AC2
:1005200008DC1106090F04D0032149074018C00F49
:10053000C007F0BD01224100120689187F22520631
:100540009142F6D205214907C84201D59010F0BD6D
:10055000FF20C005F0BD002F00DA32461648AA423F
:1005600007D2AB4205D21902090E17D0F80FC00707
:10057000F0BDFF2563002D06AB42F9D84900A94222
:10058000F6D8AB4201D1A942F2D0A94201D1002153
:1005900001E061004908D0050843F0BD1102090ED1
:1005A000FBD0FF200243D005F0BD0A4601461046AD
:1005B00054E70000EB2200000000C07F0102C215DA
:1005C00004D00123DB071943002A0ADB9E239A1A71
:1005D00002D40846D0407047FF22410012069142E3
:1005E00001D900207047C017C04370471F22030C79
:1005F00002D10F2200041CD0030E01D10002083AE0
:10060000030F01D10001121F830F01D18000921E40
:10061000002801DB4000521ED20551180212511869
:100620001922904004D3491C002801D149084900EF
:1006300008467047C10FC90700D040420122920707
:100640001143D3E701218907D0E77047FFB504467E
:100650000D4681B0243000902168880604D5102210
:10066000E0699143216000E00120A84201DD471BC1
:1006700000E000270498A1697A191018081AA061EF
:100680002078C00602D42046C046C046002608E0B6
:1006900003986268A168805D9047206A401C761CC0
:1006A000206204988642F3DB2078C0060AD52046F3
:1006B000C046C04606E06268A16830209047206AC4
:1006C000401C206238467F1E0028F4DC07E00098BA
:1006D0006268A168405D9047206A401C20622846FD
:1006E0006D1E0028F3DC2046C046C0462078000678
:1006F00002D5022005B0F0BD0120FBE7084B70B524
:100700000D467B4400F027F80446284600F036F8F2
:10071000002802D00020C04370BD204670BD0000FC
:10072000571E000001468008081A02091018020A24
:100730001018020C1018C008820012185200891AF2
:1007400001E0401C0A390A29FBD2704701694A1CA2
:1007500002610878704700B58FB0029100210591C1
:100760000549019379440391114604906846FFF7C7
:1007700059FD0FB000BD0000E5FFFFFFC0688021FC
:1007800008407047754600F025F8AE4605006946FA
:100790005346C008C000854618B020B5FFF71AFDC3
:1007A00060BC00274908B6460026C0C5C0C5C0C504
:1007B000C0C5C0C5C0C5C0C5C0C5403D49008D4607
:1007C000704710B50446C046C0462046FFF7CBFC34
:1007D00010BD0000004870474800002010B501F02F
:1007E00023FB01F0CDFE002010BD7047704710B50F
:1007F000002000F0D7FF002000F0D4FF08214020A7
:1008000000F08CFC0921402000F088FC0A214020E7
:1008100000F084FC0B21402000F080FC10BD7047EC
:1008200010B539480078002806D0012815D00228D4
:100830002AD0032857D13FE00C21402000F0DAFCF9
:100840000D21402000F06AFC0E21402000F066FCE3
:100850000F21402000F062FC46E00C21402000F017
:100860005DFC0D21402000F0C5FC0E21402000F071
:1008700055FC0F21402000F051FC062000F092FFB3
:10088000862000F08FFF2FE00C21402000F046FC76
:100890000D21402000F042FC0E21402000F0AAFC77
:1008A0000F21402000F03AFC002000F07BFF1748A9
:1008B000007800F077FF17E00C21402000F02EFCBC
:1008C0000D21402000F02AFC0E21402000F026FCE3
:1008D0000F21402000F08EFC002000F063FF762006
:1008E00000F060FF00E000BF00BF07480078401C38
:1008F000054908700878C117890F091889108900FF
:10090000411A014A117010BD25000020230000206B
:1009100070B5B5480088B549884202DD0846B2493D
:100920000880B3480078002806D0012854D0022857
:1009300071D0032870D1FEE00C21402000F05AFC59
:100940000D21402000F0EAFB0E21402000F0E6FBE4
:100950000F21402000F0E2FBA3480088B4280ADA07
:100960001421A1480088FFF7D3FCA2490C5C204663
:1009700000F018FF1CE09C480088B4280CDB9A4863
:100980000088C82808DA9B49087A00F00BFF082184
:10099000402000F02FFC0BE09649087A00F002FF9F
:1009A0000821402000F026FC0921402000F022FC14
:1009B0008D480088904988420ADD491C8A48008891
:1009C000FFF7A6FC8D490C5C204600F0EBFE02E030
:1009D000002000F0E7FEF6E00C21402000F09EFB36
:1009E0000D21402000F006FC0E21402000F096FB77
:1009F0000F21402000F092FB7B480088B4280CDADD
:100A0000142179480088FFF783FC7A490C5C204662
:100A100000F0C8FE1EE03AE0D4E073480088B42835
:100A20000CDB71480088C82808DA7249087A00F09F
:100A3000B9FE0821402000F0DDFB0BE06D49087A8B
:100A400000F0B0FE0821402000F0D4FB0921402036
:100A500000F0D0FB64480088632810DD6421624800
:100A60000088FFF755FC05460A21FFF751FC634853
:100A7000405C80210843044600F094FE06E05F4994
:100A8000097880221143084600F08CFE9BE00C217F
:100A9000402000F043FB0D21402000F03FFB0E21E1
:100AA000402000F0A7FB0F21402000F037FB4E480C
:100AB0000088B4280ADA14214B480088FFF728FC84
:100AC0004C490C5C204600F06DFE1CE04648008856
:100AD000B4280CDB44480088C82808DA4549087A5D
:100AE00000F060FE0821402000F084FB0BE041494B
:100AF000087A00F057FE0821402000F07BFB092116
:100B0000402000F077FB3848008809280EDD0A21D4
:100B100035480088FFF7FCFB05460A21FFF7F8FB84
:100B20003648445C204600F03DFE03E03349087837
:100B300000F038FE47E00C21402000F0EFFA0D21D4
:100B4000402000F0EBFA0E21402000F0E7FA0F21E0
:100B5000402000F04FFB24480088B4280ADA142112
:100B600021480088FFF7D4FB22490C5C204600F0A6
:100B700019FE1CE01C480088B4280CDB1A480088C9
:100B8000C82808DA1B49087A00F00CFE082140202A
:100B900000F030FB0BE01749087A00F003FE082153
:100BA000402000F027FB0921402000F023FB0A2110
:100BB0000D480088FFF7ACFB1048445C204600F06D
:100BC000F1FD00E000BF00BF09480078401C084963
:100BD00008700878C117890F091889108900411A0F
:100BE000034A117070BD0000000000200F270000B4
:100BF0002500002030000020E70300002600002030
:100C0000704770477047704770B504460E461546EA
:100C10002046002805DBC206D20E01219140144A6D
:100C2000116000BF3146204601F0F0FB012D0ED1CE
:100C30002046002809DB00BF00BFC206D20E0121FA
:100C400091400C4A116000BF00BF00BF0FE020467A
:100C500000280ADBC206D20E01219140054A8032EB
:100C60001160BFF34F8FBFF36F8F00BF00BF70BD28
:100C700080E200E000E100E07047000010B50146AE
:100C80000020084A084BDA62084ADA621A46126AF9
:100C90000C239A438B000C2423401A43024B1A6204
:100CA00010BD00005A5A000000000240A5A5000037
:100CB0001CB501211C2001F00BF8012168460170D0
:100CC000417000218170C1700171012141716A463A
:100CD0000021084600F03CFA6A460121002000F09D
:100CE00037FA6A460221002000F032FA6A460321F0
:100CF000002000F02DFA6A460421002000F028FAB6
:100D00006A460521002000F023FA6A4606210020E9
:100D100000F01EFA6A460721002000F019FA6A4620
:100D20000821002000F014FA6A460921002000F092
:100D30000FFA6A460A21002000F00AFA6A460B21DF
:100D4000002000F005FA6A460C21002000F000FAAD
:100D50006A460D21002000F0FBF96A460E210020B2
:100D600000F0F6F96A460F21002000F0F1F90021A9
:100D7000084600F0D3F90121002000F0CFF902214C
:100D8000002000F0CBF90321002000F0C7F9042176
:100D9000002000F0C3F90521002000F0BFF9062172
:100DA000002000F0BBF90721002000F0B7F908216E
:100DB000002000F0B3F90921002000F0AFF90A216A
:100DC000002000F0ABF90B21002000F0A7F90C2166
:100DD000002000F0A3F90D21002000F09FF90E2162
:100DE000002000F09BF90F21002000F097F96A46DF
:100DF0000021402000F0ACF96A460121402000F0BB
:100E0000A7F96A460221402000F0A2F96A460321B0
:100E1000402000F09DF96A460421402000F098F936
:100E20006A460621402000F093F96A4607214020D7
:100E300000F08EF96A460821402000F089F96A46E0
:100E40000921402000F084F96A460A21402000F080
:100E50007FF96A460B21402000F07AF96A460C219E
:100E6000402000F075F96A460D21402000F070F92D
:100E70006A460E21402000F06BF96A460F2140209F
:100E800000F066F90021402000F048F901214020DF
:100E900000F044F90221402000F040F903214020F5
:100EA00000F03CF90421402000F038F905214020F1
:100EB00000F034F90621402000F030F907214020ED
:100EC00000F02CF90821402000F028F909214020E9
:100ED00000F024F90A21402000F020F90B214020E5
:100EE00000F01CF90C21402000F018F90D214020E1
:100EF00000F014F90E21402000F010F90F214020DD
:100F000000F00CF96A460021802000F021F96A46C1
:100F10000121802000F01CF96A460221802000F0A7
:100F200017F96A460321802000F012F96A4604216D
:100F3000802000F00DF96A460521802000F008F9B4
:100F40006A460621802000F003F96A4607218020C6
:100F500000F0FEF86A460821802000F0F9F86A46A1
:100F60000921802000F0F4F86A460A21802000F070
:100F7000EFF86A460B21802000F0EAF86A460C215F
:100F8000802000F0E5F86A460D21802000F0E0F8AE
:100F90000021802000F0C2F80121802000F0BEF87E
:100FA0000221802000F0BAF80321802000F0B6F87A
:100FB0000421802000F0B2F80521802000F0AEF876
:100FC0000621802000F0AAF80721802000F0A6F872
:100FD0000821802000F0A2F80921802000F09EF86E
:100FE0000A21802000F09AF80B21802000F096F86A
:100FF0000C21802000F092F80D21802000F08EF866
:101000006A460021C02000F0A3F86A460121C020F2
:1010100000F09EF86A460221C02000F099F86A4666
:101020000321C02000F094F86A460621C02000F099
:101030008FF86A460721C02000F08AF86A46082126
:10104000C02000F085F86A460921C02000F080F831
:101050006A460A21C02000F07BF86A460B21C020B6
:1010600000F076F86A460C21C02000F071F86A465C
:101070000D21C02000F06CF86A460E21C02000F05F
:1010800067F86A460F21C02000F062F80021C020F6
:1010900000F044F80121C02000F040F80221C020F7
:1010A00000F03CF80321C02000F038F80421C020F3
:1010B00000F034F80521C02000F030F80621C020EF
:1010C00000F02CF80721C02000F028F80821C020EB
:1010D00000F024F80921C02000F020F80A21C020E7
:1010E00000F01CF80B21C02000F018F80C21C020E3
:1010F00000F014F80D21C02000F010F80E21C020DF
:1011000000F00CF80F21C02000F008F81CBD0246CA
:101110001068C840C007C00F7047000070B5044693
:101120000D46044960180122294600F087FB002083
:1011300070BD0000140D024070B504460D46034911
:1011400060182946FFF7E3FF70BD0000040D024060
:1011500070B504460E4615461E49601800223146F9
:1011600000F06CFB00201C496118B20088502A78FE
:1011700018490C396018314600F060FB6A7815494F
:1011800010316018314600F059FBAA78114914312A
:101190006018314600F052FBEA780E4918316018A9
:1011A000314600F04BFB2A790A492031601831465C
:1011B00000F044FB094880680121C903884369792C
:1011C000C9030122D203114008430449886000206A
:1011D00070BD00000C0D0240000C0240000F0240E8
:1011E00010B50346024818188C000251002010BDAB
:1011F000000C024070B504460D46044960180122F7
:10120000294600F01BFB002070BD0000100D0240BD
:1012100008B50020009000BF00980028FCD008BD51
:10122000704770471CB501211C2000F051FD0021C2
:10123000684601708170C17008214020FFF76EFF81
:1012400009214020FFF76AFF0A214020FFF766FFCF
:101250000B214020FFF762FF0C214020FFF75EFFCB
:101260000D214020FFF75AFF0E214020FFF756FFC7
:101270000F214020FFF752FF6A4608214020FFF768
:1012800067FF6A4609214020FFF762FF6A460A218C
:101290004020FFF75DFF6A460B214020FFF758FF13
:1012A0006A460C214020FFF753FF6A460D2140207B
:1012B000FFF74EFF6A460E214020FFF749FF6A46BE
:1012C0000F214020FFF744FF1CBD1CB501211C204D
:1012D00000F0FEFC01216846017041700021817020
:1012E000C1700171012141716A4604214020FFF75C
:1012F0002FFF6A4605214020FFF72AFF6A46062194
:101300004020FFF725FF6A4607214020FFF720FF16
:101310001CBD704710B5074800F089F9012808D1B5
:10132000044800F067F90448007840210843024966
:10133000087010BD000F00400C0000201CB50821F3
:10134000684601F0A1F80121092000F0C1FC00214C
:10135000684681704170022101700021C1700171E5
:10136000012141710B49C18069460B4800F067F9C2
:10137000094800F03FF90121074800F04EF9012229
:1013800003211120FFF740FC0121034800F03BF945
:101390001CBD0000FFBF0000000F004070477047F9
:1013A00070B504460D46002229462046143000F050
:1013B00045FA002070BD70B504460D46012229464D
:1013C000201D00F03BFA002070BD70B504460D46AC
:1013D0000026294620461030FFF799FE0646304683
:1013E00070BD0000F0B587B005460C460127224AC3
:1013F00007CA04AB07C300200390002C02D10420CD
:1014000007B0F0BD00206860608861780843E1881B
:101410000843A18808432178084368602078402861
:1014200002D02078C02824D1E088C117C90D09183E
:101430004912890004AA515A8EB2E168B1400846A7
:10144000FFF700F90290A068FFF7FCF801900299FD
:10145000FFF704F803903F210906039801F0D0F844
:101460000290FFF7ABF880B2A86104212846FFF78D
:10147000A2FF00273846C3E75C27000070B504468A
:101480000D4600BF03212046FFF79FFF0028F9D03B
:101490002068000A0002E9B20843206000BF012171
:1014A0002046FFF792FF0028F9D001212046FFF7E0
:1014B00077FF002070BD000000B587B0102103A8A1
:1014C00000F0E2FF062101A800F0DEFF0121032069
:1014D00000F0FEFB01211C2000F0FAFB0021684611
:1014E000017101AA0846FFF733FE022200210846D7
:1014F000FFF776FE01216846017101AA0020FFF77F
:1015000027FE022201210020FFF76AFE0021684623
:10151000C181042141730021018200F08FFB0590FD
:101520000121890203A8C180E121490206914021DD
:101530006846017303A90248FFF754FF07B000BDD6
:10154000004000407047000010B5284840798021D5
:101550000840002807D0254840794006400E23491E
:101560004871802420E0214840792021084000284B
:1015700007D01E484079DF2108401C4948712024CB
:1015800012E01A48407910210840002807D0174877
:101590004079EF21084015494871102404E01348B0
:1015A000447900201149487111480078012814D16C
:1015B000102C04D0202C06D0802C08D10BE0052064
:1015C00000F0F0FE07E0032000F0ECFE03E0012055
:1015D00000F0E8FE00BF00BF03E0012000F0E2FEE3
:1015E00000BF00BF00F03AF910BD00000D00002060
:1015F0001600002010B50446002211462046143083
:1016000000F01CF910BD70B505460C4622460021BD
:1016100028460C3000F012F970BD70B505460C4636
:1016200022460A2128460C3000F008F970BD10B59A
:101630000446002120461030FFF769FD10BD30B58B
:1016400002467D23DB00D0683024A0430C782401BF
:1016500030252C402043D060D06801246402A04390
:101660004C78640201256D022C402043D060D06884
:101670006C10A0438C7824026D102C402043D06065
:10168000D0680824A043CC78E40008252C402043EF
:10169000D060D0680424A0430C79A40004252C4019
:1016A0002043D060D0680224A0434C796400022516
:1016B0002C402043D06005E0D0680006C00F002811
:1016C00000D004E018465C1EA3B20028F4D100BF8D
:1016D000002B01D1092030BD5068000C0004CC88DB
:1016E000204350600020F6E710B572B6421E074B4B
:1016F0009A5C0A43431E054CE25401229A40044B73
:101700001B781A43024B1A7062B610BD0D00002000
:101710000C00002070477047704770477047704753
:1017200070477047704700000EB5062101A800F011
:10173000ABFE01211C2000F0CBFA0121062000F0B5
:10174000C7FA002168464171017101AA07210020F2
:10175000FFF7FEFC012207210020FFF741FD01AA4F
:1017600004210020FFF7F4FC012204210020FFF7F0
:1017700037FD01AA05210020FFF7EAFC012205211F
:101780000020FFF72DFD10216846017000214170F7
:10179000C17081706946024800F07BF80EBD000000
:1017A0000008004010B504460021094800F085F803
:1017B0002146074800F07DF800BF0421044800F0EE
:1017C0005FF80028F9D00121014800F076F810BD3B
:1017D0000008004010B5FFF70AF816480078012805
:1017E00004D0022805D0042820D105E0FFF790F8A6
:1017F0001DE0FFF715F81AE00F480078012806D021
:10180000022807D0032808D004280CD108E0FFF7ED
:10181000F7F909E0FFF7F5F906E0FFF7F3F903E060
:10182000FFF7F1F900E000BF00BF00E000BF00BF1C
:1018300010BD0000220000202300002010B5012A66
:1018400005D1036801248C402343036004E003684E
:1018500001248C40A343036010BD0000064840797A
:10186000002807D072B605480078202108430349B4
:10187000087062B6704700000D0000200C000020C8
:10188000024690680840002801D0012070470020DF
:10189000FCE702460020106008784B7818438B78EC
:1018A0001843CB7818434023184310600020906001
:1018B00070470246D160002070474160704708B50C
:1018C0000020FFF7DBF9002000F00EFA062000F000
:1018D00031FA0021684601704170817000F009F80A
:1018E0000121032000F03AF808BD10B5C046C046FB
:1018F00010BD70B5044600252078030000F078FD87
:101900000504050C10181C0018E0032000F05CFA18
:10191000032000F023FA11E0032000F0F9F90DE0B4
:101920000321084600F05EFA032000F027FA05E0E4
:10193000072000F0BBF901E0042500BF00BF2078BC
:10194000012100F00BF8207800F028FA607800F010
:1019500085F9A07800F096F9284670BDF8B50546DF
:101960000C46002700F038FD002C01D0012000E0DB
:10197000002004465148066A2B0000F039FD05049A
:1019800017394D7298004D48006840084000E10743
:10199000C90F08434949086000BF002C05D04748DB
:1019A000C0680005C00F0028F7D082E04348006AF5
:1019B0000121090788434018404908624048C0682F
:1019C000032108433E49C8603C480068022188431F
:1019D00061000222114008433849086000BF002C12
:1019E00005D0364800694006C00F0028F7D060E0F7
:1019F0003248006804218843A100042211400843B2
:101A00002E49086000BF002C05D02C484069C00456
:101A1000C00F0028F7D04CE02848006A01210907D0
:101A2000884340182549086225484038C06803218A
:101A30008903084322494039C860204800680821CA
:101A40008843E1000822114008431C49086000BF98
:101A5000002C05D0194880694006C00F0028F7D037
:101A600027E01648006A01210904884340181349F9
:101A700008621448006840084000401C1149086092
:101A8000142000F011FD0D48006810218843210149
:101A90001022114008430949086000BF002C05D0FE
:101AA0000648C06B4003C00F0028F7D001E00427B0
:101AB00000BF00BF014806623846F8BD0020004064
:101AC000C00D02400024004030B589B0002414222B
:101AD000564904A8FEF74EFB5448143000680390A2
:101AE00000200090019002905148018868460181D1
:101AF0004F4841886846C1804D488188684681804A
:101B00004B48C18868464180494820300188684672
:101B10000180484800680006450F2B0000F068FC73
:101B200005042E303E4178004248C0684005400D13
:101B300069460989884201D1089C1EE03D48C06879
:101B40004005400D6946C988884201D1079C14E0D0
:101B50003848C0684005400D69468988884201D1EF
:101B6000069C0AE03348C0684005400D6946498834
:101B7000884201D1059C00E0049C4BE02E4C49E0DA
:101B8000684600882B4949698905890D884202D138
:101B90006846C48901E0684684893BE00124E40387
:101BA00038E02448C06B8007800F032829D168469D
:101BB00000892049C9684905490D884201D1089C1E
:101BC00020E06846C0881B49C9684905490D88421C
:101BD00001D1079C16E0684680881649C968490506
:101BE000490D884201D1069C0CE0684640881149A5
:101BF000C9684905490D884201D1059C02E0049C51
:101C000000E00D4C0B48C06BC005000F444301E0E1
:101C1000002400BF00BF074800684005410F204670
:101C2000C8400446204609B030BD000068270000C7
:101C3000000C1000002000400048E80110B500240E
:101C4000FFF742FF044604480068C004810F2046A5
:101C5000C8400446204610BD0020004010B5044690
:101C600000F0BAFB064800680721090288432102F8
:101C7000072212021140084301490860002010BDEC
:101C80000020004010B5044600F0A6FB064800689E
:101C90000321C9028843E1020322D2021140084312
:101CA00001490860002010BD0020004010B5014629
:101CB0000020064AD26B0723DB039A43CB03072499
:101CC000E40323401A43014BDA6310BD00200040B7
:101CD00070B504460D462A4621460248FFF7AEFD80
:101CE000002070BD2020004001464A00064BD2185B
:101CF00012885005400D054AD268D20AD20202432A
:101D0000024BDA6000207047000C100000200040F9
:101D100010B501460020064A526903239B029A43EC
:101D20008B020324A40223401A43014B5A6110BDC5
:101D30000020004010B5044600F04EFB0648406805
:101D400007214902884361020722520211400843D9
:101D500001494860002010BD0020004010B5014638
:101D60000020054A126930239A430B013024234096
:101D70001A43014B1A6110BD0020004010B5014606
:101D80000020054A926930239A430B0130242340F6
:101D90001A43014B9A6110BD0020004070B5044603
:101DA0000025264600F018FB06480068E02188431D
:101DB0007101E022114008430249086000F02CF84C
:101DC000284670BD0020004001460020044A1269E8
:101DD000920892008B079B0F1A43014B1A617047C0
:101DE0000020004030B5024600200A4B9B690C24BD
:101DF000A34394000C252C402343064CA3612346A7
:101E00009B699B089B008C07A40F2343014CA36193
:101E100030BD00000020004010B5FFF755FE01491D
:101E2000086010BD0800002010B50D4949888805DC
:101E3000800D0C494969890A89020143094A5161A7
:101E40000749203909894805400D1146C968C90A62
:101E5000C9020143D160FFF7DFFF00F0AFFA10BD08
:101E6000200C1000002000407047704770470000B1
:101E700010B5002000F09CF9012808D1002000F0E6
:101E80008DF903480078802108430149087010BD8E
:101E90000C000020704770477047000010B5042107
:101EA0004020FFF749F9002816D151480078401C1E
:101EB000C0B24F490870F02801DDF02008704C488E
:101EC0000078C82802D14BA0FEF79EF9514800883F
:101ED000401C5049088017E045480078022810DD72
:101EE00043480078C8280CDA4BA0FEF78DF9494822
:101EF0000088401C47490880084601884EA0FEF72C
:101F000083F900203A49087005214020FFF714F9B1
:101F1000002811D14D480078401CC0B24B490870D0
:101F2000F02801DDF020087048480078C82811D159
:101F300047A0FEF769F90DE044480078022806DD65
:101F400042480078C82802DA49A0FEF75DF900206F
:101F50003E49087006214020FFF7EEF8002811D115
:101F60004B480078401CC0B249490870F02801DD98
:101F7000F020087046480078C82811D145A0FEF727
:101F800043F90DE042480078022806DD4048007819
:101F9000C82802DA47A0FEF737F900203C4908704C
:101FA00007214020FFF7C8F8002811D149480078E0
:101FB000401CC0B247490870F02801DDF0200870CD
:101FC00044480078C82811D143A0FEF71DF90DE060
:101FD00040480078022806DD3E480078C82802DA2A
:101FE00045A0FEF711F900203A49087010BD000025
:101FF0001C0000206C6F6E673120616E2E2E2E2E1D
:102000002E2E2E2E2E2E2E2E2E2E2E2E2E2E0D0A35
:10201000000000000000002073686F7274312061BE
:102020006E2E2E2E2E2E2E2E2E2E2E2E2E2E2E2E90
:102030002E2E2E0D0A0000005072657373757265A6
:1020400056616C75653A25640D0A00001D0000207C
:102050006C6F6E673220616E2E2E2E2E2E2E2E2E3F
:102060002E2E2E2E2E2E2E2E2E2E0D0A000000008D
:1020700073686F72743220616E2E2E2E2E2E2E2ECD
:102080002E2E2E2E2E2E2E2E2E2E2E0D0A0000003F
:102090001E0000206C6F6E673320616E2E2E2E2E78
:1020A0002E2E2E2E2E2E2E2E2E2E2E2E2E2E0D0A95
:1020B0000000000073686F72743320616E2E2E2E44
:1020C0002E2E2E2E2E2E2E2E2E2E2E2E2E2E2E0D51
:1020D0000A0000001F0000206C6F6E673420616EE4
:1020E0002E2E2E2E2E2E2E2E2E2E2E2E2E2E2E2E10
:1020F0002E2E0D0A0000000073686F727434206188
:102100006E2E2E2E2E2E2E2E2E2E2E2E2E2E2E2EAF
:102110002E2E2E0D0A00000070B500251C480478F4
:10212000002C33D0F0202040002805D02011194980
:10213000085C001DC5B201E01648055D1648445D07
:1021400072B61348007820401149087062B6002D1D
:1021500001D000F01FF92B0000F04AF90916151400
:102160001312110E0B061600FFF734FBFFF796FE55
:102170000BE000F0E1F808E0FFF7E6F905E004E025
:1021800003E002E001E000E000BF00BF70BD00001E
:102190000C0000208027000090270000014600204E
:1021A00001228A40D243014B5A61704700580040D7
:1021B00001460020034B1A691346CB40D807C00FD5
:1021C000704700000058004001460020044A126891
:1021D000120C12048BB21A43014B1A6070470000B4
:1021E0000058004001460020044A5268120C1204B4
:1021F0008BB21A43014B5A607047000000580040F0
:1022000000200449C96849084900491C014AD160B5
:10221000704700000058004000200449C9680122AE
:10222000920291438918014AD160704700580040DA
:1022300010B501460020284AD26803231B039A43A5
:102240000B781B030324240323401A43224BDA6038
:102250001A46D2685B159A434B785B0201246402EC
:1022600023401A431C4BDA601A46D2689B159A43E6
:102270008B781B02641023401A43174BDA601A460E
:10228000D26870239A43CB781B01702423401A43F1
:10229000114BDA601A46D26808239A430B79DB00A7
:1022A000082423401A430C4BDA601A46D2680423F0
:1022B0009A434B799B00042423401A43064BDA606F
:1022C0001A46D26802239A438B795B00022423408A
:1022D0001A43014BDA6010BD005800407CB507215D
:1022E000684600F0D1F801210B20FFF7F1FC002136
:1022F0006846017041710521C17001218171002181
:10230000017181704170FFF793FF0A4C2046FFF77F
:102310005BFF25462846FFF765FF0020FFF73EFFDD
:10232000FFF77AFF012203210520FEF76DFCFFF77E
:1023300067FF7CBD59F1000000201FE01149095CD6
:10234000002919D00F49095C491EC9B20D4A115420
:10235000002911D1002806D0012805D0022807D075
:10236000032807D105E006E00221064A517002E089
:1023700001E000E000BF00BF411CC8B20B28DDDB5C
:10238000704700003C00002070477047704770475E
:10239000704700001E2002490860E1200860704775
:1023A000800F004010B504460348047080210620C9
:1023B000FFF79AF910BD0000160000200549086AD1
:1023C000096A0122120791438918024A11621146D3
:1023D00008627047002000400248034988600348B3
:1023E000886070475A5A000000200040A5A50000F0
:1023F00030B47446641E2578641CAB4204D3635D1C
:102400005B00E31830BC18471D46F8E710B50028FC
:1024100019DB1A4A03231B02D21883089B00D258E7
:102420008307DC0EFF23A3409A438B071B0E840710
:10243000E40EA3401A43114B032424021B19840801
:10244000A4001A5118E00E4A03071B0F083B9B0813
:102450009B00D2588307DC0EFF23A3409A438B07CF
:102460001B0E8407E40EA3401A43054B0407240FF8
:10247000083CA408A4001A5110BD000000E100E0CF
:102480001CED00E000BF704710B50A460146002968
:1024900000D110BD02E000230B70491C1346521EF0
:1024A000002BF8D100BFF4E770B50546114812497A
:1024B000486100208861052008610FE000200E4976
:1024C00088610E490E480068FDF718FF01210906D2
:1024D0000C1A00BF08488069A042FBD828466D1E30
:1024E0000028EBD104480069400840000249086117
:1024F00070BD0000FFFFFF0000E000E0A0860100CB
:102500000800002070B505461148124948610020B6
:1025100088610520086110E000200E4988617D2156
:10252000C9000D480068FDF7E9FE012109060C1AF3
:1025300000BF08488069A042FBD828466D1E0028CD
:10254000EAD104480069400840000249086170BDB2
:10255000FFFFFF0000E000E00800002070B5044627
:102560000D46E0B20A2803D10D210448FEF786FF8C
:10257000E1B20248FEF782FF204670BD00400040F5
:10258000FFF79DF9FEF794FBFEF79FFEFFF7CCF8EF
:10259000FEF7D4FEFFF7A2FEFEF744FEFEF78CFF27
:1025A0000DA0FDF731FE7D200001FFF7ABFF0021FC
:1025B0001248FFF782F900211048FFF77AF900214D
:1025C0000E48FFF776F901210C48FFF776F901E094
:1025D000FFF7A2FDFCE7000053797374656D20538B
:1025E000746172742E2E2E2E2E2E2E2E2E2E2E2E08
:1025F0002E2E2E2E2E2E0D0A000000000008004068
:1026000070B501250400ED074C4020D4441A01D2D6
:10261000001B0919C60D4B00F2B2FF2A29D01B0E70
:102620002CD000020C02D31A2C43DC40284305199D
:1026300010D2280A02D3401C6D0611D0761EF60572
:102640008019FF2A00DA70BDC00DC00570BD694059
:1026500000F022F801200543C541521C761CE8E732
:1026600064089C40C90161408900E7D10124A0436E
:10267000E4E71B0E440200D0034870BD002AFCD1E1
:10268000C00FC00770BD00BF0000C07F70B501253E
:102690000400ED074C4022D4441A02D26C40001BC7
:1026A0000919C60D4B00F2B2FF2A4BD01B0E50D0B9
:1026B00000020C02D31A2C43DC40A843051B05D5AD
:1026C000AD0019D36D08761E521E37D0F605280AC4
:1026D00001D2801970BD70416D0603D070BD694094
:1026E000FFF794FF9C4009026140490001D0401E61
:1026F00070BD0124A04370BD6D081DD001202B0CBE
:1027000001D12D0410302B0E01D12D0208302B0FDA
:1027100001D12D01001DAB0F01D1AD00801CEB0FCD
:1027200001D16D00401C6D00361A121A680AF505B9
:102730004019012A02DB70BD002070BDC036300A8E
:10274000C00770BD1B0E440201D1FF2B00D102480F
:1027500070BD002AF0D070BD0000C07F04000000F2
:10276000030000000200000000093D0000127A0092
:102770000024F4004086510100366E01008000966E
:102780000001020203030303040404040404040418
:10279000FFFEFDFBF7EFDFBF7F81828384858687A5
:1027A00088898B8C8D8E8F919293959697999A9C10
:1027B0009D9FA0A2A3A5A7A8AAACAEB0B2B3B5B77F
:1027C000B9BCBEC0C2C5C7C9CCCED1D4D7D9DCDF55
:1027D000E2E6E9ECF0F3F7FAFE000000FC27000067
:1027E000000000203C000000040100003828000028
:1027F0003C0000206C0400002001000000000000EC
:102800000000000000366E01000000000000000023
:1028100000000000000001000000000000000100B6
:1028200001003F065B4F666D7D077F6F0001030768
:082830000F1F3F7FFF000000B5
:04000005000000C136
:00000001FF
