:020000040000FA
:10000000C80400209D010000B70100003119000064
:1000100000000000000000000000000000000000E0
:10002000000000000000000000000000BB01000014
:100030000000000000000000BD010000652100007C
:10004000611F0000631F0000651F0000671F0000A4
:1000500083060000ED260000412B0000432B00002A
:10006000BD1A0000BF1A00006B1F00006D1F0000CA
:100070004119000043190000E5260000E7260000B2
:10008000E9260000351A00001127000013270000A0
:10009000152700005D1F0000492B0000691F0000AC
:1000A0004F0600005F1F0000452B0000472B00009B
:1000B000651C0000331A000099130000510600006F
:1000C00000F002F800F03EF80CA030C80838241800
:1000D0002D18A246671EAB4654465D46AC4201D180
:1000E00000F030F87E460F3E0FCCB6460126334274
:1000F00000D0FB1AA246AB46334318476C2E0000D3
:100100008C2E0000103A02D378C878C1FAD8520772
:1001100001D330C830C101D504680C6070470000BD
:100120000023002400250026103A01D378C1FBD813
:10013000520700D330C100D50B6070471FB51FBDFB
:1001400010B510BD00F03EFA1146FFF7F7FF00F0C2
:1001500077FA00F068FA03B4FFF7F2FF03BC02F08D
:1001600067FD000070B505460C46164602E00FCC50
:100170000FC5103E102EFAD2082E02D303CC03C5B1
:10018000083E042E07D301CC01C5361F03E02178B9
:100190002970641C6D1C761EF9D270BD0C480D4A86
:1001A000002100A1814200D902440B4802600B48A3
:1001B00080470B480047FEE7FEE7FEE7FEE7FEE765
:1001C000FEE7000007480849084A094B704700004D
:1001D000000000200000000008ED00E0A52600005F
:1001E000C1000000C8000020C8040020C802002090
:1001F000C8020020704700000FB4054910B503AADB
:10020000029800F0AFF910BC08BC04B01847000019
:1002100008000020002203098B422CD3030A8B42E2
:1002200011D300239C464EE003460B433CD40022EE
:1002300043088B4231D303098B421CD3030A8B4200
:1002400001D394463FE0C3098B4201D3CB01C01ACE
:10025000524183098B4201D38B01C01A5241430999
:100260008B4201D34B01C01A524103098B4201D387
:100270000B01C01A5241C3088B4201D3CB00C01AF4
:10028000524183088B4201D38B00C01A524143086C
:100290008B4201D34B00C01A5241411A00D2014691
:1002A0005241104670475DE0CA0F00D0494203102A
:1002B00000D34042534000229C4603098B422DD379
:1002C000030A8B4212D3FC22890112BA030A8B4221
:1002D0000CD3890192118B4208D3890192118B4270
:1002E00004D389013AD0921100E08909C3098B42F5
:1002F00001D3CB01C01A524183098B4201D38B0138
:10030000C01A524143098B4201D34B01C01A5241DA
:1003100003098B4201D30B01C01A5241C3088B421F
:1003200001D3CB00C01A524183088B4201D38B000A
:10033000C01A5241D9D243088B4201D34B00C01A94
:100340005241411A00D20146634652415B101046A9
:1003500001D34042002B00D54942704763465B10F1
:1003600000D3404201B50020C046C04602BD7047E0
:1003700070477047F0B5FF252D04C609C209FF2755
:1003800004462E400137CB093E4348402A402B40CB
:100390000746002A6BD0002B69D0AA4267D0AB4237
:1003A00065D0002800DA32460125ED0529432C43AB
:1003B00009022002090AD21A4B0C7F24E31A434C8B
:1003C000000A7C44E35C7D242404121914145B00AD
:1003D000A218884201D3521C00E0400049420C465A
:1003E0005C4324115C43DB016415E318040A5C439D
:1003F000C502200D0C4644436419250A5D432303BE
:10040000EC0C0D46654300030019EB184C42A34267
:1004100001D35B18401CD4052018002B07D05B00CB
:10042000C91804D3401C002901D1400840003F21D5
:1004300089048A4209D3002A08DC1106090F04D076
:10044000032149074018C00FC007F0BD0122410039
:10045000120689187F2252069142F6D205214907D9
:10046000C84201D59010F0BDFF20C005F0BD002F9F
:1004700000DA32461648AA4207D2AB4205D2190228
:10048000090E17D0F80FC007F0BDFF2563002D0639
:10049000AB42F9D84900A942F6D8AB4201D1A942F2
:1004A000F2D0A94201D1002101E061004908D00544
:1004B0000843F0BD1102090EFBD0FF200243D00516
:1004C000F0BD0A460146104654E700005F2B0000CD
:1004D0000000C07F0102C21504D00123DB071943CD
:1004E000002A0ADB9E239A1A02D40846D04070479D
:1004F000FF2241001206914201D900207047C01727
:10050000C04370471F22030C02D10F2200041CD0ED
:10051000030E01D10002083A030F01D10001121F9E
:10052000830F01D18000921E002801DB4000521E83
:10053000D2055118021251181922904004D3491CB7
:10054000002801D14908490008467047C10FC90772
:1005500000D04042012292071143D3E701218907CD
:10056000D0E77047084B70B50D467B4400F013F898
:100570000446284600F022F8002802D00020C0439C
:1005800070BD204670BD00009B27000001694A1C19
:1005900002610878704700B58FB002910021059183
:1005A000054901937944039111460490684600F08F
:1005B00028F80FB000BD0000E5FFFFFFC0688021F4
:1005C00008407047754600F037F8AE4605006946AA
:1005D0005346C008C000854618B020B5FFF7F2FDAD
:1005E00060BC00274908B6460026C0C5C0C5C0C5C6
:1005F000C0C5C0C5C0C5C0C5C0C5403D49008D46C9
:100600007047F8B506460024476880680090304679
:10061000F56803E00099B847641C3046A8470028F5
:10062000F8D12046F8BD10B50446C046C046204665
:10063000FFF791FD10BD00000048704764000020E6
:1006400010B502F02FF802F071FB002010BD7047CA
:10065000704710B5002001F0C9FC002001F0C6FC75
:100660000821402001F0EAF80921402001F0E6F8D5
:100670000A21402001F0E2F80B21402001F0DEF8D1
:1006800010BD704710B53D480078002806D00128FD
:100690001BD0022830D003285FD144E00C21402039
:1006A00001F038F90D21402001F0C8F80E2140205A
:1006B00001F0C4F80F21402001F0C0F8002001F043
:1006C00095FC002001F092FC48E00C21402001F054
:1006D000B5F80D21402001F01DF90E21402001F058
:1006E000ADF80F21402001F0A9F8002001F07EFCB8
:1006F000002001F07BFC31E00C21402001F09EF84D
:100700000D21402001F09AF80E21402001F002F95D
:100710000F21402001F092F8002001F067FC7620C4
:1007200001F064FC1AE00C21402001F087F80D2153
:10073000402001F083F80E21402001F07FF80F21C6
:10074000402001F0E7F8002001F050FC0C490D4A70
:100750001278885C01F04AFC00E000BF00BF074847
:100760000078401C054908700878C117890F0918DE
:1007700089108900411A014A117010BD2B00002018
:100780002C0000202900002070B5A8480088A84946
:10079000884202DD0846A5490880A648007800285E
:1007A00006D0012849D002287DD003287CD10DE154
:1007B0000C21402001F0AEF80D21402001F03EF860
:1007C0000E21402001F03AF80F21402001F036F8C8
:1007D0009948808895490988884204DC0A2140208C
:1007E00001F098F803E00A21402001F027F8924830
:1007F00000898E490988884204DB0B21402001F0E2
:1008000089F803E00B21402001F018F8002001F0E6
:10081000EDFB86480088894988420ADD491C8348E7
:100820000088FFF701FD86490C5C204601F0DEFBE5
:1008300002E0002001F0DAFBE7E00C21402000F0AC
:10084000FDFF0D21402001F065F80E21402000F051
:10085000F5FF0F21402000F0F1FF774840887349F1
:10086000098888420ADC744880887049098888426F
:1008700004DD0A21402001F04DF803E00A21402068
:1008800000F0DCFF6C4800896849098888420CDA6E
:100890006948C08865490988884206DB0B214020E9
:1008A00001F038F805E025E0AEE00B21402000F033
:1008B000C5FF6449087801F099FB5C48008863280B
:1008C00010DD642159480088FFF7AEFC05460A2177
:1008D000FFF7AAFC5A48405C80210843044601F017
:1008E00085FB06E05649097880221143084601F04D
:1008F0007DFB8AE00C21402000F0A0FF0D2140206C
:1009000000F09CFF0E21402001F004F80F21402050
:1009100000F094FF4C480088401C4B490880084672
:100920000088502801DB00200880474800882828DC
:1009300004DA0B21402000F0EDFF03E00B21402002
:1009400000F07CFF3948008890280ADA37490C8883
:10095000E117090F091909113A4A505C01F046FBE9
:100960001CE03248008890280CDB30480088A02822
:1009700008DA3449087A01F039FB0821402000F0F8
:10098000C9FF0BE02F49087A01F030FB0821402015
:1009900000F0C0FF0921402000F0BCFF2348008880
:1009A00009280EDD0A2121480088FFF73DFC054695
:1009B0000A21FFF739FC2248445C204601F016FB6F
:1009C00003E01F49087801F011FB1EE00C214020D4
:1009D00000F034FF0D21402000F030FF0E214020B8
:1009E00000F02CFF0F21402000F094FF002001F0C8
:1009F000FDFA0A210D480088FFF716FC1048445CF8
:100A0000204601F0F3FA00E000BF00BF094800787B
:100A1000401C084908700878C117890F0918891007
:100A20008900411A034A117070BD000000000020C7
:100A30000F2700002B0000204C000020E7030000DF
:100A40002C000020360000204000002070B55F48D8
:100A50000078002806D001282CD002285AD003287C
:100A60007ED183E00C21402000F054FF0D21402076
:100A700000F0E4FE0E21402000F0E0FE0F214020B7
:100A800000F0DCFE002001F0B1FA51480088514925
:100A900088420BDD4E4908887D21C900FFF7C4FB61
:100AA0004D490C5C204601F0A1FA02E0002001F063
:100AB0009DFA7AE00C21402000F0C0FE0D2140207C
:100AC00000F028FF0E21402000F0B8FE0F2140204A
:100AD00000F0B4FE002001F089FA3D480088632848
:100AE00010DD3B4908886421FFF79EFB05460A217B
:100AF000FFF79AFB3848405C80210843044601F028
:100B000075FA06E03449097880221143084601F05D
:100B10006DFA4AE00C21402000F090FE0D214020AB
:100B200000F08CFE0E21402000F0F4FE0F2140204A
:100B300000F084FE002001F059FA254800880928B9
:100B40000FDD234908880A21FFF76EFB05460A21BD
:100B5000FFF76AFB2048445C204601F047FA04E0B6
:100B600022E01D49087801F041FA1EE00C214020E6
:100B700000F064FE0D21402000F060FE0E214020B8
:100B800000F05CFE0F21402000F0C4FE002001F0C8
:100B90002DFA0F4908880A21FFF746FB0E48445CEE
:100BA000204601F023FA00E000BF00BF07480078AC
:100BB000401C064908700878C117890F0918891068
:100BC0008900411A014A117070BD000042000020E6
:100BD0004C000020E70300002C00002070B55F48A7
:100BE0000078002806D001282CD002285AD00328EB
:100BF0007ED183E00C21402000F08CFE0D214020AE
:100C000000F01CFE0E21402000F018FE0F214020B5
:100C100000F014FE002001F0E9F9514840885149E4
:100C200088420BDD4E4948887D21C900FFF7FCFA58
:100C30004D490C5C204601F0D9F902E0002001F09A
:100C4000D5F97AE00C21402000F0F8FD0D2140207C
:100C500000F060FE0E21402000F0F0FD0F2140204A
:100C600000F0ECFD002001F0C1F93D484088632808
:100C700010DD3B4948886421FFF7D6FA05460A2172
:100C8000FFF7D2FA3848405C80210843044601F05F
:100C9000ADF906E03449097880221143084601F095
:100CA000A5F94AE00C21402000F0C8FD0D214020AC
:100CB00000F0C4FD0E21402000F02CFE0F2140204A
:100CC00000F0BCFD002001F091F92548408809287A
:100CD0000FDD234948880A21FFF7A6FA05460A21B5
:100CE000FFF7A2FA2048445C204601F07FF904E0B7
:100CF00022E01D49087801F079F91EE00C2140201E
:100D000000F09CFD0D21402000F098FD0E214020B8
:100D100000F094FD0F21402000F0FCFD002001F0C8
:100D200065F90F4948880A21FFF77EFA0E48445CAE
:100D3000204601F05BF900E000BF00BF07480078E3
:100D4000401C064908700878C117890F09188910D6
:100D50008900411A014A117070BD00004300002053
:100D60004C000020E70300002C00002070B55F4815
:100D70000078002806D001282CD002285AD0032859
:100D80007ED183E00C21402000F0C4FD0D214020E5
:100D900000F054FD0E21402000F050FD0F214020B6
:100DA00000F04CFD002001F021F9514880885149A4
:100DB00088420BDD4E4988887D21C900FFF734FA4F
:100DC0004D490C5C204601F011F902E0002001F0D1
:100DD0000DF97AE00C21402000F030FD0D2140207B
:100DE00000F098FD0E21402000F028FD0F2140204A
:100DF00000F024FD002001F0F9F83D4880886328C8
:100E000010DD3B4988886421FFF70EFA05460A2168
:100E1000FFF70AFA3848405C80210843044601F095
:100E2000E5F806E03449097880221143084601F0CC
:100E3000DDF84AE00C21402000F000FD0D214020AB
:100E400000F0FCFC0E21402000F064FD0F2140204A
:100E500000F0F4FC002001F0C9F82548808809283A
:100E60000FDD234988880A21FFF7DEF905460A21AC
:100E7000FFF7DAF92048445C204601F0B7F804E0B7
:100E800022E01D49087801F0B1F81EE00C21402055
:100E900000F0D4FC0D21402000F0D0FC0E214020B9
:100EA00000F0CCFC0F21402000F034FD002001F0C8
:100EB0009DF80F4988880A21FFF7B6F90E48445C6F
:100EC000204601F093F800E000BF00BF074800781B
:100ED000401C064908700878C117890F0918891045
:100EE0008900411A014A117070BD000044000020C1
:100EF0004C000020E70300002C00002070B55F4884
:100F00000078002806D001282CD002285AD00328C7
:100F10007ED183E00C21402000F0FCFC0D2140201C
:100F200000F08CFC0E21402000F088FC0F214020B6
:100F300000F084FC002001F059F851480089514923
:100F400088420BDD4E4908897D21C900FFF76CF905
:100F50004D490C5C204601F049F802E0002001F008
:100F600045F87AE00C21402000F068FC0D2140207B
:100F700000F0D0FC0E21402000F060FC0F2140204A
:100F800000F05CFC002001F031F83D480089632846
:100F900010DD3B4908896421FFF746F905460A211F
:100FA000FFF742F93848405C80210843044601F0CD
:100FB0001DF806E03449097880221143084601F003
:100FC00015F84AE00C21402000F038FC0D214020AB
:100FD00000F034FC0E21402000F09CFC0F2140204A
:100FE00000F02CFC002001F001F8254800890928B8
:100FF0000FDD234908890A21FFF716F905460A2162
:10100000FFF712F92048445C204600F0EFFF04E0AF
:1010100022E01D49087800F0E9FF1EE00C21402085
:1010200000F00CFC0D21402000F008FC0E214020B7
:1010300000F004FC0F21402000F06CFC002000F0C8
:10104000D5FF0F4908890A21FFF7EEF80E48445CE6
:10105000204600F0CBFF00E000BF00BF074800784B
:10106000401C064908700878C117890F09188910B3
:101070008900411A014A117070BD0000450000202E
:101080004C000020E70300002C00002070B55F48F2
:101090000078002806D001282CD002285AD0032836
:1010A0007ED183E00C21402000F034FC0D21402053
:1010B00000F0C4FB0E21402000F0C0FB0F214020B7
:1010C00000F0BCFB002000F091FF5148008951491D
:1010D00088420BDD4E4908897D21C900FFF7A4F83D
:1010E0004D490C5C204600F081FF02E0002000F03A
:1010F0007DFF7AE00C21402000F0A0FB0D21402074
:1011000000F008FC0E21402000F098FB0F21402049
:1011100000F094FB002000F069FF3D48008963283F
:1011200010DD3B4908896421FFF77EF805460A2156
:10113000FFF77AF83848405C80210843044600F005
:1011400055FF06E03449097880221143084600F033
:101150004DFF4AE00C21402000F070FB0D214020A3
:1011600000F06CFB0E21402000F0D4FB0F2140204A
:1011700000F064FB002000F039FF254800890928B1
:101180000FDD234908890A21FFF74EF805460A2199
:10119000FFF74AF82048445C204600F027FF04E0AF
:1011A00022E01D49087800F021FF1EE00C214020BC
:1011B00000F044FB0D21402000F040FB0E214020B8
:1011C00000F03CFB0F21402000F0A4FB002000F0C9
:1011D0000DFF0F4908890A21FFF726F80E48445CE5
:1011E000204600F003FF00E000BF00BF0748007882
:1011F000401C064908700878C117890F0918891022
:101200008900411A014A117070BD0000460000209B
:101210004C000020E70300002C00002010B54048DF
:101220000078002806D001281BD0022830D00328DF
:1012300064D14CE00C21402000F06CFB0D214020DB
:1012400000F0FCFA0E21402000F0F8FA0F214020B7
:1012500000F0F4FA002000F0C9FE002000F0C6FE05
:101260004DE00C21402000F0E9FA0D21402000F073
:1012700051FB0E21402000F0E1FA0F21402000F048
:10128000DDFA002000F0B2FE002000F0AFFE36E0F4
:101290000C21402000F0D2FA0D21402000F0CEFABF
:1012A0000E21402000F036FB0F21402000F0C6FA4E
:1012B000002000F09BFE1B48807A002803D13E20CE
:1012C00000F094FE02E0772000F090FE17E00C2181
:1012D000402000F0B3FA0D21402000F0AFFA0E21BB
:1012E000402000F0ABFA0F21402000F013FB00205B
:1012F00000F07CFE002000F079FE00E000BF00BF9F
:1013000007480078401C064908700878C117890F03
:10131000091889108900411A014A117010BD000096
:10132000470000204C00002070B504460E461546CC
:101330002046002805DBC206D20E01219140144A46
:10134000116000BF3146204601F036FC012D0ED160
:101350002046002809DB00BF00BFC206D20E0121D3
:1013600091400C4A116000BF00BF00BF0FE0204653
:1013700000280ADBC206D20E01219140054A8032C4
:101380001160BFF34F8FBFF36F8F00BF00BF70BD01
:1013900080E200E000E100E07047000010B5014687
:1013A0000020084A084BDA62084ADA621A46126AD2
:1013B0000C239A438B000C2423401A43024B1A62DD
:1013C00010BD00005A5A000000000240A5A5000010
:1013D0001CB501211C2001F0B9F8012168460170FB
:1013E000417000218170C1700171012141716A4613
:1013F0000021084600F03CFA6A460121002000F076
:1014000037FA6A460221002000F032FA6A460321C8
:10141000002000F02DFA6A460421002000F028FA8E
:101420006A460521002000F023FA6A4606210020C2
:1014300000F01EFA6A460721002000F019FA6A46F9
:101440000821002000F014FA6A460921002000F06B
:101450000FFA6A460A21002000F00AFA6A460B21B8
:10146000002000F005FA6A460C21002000F000FA86
:101470006A460D21002000F0FBF96A460E2100208B
:1014800000F0F6F96A460F21002000F0F1F9002182
:10149000084600F0D3F90121002000F0CFF9022125
:1014A000002000F0CBF90321002000F0C7F904214F
:1014B000002000F0C3F90521002000F0BFF906214B
:1014C000002000F0BBF90721002000F0B7F9082147
:1014D000002000F0B3F90921002000F0AFF90A2143
:1014E000002000F0ABF90B21002000F0A7F90C213F
:1014F000002000F0A3F90D21002000F09FF90E213B
:10150000002000F09BF90F21002000F097F96A46B7
:101510000021402000F0ACF96A460121402000F093
:10152000A7F96A460221402000F0A2F96A46032189
:10153000402000F09DF96A460421402000F098F90F
:101540006A460621402000F093F96A4607214020B0
:1015500000F08EF96A460821402000F089F96A46B9
:101560000921402000F084F96A460A21402000F059
:101570007FF96A460B21402000F07AF96A460C2177
:10158000402000F075F96A460D21402000F070F906
:101590006A460E21402000F06BF96A460F21402078
:1015A00000F066F90021402000F048F901214020B8
:1015B00000F044F90221402000F040F903214020CE
:1015C00000F03CF90421402000F038F905214020CA
:1015D00000F034F90621402000F030F907214020C6
:1015E00000F02CF90821402000F028F909214020C2
:1015F00000F024F90A21402000F020F90B214020BE
:1016000000F01CF90C21402000F018F90D214020B9
:1016100000F014F90E21402000F010F90F214020B5
:1016200000F00CF96A460021802000F021F96A469A
:101630000121802000F01CF96A460221802000F080
:1016400017F96A460321802000F012F96A46042146
:10165000802000F00DF96A460521802000F008F98D
:101660006A460621802000F003F96A46072180209F
:1016700000F0FEF86A460821802000F0F9F86A467A
:101680000921802000F0F4F86A460A21802000F049
:10169000EFF86A460B21802000F0EAF86A460C2138
:1016A000802000F0E5F86A460D21802000F0E0F887
:1016B0000021802000F0C2F80121802000F0BEF857
:1016C0000221802000F0BAF80321802000F0B6F853
:1016D0000421802000F0B2F80521802000F0AEF84F
:1016E0000621802000F0AAF80721802000F0A6F84B
:1016F0000821802000F0A2F80921802000F09EF847
:101700000A21802000F09AF80B21802000F096F842
:101710000C21802000F092F80D21802000F08EF83E
:101720006A460021C02000F0A3F86A460121C020CB
:1017300000F09EF86A460221C02000F099F86A463F
:101740000321C02000F094F86A460621C02000F072
:101750008FF86A460721C02000F08AF86A460821FF
:10176000C02000F085F86A460921C02000F080F80A
:101770006A460A21C02000F07BF86A460B21C0208F
:1017800000F076F86A460C21C02000F071F86A4635
:101790000D21C02000F06CF86A460E21C02000F038
:1017A00067F86A460F21C02000F062F80021C020CF
:1017B00000F044F80121C02000F040F80221C020D0
:1017C00000F03CF80321C02000F038F80421C020CC
:1017D00000F034F80521C02000F030F80621C020C8
:1017E00000F02CF80721C02000F028F80821C020C4
:1017F00000F024F80921C02000F020F80A21C020C0
:1018000000F01CF80B21C02000F018F80C21C020BB
:1018100000F014F80D21C02000F010F80E21C020B7
:1018200000F00CF80F21C02000F008F81CBD0246A3
:101830001068C840C007C00F7047000070B504466C
:101840000D46044960180122294600F01FFC0020C3
:1018500070BD0000140D024070B504460D460349EA
:1018600060182946FFF7E3FF70BD0000040D024039
:1018700070B504460E4615461E49601800223146D2
:1018800000F004FC00201C496118B20088502A783E
:1018900018490C396018314600F0F8FB6A78154990
:1018A00010316018314600F0F1FBAA78114914316B
:1018B0006018314600F0EAFBEA780E4918316018EA
:1018C000314600F0E3FB2A790A492031601831469D
:1018D00000F0DCFB094880680121C903884369796D
:1018E000C9030122D2031140084304498860002043
:1018F00070BD00000C0D0240000C0240000F0240C1
:1019000010B50346024818188C000251002010BD83
:10191000000C024070B504460D46044960180122CF
:10192000294600F0B3FB002070BD0000100D0240FE
:1019300008B50020009000BF00980028FCD008BD2A
:10194000704770471CB501211C2000F0FFFD0021ED
:10195000684601708170C17008214020FFF76EFF5A
:1019600009214020FFF76AFF0A214020FFF766FFA8
:101970000B214020FFF762FF0C214020FFF75EFFA4
:101980000D214020FFF75AFF0E214020FFF756FFA0
:101990000F214020FFF752FF6A4608214020FFF741
:1019A00067FF6A4609214020FFF762FF6A460A2165
:1019B0004020FFF75DFF6A460B214020FFF758FFEC
:1019C0006A460C214020FFF753FF6A460D21402054
:1019D000FFF74EFF6A460E214020FFF749FF6A4697
:1019E0000F214020FFF744FF1CBD1CB501211C2026
:1019F00000F0ACFD0121684601704170002181704A
:101A0000C1700171012141716A4604214020FFF734
:101A10002FFF6A4605214020FFF72AFF6A4606216C
:101A20004020FFF725FF6A4607214020FFF720FFEF
:101A30001CBD704710B5074800F033FA012808D1E3
:101A4000044800F011FA0448007840210843024994
:101A5000087010BD000F0040100000201CB50821C8
:101A6000684601F0E7F80121092000F06FFD002130
:101A7000684681704170022101700021C1700171BE
:101A8000012141710B49C18069460B4800F011FAF0
:101A9000094800F0E9F90121074800F0F8F90122AE
:101AA00003211120FFF740FC0121034800F0E5F974
:101AB0001CBD0000FFBF0000000F004070477047D2
:101AC00070B504460D46002229462046143000F029
:101AD000DDFA002070BD70B504460D46012229468E
:101AE000201D00F0D3FA002070BD70B504460D46ED
:101AF0000026294620461030FFF799FE064630465C
:101B000070BD0000F0B587B005460C460127224A9B
:101B100007CA04AB07C300200390002C02D10420A5
:101B200007B0F0BD00206860608861780843E188F4
:101B30000843A1880843217808436860207840283A
:101B400002D02078C02824D1E088C117C90D091817
:101B50004912890004AA515A8EB2E168B140084680
:101B6000FEF7FCFC0290A068FEF7F8FC01900299D9
:101B7000FEF700FC03903F210906039801F006F9E7
:101B80000290FEF7A7FC80B2A86104212846FFF767
:101B9000A2FF00273846C3E7E82E000070B50446D0
:101BA0000D4600BF03212046FFF79FFF0028F9D014
:101BB0002068000A0002E9B20843206000BF01214A
:101BC0002046FFF792FF0028F9D001212046FFF7B9
:101BD00077FF002070BD000000B587B0102103A87A
:101BE00001F028F8062101A801F024F801210320C2
:101BF00000F0ACFC01211C2000F0A8FC002168468C
:101C0000017101AA0846FFF733FE022200210846AF
:101C1000FFF776FE01216846017101AA0020FFF757
:101C200027FE022201210020FFF76AFE00216846FC
:101C3000C181042141730021018200F03DFC059027
:101C40000121890203A8C180E121490206914021B6
:101C50006846017303A90248FFF754FF07B000BDAF
:101C6000004000407047000010B55C48407980217A
:101C70000840002807D0594840794006400E57498F
:101C80004871802466E0554840794021084000288A
:101C900007D052484079BF2108405049487140243C
:101CA00058E04E48407920210840002807D04B4892
:101CB0004079DF2108404949487120244AE04748DB
:101CC000407910210840002807D044484079EF218E
:101CD00008404249487110243CE0404840790821BE
:101CE0000840002807D03D484079F72108403B498B
:101CF000487108242EE03948407904210840002822
:101D000007D036484079FB21084034494871042403
:101D100020E03248407902210840002807D02F48AF
:101D20004079FD2108402D494871022412E02B48DA
:101D30004079C007C00F002807D028484079FE210D
:101D4000084026494871012404E0244844790020D1
:101D50002249487122480078012837D1102C1BD025
:101D600008DC012C28D0022C22D0042C1CD0082CFA
:101D700026D115E0202C0BD0402C05D0802C1FD173
:101D800018A0FEF739FA1FE01AA0FEF735FA1BE09B
:101D90001CA0FEF731FA17E01EA0FEF72DFA13E0A3
:101DA00020A0FEF729FA0FE022A0FEF725FA0BE0AB
:101DB00024A0FEF721FA07E027A0FEF71DFA03E0B2
:101DC000012000F0CBFE00BF00BF03E0012000F0C7
:101DD000C5FE00BF00BF00F069F910BD1100002072
:101DE0001A00002073686F7274206D656E752E2E58
:101DF0002E2E2E006C6F6E67206D656E752E2E2E4A
:101E00002E2E000073686F72742075702E2E2E2E89
:101E10002E0000006C6F6E672075702E2E2E2E2EF9
:101E20000000000073686F727420646F776E2E2E4E
:101E30002E2E2E006C6F6E6720646F776E2E2E2E06
:101E40002E2E000073686F727420656E7465722E9A
:101E50002E2E2E2E000000006C6F6E6720656E74B3
:101E600065722E2E2E2E2E0010B50446002211462D
:101E70002046143000F00AF910BD70B505460C4636
:101E80002246002128460C3000F000F970BD70B5E4
:101E900005460C4622460A2128460C3000F0F6F88A
:101EA00070BD10B50446002120461030FFF7BFFC7E
:101EB00010BD30B502467D23DB00D0683024A0433E
:101EC0000C78240130252C402043D060D0680124B8
:101ED0006402A0434C78640201256D022C4020432B
:101EE000D060D0686C10A0438C7824026D102C4018
:101EF0002043D060D0680824A043CC78E4000825B3
:101F00002C402043D060D0680424A0430C79A40066
:101F100004252C402043D060D0680224A0434C7993
:101F2000640002252C402043D06005E0D068000604
:101F3000C00F002800D004E018465C1EA3B20028A1
:101F4000F4D100BF002B01D1092030BD5068000C36
:101F50000004CC88204350600020F6E770477047AB
:101F60007047704770477047704770477047000070
:101F70000EB5062101A800F05DFE01211C2000F035
:101F8000E5FA0121062000F0E1FA002168464171DE
:101F9000017101AA07210020FFF76AFC0122072135
:101FA0000020FFF7ADFC01AA04210020FFF760FC30
:101FB000012204210020FFF7A3FC01AA0521002033
:101FC000FFF756FC012205210020FFF799FC1021A4
:101FD0006846017000214170C170817069460248F5
:101FE00000F07FF80EBD00000008004010B5044668
:101FF0000021094800F089F82146074800F081F8DF
:1020000000BF0421044800F063F80028F9D0012142
:10201000014800F07AF810BD0008004010B5FEF746
:1020200018FB18480078012804D0022805D004289D
:1020300025D105E0FEF7A8FB22E0FEF723FB1FE019
:1020400011480078030000F0A9FD071705080B0EE2
:1020500011141700FEF7FAFC0FE0FEF7BFFD0CE0CD
:10206000FEF784FE09E0FEF749FF06E0FFF70EF8F1
:1020700003E0FFF7D3F800E000BF00BF00E000BFBF
:1020800000BF10BD280000202900002010B5012A43
:1020900005D1036801248C402343036004E00368F6
:1020A00001248C40A343036010BD00000648407922
:1020B000002807D072B6054800782021084303495C
:1020C000087062B670470000110000201000002068
:1020D000024690680840002801D001207047002087
:1020E000FCE702460020106008784B7818438B7894
:1020F0001843CB78184340231843106000209060A9
:1021000070470246D160002070474160704708B5B3
:102110000020FFF743F9002000F024FA062000F029
:1021200047FA0021684601704170817000F01EF886
:102130000121032000F050F808BD0000FF20F53019
:1021400007490880FF202D304880FF20A530888077
:10215000FA20C880C82008810020887270470000DB
:102160004C00002010B5C046C04610BD70B50446F6
:1021700000252078030000F011FD0504050C10185F
:102180001C0018E0032000F05DFA032000F024FAA0
:1021900011E0032000F0FAF90DE00321084600F0F9
:1021A0005FFA032000F028FA05E0072000F0BCF9F0
:1021B00001E0042500BF00BF2078012100F00CF8E9
:1021C000207800F029FA607800F086F9A07800F015
:1021D00097F9284670BD0000F8B505460C46002763
:1021E00000F0D0FC002C01D0012000E000200446CB
:1021F0005148066A2B0000F0D1FC050417394D72D6
:1022000098004D48006840084000E107C90F0843A6
:102210004949086000BF002C05D04748C068000548
:10222000C00F0028F7D082E04348006A0121090767
:1022300088434018404908624048C0680321084369
:102240003E49C8603C480068022188436100022280
:10225000114008433849086000BF002C05D03648BB
:1022600000694006C00F0028F7D060E032480068DF
:1022700004218843A1000422114008432E4908602C
:1022800000BF002C05D02C484069C004C00F0028B6
:10229000F7D04CE02848006A01210907884340181C
:1022A0002549086225484038C0680321890308434E
:1022B00022494039C8602048006808218843E1006D
:1022C0000822114008431C49086000BF002C05D0BB
:1022D000194880694006C00F0028F7D027E016484B
:1022E000006A012109048843401813490862144810
:1022F000006840084000401C11490860142000F0AC
:10230000A9FC0D48006810218843210110221140CA
:1023100008430949086000BF002C05D00648C06B7F
:102320004003C00F0028F7D001E0042700BF00BF22
:10233000014806623846F8BD00200040C00D02404A
:102340000024004030B589B000241422564904A866
:10235000FDF708FF544814300068039000200090F7
:102360000190029051480188684601814F48418898
:102370006846C1804D488188684681804B48C18845
:1023800068464180494820300188684601804848B5
:1023900000680006450F2B0000F000FC05042E30FD
:1023A0003E4178004248C0684005400D69460989B1
:1023B000884201D1089C1EE03D48C0684005400DA0
:1023C0006946C988884201D1079C14E03848C06832
:1023D0004005400D69468988884201D1069C0AE083
:1023E0003348C0684005400D69464988884201D19C
:1023F000059C00E0049C4BE02E4C49E068460088B8
:102400002B4949698905890D884202D16846C489EA
:1024100001E0684684893BE00124E40338E0244875
:10242000C06B8007800F032829D1684600892049A6
:10243000C9684905490D884201D1089C20E06846D9
:10244000C0881B49C9684905490D884201D1079CCC
:1024500016E0684680881649C9684905490D8842D2
:1024600001D1069C0CE0684640881149C9684905BD
:10247000490D884201D1059C02E0049C00E00D4C0E
:102480000B48C06BC005000F444301E0002400BFAF
:1024900000BF074800684005410F2046C840044679
:1024A000204609B030BD0000F42E0000000C1000E2
:1024B000002000400048E80110B50024FFF742FF6B
:1024C000044604480068C004810F2046C840044602
:1024D000204610BD0020004010B5044600F052FB1D
:1024E00006480068072109028843210207221202D8
:1024F0001140084301490860002010BD0020004041
:1025000010B5044600F03EFB064800680321C902EE
:102510008843E1020322D2021140084301490860C6
:10252000002010BD0020004010B501460020064AE2
:10253000D26B0723DB039A43CB030724E403234036
:102540001A43014BDA6310BD0020004070B5044609
:102550000D462A4621460248FFF798FD002070BD2F
:102560002020004001464A00064BD2181288500530
:10257000400D054AD268D20AD2020243024BDA6009
:1025800000207047000C10000020004010B50146EC
:102590000020064A526903239B029A438B020324BC
:1025A000A40223401A43014B5A6110BD0020004091
:1025B00010B5044600F0E6FA0648406807214902D3
:1025C00088436102072252021140084301494860D2
:1025D000002010BD0020004010B501460020054A33
:1025E000126930239A430B01302423401A43014BD4
:1025F0001A6110BD0020004010B501460020054AB8
:10260000926930239A430B01302423401A43014B33
:102610009A6110BD0020004070B504460025264692
:1026200000F0B0FA06480068E02188437101E0221A
:10263000114008430249086000F02CF8284670BD9C
:102640000020004001460020044A126992089200CE
:102650008B079B0F1A43014B1A6170470020004003
:1026600030B5024600200A4B9B690C24A34394001A
:102670000C252C402343064CA36123469B699B08F1
:102680009B008C07A40F2343014CA36130BD0000C5
:102690000020004010B5FFF755FE0149086010BD4D
:1026A0000C00002010B50D4949888805800D0C49A3
:1026B0004969890A89020143094A51610749203958
:1026C00009894805400D1146C968C90AC902014374
:1026D000D160FFF7DFFF00F047FA10BD200C1000BB
:1026E00000200040704770477047000010B5002080
:1026F00000F03AF9012808D1002000F02BF9034836
:102700000078802108430149087010BD10000020A6
:10271000704770477047000010B504214020FFF754
:102720009BF8002827D162480078401CC0B260495D
:102730000870F02801DDF02008705D480078C82896
:1027400040D15C480078012804D0022809D0042830
:102750000CD107E002205749087001205649087043
:1027600008E000BF01205349087003E001205149EF
:10277000087000BF26E04E48007802281FDD4C4854
:102780000078C8281BDA4B480078012804D00228BA
:1027900003D004280ED10CE010E047480078401C1C
:1027A0004549087008460078062801DD01200870B8
:1027B00000BF03E001203F49087000BF00BF0020B8
:1027C0003B49087005214020FFF746F800280FD14B
:1027D0003A480078401CC0B238490870F02801DD42
:1027E000F020087036480088401C3549088002E017
:1027F00000203249087006214020FFF72DF80028FC
:1028000011D130480078401CC0B22E490870F02821
:1028100001DDF02008702B480078C82806D1002080
:102820002749088002E0002026490870072140203F
:10283000FFF712F800280FD123480078401CC0B2DF
:1028400021490870F02801DDF02008701E4800784A
:10285000C8282BD100BF29E01B480078022822DDC0
:1028600019480078C8281EDA12480078012804D0D8
:10287000022803D0042811D108E013E004200D49F8
:1028800008700D480078114908700BE002200949D2
:1028900008700E4800780849087003E001200549D7
:1028A000087000BF00BF00200749087010BD00007D
:1028B0002000002028000020290000202100002006
:1028C000000000202200002023000020260000201D
:1028D00070B500251C480478002C33D0F02020402F
:1028E000002805D020111949085C001DC5B201E07F
:1028F0001648055D1648445D72B6134800782040BE
:102900001149087062B6002D01D000F01FF92B00AC
:1029100000F044F9091615141312110E0B061600D7
:10292000FFF77CFBFFF7F8FE0BE000F0E1F808E0B2
:10293000FFF79AF905E004E003E002E001E000E0BF
:1029400000BF00BF70BD0000100000200C2F000071
:102950001C2F00000146002001228A40D243014B77
:102960005A6170470058004001460020034B1A6925
:102970001346CB40D807C00F7047000000580040F6
:1029800001460020044A1268120C12048BB21A434A
:10299000014B1A60704700000058004001460020BB
:1029A000044A5268120C12048BB21A43014B5A604B
:1029B000704700000058004000200449C9684908D9
:1029C0004900491C014AD16070470000005800408E
:1029D00000200449C9680122920291438918014AE2
:1029E000D16070470058004010B501460020284AC9
:1029F000D26803231B039A430B781B03032424038D
:102A000023401A43224BDA601A46D2685B159A4378
:102A10004B785B020124640223401A431C4BDA60AA
:102A20001A46D2689B159A438B781B026410234088
:102A30001A43174BDA601A46D26870239A43CB7850
:102A40001B01702423401A43114BDA601A46D268E6
:102A500008239A430B79DB00082423401A430C4BCC
:102A6000DA601A46D26804239A434B799B00042407
:102A700023401A43064BDA601A46D26802239A436F
:102A80008B795B00022423401A43014BDA6010BDAE
:102A9000005800407CB50721684600F0CBF80121C2
:102AA0000B20FFF753FD002168460170417105219D
:102AB000C170012181710021017181704170FFF7A6
:102AC00093FF0A4C2046FFF75BFF25462846FFF799
:102AD00065FF0020FFF73EFFFFF77AFF0122032189
:102AE0000520FEF721FCFFF767FF7CBD59F10000D0
:102AF00000201FE01149095C002919D00F49095C29
:102B0000491EC9B20D4A1154002911D1002806D01E
:102B1000012805D0022807D0032807D105E006E0E8
:102B20000221064A517002E001E000E000BF00BF50
:102B3000411CC8B20B28DDDB7047000058000020A4
:102B40007047704770477047704700001E20024969
:102B50000860E12008607047800F0040014908705C
:102B6000704700001A0000200549086A096A01221E
:102B7000120791438918024A116211460862704790
:102B8000002000400248034988600348886070477D
:102B90005A5A000000200040A5A5000030B4744639
:102BA000641E2578641CAB4204D3635D5B00E318AC
:102BB00030BC18471D46F8E710B5002819DB1A4A43
:102BC00003231B02D21883089B00D2588307DC0E14
:102BD000FF23A3409A438B071B0E8407E40EA340F8
:102BE0001A43114B032424021B198408A4001A5110
:102BF00018E00E4A03071B0F083B9B089B00D258A6
:102C00008307DC0EFF23A3409A438B071B0E840728
:102C1000E40EA3401A43054B0407240F083CA40804
:102C2000A4001A5110BD000000E100E01CED00E01E
:102C300000BF704710B50A460146002900D110BDFB
:102C400002E000230B70491C1346521E002BF8D1E2
:102C500000BFF4E770B505461148124948610020ED
:102C60008861052008610FE000200E4988610E4947
:102C70000E480068FDF7CEFA012109060C1A00BFC4
:102C800008488069A042FBD828466D1E0028EBD179
:102C900004480069400840000249086170BD000016
:102CA000FFFFFF0000E000E0A08601000C00002014
:102CB00070B5054611481249486100208861052019
:102CC000086110E000200E4988617D21C9000D488F
:102CD0000068FDF79FFA012109060C1A00BF084899
:102CE0008069A042FBD828466D1E0028EAD104481E
:102CF0000069400840000249086170BDFFFFFF0005
:102D000000E000E00C00002070B504460D46E0B283
:102D10000A2803D10D210448FEF740FFE1B2024822
:102D2000FEF73CFF204670BD00400040FFF7EFF982
:102D3000FEF74EFBFEF759FEFFF71AF9FEF78EFE7F
:102D4000FFF7A8FEFFF7FAF9FEF7FCFDFEF744FFD8
:102D500005A0FDF751FA7D200001FFF7A9FF01E072
:102D6000FFF7B6FDFCE7000053797374656D2053DF
:102D7000746172742E2E2E2E2E2E2E2E2E2E2E2E70
:102D80002E2E2E2E2E2E0D0A0000000070B50125CD
:102D90000400ED074C4020D4441A01D2001B09194D
:102DA000C60D4B00F2B2FF2A29D01B0E2CD0000218
:102DB0000C02D31A2C43DC402843051910D2280AF0
:102DC00002D3401C6D0611D0761EF6058019FF2A2D
:102DD00000DA70BDC00DC00570BD694000F022F87A
:102DE00001200543C541521C761CE8E764089C405D
:102DF000C90161408900E7D10124A043E4E71B0E2B
:102E0000440200D0034870BD002AFCD1C00FC007A7
:102E100070BD00BF0000C07F70B501250400ED0744
:102E20004C4022D4441A02D26C40001B0919C60D32
:102E30004B00F2B2FF2A4BD01B0E50D000020C0206
:102E4000D31A2C43DC40A843051B05D5AD0019D38C
:102E50006D08761E521E37D0F605280A01D2801959
:102E600070BD70416D0603D070BD6940FFF794FFDF
:102E70009C4009026140490001D0401E70BD012400
:102E8000A04370BD6D081DD001202B0C01D12D0475
:102E900010302B0E01D12D0208302B0F01D12D0146
:102EA000001DAB0F01D1AD00801CEB0F01D16D00F7
:102EB000401C6D00361A121A680AF5054019012ADD
:102EC00002DB70BD002070BDC036300AC00770BD87
:102ED0001B0E440201D1FF2B00D1024870BD002A15
:102EE000F0D070BD0000C07F0400000003000000AF
:102EF0000200000000093D0000127A000024F400E6
:102F00004086510100366E010080009600010202E9
:102F1000030303030404040404040404FFFEFDFB90
:102F2000F7EFDFBF7F8182838485868788898B8CDA
:102F30008D8E8F919293959697999A9C9D9FA0A222
:102F4000A3A5A7A8AAACAEB0B2B3B5B7B9BCBEC072
:102F5000C2C5C7C9CCCED1D4D7D9DCDFE2E6E9EC13
:102F6000F0F3F7FAFE000000882F000000000020B8
:102F70004C00000004010000D42F00004C00002091
:102F80007C040000200100000000000000FE0000A2
:102F90000000000000366E0100000000000000008C
:102FA0000000000000000100000000000000000020
:102FB000010101003F065B4F666D7D077F6F0001D9
:102FC00003070F1F3F7FFF0000000000000000000C
:042FD00000000000FD
:04000005000000C136
:00000001FF
