:020000040000FA
:10000000700400209D010000B7010000290C0000D1
:1000100000000000000000000000000000000000E0
:10002000000000000000000000000000BB01000014
:100030000000000000000000BD010000DD0E000017
:10004000C30D0000C50D0000C70D0000C90D000064
:10005000530600008B140000931400009514000058
:10006000C50C0000C70C0000CD0D0000CF0D000036
:10007000390C00003B0C00008514000087140000C0
:1000800089140000410C00008D1400008F14000042
:1000900091140000BF0D000033160000CB0D0000CE
:1000A0004F060000C10D00002F16000031160000A1
:1000B000C90C00003D0C0000C50600005106000000
:1000C00000F002F800F03EF80CA030C80838241800
:1000D0002D18A246671EAB4654465D46AC4201D180
:1000E00000F030F87E460F3E0FCCB6460126334274
:1000F00000D0FB1AA246AB4633431847381900001C
:1001000058190000103A02D378C878C1FAD85207BB
:1001100001D330C830C101D504680C6070470000BD
:100120000023002400250026103A01D378C1FBD813
:10013000520700D330C100D50B6070471FB51FBDFB
:1001400010B510BD00F03EFA1146FFF7F7FF00F0C2
:1001500077FA00F068FA03B4FFF7F2FF03BC01F08E
:10016000CDFA000070B505460C46164602E00FCCED
:100170000FC5103E102EFAD2082E02D303CC03C5B1
:10018000083E042E07D301CC01C5361F03E02178B9
:100190002970641C6D1C761EF9D270BD0C480D4A86
:1001A000002100A1814200D902440B4802600B48A3
:1001B00080470B480047FEE7FEE7FEE7FEE7FEE765
:1001C000FEE7000007480849084A094B704700004D
:1001D000000000200000000008ED00E045140000D1
:1001E000C100000070000020700400207002002098
:1001F00070020020704700000FB4054910B503AA33
:10020000029800F0AFF910BC08BC04B01847000019
:1002100004000020002203098B422CD3030A8B42E6
:1002200011D300239C464EE003460B433CD40022EE
:1002300043088B4231D303098B421CD3030A8B4200
:1002400001D394463FE0C3098B4201D3CB01C01ACE
:10025000524183098B4201D38B01C01A5241430999
:100260008B4201D34B01C01A524103098B4201D387
:100270000B01C01A5241C3088B4201D3CB00C01AF4
:10028000524183088B4201D38B00C01A524143086C
:100290008B4201D34B00C01A5241411A00D2014691
:1002A0005241104670475DE0CA0F00D0494203102A
:1002B00000D34042534000229C4603098B422DD379
:1002C000030A8B4212D3FC22890112BA030A8B4221
:1002D0000CD3890192118B4208D3890192118B4270
:1002E00004D389013AD0921100E08909C3098B42F5
:1002F00001D3CB01C01A524183098B4201D38B0138
:10030000C01A524143098B4201D34B01C01A5241DA
:1003100003098B4201D30B01C01A5241C3088B421F
:1003200001D3CB00C01A524183088B4201D38B000A
:10033000C01A5241D9D243088B4201D34B00C01A94
:100340005241411A00D20146634652415B101046A9
:1003500001D34042002B00D54942704763465B10F1
:1003600000D3404201B50020C046C04602BD7047E0
:1003700070477047F0B5FF252D04C609C209FF2755
:1003800004462E400137CB093E4348402A402B40CB
:100390000746002A6BD0002B69D0AA4267D0AB4237
:1003A00065D0002800DA32460125ED0529432C43AB
:1003B00009022002090AD21A4B0C7F24E31A434C8B
:1003C000000A7C44E35C7D242404121914145B00AD
:1003D000A218884201D3521C00E0400049420C465A
:1003E0005C4324115C43DB016415E318040A5C439D
:1003F000C502200D0C4644436419250A5D432303BE
:10040000EC0C0D46654300030019EB184C42A34267
:1004100001D35B18401CD4052018002B07D05B00CB
:10042000C91804D3401C002901D1400840003F21D5
:1004300089048A4209D3002A08DC1106090F04D076
:10044000032149074018C00FC007F0BD0122410039
:10045000120689187F2252069142F6D205214907D9
:10046000C84201D59010F0BDFF20C005F0BD002F9F
:1004700000DA32461648AA4207D2AB4205D2190228
:10048000090E17D0F80FC007F0BDFF2563002D0639
:10049000AB42F9D84900A942F6D8AB4201D1A942F2
:1004A000F2D0A94201D1002101E061004908D00544
:1004B0000843F0BD1102090EFBD0FF200243D00516
:1004C000F0BD0A460146104654E700002E16000013
:1004D0000000C07F0102C21504D00123DB071943CD
:1004E000002A0ADB9E239A1A02D40846D04070479D
:1004F000FF2241001206914201D900207047C01727
:10050000C04370471F22030C02D10F2200041CD0ED
:10051000030E01D10002083A030F01D10001121F9E
:10052000830F01D18000921E002801DB4000521E83
:10053000D2055118021251181922904004D3491CB7
:10054000002801D14908490008467047C10FC90772
:1005500000D04042012292071143D3E701218907CD
:10056000D0E77047084B70B50D467B4400F013F898
:100570000446284600F022F8002802D00020C0439C
:1005800070BD204670BD00006712000001694A1C62
:1005900002610878704700B58FB002910021059183
:1005A000054901937944039111460490684600F08F
:1005B00028F80FB000BD0000E5FFFFFFC0688021F4
:1005C00008407047754600F037F8AE4605006946AA
:1005D0005346C008C000854618B020B5FFF7F2FDAD
:1005E00060BC00274908B6460026C0C5C0C5C0C5C6
:1005F000C0C5C0C5C0C5C0C5C0C5403D49008D46C9
:100600007047F8B506460024476880680090304679
:10061000F56803E00099B847641C3046A8470028F5
:10062000F8D12046F8BD10B50446C046C046204665
:10063000FFF791FD10BD0000004870470C0000203E
:1006400010B500F0FFFE01F0D7F8002010BD704794
:100650007047704770B504460E4615462046002880
:1006600005DBC206D20E01219140144A116000BF81
:100670003146204601F006F8012D0ED12046002813
:1006800009DB00BF00BFC206D20E012191400C4A17
:10069000116000BF00BF00BF0FE0204600280ADB4A
:1006A000C206D20E01219140054A80321160BFF38B
:1006B0004F8FBFF36F8F00BF00BF70BD80E200E0BF
:1006C00000E100E07047000010B501460020084A34
:1006D000084BDA62084ADA621A46126A0C239A4315
:1006E0008B000C2423401A43024B1A6210BD0000F9
:1006F0005A5A000000000240A5A500001CB50121C7
:100700001C2000F0DFFD01216846017041700021CE
:100710008170C1700171012141716A460021084652
:1007200000F030FA6A460121002000F02BFA6A46F8
:100730000221002000F026FA6A460321002000F082
:1007400021FA6A460421002000F01CFA6A460521BD
:10075000002000F017FA6A460621002000F012FA85
:100760006A460721002000F00DFA6A4608210020A1
:1007700000F008FA6A460921002000F003FA6A46F0
:100780000A21002000F0FEF96A460B21002000F04B
:10079000F9F96A460C21002000F0F4F96A460D21AF
:1007A000002000F0EFF96A460E21002000F0EAF97F
:1007B0006A460F21002000F0E5F90021084600F00C
:1007C000D3F90121002000F0CFF90221002000F030
:1007D000CBF90321002000F0C7F90421002000F02C
:1007E000C3F90521002000F0BFF90621002000F028
:1007F000BBF90721002000F0B7F90821002000F024
:10080000B3F90921002000F0AFF90A21002000F01F
:10081000ABF90B21002000F0A7F90C21002000F01B
:10082000A3F90D21002000F09FF90E21002000F017
:100830009BF90F21002000F097F96A460021402023
:1008400000F0A0F96A460121402000F09BF96A46B9
:100850000221402000F096F96A460321402000F072
:1008600091F96A460421402000F08CF96A4606217D
:10087000402000F087F96A460721402000F082F905
:100880006A460821402000F07DF96A46092140208F
:1008900000F078F96A460A21402000F073F96A46B0
:1008A0000B21402000F06EF96A460C21402000F038
:1008B00069F96A460D21402000F064F96A460E216C
:1008C000402000F05FF96A460F21402000F05AF9FD
:1008D0000021402000F048F90121402000F044F9B7
:1008E0000221402000F040F90321402000F03CF9B3
:1008F0000421402000F038F90521402000F034F9AF
:100900000621402000F030F90721402000F02CF9AA
:100910000821402000F028F90921402000F024F9A6
:100920000A21402000F020F90B21402000F01CF9A2
:100930000C21402000F018F90D21402000F014F99E
:100940000E21402000F010F90F21402000F00CF99A
:100950006A460021802000F015F96A4601218020B6
:1009600000F010F96A460221802000F00BF96A4677
:100970000321802000F006F96A460421802000F05F
:1009800001F96A460521802000F0FCF86A4606213C
:10099000802000F0F7F86A460721802000F0F2F886
:1009A0006A460821802000F0EDF86A46092180207F
:1009B00000F0E8F86A460A21802000F0E3F86A4671
:1009C0000B21802000F0DEF86A460C21802000F028
:1009D000D9F86A460D21802000F0D4F8002180204B
:1009E00000F0C2F80121802000F0BEF80221802032
:1009F00000F0BAF80321802000F0B6F8042180202E
:100A000000F0B2F80521802000F0AEF80621802029
:100A100000F0AAF80721802000F0A6F80821802025
:100A200000F0A2F80921802000F09EF80A21802021
:100A300000F09AF80B21802000F096F80C2180201D
:100A400000F092F80D21802000F08EF86A46002117
:100A5000C02000F097F86A460121C02000F092F80B
:100A60006A460221C02000F08DF86A460321C020AA
:100A700000F088F86A460621C02000F083F86A4634
:100A80000721C02000F07EF86A460821C02000F04F
:100A900079F86A460921C02000F074F86A460A21F4
:100AA000C02000F06FF86A460B21C02000F06AF801
:100AB0006A460C21C02000F065F86A460D21C0206E
:100AC00000F060F86A460E21C02000F05BF86A462C
:100AD0000F21C02000F056F80021C02000F044F89B
:100AE0000121C02000F040F80221C02000F03CF8B5
:100AF0000321C02000F038F80421C02000F034F8B1
:100B00000521C02000F030F80621C02000F02CF8AC
:100B10000721C02000F028F80821C02000F024F8A8
:100B20000921C02000F020F80A21C02000F01CF8A4
:100B30000B21C02000F018F80C21C02000F014F8A0
:100B40000D21C02000F010F80E21C02000F00CF89C
:100B50000F21C02000F008F81CBD02461068C840F4
:100B6000C007C00F7047000070B504460D46044929
:100B700060180122294600F079F9002070BD0000BC
:100B8000140D024070B504460E4615461E49601805
:100B90000022314600F06AF900201C496118B200B9
:100BA00088502A7818490C396018314600F05EF9EF
:100BB0006A78154910316018314600F057F9AA7863
:100BC000114914316018314600F050F9EA780E49A5
:100BD00018316018314600F049F92A790A49203164
:100BE0006018314600F042F9094880680121C903C4
:100BF00088436979C9030122D2031140084304499B
:100C00008860002070BD00000C0D0240000C024006
:100C1000000F024010B50346024818188C0002511C
:100C2000002010BD000C024008B50020009000BF5D
:100C300000980028FCD008BD70477047704700003E
:100C400010B5064800F05EF8012805D1034800F011
:100C50003CF801200249087010BD0000000F004060
:100C6000000000201CB50821684600F049FD012164
:100C7000092000F027FB01216846817000214170A6
:100C8000032101700021C1700171012141710B49E3
:100C9000C18069460A4800F03DF8094800F015F89F
:100CA0000121074800F024F8012203211120FFF759
:100CB000D1FC0121024800F011F81CBDFF7F0000AB
:100CC000000F004070477047704710B5044600227F
:100CD00011462046143000F0C9F810BD70B5054625
:100CE0000C462246002128460C3000F0BFF870BDAB
:100CF00070B505460C4622460A2128460C3000F005
:100D0000B5F870BD10B50446002120461030FFF73D
:100D100024FF10BD30B502467D23DB00D0683024AF
:100D2000A0430C78240130252C402043D060D068AB
:100D300001246402A0434C78640201256D022C401A
:100D40002043D060D0686C10A0438C7824026D10D2
:100D50002C402043D060D0680824A043CC78E40025
:100D600008252C402043D060D0680424A0430C798F
:100D7000A40004252C402043D060D0680224A04366
:100D80004C79640002252C402043D06005E0D068F7
:100D90000006C00F002800D004E018465C1EA3B275
:100DA0000028F4D100BF002B01D1092030BD5068CC
:100DB000000C0004CC88204350600020F6E7704708
:100DC000704770477047704770477047704770476B
:100DD0000EB5062101A800F093FC01211C2000F0B3
:100DE00071FA0121062000F06DFA00216846417178
:100DF000017101AA07210020FFF7C4FE012207218B
:100E00000020FFF707FF01AA04210020FFF7BAFE28
:100E1000012204210020FFF7FDFE01AA0521002088
:100E2000FFF7B0FE012205210020FFF7F3FE0121AC
:100E300068460171417100218171C1710172012106
:100E4000417201AA0421C020FFF79CFE10216846D0
:100E50000170822141700021C17081706946024891
:100E600000F013F80EBD00000008004010B5012A84
:100E700005D1036801248C402343036004E0036828
:100E800001248C40A343036010BD02460020106083
:100E900008784B7818438B781843CB781843402355
:100EA0001843106000209060704708B50020FFF7DD
:100EB0000BFC002000F012FA062000F049FA002195
:100EC000684601704170817000F00CF8112000F04C
:100ED0002BFA0121022000F03BF808BD10B5C046F6
:100EE000C04610BD70B5044600252078030000F010
:100EF000BBFB0504050C10181C0018E0032000F0D3
:100F000071FA032000F038FA11E0032000F0FAF93A
:100F10000DE00321084600F073FA032000F03CFACC
:100F200005E0072000F0BCF901E0042500BF00BF88
:100F30002078012100F00CF8207800F03DFA60786C
:100F400000F086F9A07800F097F9284670BD0000FF
:100F5000F8B505460C46002700F07AFB002C01D0BE
:100F6000012000E0002004465148066A2B0000F0F2
:100F70007BFB050417394D7298004D480068400806
:100F80004000E107C90F08434949086000BF002C31
:100F900005D04748C0680005C00F0028F7D082E0A0
:100FA0004348006A01210907884340184049086204
:100FB0004048C068032108433E49C8603C48006877
:100FC0000221884361000222114008433849086029
:100FD00000BF002C05D0364800694006C00F00282D
:100FE000F7D060E03248006804218843A100042261
:100FF000114008432E49086000BF002C05D02C4842
:101000004069C004C00F0028F7D04CE02848006AAF
:1010100001210907884340182549086225484038BE
:10102000C06803218903084322494039C860204829
:10103000006808218843E1000822114008431C4948
:10104000086000BF002C05D0194880694006C00F19
:101050000028F7D027E01648006A012109048843D8
:101060004018134908621448006840084000401CBA
:1010700011490860142000F053FB0D48006810214E
:10108000884321011022114008430949086000BF2C
:10109000002C05D00648C06B4003C00F0028F7D0D5
:1010A00001E0042700BF00BF014806623846F8BDD2
:1010B00000200040C00D02400024004030B589B03F
:1010C00000241422564904A8FFF74CF85448143061
:1010D0000068039000200090019002905148018820
:1010E000684601814F4841886846C1804D488188E3
:1010F000684681804B48C188684641804948203015
:10110000018868460180484800680006450F2B00AA
:1011100000F0AAFA05042E303E4178004248C0682B
:101120004005400D69460989884201D1089C1EE0AE
:101130003D48C0684005400D6946C988884201D1D4
:10114000079C14E03848C0684005400D694689880E
:10115000884201D1069C0AE03348C0684005400D32
:1011600069464988884201D1059C00E0049C4BE017
:101170002E4C49E0684600882B4949698905890D4C
:10118000884202D16846C48901E0684684893BE010
:101190000124E40338E02448C06B8007800F032853
:1011A00029D1684600892049C9684905490D884206
:1011B00001D1089C20E06846C0881B49C9684905E0
:1011C000490D884201D1079C16E06846808816497F
:1011D000C9684905490D884201D1069C0CE0684662
:1011E00040881149C9684905490D884201D1059CCB
:1011F00002E0049C00E00D4C0B48C06BC005000FE2
:10120000444301E0002400BF00BF074800684005D8
:10121000410F2046C8400446204609B030BD0000BA
:10122000D4190000000C1000002000400048E80124
:1012300010B50024FFF742FF044604480068C004CC
:10124000810F2046C8400446204610BD00200040C3
:1012500010B5044600F0FCF90648006807210902B1
:101260008843210207221202114008430149086005
:10127000002010BD0020004010B5044600F0E8F941
:10128000064800680321C9028843E1020322D20212
:101290001140084301490860002010BD00200040B3
:1012A00010B501460020064AD26B0723DB039A43A0
:1012B000CB030724E40323401A43014BDA6310BD38
:1012C0000020004070B504460D462A4621460248DB
:1012D000FFF7CCFD002070BD2020004001464A00F1
:1012E000064BD21812885005400D054AD268D20A22
:1012F000D2020243024BDA6000207047000C10005B
:101300000020004010B501460020064A5269032320
:101310009B029A438B020324A40223401A43014BED
:101320005A6110BD0020004001464A00064BD21809
:1013300012889005800D054A5269920A9202024372
:10134000024B5A6100207047000C10000020004042
:1013500010B5044600F07CF90648406807214902B0
:101360008843610207225202114008430149486044
:10137000002010BD0020004010B501460020054AA5
:10138000126930239A430B01302423401A43014B46
:101390001A6110BD0020004010B501460020054A2A
:1013A000926930239A430B01302423401A43014BA6
:1013B0009A6110BD0020004070B504460025264605
:1013C00000F046F906480068E02188437101E022F8
:1013D000114008430249086000F02CF8284670BD0F
:1013E0000020004001460020044A12699208920041
:1013F0008B079B0F1A43014B1A6170470020004076
:1014000030B5024600200A4B9B690C24A34394008C
:101410000C252C402343064CA36123469B699B0863
:101420009B008C07A40F2343014CA36130BD000037
:101430000020004010B5FFF741FE0149086010BDD3
:101440000800002010B50D4949888805800D0C4919
:101450004969890A89020143094A516107492039CA
:1014600009894805400D1146C968C90AC9020143E6
:10147000D160FFF7DFFF00F0DDF810BD200C100099
:1014800000200040704770477047704770477047B2
:1014900070477047704700B587B0062105A800F077
:1014A0002FF9102101A800F02BF901211C20FFF7D2
:1014B00009FF00216846017505AA09210020FFF7F0
:1014C00061FB012209210020FFF7A4FB01216846EE
:1014D000017505AA0A210020FFF754FB01220A2109
:1014E0000020FFF797FB01210020FFF7EBFE4021D2
:1014F000684601710021C18004214171E121490246
:101500000491012149020181FFF792FE039001A994
:101510000120800700F024F807B000BD70B5044634
:101520000D460022294620461430FFF79FFC00207C
:1015300070BD70B504460D4601222946201DFFF7F7
:1015400095FC002070BD70B504460D460026294666
:1015500020461030FFF701FB0646304670BD000004
:10156000F0B585B005460C460127214903C9049111
:10157000039000200290002C02D1042005B0F0BDA1
:1015800000206860608861780843A188084321785A
:10159000084368602078402802D02078C02824D1F1
:1015A000A088C117C90D09184912890003AA515A08
:1015B0008EB2E168B1400846FEF7D0FF0190A06806
:1015C000FEF7CCFF00900199FEF7D4FE02903F2178
:1015D0000906029800F050F90190FEF77BFF80B2F7
:1015E000A86104212846FFF7A4FF00273846C5E775
:1015F000EC19000070B504460D4600BF03212046DB
:10160000FFF7A1FF0028F9D02068000A0002E9B224
:101610000843206000BF01212046FFF794FF002807
:10162000F9D001212046FFF779FF002070BD7047F7
:10163000704770470549086A096A012212079143F9
:101640008918024A11621146086270470020004062
:101650000248034988600348886070475A5A00006E
:1016600000200040A5A5000030B47446641E257813
:10167000641CAB4204D3635D5B00E31830BC1847C5
:101680001D46F8E710B5002819DB1A4A03231B0290
:10169000D21883089B00D2588307DC0EFF23A34097
:1016A0009A438B071B0E8407E40EA3401A43114B89
:1016B000032424021B198408A4001A5118E00E4ABE
:1016C00003071B0F083B9B089B00D2588307DC0EC7
:1016D000FF23A3409A438B071B0E8407E40EA3400D
:1016E0001A43054B0407240F083CA408A4001A5110
:1016F00010BD000000E100E01CED00E000BF7047FD
:1017000010B50A460146002900D110BD02E00023B1
:101710000B70491C1346521E002BF8D100BFF4E792
:1017200070B50546114812494861002088610520BE
:1017300008610FE000200E4988610E490E480068DC
:10174000FEF768FD012109060C1A00BF08488069F0
:10175000A042FBD828466D1E0028EBD10448006942
:10176000400840000249086170BD0000FFFFFF0013
:1017700000E000E0A08601000800002070B50546EA
:10178000114812494861002088610520086110E075
:1017900000200E4988617D21C9000D480068FEF7D0
:1017A00039FD012109060C1A00BF08488069A042D2
:1017B000FBD828466D1E0028EAD10448006940087D
:1017C00040000249086170BDFFFFFF0000E000E03B
:1017D0000800002070B504460D46E0B20A2803D187
:1017E0000D214007FFF706FFE1B201208007FFF758
:1017F00001FF204670BD0000FFF757FB7D20000170
:10180000FFF7BCFFFEF77AFFFFF7E2FAFFF72AFACD
:10181000FFF741FE07A0FEF7EFFC09E00E48007855
:10182000002805D000200C4908700CA0FEF7E4FC4D
:10183000F4E7000053797374656D2053746172741A
:101840002E2E2E2E2E2E2E2E2E2E2E2E2E2E2E2EB8
:101850002E2E0D0A00000000000000206675636B4C
:101860002E2E2E2E2E2E2E2E2E2E2E2E2E2E2E2E98
:101870002E2E0D0A0000000070B501250400ED07B2
:101880004C4020D4441A01D2001B0919C60D4B004C
:10189000F2B2FF2A29D01B0E2CD000020C02D31A60
:1018A0002C43DC402843051910D2280A02D3401CDF
:1018B0006D0611D0761EF6058019FF2A00DA70BD7C
:1018C000C00DC00570BD694000F022F8012005433D
:1018D000C541521C761CE8E764089C40C901614080
:1018E0008900E7D10124A043E4E71B0E440200D0A5
:1018F000034870BD002AFCD1C00FC00770BD00BFF7
:101900000000C07F70B501250400ED074C4022D4D3
:10191000441A02D26C40001B0919C60D4B00F2B2EA
:10192000FF2A4BD01B0E50D000020C02D31A2C43BE
:10193000DC40A843051B05D5AD0019D36D08761E04
:10194000521E37D0F605280A01D2801970BD7041A9
:101950006D0603D070BD6940FFF794FF9C400902FB
:101960006140490001D0401E70BD0124A04370BDFC
:101970006D081DD001202B0C01D12D0410302B0E31
:1019800001D12D0208302B0F01D12D01001DAB0F0D
:1019900001D1AD00801CEB0F01D16D00401C6D002A
:1019A000361A121A680AF5054019012A02DB70BDC1
:1019B000002070BDC036300AC00770BD1B0E440247
:1019C00001D1FF2B00D1024870BD002AF0D070BDBC
:1019D0000000C07F00093D0000127A000024F400DE
:1019E0004086510100366E01008000960400000020
:1019F000030000008182838485868788898B8C8D93
:101A00008E8F919293959697999A9C9D9FA0A2A351
:101A1000A5A7A8AAACAEB0B2B3B5B7B9BCBEC0C298
:101A2000C5C7C9CCCED1D4D7D9DCDFE2E6E9ECF02A
:101A3000F3F7FAFE541A0000000000200C0000002A
:101A400004010000601A00000C0000206404000083
:101A500020010000000000000000000000366E01C0
:04000005000000C136
:00000001FF
